:100000000C9432080C945A080C945A080C945A0810
:100010000C945A080C945A080C945A080C945A08D8
:100020000C945A080C945A080C945A080C945A08C8
:100030000C945A080C945A080C945A080C945A08B8
:100040000C944B0C0C945A080C94190C0C94F30B54
:100050000C945A080C945A080C945A080C945A0898
:100060000C945A080C945A0800000000250028003F
:100070002B00000000000000000000000000000055
:100080000000000000000000000000000000000070
:100090000000000000000000000000000000000060
:1000A0000000000000000000000000000000380018
:1000B00000000000000000000000000F00007800B9
:1000C00000000000000000000000001F8000F80099
:1000D0000000000000000000000000FFC003F80066
:1000E0000000000000010000000001FFE01FF80018
:1000F000000000000000C000000003FF701FF000BF
:100100000000000000007E00000003FF78380000BF
:100110000000000000003F00000003FFF8F00000B6
:100120000000000000000FC0000003F0F8C1F8005C
:1001300000000000000003F0000003F3F38FFE0056
:1001400000000000000001F8000003FFF3BFFFC043
:10015000000000030000003E000003FFFA7FFFF0F4
:100160000000000F0000003FE00000E7FBFFFFF091
:10017000000000070000003FF00000E7FBFFFFE089
:10018000000000030000001FFC0000FFFBFFFFE079
:10019000000000030000000FFE00007FFBCFFFE027
:1001A0000000000300000003FE00003FF9CFFFE065
:1001B0000000000300000001FF80000FF1FFFFE0DE
:1001C0000000000300000000FFC000003DEFFFE062
:1001D00000000003000000007FE00003FFF7FFC005
:1001E00000000003000000003FE0003FFFFFFF8031
:1001F00000000003000000001FE0007EFFFFFF0082
:1002000000000003000000000FE0003EFFF1FF00CF
:1002100000000003000000000FE0003FFFBFFC00F3
:10022000000000030000000007F0003E7F3FF838A8
:10023000000000030000000007F0007E7FC0007C8B
:10024000000000030000000007F0007E3FC001FE38
:10025000000000030000000007F0007F1FDFFFFF29
:10026000000000030000000003F0007F87EFFFFFA5
:10027000800000030000000003F0007FE3F1FFFFB7
:10028000000000030000000003F00187FC78FE007E
:10029000000000030000000003F00301F8FF00006D
:1002A000000000030000000003F00E0001FF8000CA
:1002B000000000030000000003F00C0003FF8000BA
:1002C000000000030000000003F01C000F98000075
:1002D000000000030000000003F038007F9C0000D5
:1002E000000000030000000003F030003FDC0000CD
:1002F00000000003000007FE07E030001FFE0000C2
:100300000000000300000FFF87F070001FFC0000DA
:100310000000000300001FFFC7F000000FFE0000F8
:100320000000000300003FFFE7E000000FF00000C6
:100330000000000300007FFFF3E07FFFEFE000001C
:10034000000000030000FF9FFBCFFFFFC618000066
:10035000000000030003FFCFF9DFFFFFC00800002B
:1003600000000003000EFFDFFDFFFFFE00000000A5
:100370000000000301F0FFFFFDFFFE000000000091
:100380000000000303F8FFFFFDFFFC000000000079
:100390000000000307FCFFDFFDFFF8000000000085
:1003A000000000030FFEC7DFFDFF8000000000001B
:1003B000000000033E7FF7DFFFFE3000000000007A
:1003C000000000033E7FF7DFCFF03800060000009A
:1003D000000000037E7FFFFF9FE038001FC0000089
:1003E000000000037F1FFFFE3E003C003BE00000DA
:1003F000000000037F8FFFFE7C003C003BE000001C
:10040000000000037F87FE3FF8003C007FF0000003
:10041000000000037FA1F81FFC001C007CF000001E
:10042000000000033FFFF00FFC000C007E7C00008A
:10043000000000033FFFF00FFE000C007F3C0000B7
:10044000000000031FFFF00FFF000C003F800000C2
:10045000000000030FFFF00E7F800C003FC0000083
:100460000000000307FFF80E3FC00C001FF0000063
:100470000000000303FFF81E1FE00C000FF0000057
:1004800000000003003FFE3F87E03C000FBE00007D
:10049000000000030047FFFFF0603C000FBF0000BA
:1004A000000000030031FFFFF8E038000FBF8000BC
:1004B000000000030611FFFDFFE038000F1F800061
:1004C000000000030E13FFF9FFE030000E0780006C
:1004D000000000033CD7FDFDFFE030001CC780009A
:1004E0000000000339EFFBFFFFE030003DFF80001C
:1004F0000000000373EFFBFFFFE060003DFF8000A2
:100500000000000367EFFBFFFFC0C0003FFF80005B
:10051000000000038FF7E3FFFF80E0001BFF800077
:10052000000000039FF3E1FFE001C0003BFFC000BB
:10053000000000033FF1F9FFC00380007FFFE000EF
:10054000000000037FF1FDFF800700001FFFF8009F
:1005500000000003FFF1FFFF800F00003FFFFC00E1
:1005600000000003FFE0FFFF000E00003FFF9C00C3
:1005700000000003FF800FFF0006000003F67C0070
:1005800000000003FF001F7C00F8000009F03C00A1
:1005900000000003FE003F3801FC00001CF81C00B6
:1005A00000000003FC00FF9003FE00003DFF9C00E4
:1005B00000000003F800FFC00FFF000073FFCC0035
:1005C00000000003F000FFE00FFF000061FFFC608F
:1005D00000000003F001FFF01FFF0000C0FFFFF06C
:1005E00000000007E001FFBFFFFF8000E0007FF098
:1005F00000000003C001FF3FFFFF8000C0003FF884
:10060000000000018001FE7FFFFF800080001FFCD2
:10061000000000070000FE7FFFFF800080000CFC50
:10062000000000030000F07FFFFF00008000047C5A
:100630000000000300007E3FFFFC0001800003FC7F
:100640000000000300007E3FFFFE0001800001F07B
:100650000000000300003FDFBFFF800180000000BA
:100660000000000300003FCFBFFFC00100000000FA
:100670000000000300007FCFFFFFE001000000004A
:10068000000000030000FFCFCFFFC001800000008A
:1006900000000003001EFFEFC7FFC00100000000C4
:1006A0000000000301FCFFE7F07F80030000000072
:1006B0000000000707C0FFF3F8FF000F0000000074
:1006C000000000030F807FF3F9FE000E0000000021
:1006D000000000011F003FF3FBFE000C00000000C3
:1006E00000000001380003F9FBF3E01800000000EF
:1006F00000000001F0003CF9FBEFF03000000000CA
:1007000000000001C0007DF9FBCFF0700000180070
:10071000000000018000FFF8FBCFFCC00003F800E0
:10072000000000018000FFFCFBFFFC000007F80058
:10073000000000018000FFDEFBFF7C00003FFC00AA
:10074000000000010000FFDEF3FF3C00007FFE0020
:10075000000000010000FFC2F3FF1C0000FFFE00CC
:10076000000000010000FBE3FFFF3C0000FFFF0072
:10077000000000010000F9EFFFFE3C0000FFFF0059
:10078000000000010000FCFFFFF9FC0000DC7F001E
:10079000000000010001FE7FFFE3FE0000FFBF003C
:1007A000000000010001FE3FFFC7FE0000FF9F00A8
:1007B000000000010003FF3FFFCFFF0000FFBF006C
:1007C0000000000100FFFFCFFFFFFF8000FFFE00E1
:1007D000000000010FE07FFF87FFFF8000FFC000E7
:1007E000000000011F803FFF03FFCE0000FF00005C
:1007F00000000001F0000FFE01FC1E0000F00000F0
:1008000000000001E07FC7FC01FC3E0000C1FFE0EA
:1008100000000001C1FFF7F801FFFC00018DFFF0AF
:100820000000000187FFFBFC01FFF8000F1EFFF82E
:10083000000000013F8003FC01FFF0000E7E7FFE00
:1008400000000001F80007FE01FFE2001E7F3FFCF0
:1008500000000001E0FF9FDF03FFC6601CFF8FFE6A
:10086000000000018FC0FF3FC7EFE3783E1FCFFFBE
:1008700000000001DF80FE7FEFE7F1BC7F0FCFFFBC
:10088000C0000001FC00FDFFFFE3F19E3FC3E7FF56
:1008900000000001F801F1F9FFF1FDCF9FE1FFFF3A
:1008A000000000018001F3F1FFF9FDC19FF8FFE0B6
:1008B000000000010001FFE3FDFEFFC03FF0000368
:1008C000800000010000FFE3FDFF7FC07FC0000744
:1008D000800000010000FFE7FCFF0780FFCFFFFF63
:1008E000000000010000FFEFCE7F07007E7FFFFECB
:1008F000000000011FFEFFFFCE7F3E003E7FFFFC99
:1009000000000001FFFFFFF1CE3F3E003FFC07F873
:1009100000000001FFFF3FE18E3F3E001FFC07F09B
:1009200000000001E0000E038E3F3E000FFFF800C4
:1009300000000001FFFF87FF8E3F1E0004FE3E0007
:1009400000000001FFFFC7FF8F3FBE0000FE1E003A
:1009500000000001FFFFC7FF8F9FFE0000FC3F80EB
:100960000000000187FF8FFF8F9FFE000079FFC00E
:100970000000000100063FFF8FDFFE00007FFFC088
:100980000000000100007FFF8F8FFC00001FFFE0D0
:10099000000000018000FFFF8F1F0000000FFFF02C
:1009A00000000001C001FFFF8E3F81000001FFE059
:1009B00000000001E001FFFF8E7FC3800000FF8088
:1009C00000000001F800FFF38E7FE7C000007F0009
:1009D00000000001FF80FFE78FFFC4E0000000007F
:1009E0000000000187E1FFDF8FFFCE1C0000000048
:1009F00000000001F1F8FFFF8FFFCFCF00000000E3
:100A000000000001FE1CFFBE43E01FF38000000059
:100A100000000001FF067F3E63C13FF1E0000000DF
:100A200000000001FF833E3CF3811FF8F00000004E
:100A300000000001FFE18039FF0007FE78000000A0
:100A400000000001FFFE601FFE1C03FF1C000000F1
:100A5000000000010FFF3C1FFE6001FF8E00000040
:100A60000000000101FF9E0FFFC0003FC300000017
:100A700000000001007FC38FFD80003FE380000085
:100A800000000001003FE1C7FC00003FF1C0000092
:100A900000000001001FF1E3F8000007F060000013
:100AA00000000001800FF1E1F0000003F8300000C9
:100AB000000000018001F83000000001FC3C000053
:100AC000000000018000F81800000000FC0E00008B
:100AD000000000018000FC0C00000000FE0F000080
:100AE0000000000180007C0C000000007E078000F8
:100AF0000000000180007C06000000003F03800031
:100B00000000000180007E06000000001F818000C0
:100B10000000000180001E03000000000F80C000E4
:100B20000000000180000E0100000000078060004E
:100B30000000000180000F018000000003C03000B1
:100B40000000000180000781C000000001C03800E3
:100B50000000000180000781C000000000C01800F4
:100B600000000001800007C0E00000000040080015
:100B700000000001800003C0F0000000000004003D
:100B800000000001800003C07000000000000600AB
:100B900000000001800001C07000F80000000200A9
:100BA00000000001800003C03000FFF000000700DB
:100BB00000000001800003C03001FFF80000038046
:100BC00000000001800001C03001FFFC0000038034
:100BD00000000001800001C01801FFFE000003803A
:100BE00000000001800001C00800FFFF000001C0FC
:100BF00000000001800001C0080067FF000001C084
:100C000000000001800001C00800FFFF000000C0DC
:100C100000000001800001800803FFBF8000004049
:100C200000000001800000000807FF3F8000004036
:100C300000000001800000000803FFBFC00000406A
:100C400000000001800000000803FF3FC0000040DA
:100C500000000001800000000803F01FC0000040F9
:100C600000000001800000000803FFCFF0000040FA
:100C700000000001800000000801FFE7FC0000C048
:100C800000000001800000000801FFF3FFF001C038
:100C900000000001800000000801FFF8FFF801805B
:100CA000000000018000000008007FFC7FFF03803F
:100CB000000000018000000008001FFF007F83800B
:100CC000000000018000000008003FFF801FC78077
:100CD000000000018000000008003FFFFFFFC3008C
:100CE000000000018000000008003FFFFFFFC4007B
:100CF000000000018000000008003FFFFFFFC4006B
:100D0000000000018000000018001FFFFFFFC4006A
:100D1000000000018000000038000FFFFFFFC0004E
:100D20000000000180000000780003FFFFFFC0000A
:100D30000000000180000000F800007FFFFFFC00C1
:100D40000000000180000001F800003FFFFFFC00F0
:100D500000000001800000003800003FFFF9FC00A7
:100D600000000001800000001800003FFFF3FC00BD
:100D700000000001800000000800003FFFE7FC00C9
:100D800000000001800000000800003CFC1FF8008B
:100D900000000001800000008C00007E007F9800B1
:100DA00000000001800000798C0007FF0FFF9C000D
:100DB00000000001800000FCC6000FFF7FFF7800EC
:100DC00000000001800001F846000FFF7FFE780060
:100DD00000000001800003FC07000FFF7FFE780089
:100DE00000000000800007FE07C00FFF7FFE6000CC
:100DF00000000000800007F9E7E007FF7FF8C0006F
:100E000000000000800003E3F3F003FFFFF1C000E7
:100E10000000000080007FC3F33801FFFFF1800075
:100E2000000000008000FFDFF31C007FFFE3800074
:100E3000000000008000FF9FF38E003FFFE780006E
:100E4000000000008000FE33FBCF001FFFCF00003A
:100E5000000000008001FE3FF1CF000FFFCF000037
:100E60000000000080000C7FCDE3800FFFDF00005A
:100E700000000000800101FC8E7F800FFF9F0000BA
:100E800000000000800FF9FC1E3F800FF3BF000040
:100E900000000000800FFDFC3E3F800FE1BF00001E
:100EA00000000000800FFCFC3F3F800FC13F0000AE
:100EB00000000000801FE5F83B9F800FC23F8000CC
:100EC00000000000801FCFF033DFC0039C0F8000C4
:100ED0000000000080000E0039D9C0003863C00057
:100EE00000000000800FFE000FEEF000FFF3F000A6
:100EF00000000000801FFE0007EE7801FFFFF000F9
:100F000000000000001FFE0007EE3C01FFFFF000A4
:100F100000000000001FFE0007EF3C01FFFFF00093
:100F200000000000001F7C0000EFFC01FFFFF0004C
:100F300000000000001E1C00006FFC01FFFFC0004D
:100F400000000000000000000033FE00FFFFC000B2
:100F500000000000000000000003FE00FFFF800012
:100F600000000000000000000007FE003FFF8000BE
:100F700000000000000000000007FE001FFF8000CE
:100F800000000000000000000003FC0003FF8000E0
:100F900000000000000000000001FE0003FF8000D0
:100FA000000000000000000000007E0003FF800041
:100FB00000000000000000000000000003FF00002F
:100FC00000000000000000000000000001FE000022
:100FD0000000000000000000000000000078000099
:100FE00000000000000000000000000000300000D1
:100FF00000000000000000000000000000000000F1
:1010000000000000000000000000000000000000E0
:10101000000000000000240027002A00000000005B
:10102000230026002900040404040404040402022A
:101030000202020203030303030301020408102057
:101040004080010204081020010204081020000062
:101050000008000201000003040700000000000077
:101060000000950C11241FBECFEFD8E0DEBFCDBF2E
:1010700012E0A0E0B1E0E6ECFCE102C005900D92C8
:10108000A230B107D9F722E0A2E0B2E001C01D9280
:10109000A93BB207E1F718E0C2E3D8E004C021970A
:1010A000FE010E945B0EC133D107C9F70E94E40C18
:1010B0000C94610E0C940000AF92BF92CF92DF921D
:1010C000EF92FF920F931F93CF93DF936C017B01FD
:1010D0008B01040F151FEB015E01AE18BF08C0178E
:1010E000D10759F06991D601ED91FC910190F08101
:1010F000E02DC6010995892B79F7C501DF91CF91C4
:101100001F910F91FF90EF90DF90CF90BF90AF9025
:101110000895FC01538D448D252F30E0842F90E0FD
:10112000821B930B541710F0CF96089501970895E2
:10113000FC01918D828D981761F0A28DAE0FBF2FAB
:10114000B11D5D968C91928D9F5F9F73928F90E001
:1011500008958FEF9FEF0895FC01918D828D981770
:1011600031F0828DE80FF11D858D90E008958FEFAD
:101170009FEF0895FC01918D228D892F90E0805C76
:101180009F4F821B91098F73992708958CE092E0FD
:101190000E94BA0821E0892B09F420E0822F0895EB
:1011A00080E090E0892B29F00E94C60881110C9400
:1011B00000000895FC01A48DA80FB92FB11DA35AFA
:1011C000BF4F2C91848D90E001968F739927848F67
:1011D000A689B7892C93A089B1898C91837080648A
:1011E0008C93938D848D981306C00288F389E02D2B
:1011F00080818F7D80830895EF92FF920F931F93DC
:10120000CF93DF93EC0181E0888F9B8D8C8D9813B9
:101210001AC0E889F989808185FF15C09FB7F894C5
:10122000EE89FF896083E889F98980818370806411
:1012300080839FBF81E090E0DF91CF911F910F915C
:10124000FF90EF900895F62E0B8D10E00F5F1F4F6B
:101250000F731127E02E8C8D8E110CC00FB607FC7A
:10126000FACFE889F989808185FFF5CFCE010E9408
:10127000DA08F1CFEB8DEC0FFD2FF11DE35AFF4F94
:10128000F0829FB7F8940B8FEA89FB898081806296
:10129000CFCFCF93DF93EC01888D8823B9F0AA8953
:1012A000BB89E889F9898C9185FD03C0808186FD21
:1012B0000DC00FB607FCF7CF8C9185FFF2CF808170
:1012C00085FFEDCFCE010E94DA08E9CFDF91CF9103
:1012D0000895833081F028F4813099F08230A9F0AC
:1012E00008958730A9F08830C9F08430B1F4809136
:1012F00080008F7D03C0809180008F778093800075
:10130000089584B58F7784BD089584B58F7DFBCF14
:101310008091B0008F778093B00008958091B000E5
:101320008F7DF9CF1F93CF93DF93282F30E0F90102
:10133000E25BFF4E8491F901E65CFF4ED491F90126
:10134000EA5DFF4EC491CC23A9F0162F81110E94B3
:101350006909EC2FF0E0EE0FFF1FE859FF4FA59150
:10136000B4918FB7F894EC91111108C0D095DE2399
:10137000DC938FBFDF91CF911F910895DE2BF8CFC3
:10138000CF93DF9390E0FC01E65CFF4E24918A5DF1
:101390009F4EFC0184918823D1F090E0880F991F23
:1013A000FC01EE5EFF4EA591B491FC01E859FF4FA0
:1013B000C591D49161110EC09FB7F8948C91E22F22
:1013C000E0958E238C932881E223E8839FBFDF91F1
:1013D000CF9108958FB7F894EC91E22BEC938FBFE7
:1013E000F6CF3FB7F8948091070290910802A09140
:1013F0000902B0910A0226B5A89B05C02F3F19F03B
:101400000196A11DB11D3FBFBA2FA92F982F882784
:10141000BC01CD01620F711D811D911D42E0660F5F
:10142000771F881F991F4A95D1F708958F929F9231
:10143000AF92BF92CF92DF92EF92FF926B017C014D
:101440000E94F1094B015C01C114D104E104F104D3
:10145000B9F00E94F109681979098A099B09683E67
:1014600073408105910580F321E0C21AD108E1089B
:10147000F10888EE880E83E0981EA11CB11CE4CF11
:10148000FF90EF90DF90CF90BF90AF909F908F90A4
:101490000895CF93DF932091B7023091B80233279C
:1014A000F901E25BFF4E8491F901E65CFF4ED491B5
:1014B000F901EA5DFF4EC491CC23A9F081110E948D
:1014C0006909EC2FF0E0EE0FFF1FE45EFF4EA591DF
:1014D000B491EC91ED2339F064E670E080E090E0A7
:1014E0000E94160AD8CFDF91CF910895CF93C82FCD
:1014F00060E08AE00E949209CEBD00000DB407FEB4
:10150000FDCF8EB561E08AE0CF910C949209CF9324
:10151000C82F60E08091B3020E9492098C2FCF9176
:101520000C94760ACF93C82F61E08091B3020E9499
:1015300092098C2FCF910C94760A0F931F93CF931F
:10154000DF93C82F61E08AE00E94C00961E088E073
:101550000E94C00961E089E00E94C00960E087E064
:101560000E94C009DFB7F89480910B02811127C057
:10157000E0E3F0E18491E4E4F0E19491E82FF0E01D
:10158000EE0FFF1FEE5EFF4EA591B491EC91E923A3
:1015900021F461E08AE00E94920961E08AE00E9401
:1015A000C0098CB580618CBD8CB580648CBD61E058
:1015B0008DE00E94C00961E08BE00E94C00980912B
:1015C0000B028F5F80930B02DFBF81E58CBD81E052
:1015D0008DBD61E08091B1020E94920968EC70E0DB
:1015E00080E090E00E94160A60E08091B1020E94C3
:1015F00092096AE070E080E090E00E94160A61E0E3
:101600008091B1020E94920968EC70E080E090E065
:101610000E94160AC1118CC00E94490A82E10E94F0
:10162000870A0E94490A84E70E94870A84E50E948B
:10163000920A8EE70E94870A8BE30E94920A81E059
:101640000E94870A89EF0E94920A80E00E94920A13
:1016500080E00E94920A81E10E94870A81E00E9454
:10166000920A84E40E94870A80E00E94920A8FE036
:101670000E94920A85E40E94870A89EF0E94920ADA
:1016800080E00E94920A80E00E94920A80E00E941C
:10169000920A8CE30E94870A83E00E94920A8CE2FD
:1016A0000E94870A85E50E94920A83E00E94870AC9
:1016B00085E10E94920A84E00E94870A81E40E94E8
:1016C000920A88EA0E94920A82E30E94920A8AE3BE
:1016D0000E94870A80E30E94920A8BE30E94870A95
:1016E0008AE00E94920A82E30E94870ACCE4D1E059
:1016F00002E911E089910E94920A0C171D07D1F7A7
:101700008EE40E94870A80E00E94920A8FE40E9481
:10171000870A89EF0E94920A80E00E94920A0E9442
:10172000490A90E080E0DF91CF911F910F910895D9
:101730008CE20E94870A86E20E94920A0E94490A6D
:1017400082E30E94870AC0E0D1E089910E94920A58
:1017500081E0C634D807C9F787E30E94870A80E092
:101760000E94920A80E00E94920A80E00E94920AFF
:1017700080E00E94920A80E40E94920A80E00E9427
:10178000920A80E00E94920A82E20E94870A80EC1C
:101790000E94920A80E20E94870A0E94490A8CE312
:1017A0000E94870A81E00E94920ABBCFCF93DF9309
:1017B000FC0101900020E9F73197AF01481B590B5C
:1017C000BC018CE092E00E945C08EC0142E050E039
:1017D0006AEA71E08CE092E00E945C088C0F9D1F29
:1017E000DF91CF9108951F920F920FB60F9211249F
:1017F0002F933F934F935F936F937F938F939F9319
:10180000AF93BF93EF93FF938CE092E00E94DA08CE
:10181000FF91EF91BF91AF919F918F917F916F91C8
:101820005F914F913F912F910F900FBE0F901F909E
:1018300018951F920F920FB60F9211242F938F932A
:101840009F93EF93FF93E0911C02F0911D02808122
:10185000E0912202F091230282FD1BC090818091D1
:1018600025028F5F8F7320912602821741F0E0914D
:101870002502F0E0E45FFD4F958F80932502FF91F4
:10188000EF919F918F912F910F900FBE0F901F900E
:1018900018958081F4CF1F920F920FB60F921124EA
:1018A0002F933F938F939F93AF93BF9380910302A6
:1018B00090910402A0910502B091060230910202BB
:1018C00023E0230F2D3758F50196A11DB11D20935C
:1018D00002028093030290930402A0930502B09346
:1018E00006028091070290910802A0910902B0912E
:1018F0000A020196A11DB11D809307029093080270
:10190000A0930902B0930A02BF91AF919F918F916A
:101910003F912F910F900FBE0F901F90189526E8C2
:10192000230F0296A11DB11DD2CFECE0F2E013828D
:10193000128288EE93E0A0E0B0E084839583A683D2
:10194000B7838CE991E09183808385EC90E0958763
:10195000848784EC90E09787868780EC90E0918B79
:10196000808B81EC90E0938B828B82EC90E0958B66
:10197000848B86EC90E0978B868B118E128E138E63
:10198000148EE9EAF2E088E090E09187808789E0B0
:1019900090E0938782878AE090E09587848787E04C
:1019A00090E0978786878AE790E0A0E0B0E08083A8
:1019B0009183A283B3838AEF90E0A0E0B0E08483B8
:1019C0009583A683B7830895789484B5826084BD97
:1019D00084B5816084BD85B5826085BD85B5816033
:1019E00085BD80916E00816080936E0010928100B1
:1019F000809181008260809381008091810081606C
:101A0000809381008091800081608093800080912C
:101A1000B10084608093B1008091B00081608093B8
:101A2000B00080917A00846080937A0080917A007F
:101A3000826080937A0080917A00816080937A003E
:101A400080917A00806880937A001092C100E091C2
:101A50001C02F0911D0282E08083E0911802F09157
:101A600019021082E0911A02F0911B028FEC808320
:101A700010922402E0912002F091210286E08083FE
:101A8000E0911E02F0911F02808180618083E091CD
:101A90001E02F0911F02808188608083E0911E0207
:101AA000F0911F02808180688083E0911E02F09196
:101AB0001F0280818F7D80838DEA91E00E94D60B8A
:101AC00080E00E949D0A84E20E94870AD0E0C0E084
:101AD00010E000E0CE018E589F4F6C01F601E00F40
:101AE000F11F84910E94920A0F5F1F4F0031110570
:101AF000A9F76096C03A9FE0D90751F782E20E94A9
:101B0000870A87EC0E94920A80E20E94870A0E945C
:101B1000490A86EB91E00E94D60B84E20E94870A74
:101B2000D0E0C0E010E000E0CE018E589F4F6C0185
:101B3000F601E00FF11F84910E94920A0F5F1F4F80
:101B400000311105A9F76096C03A9FE0D90751F717
:101B500086E20E94870AD0E0C0E010E000E0CE01FB
:101B60008E589F4F6C01F601E00FF11F84910E9487
:101B7000920A0F5F1F4F00311105A9F76096C03A16
:101B80009FE0D90751F782E20E94870A87EC0E9402
:101B9000920A80E20E94870A0E94490A8AE0F82E8F
:101BA0008FEB91E00E94D60B81E00E949D0A84E2B7
:101BB0000E94870AD0E0C0E010E000E0CE018E581D
:101BC0009F4F6C01F601E00FF11F84910E94920A71
:101BD0000F5F1F4F00311105A9F76096C03A9FE0D3
:101BE000D90751F782E20E94870A8CE00E94920A8C
:101BF00080E20E94870A0E94490A87ED91E00E94D4
:101C0000D60B84E20E94870ACAEFD0E000E110E020
:101C10008FEF0E94920A01501109D1F72197B1F775
:101C200082E20E94870A8CE00E94920A80E20E946F
:101C3000870A0E94490AFA94F110B2CF80E00E940C
:101C40009D0A8AEE91E00E94D60B84E20E94870AE8
:101C5000CAEFD0E000E110E08FEF0E94920A01503D
:101C60001109D1F72197B1F782E20E94870A87EC28
:101C70000E94920A80E20E94870A0E94490A80E13B
:101C80000E94870A81E00E94920A68EC70E080E07E
:101C900090E00E94160A60E08091B1020E949209D1
:101CA000C0E0D0E02097F1F30E94C6088823D1F36A
:101CB0000E940000F7CFEE0FFF1F0590F491E02D7A
:061CC0000994F894FFCF27
:101CC600000000000000008000000000000040004E
:101CD60000000000000000000000000000000000FE
:101CE6000000000A000000000000000000000000E4
:101CF60000000000000000000000000000000000DE
:101D06000000000000001541A832300A8060400043
:101D1600000000106020000000008060400000000D
:101D2600001060200000000000000000000000031A
:101D3600030000020909000002030300000200007C
:101D4600000000000000000000000000000000008D
:101D560000001541A832300A00000000FC085C08AB
:101D660089084909BA089808AC080D0A0065706424
:101D76002046554C4C006570642050415254006515
:101D86002D5061706572205041525420494D414793
:101D9600455F4441544100652D5061706572205085
:101DA60041525420436C65617200652D5061706527
:101DB6007220636C65617220616E6420736C656568
:021DC6007000AB
:00000001FF
