:100000000C945D000C9485000C9485000C94850084
:100010000C9485000C9485000C9485000C9485004C
:100020000C9485000C9485000C9485000C9485003C
:100030000C9485000C9485000C9485000C9485002C
:100040000C9477030C9485000C9445030C941F03C7
:100050000C9485000C9485000C9485000C9485000C
:100060000C9485000C94850000000008000201003B
:100070000003040700000000000000000000000072
:10008000250028002B0000000000240027002A0083
:10009000040404040404040402020202020203032E
:1000A0000303030301020408102040800102040836
:1000B0001020010204081020C10311241FBECFEF3D
:1000C000D8E0DEBFCDBF11E0A0E0B1E0E2E9FAE0A8
:1000D00002C005900D92A433B107D9F721E0A4E343
:1000E000B1E001C01D92A43EB207E1F710E0CDE5FA
:1000F000D0E004C02197FE010E943C05CC35D10719
:10010000C9F70E945B040C9447050C94000090E032
:10011000FC01EC55FF4F2491FC01E057FF4F849107
:10012000882399F090E0880F991FFC01EA57FF4F50
:10013000A591B491FC01E458FF4F859194918FB73C
:10014000F894EC91E22BEC938FBF0895FC01808131
:10015000823069F018F4813031F00895833059F01D
:10016000843061F008958FEF8093B30008958FEF8E
:100170008093B40008958FEF87BD08958FEF88BDF9
:100180000895CF92DF92EF92FF920F931F93CF9338
:10019000DF936C017A018B01C0E0D0E0CE15DF0562
:1001A00089F0D8016D918D01D601ED91FC910190FE
:1001B000F081E02DC6010995892B11F47E0102C062
:1001C0002196ECCFC701DF91CF911F910F91FF9046
:1001D000EF90DF90CF900895089580E090E008952B
:1001E000FC01538D448D252F30E0842F90E0821B3D
:1001F000930B541710F0CF96089501970895FC01C2
:10020000918D828D981761F0828DDF01A80FB11D4D
:100210005D968C91928D9F5F9F73928F90E0089571
:100220008FEF9FEF0895FC01918D828D981731F02B
:10023000828DE80FF11D858D90E008958FEF9FEF7F
:100240000895FC01918D228D892F90E0805C9F4F55
:10025000821B91098F73992708958DE391E00E9485
:10026000210121E0892B09F420E0822F0895FC016F
:10027000848DDF01A80FB11DA35ABF4F2C91848D2F
:1002800090E001968F739927848FA689B7892C9364
:10029000A089B1898C9180648C93938D848D9813FF
:1002A00006C00288F389E02D80818F7D80830895C8
:1002B000EF92FF920F931F93CF93DF93EC0181E0B6
:1002C000888F9B8D8C8D981305C0E889F989808172
:1002D00085FD24C0F62E0B8D10E00F5F1F4F0F73AE
:1002E0001127E02E8C8DE8120CC00FB607FCFACF58
:1002F000E889F989808185FFF5CFCE010E94370119
:10030000F1CF8B8DFE01E80FF11DE35AFF4FF08214
:100310000B8FEA89FB898081806207C0EE89FF89A3
:100320006083E889F98980818064808381E090E03E
:10033000DF91CF911F910F91FF90EF900895CF9390
:10034000DF93EC01888D8823C9F0EA89FB898081DD
:1003500085FD05C0A889B9898C9186FD0FC00FB6AF
:1003600007FCF5CF808185FFF2CFA889B9898C91F0
:1003700085FFEDCFCE010E943701E7CFDF91CF910E
:10038000089580E090E0892B29F00E942D018111D1
:100390000C940000089590E0FC01E859FF4F34915F
:1003A000FC01EC55FF4F2491FC01E057FF4FE49115
:1003B000EE2309F43BC0332339F1333091F038F4A4
:1003C0003130A9F0323001F584B58F7D12C037305D
:1003D00091F03830A1F03430B9F4809180008F7DF5
:1003E00003C0809180008F77809380000DC084B51A
:1003F0008F7784BD09C08091B0008F7703C0809152
:10040000B0008F7D8093B000F0E0EE0FFF1FE45846
:10041000FF4FA591B4918FB7F894EC91611103C08F
:1004200020952E2301C02E2B2C938FBF0895CF93A0
:10043000DF9360E08CE00E94CB0160E088E00E94E6
:10044000CB01C7E0D0E060E084E00E94CB01809166
:10045000DA0190E00C2E02C0959587950A94E2F798
:1004600080FF02C061E001C060E088E00E94CB0133
:1004700061E084E00E94CB01219728F761E08CE0E5
:10048000DF91CF910C94CB018CE00E94870087E034
:100490000E94870088E00E94870084E00E94870015
:1004A0001092DA010E94170260E087E00C94CB0101
:1004B0003FB7F8948091390190913A01A0913B01A6
:1004C000B0913C0126B5A89B05C02F3F19F00196BD
:1004D000A11DB11D3FBFBA2FA92F982F8827820FCA
:1004E000911DA11DB11DBC01CD0142E0660F771F1A
:1004F000881F991F4A95D1F708958F929F92AF92C6
:10050000BF92CF92DF92EF92FF920E9458024B016E
:100510005C0188EEC82E83E0D82EE12CF12C0E94DD
:100520005802DC01CB0188199909AA09BB09883E48
:100530009340A105B10558F021E0C21AD108E108A5
:10054000F10888EE880E83E0981EA11CB11CC1142E
:10055000D104E104F10419F7FF90EF90DF90CF9000
:10056000BF90AF909F908F900895FC018081823062
:1005700049F018F4813079F00895833031F08430F7
:1005800039F0089524E031E008C027E035E005C0E7
:1005900026E030E002C023E032E06230A9F06430AF
:1005A00029F16130B9F581E090E0AC0101C0440F60
:1005B0002A95EAF7409501C0880F3A95EAF790919D
:1005C000DA01892B842322C081E090E0AC0101C0D4
:1005D000440F3A95EAF7342F30954091DA013423ED
:1005E00001C0880F2A95EAF7832B10C041E050E044
:1005F000CA0101C0880F3A95EAF701C0440F2A9555
:10060000EAF7842B80959091DA0189238093DA01AF
:100610000C9417020895009769F0FC0101900020E6
:10062000E9F73197AF01481B590BBC018DE391E00D
:100630000C94C10080E090E008950E9442051F9252
:100640000F920FB60F9211242F933F934F935F9306
:100650006F937F938F939F93AF93BF93EF93FF938A
:100660008DE391E00E943701FF91EF91BF91AF912F
:100670009F918F917F916F915F914F913F912F91BA
:100680000F900FBE0F901F9018951F920F920FB6EC
:100690000F9211242F938F939F93EF93FF93E091E9
:1006A0004D01F0914E018081E0915301F091540190
:1006B00082FD12C09081809156018F5F8F732091CF
:1006C0005701821751F0E0915601F0E0E35CFE4FD4
:1006D000958F8093560101C08081FF91EF919F918A
:1006E0008F912F910F900FBE0F901F9018951F9212
:1006F0000F920FB60F9211242F933F938F939F93D6
:10070000AF93BF938091350190913601A09137014D
:10071000B09138013091340123E0230F2D3720F4BC
:100720000196A11DB11D05C026E8230F0296A11D4B
:10073000B11D209334018093350190933601A0932D
:100740003701B09338018091390190913A01A0911D
:100750003B01B0913C010196A11DB11D809339016F
:1007600090933A01A0933B01B0933C01BF91AF91AC
:100770009F918F913F912F910F900FBE0F901F90DF
:100780001895EF92FF920F931F93CF93EDE3F1E053
:100790001382128288EE93E0A0E0B0E08483958318
:1007A000A683B78384E091E09183808385EC90E019
:1007B0009587848784EC90E09787868780EC90E02B
:1007C000918B808B81EC90E0938B828B82EC90E01C
:1007D000958B848B86EC90E0978B868B118E128E96
:1007E000138E148EE1EEF1E084E08083C1E0C183DA
:1007F0000E9444028091DA018E7B8093DA010E948C
:10080000170284B5836284BD18BC85E00E9487000E
:10081000EFEDF1E083E08083C1830E944402809188
:10082000DA018F758093DA010E94170284B583681C
:1008300084BD17BC86E00E948700EDEDF1E0C08327
:10084000C1830E9444028091DA01837F8093DA01A0
:100850000E94170200EB10E0F8018081836880831A
:1008600081EBE82EF12CF701C0831092B3008BE0EE
:100870000E948700EBEDF1E082E08083C1830E945B
:1008800044028091DA018D7E8093DA010E94170282
:10089000F801808183628083F701C0831092B400E5
:1008A00083E00E9487001092E301CF911F910F9186
:1008B000FF90EF900895789484B5826084BD84B5EC
:1008C000816084BD85B5826085BD85B5816085BD4B
:1008D00080916E00816080936E0010928100809103
:1008E000810082608093810080918100816080938B
:1008F0008100809180008160809380008091B100B0
:1009000084608093B1008091B00081608093B000DA
:1009100080917A00846080937A0080917A0082606E
:1009200080937A0080917A00816080937A00809130
:100930007A00806880937A001092C100E0914D01A6
:10094000F0914E0182E08083E0914901F0914A01EB
:100950001082E0914B01F0914C018FEC808310925A
:100960005501E0915101F091520186E08083E091C0
:100970004F01F0915001808180618083E0914F01AF
:10098000F0915001808188608083E0914F01F09167
:100990005001808180688083E0914F01F091500187
:1009A00080818F7D808382E191E00E940B0382E24F
:1009B00091E00E940B038DED91E00E94A6008BED6B
:1009C00091E00E94A6008FED91E00E94A60081EECA
:1009D00091E00E94A60085E291E00E940B0361E095
:1009E0008DED91E00E94B50261E08BED91E00E94F7
:1009F000B50261E08FED91E00E94B50261E081EE09
:100A000091E00E94B5020E947D028AE291E00E947C
:100A10000B0362E08DED91E00E94B50262E08BED88
:100A200091E00E94B50262E08FED91E00E94B50274
:100A300062E081EE91E00E94B5020E947D028EE2AA
:100A400091E00E940B0364E08DED91E00E94B502FD
:100A500064E08BED91E00E94B50264E08FED91E0DF
:100A60000E94B50264E081EE91E00E94B5020E940E
:100A70007D020E94C101AFCFEE0FFF1F0590F491E0
:100A8000E02D099481E090E0F8940C944705F894E7
:020A9000FFCF96
:100A9200000000005801C100F0009F012101FF0089
:100AA200130148656C6C6F206D7920726163696E09
:100AB20067000D0A007469656E006C7569007461E7
:040AC200636B000062
:00000001FF
