:100000000C9416100C943E100C943E100C943E1060
:100010000C943E100C943E100C943E100C943E1028
:100020000C943E100C943E100C943E100C943E1018
:100030000C943E100C943E100C943E100C943E1008
:100040000C9498120C943E100C94D3110C94AD1196
:100050000C943E100C943E100C943E100C943E10E8
:100060000C943E100C943E10000000002500280067
:100070002B0000000000240027002A0000000000E0
:100080000000000000000000000000000000000070
:1000900000000000000000000000000000000C0054
:1000A0000C000C000C000C000C000C000C000000FC
:1000B0000C00000000000000000000000000000034
:1000C0001DC01DC0088008800880000000000000DE
:1000D00000000000000000000000000000000D8093
:1000E0000D800D800D803FC01B003FC01B001B001A
:1000F0001B001B00000000000000000004001F8027
:100100003180318038001E000F0003803180318043
:100110003F00040004000000000000000000180080
:100120002400240018C007801E00318002400240D5
:10013000018000000000000000000000000000003E
:100140000F001800180018000C001D803700330045
:100150001D80000000000000000000000000000002
:10016000070007000200020002000000000000007B
:10017000000000000000000000000000000003007C
:10018000030006000E000C000C000C000C000E001A
:10019000060003000300000000000000000018003B
:1001A00018000C0006000600060006000600060007
:1001B0000C001C00180000000000000000000600F9
:1001C00006003FC03FC00F001F80198000000000E4
:1001D000000000000000000000000000000000001F
:1001E00000000400040004003F8004000400040038
:1001F00000000000000000000000000000000000FF
:1002000000000000000000000000000000000600E8
:1002100004000C00080008000000000000000000BE
:1002200000000000000000003F800000000000000F
:1002300000000000000000000000000000000000BE
:1002400000000000000000000000000000000C00A2
:100250000C000000000000000000000000C000C012
:10026000018001800300030006000C000C00180050
:1002700018003000300000000000000000000E00F8
:100280001B003180318031803180318031801B0012
:100290000E0000000000000000000000000006004A
:1002A0003E000600060006000600060006000600E6
:1002B0003FC00000000000000000000000000F0030
:1002C000198031803180030006000C0018003000D6
:1002D0003F800000000000000000000000003F0020
:1002E0006180018003001F00038001800180618024
:1002F0003F000000000000000000000000000700B8
:1003000007000F000B001B00130033003F800300A9
:100310000F800000000000000000000000001F80AF
:100320001800180018001F00118001800180218032
:100330001F00000000000000000000000000078017
:100340001C0018003000370039803180318019805E
:100350000F000000000000000000000000007F000F
:100360004300030006000600060006000C000C0017
:100370000C000000000000000000000000001F0052
:100380003180318031801F00318031803180318077
:100390001F000000000000000000000000001E0020
:1003A00033003180318033801D80018003000700DD
:1003B0003C00000000000000000000000000000001
:1003C000000000000C000C000000000000000C0009
:1003D0000C00000000000000000000000000000011
:1003E0000000000003000300000000000000060001
:1003F00004000800080000000000000000000000E9
:1004000000C003000400180060001800040003008E
:1004100000C000000000000000000000000000001C
:100420000000000000007FC000007FC0000000004E
:1004300000000000000000000000000000000000BC
:10044000600018000400030000C00300040018004E
:10045000600000000000000000000000000000003C
:100460001F0031803180018007000C000C0000006B
:100470000C000000000000000000000000000E0062
:100480001100210021002700290029002700200059
:1004900011000E000000000000000000000000003D
:1004A0003F000F000900198019801F8030C030C044
:1004B00079E00000000000000000000000000000E3
:1004C0007F003180318031803F0031803180318048
:1004D0007F0000000000000000000000000000009D
:1004E0001F4030C0604060006000600060403080AD
:1004F0001F000000000000000000000000000000DD
:100500007F00318030C030C030C030C030C031805A
:100510007F0000000000000000000000000000005C
:100520007F803080308032003E003200308030806A
:100530007F800000000000000000000000000000BC
:100540007FC03040304032003E003200300030008A
:100550007C0000000000000000000000000000001F
:100560001E80318060806000600067C061803180E3
:100570001F0000000000000000000000000000005C
:100580007BC03180318031803F803180318031804B
:100590007BC0000000000000000000000000000020
:1005A0003FC0060006000600060006000600060022
:1005B0003FC000000000000000000000000000003C
:1005C0001FC0030003000300030063006300630017
:1005D0003E000000000000000000000000000000DD
:1005E0007BC03180330036003C003E003300318058
:1005F00079C00000000000000000000000000000C2
:100600007E00180018001800180018401840184004
:100610007FC000000000000000000000000000009B
:10062000E0E060C071C07BC06AC06EC064C060C0E2
:10063000FBE00000000000000000000000000000DF
:1006400073C0318039803D80358037803380318080
:1006500079800000000000000000000000000000A1
:100660001F00318060C060C060C060C060C0318069
:100670001F0000000000000000000000000000005B
:100680007F0031803180318031803F003000300088
:100690007E000000000000000000000000000000DC
:1006A0001F00318060C060C060C060C060C0318029
:1006B0001F000CC01F8000000000000000000000B0
:1006C0007F003180318031803E00330031803180C5
:1006D0007CE00000000000000000000000000000BE
:1006E0001F803180318038001F00038031803180CD
:1006F0003F000000000000000000000000000000BB
:100700007F804C804C804C800C000C000C000C0056
:100710003F0000000000000000000000000000009A
:100720007BC03180318031803180318031803180B7
:100730001F0000000000000000000000000000009A
:100740007BC0318031801B001B001B000A000E00A3
:100750000E0000000000000000000000000000008B
:10076000FBE060C064C06EC06EC02A803B803B80EE
:1007700031800000000000000000000000000000C8
:100780007BC031801B000E000E000E001B0031806C
:100790007BC000000000000000000000000000001E
:1007A00079E030C019800F00060006000600060040
:1007B0001F8000000000000000000000000000009A
:1007C0003F8021802300060004000C001880308048
:1007D0003F800000000000000000000000000780D3
:1007E00006000600060006000600060006000600D9
:1007F0000600060007800000000000003000300006
:10080000180018000C000C00060003000300018013
:10081000018000C000C000000000000000001E00B9
:100820000600060006000600060006000600060098
:10083000060006001E0000000000000004000A0080
:100840000A0011002080208000000000000000004D
:100850000000000000000000000000000000000098
:100860000000000000000000000000000000000088
:1008700000000000000000000000FFE0080004008D
:100880000200000000000000000000000000000066
:100890000000000000000000000000000000000058
:1008A000000000001F00018001801F803180338024
:1008B0001DC00000000000000000000000007000EB
:1008C000300030003700398030C030C030C039804F
:1008D00077000000000000000000000000000000A1
:1008E000000000001E8031806080600060803180E8
:1008F0001F00000000000000000000000000038056
:10090000018001801D80338061806180618033803F
:100910001DC00000000000000000000000000000FA
:10092000000000001F00318060C07FC0600030C048
:100930001F8000000000000000000000000007E031
:100940000C000C003F800C000C000C000C000C0094
:100950003F800000000000000000000000000000D8
:10096000000000001DC033806180618061803380A1
:100970001D80018001801F00000000000000700049
:100980003000300037003980318031803180318053
:100990007BC0000000000000000000000000060016
:1009A000060000001E000600060006000600060005
:1009B0003FC0000000000000000000000000060032
:1009C000060000003F0003000300030003000300D3
:1009D0000300030003003E00000000000000700060
:1009E00030003000378036003C003C0036003300D9
:1009F00077C00000000000000000000000001E00A2
:100A000006000600060006000600060006000600B6
:100A10003FC00000000000000000000000000000D7
:100A2000000000007F8036C036C036C036C036C0F9
:100A300076E0000000000000000000000000000060
:100A400000000000770039803180318031803180B2
:100A50007BC000000000000000000000000000005B
:100A6000000000001F00318060C060C060C03180A5
:100A70001F00000000000000000000000000000057
:100A8000000000007700398030C030C030C03980AD
:100A90003700300030007C00000000000000000043
:100AA000000000001DC03380618061806180338060
:100AB0001D800180018007C00000000000000000D0
:100AC000000000007B801CC01800180018001800EF
:100AD0007F00000000000000000000000000000097
:100AE000000000001F8031803C001F000380318027
:100AF0003F0000000000000000000000000018009F
:100B0000180018007F00180018001800180018803E
:100B10000F000000000000000000000000000000C6
:100B2000000000007380318031803180318033805B
:100B30001DC00000000000000000000000000000D8
:100B4000000000007BC0318031801B001B000E00C4
:100B50000E00000000000000000000000000000087
:100B600000000000F1E060C064C06EC03B803B80CC
:100B700031800000000000000000000000000000C4
:100B8000000000007BC01B000E000E000E001B00CA
:100B90007BC000000000000000000000000000001A
:100BA0000000000079E030C0198019800B000F00B0
:100BB000060006000C003E000000000000000000DF
:100BC000000000003F80218003000E0018003080EC
:100BD0003F80000000000000000000000000060050
:100BE0000C000C000C000C000C0018000C000C0099
:100BF0000C000C00060000000000000000000600D1
:100C000006000600060006000600060006000600B4
:100C100006000600060000000000000000000C00B6
:100C20000600060006000600060003000600060097
:100C3000060006000C00000000000000000000009C
:100C400000000000000018002480030000000000E5
:100C5000000000000000000000000000FFFFFFFF98
:100C6000FFFFFFFFFFFFFFFFFFFFFFFFFFFFFFFF94
:100C7000FFFFFFFFFFFFFFFFFFFFFFFFFFFFFFFF84
:100C8000FFFFFFFFFFFFFFFFFFFFFFFFFFFFFFFF74
:100C9000FFFFFFFFFFFF3FFFFFFFFFFFFFFFFFFF24
:100CA000FFFFFFFFFFFFFFFFFFFFFFFFFFFFFE7FD5
:100CB000FFFFFFFFFFFFFFFFFFFFFFFFFFFFFFFF44
:100CC000FFFFFFFFFFFFFFFCFFFFFFFFFFFFFFFF37
:100CD000FFFFFFFFFFFFFFFFFFFFFFFFFFFFFFFF24
:100CE000F8FFFFFFFFFFFFFFFFFFFFFFFFFFFFFF1B
:100CF000FFFFFFFFFFFFFFFFFFF1FFFFFFFFFFFF12
:100D0000FFFFFFFFFFFFFFFFFFFFFFFFFFFFFFFFF3
:100D1000FFFFE3FFFFFFFFFFFFFFFFFFFFFFFFFFFF
:100D2000FFFFFFFFFFFFFFFFFFFFFFC3FFFFFFFF0F
:100D3000FFFFFFFFFFFFFFFFFFFFFFFFFFFFFFFFC3
:100D4000FFFDFFFF87FFFFFFFFFFFFFFFFFFFFFF2D
:100D5000FFFFFFFFFFFFFFFFFFFFFDFFFF27FFFF7D
:100D6000FFFFFFFFFFFFFFFFFFFFFFFFFFF6FFFF9C
:100D7000FFFFFFFCFFFE6FFFFFFFFFFFFFFFFFFF17
:100D8000FFFFFFFFFFFFFDFFFFFFFFFFFE7FFCEF09
:100D9000FFFFFFFFFFFFFFFFFFFFFFFFFFFFFFF171
:100DA000FFFFFFFFFFFE7FFDEFFFFFFFFFFFFFFFE6
:100DB000FFFFFFFFFFFFFFFFFFFFFFFFFFFFFE3F04
:100DC000FBDFFFFFFFFFFFFFFFFFFFFFFFFFFFFF57
:100DD000FFF7FFFFFFFFFFFE3FF7DFFFFFFFFFFF14
:100DE000FFFFFFFFFFFFFFFFFFFFC7FFFFFFFFFF4B
:100DF000FE1FF7FFFFFFFFFFFFFFFFFFFFFFFFFFEC
:100E0000FFFFFFFFFFFFFFFFFFFE1FEFBFFFFFFF23
:100E1000FFFFFFFFFFFFFFFFFFFFFFFFFFFFFFFFE2
:100E2000FFFFFE5FDFBFFFFFFFFFFFFFFFFFFFFFD3
:100E3000FFFFFFFFFFDEFFFFFFFFFFFE6FDFFFFF94
:100E4000FFFFFFFFFFFFFFFFFFFFFFFFFFFFFDFFB4
:100E5000FFFFFFFFFE6FBF7FFFFFFFFFFFFFFFFFF3
:100E6000FFFFFFFFFFFFFFF9FFFFFFFFFFFE7FBF59
:100E7000FFFFFFFFFFFFFFFFFFFFFFFFFFFFFFFF82
:100E8000FFFFFFFFFFFFFE7F3FFFFFFFFFFFFFFFB3
:100E9000FFFFFFFFFFFFFFFFFFFFFFFFFFFFFFFE63
:100EA0007F7FFFCFFFFFFFFFFFFFFFFFFFFFFFFF82
:100EB000FFFFDFFFFFFFFFFFFE7F7FFF9FFFFFFFC3
:100EC000FFFFFFFFFFFFFFFFFFFFFFFFFFFFFFFF32
:100ED000FFFE7E6EFE3FFFFFFFFFFFFFFFFFFFFEF7
:100EE0003FFFFFFFFEFFFFFFFFFFFE7EDFFC00076F
:100EF000FFFFFFFFFFFFFFFFF87FFFFFFFDEFFFFAA
:100F0000FFFFFFFE7C9FF80780FFFFFFFFFFFFFF53
:100F1000FFF0FFFFFFFFFDFFFFFFFFFFFE7C3DE057
:100F20007FF03FFFFFFFFFFFFFFFC1FFFFFFFFF36A
:100F3000FFFFFFFFFFFE7C3DE1FFF01FFFFFFFFF14
:100F4000FFFFFF83FFFFFFFFFFFFFFFFFFFFFEFC31
:100F50007FC7FFE0FFFFFFFFFFFFFFFF03FFFFFF74
:100F6000FFFBFFFFFFFFFFFEFC7F9FFFC3FFFFFFB5
:100F7000FFFFFFFFFE07FFFFFFFFCCFFFFFFFFFFAD
:100F8000FEF8FB3FFF8FFFFFFFFFFFFFFFFC67FF48
:100F9000FFFFFFAFFFFFFFFFFFFEF8FA7FFE3FFFFF
:100FA000FFFFFFFFFFFFFCCFFFFFFFFFFFFFFFFF84
:100FB000FFFFFEF9F0FCF8FFFFFFFFFFFFFFFFF967
:100FC000CFFFFFFFFFFFFFFFFFFFFFFEF9F1F1F192
:100FD000FFFFFFFFFFFFFFFFF3DFFFFFFFFFC0FF8C
:100FE000FFFFFFFFFCF9EBC3C3FFFFFFFFFFFFFFA6
:100FF000FFF79FFFFFFFFFFFFFFFFFFFFFBCF9F3BE
:101000000787FFFFFFFFFFFFFFFFE79FFFFFFFFFD8
:10101000FFFFFFFFFFFF9CF9F60F0FFFFFFF87FFAA
:10102000FFFFFFEFBFFFFFFFFFFFFFFFFFFFFFCC53
:10103000FBE44E1FFFFFC0FC3FFFFFFFCF3FFFFF62
:10104000FFFFFFFFFFFFFFFFCCFBE1DE3FFFF87F6D
:10105000FF87FFFFFFDF3FFFFFFFFFF1FFFFFFFF06
:10106000FFDC73C3DC3FFFC7FFFFC3FFFFFFDF7F72
:10107000FFFFFFFF8EFFFFFFFFFFCC7BC7BA7FFEA6
:101080001FFFFFC8FFFFFF9F7FFFFFFFFFEFFFFF77
:10109000FFFFFFEC7BCFBEFFF8FFFFFFEE7BFFFF04
:1010A0009F7FFFFFFFFFFFFFFFFFFFFFEC7B9FFE28
:1010B000FFE3FFE00FF7BEFFFF9E7FFFFFFFFFFF95
:1010C000FFFFFFFFFFEC7BBFFDFF0FFF2001F3FFE2
:1010D0003FFF1EFFFFFFFFFFC9FFFFFFFFFFEEBB4C
:1010E000FFFDFC3FFFFFE07BFF9FFF1EFFFFFFFFB9
:1010F000FFFFFFFFFFFFFFE6BBFFFDF07FFFFFF8F5
:101100003DFFC7FF3EFFFFFFFFFFFFFFFFFFFFFFAA
:10111000F6FBFFFFC07FFFE7FC3FFF63FF1CFFFF05
:10112000FFFFFFFFFFFFFFFFFFF6FBFFFF803FFF1B
:10113000E07F1FFF20FE14FFFFFFFFFFFFFFFFFF09
:10114000FFFFF6F9FFFFFF9FFFF81F0FFF867E15D9
:10115000FFFFFFFFFFFFFFFFFFFFFFF679FFFFFF2E
:10116000DFFFFC078FFEC71E15FFFFFFFFFFFFFF1E
:10117000FFFFFFFFF37DE1FFFFEFFFFE03C7FF6708
:101180008E11FFFFFFFFFFFFFFFFFFFFFFFB7C074D
:10119000E7FFFFCFFE01E7FFB7DED9FFFFFFFFFF4D
:1011A000FFFFFFFFFFFFFB7C1F9BFFFFE7FE7EE3D0
:1011B000FF9FDCD9FFF3FFFFFFFFFFFFFFFFFFF9FA
:1011C0003C7EFFFFFFF8FCFFF1FE1E6CD9FFF7FF2E
:1011D000FFFFFFFFFFFFFFFFF9BEFBFFFFFFFC006C
:1011E000FFF0FE0CFCC9FFEC7FFFFFFEFFFFFFFFDF
:1011F000FFFC3FE7FFF7FE7F007FC03F74FDEFFF7E
:10120000EFBFFFFFFFFFFFFFFFFFFC1FCFFFF6FF5A
:10121000CFE01F800FBEFDEFF86FBFFFFFFFFFFFA6
:10122000FFFFFFFC1F9FFFF6FFE3FFFFFFCFDE7D09
:10123000EFFF7FBFFFFFFFFFFFFFFFFFFECF31FF8D
:10124000F67FF9FFFFC0FFCF3DE7873F7FFFFFFF3E
:10125000FFFFFFFFFFFEEE1FFFF27FFC7FFF039FFC
:10126000EF3DF7C39FFFFFFFFFFFFFFFFFFFFE7C88
:101270007C3FFA7FFE3FFC1FFFF41DF7DDCD7FFFB3
:10128000FFFFFFFFFFFFFFFF78FF7FFEBFFF0FF0B5
:101290007FFFF7CDF7ECDFBFFFFFFFFFFFFFFFFF93
:1012A000FF7E7F7FFCBFFF0000FFFFE3FDFBFE7FB3
:1012B000BFFFFFFFFFFFFFFFFFFFBFE07FFDFFF06E
:1012C0000001FFFFF3FDFB7F7F3FF7FFFFFFFFFF05
:1012D000FFFFFFBFFC77FFFFFC0007FFFF9DFDFB4B
:1012E0009F9E7FEFFFFFFFFFFFFFFFFFDF8FB0FF3E
:1012F000FBFF001FFFFF8FFDE9E001FFCFFFFFFFB6
:10130000FFFFFFFFFFCFC1B8FFFFFFF1FFFFFF3F70
:10131000FDF1FFFFFF9FFFFFFFFFFFFFFFFFEFCF8D
:10132000B87FFDCFFFFFFFFEE01DF9FFFFFF1FFFAE
:10133000FFFFFFFFFFFFFFE79FDB7FFD03FFFFFFD7
:10134000FD89EDF8FFFFFE3FFFFFFFFFFFFFFFFFFF
:10135000F39FCB7FFC3CFFFFFFF27DFDFCFFFFFC1A
:101360003FFFFFFFFFFFFFFFFFF9DFCDFFFCFF3F68
:10137000F3F9EFFEFDFEFFFE787FFFFFFFFFFFFFAB
:10138000FFFFFCEFEDFFF8FF8F8FF3FFFEFDFE7F09
:10139000F1F07FFFFFFFFFFFFFFFFFFE00E7FFF918
:1013A000FCE01FE7FFFFFDFF79FBE27FFFFFFFFF90
:1013B000FFFFFFFFFF81F7FFFBF8F03FCF7F0FFC40
:1013C000EF7FFBCEFFFFFFFFFFFFFFFFFFFFFFFBF6
:1013D000FFFBF0FC7FE0FF87FCF7BFFF8CFFFFFF08
:1013E000FFFFFFFFFFFFFFF3FDFEFFE07F1FF1FFA9
:1013F000E7FEF7B1FF9CFFFFFFFFFFFFFFFFFFFFCF
:10140000E7FEFFFFF07F83E3FFE7FAF7C4FFBCFFCF
:10141000FFFFFFFFFFFFFFFFFFEDFF2F7FD83FF034
:101420000FFFE3FA7BCEFF7DFFFFFFFFFFFFFFFF14
:10143000FFFFEBFF0F7FEE3FFFFFFFC0027BC73ACE
:101440007DFFFFFFFFFFFFFFFFFFFFE3FF9FFFF3B6
:101450001DFFFFFF001E39EF86FDFFFFFFFFFFFFAF
:10146000FFFFFFFFE7FFDFFFF186FFFFFFFFFE1932
:10147000EFC4F9FFFFFFFFFFFFFFFFFFFFCFF9DF23
:10148000FFF0627FFFFFFFFF01F7FDD9FFFFFFFFC6
:10149000FFFFFFFFFFFFDFFBDFFFFC303FFFFFFF32
:1014A000FF00F7FD9BFFFFFFFFFFFFFFFFFFFFFFB9
:1014B000F7FFFFFF1C1FFFFFFFFF00F3FBBBFFFF5A
:1014C000FFFFFFFFFFFFFFFFFFE1FFBFFFC70FF9B8
:1014D000FC1FFF00FBFB3BFFFFFFFFFFFFFFFFFFCA
:1014E000FFFFE0FDBFFFE3E39C61FF878079F23BF4
:1014F000FFFFFFFFFFFFFFFFFFFFFFFFFDBFFFF14C
:10150000F9CE03FF3F807DF03BFFFFFFFFFFFFFFB2
:10151000FFFFFFFFDFFE3FFFF8FCF70FFE7F806D50
:10152000F13FFFFFFFFFFFFFFFFFFFFFFE007E7F9A
:10153000FFFC7E798FFCFF806CE33FFFFFFFFFFF26
:10154000FFFFFFFFFFF87FF37FEFFE3FFCC7FCFFCD
:10155000C064E7BFFFFFFFFFFFFFFFFFFFFFE1FFEB
:10156000F0FDF3FF1FFE67FCF7C070E7BFFFFFFF52
:10157000FFFFFFFFFFFFFFC3FFFFFE78FF8EFF337C
:10158000FE73C2706FBFFFFFFFFFFFFFFFFFFFFF94
:1015900087FFFFFFBE3F877F19FE01C3704FBFFF6C
:1015A000FFFFFFFFFFFFFFFFFF0FFFF83FDF00031D
:1015B000BF8DFF00E3745F9FFFFFFFFFFFFFFFFF93
:1015C000FFFE1FFFFF07E7C001CFC4FF80E3745F8A
:1015D0009FFFFFFFFFFFFFFFFFFFFC3FFFFFC3E396
:1015E000F800E7C6FFE0637E5FDFFFFFFFFFFFFF5E
:1015F000FFFFFFF87FFFFFE0F1FF8071C37BFC6717
:101600007E5FDFFFFFFFFFFFFFFFFFFFF87FFFFFB2
:10161000F878FFE03863BDFC777E3FDFFFFFFFFF18
:10162000FFFFFFFFFFF0FFFFFFF8387FF00C01BC6A
:10163000FC777E3DCFFFFFFFFFFFFFFFFFFFF0FFC7
:10164000FFFF801C3FFC0600DE38F7FEBDEFFFFF0A
:10165000FFFFFFFFFFFFFFE1C03FFC001E9FFCC339
:10166000006F00F7FEBDEFFFFFFFFFFFFFFFFFFF73
:10167000E003FFE0000E4FFEF18077C1F7FCFDE7CD
:10168000FFFFFFFFFFFFFFFFFFC00FFF800007739B
:10169000FEFCE03FF3F7FD7CE7FFFFFFFFFFFFFFEE
:1016A000FFFFC03FFE000003B9FFFE381BFFD7FD60
:1016B0007CF7FFFFFFFFFFFFFFFFFF807FFC03F0D2
:1016C000039CFFFF9E0DFFBFFB7CF7FFFFFFFFFFAB
:1016D000FFFFFFFF81FFF01FFC01CE39FFC7C6FFF0
:1016E000AFFEFCF7FFFFFFFFFFFFFFFFFF03FFE081
:1016F0007FFF00E79E7FE1FF7F2FFEFEF3FFFFFFEE
:10170000FFFFFFFFFFFF03FF81FFFF807BC71FE09D
:101710001F9F3FFEFEFBFFFFFFFFFFFFFFFFFF07D7
:10172000FF07FFFFE03FF3C00003C47FFCFEFBFFA9
:10173000FFFFFFFFFFFFFFFE0FFE0FFFFFF01FF891
:10174000F00007E07FFDEE5BFFFFFFFFFFFFFFFF05
:10175000FE0FFC3FFFFFFC0FFE3E003FF0FFFDEEE3
:101760006BFFFFFFFFFFFFFFFFFE1FF87FF003FF90
:1017700007FF0FFFFDFDFFFBEE63FFFFFFFFFFFF16
:10178000FFFFFE1FF0FF80007FC1FFC0FFE3FFFFF0
:10179000F3EE63FFFFFFFFFFFFFFFFFE1F01FE07EA
:1017A000FE0FF03FF00007FFFFE7EE73FFFFFFFFC4
:1017B000FFFFFFFFFE3F83F83FFFC3FE1FFC001F3C
:1017C0003FFFC7EF73FFFFFFFFFFFFFFFFFE3FE796
:1017D000F07FFFF0FFFFFF803E7FFF8FEF31FFFFC5
:1017E000FFFFFFFFFFFFFC3FCFC0FFFFFE7FFFFFBC
:1017F00080FCFFF80FCF31FFFFFFFFFFFFFFFFFC73
:101800007FCF81FFFFFF9FFFFC07F1FFF80FCF396C
:10181000FFFFFFFFFFFFFFFFFC7F9F03FFFFFFC7EF
:10182000FFFFFFC1FFFF878F39FFFFFFFFFFFFFFB4
:10183000FFFC7FBE07FFFFFFF1FFFFFF03FFFF83FA
:101840001F39FFFFFFFFFFFFFFFFFC7FBE01FFFF10
:10185000FFF83FFFF807FFFF801F39FFFFFFFFFF83
:10186000FFFFFFFC7F7C001FFFFFFC01FF800FBF1D
:10187000FF803F39FFFFFFFFFFFFFFFFFC7F780086
:1018800007FFE3FE0000001FBFFF803F39FFFFFF9F
:10189000FFFFFFFFFFFC7EF07FFFFFF9FE1FE3FC71
:1018A0007F7F7FE0FE39FFFFFFFFFFFFFFFFFE7E30
:1018B000F1FFFFFFFCFF0FFFF8FE7F7FFFFE39FF08
:1018C000FFFFFFFFFFFFFFFE7FE7FFFFFFFCFF1FA4
:1018D000FFF1FC7F3FFFFE3BFFFFFFFFFFFFFFFF2E
:1018E000FE7FE7FC0FFFFCFF1FFFC7F8FF3EFFFE78
:1018F0003BFFFFFFFFFFFFFFFFFE7FCFF003FFFC7B
:10190000FF1FFF8FF0F71F7FFC3BFFFFFFFFFFFF75
:10191000FFFFFE7FCFE000FFFCFF3FFE7FE1F70F00
:101920003FFC3BFFFFFFFFFFFFFFFFFE7F9FC070FD
:101930007FFCFE3FFFFFC1FFA79FF83BFFFFFFFFBC
:10194000FFFFFFFFFE7F9F81FE1FF8FC7FFFFF016F
:10195000FFB7C3F03BFFFFFFFFFFFFFFFFFE7F3F2F
:1019600003FF0FF1F9FFFFFC01EFBFE00033FFFFC2
:10197000FFFFFFFFFFFFFF7F3F07FFC183FFFFFF69
:10198000F0E3EFBFF00073FFFFFFFFFFFFFFFFFF7C
:101990007F3E01FFF007FFFFFF83E3EF9FF8007733
:1019A000FFFFFFFFFFFFFFFFFF3F7E00FFFE0FFF78
:1019B000FE003FE3EF9FFC0077FFFFFFFFFFFFFF0D
:1019C000FFFFBE7E007FFC1FFF0003FFC3EFDFFEB3
:1019D0000077FFFFFFFFFFFFFFFFFFBE7C3E7FF0B2
:1019E0007FF80FFFFDC3EFDFFF80E7FFFFFFFFFF83
:1019F000FFFFFFFFDE7CFF7FC3FFC07FFFF1C7EF6C
:101A0000DFFFC0EFFFFFFFFFFFFFFFFFFFDEFCFF79
:101A10007FFFFF03FFFFE387CFCEFFC0EFFFFFFF96
:101A2000FFFFFFFFFFFFFEFDFF7FFFFC07FFFF073C
:101A3000B7CFEF7F81CFFFFFFFFFFFFFFFFFFFEE7D
:101A4000F9FF7FFFF01FFFF807B7CFE7BF01DFFF08
:101A5000FFFFFFFFFFFFFFFFFEF9FF7FFFE01FFF1C
:101A6000800F27CF7784039FFFFFFFFFFFFFFFFF5C
:101A7000FFFEF9FEFFFF8003FFFFCF67CF77C007B0
:101A8000BFFFFFFFFFFFFFFFFFFFFEF9FCFFFF00AF
:101A900001FFFFCF67CF73F0073FFFFFFFFFFFFF9F
:101AA000FFFFFFFEF9FFFE7E00007FFFCF77C7B983
:101AB000FC1E7FFFFFFFFFFFFFFFFFFFFE7DFFFC20
:101AC000FC00003FFFDE77C7BDFFFEFFFFFFFFFF0B
:101AD000FFFFFFFFFFFE7CFFF9F807E03FFFDE7727
:101AE000C79CFFFCFFFFFFFFFFFFFFFFFFFFFE7C28
:101AF000FFF3F07FFC1FFFDE77C7DE7FF9FFFFFFFC
:101B0000FFFFFFFFFFFFFFFE7E7FE3E1FFFE0FFF12
:101B1000DE73C3CF3FF3FFFFFFFFFFFFFFFFFFFFBA
:101B2000FF3E3FC7E3FFFF0FFF9E73C3E78FC7FF73
:101B3000FFFFFFFFFFFFFFFFFFFF3F0F0FC7FFFF8D
:101B40008F7F9C73CBE7C00FFFFFFFFFFFFFFFFFFF
:101B5000FFFFFF1F804F8FE1FF86FFBC7BCDF3E0CF
:101B60001F7FFFFFFFFFFFFFFFFFFFFF0FE1DF9F73
:101B70008CFF86FFBC7BCCF8FCFF7FFFFFFFFFFFE5
:101B8000FFFFFFFFFF07FFDF3F7E7F85FF7C7BCEF0
:101B9000F81FFFFFFFFFFFFFFFFFFFFFFFFF83FFB8
:101BA000DF3FFF7F81FF7D7BCF7C01FEFFFFFFFFDB
:101BB000FFFFFFFFFFFFFF81FFDE7FFF7F83FEFD53
:101BC00079EFFF00FEFFFFFFFFFFFFFFFFFFFFFFBB
:101BD00080FFFCFFFF7F83FDF9F9EFFFC07EFFFF71
:101BE000FFFFFFFFFFFFFFFFFF807FFCFFFE7F8700
:101BF000FFF9FDEFFFF03DFFFFFFFFFFFFFFFFFFDE
:101C0000FFFFC03FFDFFFEFF8FFFFBBDE7FFFC3D79
:101C1000FFFFFFFFFFFFFFFFFFFFFFC00FF9FFFC0C
:101C2000FF8FFFFBFFE7FFFE39FFFFFFFFFFFFFF17
:101C3000FFFFFFFFC78FF9FFF1FF1FFFFBFBF7FF60
:101C4000FE1BFFFFFFFFFFFFFFFFFFFFFFE7E7FBBD
:101C5000FFC3FF3FFFFBFBF3FFFE13FFFFFFFFFF91
:101C6000FFFFFFFFFFFFE3F3F3FF8FFE3FFFFBFBF1
:101C7000F3FFFF07FFFFFFFFFFFFFFFFFFFFFFF384
:101C8000F9F3BF1FFC7FFFFBFBDBFFFF07FFFFFF3D
:101C9000FFFFFFFFFFFFFFFFF3FDF27E3FF9FFFFB6
:101CA000BBFFD9FFFE0FFFFFFFFFFFFFFFFFFFFF9F
:101CB000FFF9FCF4FC7FF3FFFF7BF7DCFEFE0FFF78
:101CC000FFFFFFFFFFFFFFFFFFFFF8FEF0F8FFE75A
:101CD000FBFEFFFFEEFEFE1FFFFFFFFFFFFFFFFF0C
:101CE000FFFFFFFCFF71F9FF9FF7FDFFFFEE7E7C1A
:101CF0003FFFFFFFFFFFFFFFFFFFFFFFFE7FF1F151
:101D0000FE7FE7FBFBFDE73F003FFFFFFFFFFFFF1D
:101D1000FFFFFFFFFFFE7FF3F3FFFFCFE7FBFFF3C4
:101D20008F007FFFFFFFFFFFFFFFFFFFFFFFFF3F72
:101D3000F3F3FFFF9FCFFBFBFBC381FFFFFFFFFF21
:101D4000FFFFFFFFFFFFFFFF9FF3E3FFFF1F1FFBEF
:101D5000FA79F003FFFFFFFFFFFFFFFFFFFFFFFF29
:101D6000FFCFF3E7FFFE3C3FFBF81CFC0FFFFFFF3C
:101D7000FFFFFFFFFFFFFFFFFFFFE7F3E7FFFC6051
:101D8000FFFBF00E3FFFFFFFFFFFFFFFFFFFFFFF27
:101D9000FFFFFFF3F3E7FFF803FFFFF1C70FFFFFBC
:101DA000FFFFFFFFFFFFFFFFFFFFFFFFFDFBE3FF65
:101DB000E007FFFDF3E701E7FFFFFFFFFFFFFFFF86
:101DC000FFFFFFFFFFFEF9F3FF803FFBFDF3F3C0D2
:101DD00007FFFFFFFFFFFFFFFFFFFFFFFFFFFFF911
:101DE000F1FE01FFFBFDF3FBE007FFFFFFFFFFFF3D
:101DF000FFFFFFFFFFFFFFFFF8F1FFFFFFF7DDF33E
:101E0000FBF80FFFFFFFFFFFFFFFFFFFFFFFFFFFDD
:101E1000FFFCF8FFFFFFF79DF3F9FF0FFFFFFFFF48
:101E2000FFFFFFFFFFFFFFFFFFFFFC7C7FFFFFE7E0
:101E30003EF3F9FF8FFFFFFFFFFFFFFFFFFFFFFFF5
:101E4000FFFFFFFE7C3FFFFFEE7ED3B9FF8FFFFF5A
:101E5000FFFFFFFFFFFFFFFFFFFFFFFFFE3E1FFF34
:101E6000FFCCFE9383FF9FFFFFFFFFFFFFFFFFFFFE
:101E7000FFFFFFFFFFFF1F87FFF7C9FE19C3FF9F8B
:101E8000FFFFFFFFFFFFFFFFFFFFFFFFFFFFFF0F52
:101E9000C0FF8F83FF19FFFF1FFFFFFFFFFFFFFF43
:101EA000FFFFFFFFFFFFFFFF87E0001F07FF18FF97
:101EB000FF3FFFFFFFFFFFFFFFFFFFFFFFFFFFFFF2
:101EC000FFC3F8007E0FFF9C7FFF3FFFFFFFFFFF78
:101ED000FFFFFFFFFFFFFFFFFFFFE07C00FE1FFF94
:101EE0008E7FDE7FFFFFFFFFFFFFFFFFFFFFFFFF94
:101EF000FFFFFFF00007FC3FFF8F1FBE7FFFFFFFCC
:101F0000FFFFFFFFFFFFFFFFFFFFFFFFF8003FF0B6
:101F10007FFFCF807CFFFFFFFFFFFFFFFFFFFFFF83
:101F2000FFFFFFFFFFFC0FFFE1FFFFE7E1FCFFFF0B
:101F3000FFFFFFFFFFFFFFFFFFFFFFFFFFFFFF07A9
:101F4000FF83FFFFE3FFF9FFFFFFFFFFFFFFFFFF3F
:101F5000FFFFFFFFFFFFFFFFC0000FFFFFF1FFF3D9
:101F6000FFFFFFFFFFFFFFFFFFFFFFFFFFFFFFFF81
:101F7000FFF800FFFFFFF8FFC7FFFFFFFFFFFFFFB6
:101F8000FFFFFFFFFFFFFFFFFFFFFFFFFFFFFFFC64
:101F90003F0FFFFFFFFFFFFFFFFFFFFFFFFFFFFF01
:101FA000FFFFFFFFFFFFFFFFFF003FFFFFFFFFFF00
:101FB000FFFFFFFFFFFFFFFFFFFFFFFFFFFFFFFF31
:101FC000FFFFF3FFFFFFFFFFFFFFFFFFFFFFFFFF2D
:101FD000FFFFFFFFFFFFFFFFFFFFFFFFFFFFFFFF11
:101FE000FFFFFFFF0000000023002600290004047B
:101FF00004040404040402020202020203030303B1
:10200000030301020408102040800102040810208C
:102010000102040810200000000800020100000373
:10202000040700000000000000000F1A11241FBE6A
:10203000CFEFD8E0DEBFCDBF11E0A0E0B1E0EAE82D
:10204000F5E302C005900D92A035B107D9F726E05F
:10205000A0E5B1E001C01D92A131B207E1F710E1A6
:10206000C6E1D0E104C02197FE010E94A91AC53142
:10207000D107C9F70E9497160C94C31A0C9400005C
:10208000CF92DF92EF92FF920F931F93CF93DF9344
:102090006C017A018B01C0E0D0E0CE15DF0589F03C
:1020A000D8016D918D01D601ED91FC910190F081E7
:1020B000E02DC6010995892B11F47E0102C02196FD
:1020C000ECCFC701DF91CF911F910F91FF90EF905F
:1020D000DF90CF900895089580E090E00895FC018E
:1020E000538D448D252F30E0842F90E0821B930B7D
:1020F000541710F0CF96089501970895FC01918D23
:10210000828D981761F0828DDF01A80FB11D5D9659
:102110008C91928D9F5F9F73928F90E008958FEFC7
:102120009FEF0895FC01918D828D981731F0828D7B
:10213000E80FF11D858D90E008958FEF9FEF0895D2
:10214000FC01918D228D892F90E0805C9F4F821B36
:1021500091098F73992708958AE591E00E94A01054
:1021600021E0892B09F420E0822F0895FC01848D61
:10217000DF01A80FB11DA35ABF4F2C91848D90E0B1
:1021800001968F739927848FA689B7892C93A0898C
:10219000B1898C9180648C93938D848D981306C043
:1021A0000288F389E02D80818F7D80830895EF92EE
:1021B000FF920F931F93CF93DF93EC0181E0888F01
:1021C0009B8D8C8D981305C0E889F989808185FDE8
:1021D00024C0F62E0B8D10E00F5F1F4F0F731127D9
:1021E000E02E8C8DE8120CC00FB607FCFACFE88900
:1021F000F989808185FFF5CFCE010E94B610F1CF1D
:102200008B8DFE01E80FF11DE35AFF4FF0820B8F1B
:10221000EA89FB898081806207C0EE89FF8960833B
:10222000E889F98980818064808381E090E0DF9192
:10223000CF911F910F91FF90EF900895CF93DF936F
:10224000EC01888D8823C9F0EA89FB89808185FDAE
:1022500005C0A889B9898C9186FD0FC00FB607FC0F
:10226000F5CF808185FFF2CFA889B9898C9185FF50
:10227000EDCFCE010E94B610E7CFDF91CF91089548
:1022800080E090E0892B29F00E94AC1081110C9421
:1022900000000895CF93DF9390E0FC01EE5FFF4DC7
:1022A0002491FC01E251F04E8491882361F190E089
:1022B000880F991FFC01EE58FF4FC591D491FC0186
:1022C000E859FF4FA591B491611109C09FB7F894E7
:1022D0008881209582238883EC912E230BC0623065
:1022E00061F49FB7F8943881822F80958323888387
:1022F000EC912E2B2C939FBF06C08FB7F894E881EA
:102300002E2B28838FBFDF91CF9108953FB7F8948C
:102310008091550190915601A0915701B0915801BB
:1023200026B5A89B05C02F3F19F00196A11DB11D30
:102330003FBFBA2FA92F982F8827820F911DA11D6B
:10234000B11DBC01CD0142E0660F771F881F991FA8
:102350004A95D1F708950E94BE1A1F920F920FB6A8
:102360000F9211242F933F934F935F936F937F931B
:102370008F939F93AF93BF93EF93FF938AE591E081
:102380000E94B610FF91EF91BF91AF919F918F91F5
:102390007F916F915F914F913F912F910F900FBE61
:1023A0000F901F9018951F920F920FB60F92112445
:1023B0002F938F939F93EF93FF93E0916A01F09196
:1023C0006B018081E0917001F091710182FD12C07A
:1023D0009081809173018F5F8F73209174018217B8
:1023E00051F0E0917301F0E0E65AFE4F958F809333
:1023F000730101C08081FF91EF919F918F912F9187
:102400000F900FBE0F901F901895833081F028F425
:10241000813099F08230A1F008958730A9F088309A
:10242000B9F08430D1F4809180008F7D03C0809119
:1024300080008F7780938000089584B58F7702C0E5
:1024400084B58F7D84BD08958091B0008F7703C0DF
:102450008091B0008F7D8093B00008951F93CF933B
:10246000DF93282F30E0F901EA5EFF4D8491F901F6
:10247000EE5FFF4DD491F901E251F04EC491CC23AF
:10248000C9F0162F81110E940512EC2FF0E0EE0F1B
:10249000FF1FE859FF4FA591B4918FB7F894111120
:1024A00005C09C91ED2FE095E92302C0EC91ED2B46
:1024B000EC938FBFDF91CF911F9108958F929F92E0
:1024C000AF92BF92CF92DF92EF92FF926B017C01AD
:1024D0000E9486114B015C01C114D104E104F10496
:1024E000F1F00E948611DC01CB0188199909AA0933
:1024F000BB09883E9340A105B10570F321E0C21AE3
:10250000D108E108F10888EE880E83E0981EA11C2E
:10251000B11CC114D104E104F10419F7DDCFFF901F
:10252000EF90DF90CF90BF90AF909F908F900895E5
:102530001F920F920FB60F9211242F933F938F93F8
:102540009F93AF93BF938091510190915201A091BD
:102550005301B09154013091500123E0230F2D37E6
:1025600020F40196A11DB11D05C026E8230F029697
:10257000A11DB11D209350018093510190935201F0
:10258000A0935301B093540180915501909156014D
:10259000A0915701B09158010196A11DB11D8093E2
:1025A000550190935601A0935701B0935801BF91E4
:1025B000AF919F918F913F912F910F900FBE0F90F0
:1025C0001F901895CF93C82F60E08AE00E942E12CA
:1025D000CEBD00000DB407FEFDCF8EB561E08AE0F0
:1025E000CF910C942E1297FD58C0E0910B06F091FC
:1025F0000C068E179F070CF050C077FD4EC020913F
:102600000D0630910E06621773070CF046C06E9FE0
:1026100090016F9F300D7E9F300D1124E0910906CF
:10262000F0910A06280F391F452BD9F037FF02C059
:10263000295F3F4F53E0359527955A95E1F7E20F13
:10264000F31F68E070E00E94761A20E830E0A901EC
:1026500002C0559547958A95E2F7CA019081892B6A
:102660001BC037FF02C0295F3F4F43E035952795D8
:102670004A95E1F7E20FF31F68E070E00E94761AD6
:1026800020E830E0A90102C0559547958A95E2F708
:10269000CA0180959081892380830895CF93C82FA4
:1026A00060E0809101020E942E128C2FCF910C9439
:1026B000E212CF93C82F61E0809101020E942E1296
:1026C0008C2FCF910C94E212EF92FF920F931F93F5
:1026D000CF93DF9300D000D0CDB7DEB78C017A0165
:1026E00084E42B833C8369837A830E944E13C80160
:1026F00023E0959587952A95E1F70E945913C70124
:1027000033E0959587953A95E1F70E94591385E452
:102710000E944E136981862F0E9459137A81872F58
:102720000E9459132B81822F0E9459133C81832FC1
:102730000F900F900F900F90DF91CF911F910F91FD
:10274000FF90EF900C945913CF93DF9320910502E3
:10275000309106023327F901EA5EFF4D8491F901B9
:10276000EE5FFF4DD491F901E251F04EC491CC23BC
:10277000A9F081110E940512EC2FF0E0EE0FFF1F6F
:10278000EC51F04EA591B491EC91ED2339F064E653
:1027900070E080E090E00E945E12D8CFDF91CF9190
:1027A00008950F931F93CF93DF9300D0CDB7DEB77B
:1027B0008C018EE469837A830E944E13C80123E062
:1027C000959587952A95E1F70E9459138FE40E9409
:1027D0004E136981862F0E9459137A81872F0E9498
:1027E00059130F900F90DF91CF911F910F910C947F
:1027F000A41382E20E944E1384EC0E94591380E2DB
:102800000E944E138FEF0E944E130C94A4132F922C
:102810003F924F925F926F927F928F929F92AF9270
:10282000BF92CF92DF92EF92FF920F931F93CF93BD
:10283000DF93009709F489C077FD87C037FD85C015
:1028400057FD83C017FD81C04B01E8EF8E2299240C
:102850001901F8EF2F2233249401220D331D4090EB
:10286000F7015090F8016090F9017090FA01690148
:10287000032E000CEE08FF08C414D504E604F70488
:1028800028F0720121E0E21AF10804C0790161E048
:10289000E61AF108BA01600F711F4090FB015090D9
:1028A000FC016090FD017090FE018B01072E000C71
:1028B000220B330B041515052605370510F0820190
:1028C00001C08B01015011095A01EC019801A701C7
:1028D000B501C4010E946413B501C4010E94D11363
:1028E00084E20E944E13E818F908C701019697FD8B
:1028F00007967C0183E0F594E7948A95E1F76101FE
:1029000093E0D594C7949A95E1F7662477246C1ADE
:102910007D0A812C912C0A191B0908151905ACF0A8
:102920005E01C501860D971D8E159F0534F4F501D6
:1029300081915F010E945913F4CFFFEF8F1A9F0A14
:10294000CC0DDD1D6C187D08E8CFDF91CF911F9174
:102950000F91FF90EF90DF90CF90BF90AF909F903E
:102960008F907F906F905F904F903F902F90089541
:10297000CF92DF92EF92FF922091FB013091FC0108
:10298000215031094091F7015091F801415051090E
:1029900060E070E080E090E00E94641360E070E02E
:1029A00080E090E00E94D11384E20E944E13C12C7B
:1029B000D12C76018091F7019091F801A091F90155
:1029C000B091FA019C01AD0183E05695479537958A
:1029D00027958A95D1F76091FB017091FC01809158
:1029E000FD019091FE010E94661AC616D706E80600
:1029F000F90660F4F601E45AF34F84910E945913EA
:102A00008FEFC81AD80AE80AF80AD4CFFF90EF90DF
:102A1000DF90CF9008958F929F92AF92BF92CF9206
:102A2000DF92EF92FF922091FB013091FC01215047
:102A300031094091F7015091F8014150510960E08E
:102A400070E080E090E00E94641360E070E080E05D
:102A500090E00E94D11384E20E944E13C12CD12C2D
:102A60007601460157018FEF881A980AA80AB80A1A
:102A70008091F7019091F801A091F901B091FA01CC
:102A80009C01AD0183E056954795379527958A952A
:102A9000D1F76091FB017091FC018091FD01909153
:102AA000FE010E94661AC616D706E806F90630F43B
:102AB0008FEF0E94591375016401D3CFFF90EF90FF
:102AC000DF90CF90BF90AF909F908F900895EF923E
:102AD000FF920F931F93CF93DF937C01C0E0D0E070
:102AE00020910B0630910C06C217D3079CF400E02E
:102AF00010E080910D0690910E060817190744F416
:102B0000A701B801CE010E94F3120F5F1F4FF1CF52
:102B10002196E6CFDF91CF911F910F91FF90EF901B
:102B200008959B0160910F06709110066115710563
:102B3000B1F497FD64C060910B0670910C06861786
:102B400097070CF05CC037FD5AC060910D0670917C
:102B50000E06261737070CF052C0B9014EC061307F
:102B60007105C1F497FD4BC060910D0670910E0682
:102B7000861797070CF043C037FD41C0E0910B0664
:102B8000F0910C062E173F07D4F5BC01CF01821B34
:102B9000930B33C062307105C1F497FD30C0E091F2
:102BA0000B06F0910C068E179F074CF537FD27C0DA
:102BB00060910D0670910E062617370704F5621B0B
:102BC000730B9F01281B390B17C063307105B9F4D3
:102BD00097FD15C060910D0670910E068617970738
:102BE00074F437FD0CC0E0910B06F0910C062E1723
:102BF0003F072CF4681B790BC9010C94F31208955C
:102C00004F925F926F927F928F929F92AF92BF92FC
:102C1000CF92DF92EF92FF920F931F93CF93DF93A8
:102C20006C015A018091020190910301AC0147703F
:102C3000552721E030E0452B11F420E030E043E05F
:102C4000969587954A95E1F7820F931F409104016D
:102C500050910501849F9001859F300D949F300D08
:102C60001124062E000C770B60527109269FC001BB
:102C7000279F900D369F900D1124C0910001D09197
:102C80000101C80FD91F612C712C50E8852E912CA1
:102C9000809104019091050168167906B8F500E06D
:102CA00010E02301E4E04E0E511C8091020190914E
:102CB00003010817190708F5FE0184917801F7E070
:102CC000EF22FF2490E094010E2C02C03595279549
:102CD0000A94E2F782239323892B39F0A501B201EC
:102CE000C8018C0D9D1D0E94911587E0E816F10426
:102CF00009F421960F5F1F4FD8CF87709927892B32
:102D000009F021969FEF691A790AC2CFDF91CF911E
:102D10001F910F91FF90EF90DF90CF90BF90AF90F9
:102D20009F908F907F906F905F904F9008957894D0
:102D300084B5826084BD84B5816084BD85B58260C0
:102D400085BD85B5816085BD80916E008160809371
:102D50006E001092810080918100826080938100DA
:102D600080918100816080938100809180008160EA
:102D7000809380008091B10084608093B100809145
:102D8000B00081608093B00080917A00846080936D
:102D90007A0080917A00826080937A0080917A0034
:102DA000816080937A0080917A00806880937A00B5
:102DB0001092C100E0916A01F0916B0182E0808382
:102DC000E0916601F09167011082E0916801F09155
:102DD00069018FEC808310927201E0916E01F09195
:102DE0006F0186E08083E0916C01F0916D0180813C
:102DF00080618083E0916C01F0916D018081886039
:102E00008083E0916C01F0916D0180818068808306
:102E1000E0916C01F0916D0180818F7D808361E094
:102E20008AE00E944A1161E088E00E944A1161E054
:102E300089E00E944A1160E087E00E944A11CFB702
:102E4000F89480915901811127C0E8EFFFE1849146
:102E5000ECE0F0E29491E82FF0E0EE0FFF1FEE5867
:102E6000FF4FA591B491EC91E92321F461E08AE050
:102E70000E942E1261E08AE00E944A118CB58061A6
:102E80008CBD8CB580648CBD61E08DE00E944A11E0
:102E900061E08BE00E944A11809159018F5F80931D
:102EA0005901CFBF81E58CBD81E08DBD86E091E009
:102EB000909308028093070260E08091FF010E94D6
:102EC0002E1268EC70E080E090E00E945E1261E0FB
:102ED0008091FF010E942E1268EC70E080E090E08B
:102EE0000E945E1281E00E944E1387EC0E945913EB
:102EF00080E00E94591380E00E9459138CE00E94E8
:102F00004E1387ED0E94591386ED0E9459138DE9E7
:102F10000E9459138CE20E944E1388EA0E945913B2
:102F20008AE30E944E138AE10E9459138BE30E94A8
:102F30004E1388E00E94591381E10E944E1383E0F2
:102F40000E94591382E30E944E13C0E0D0E0E0914A
:102F50000702F0910802EC0FFD1F80810E945913B7
:102F60002196CE31D10599F70E940B150E94F913D5
:102F70000E940B150E94F9131092100610920F0672
:102F800088EC90E090930C0680930B0688E190E02B
:102F900090930E0680930D0680E090E00E946715E6
:102FA00006E311E0CEE1D0E0F80161918F016623E4
:102FB00061F041E050E0CE010E94001680910201D4
:102FC00090910301C80FD91FEFCF00910D0610910A
:102FD0000E0620910B0630910C064AE050E060E0AE
:102FE00070E08091090690910A060E94071481E022
:102FF00090E00E94671503E411E0CEE1D0E0F80113
:1030000061918F01662361F040E050E0CE010E94A3
:1030100000168091020190910301C80FD91FEFCFD4
:1030200000910D0610910E0620910B0630910C06B2
:103030004EE150E060E070E08091090690910A0650
:103040000E94071480E490E090930C0680930B0696
:1030500090930E0680930D0681E090E00E94671524
:10306000C0E0D0E040E050E060E070E0CE010E94BF
:1030700091152196C932D105A9F7C0E0D0E040E012
:1030800050E062E370E0CE010E9491152196C932B2
:10309000D105A9F7C0E0D0E040E050E0BE0180E0FB
:1030A00090E00E9491152196C333D105A9F7C0E0A5
:1030B000D0E040E050E0BE0188E290E00E9491152F
:1030C0002196C333D105A9F700E010E0E12CF12CE3
:1030D000C6EFDFEF40E050E0B801C7010E94911554
:1030E000CE01880F991F8E3C9F4F24F0E2972FEF5F
:1030F000E21AF20ACE01880F991F89971CF4A8964C
:103100000F5F1F4F88E2E816F10419F00233110532
:1031100009F7C6EFDFEFE8E2EE2EF12C00E010E059
:1031200040E050E0B801C7010E949115CE01880F20
:10313000991F8E3C9F4F24F0E297F1E0EF1AF108BF
:10314000CE01880F991F89971CF4A8960F5F1F4F17
:10315000E114F10419F00233110511F700910D0685
:1031600010910E0620910B0630910C064CE350E0B6
:1031700060E170E08091090690910A060E940714B0
:1031800081E090E00E946715C6ECDFEFE12CF12CA6
:1031900002EE1FEF50E2C52ED12C40E050E0470177
:1031A00020E2820E911CB4015601A01AB10AC50199
:1031B0000E94911540E050E0B401380180E2680EB1
:1031C000711CC3010E94911540E050E046018E1829
:1031D0009F08B401C3010E94911540E050E0B40182
:1031E000C5010E949115EC16FD06B4F097012F5F02
:1031F0003F4FC901880F991F01968C0F9D1FEE2428
:10320000FF24E01AF10AE216F30641F40C171D0739
:103210004CF0C0E0D0E003C0CE0101C079010C1732
:103220001D074CF40F5F1F4FE801CC0FDD1F2196E7
:10323000C80FD91F01C0EC01101611060CF0ADCF5C
:1032400000910D0610910E0620910B0630910C0690
:103250004CE350E068E770E08091090690910A061F
:103260000E94071481E090E00E94671500E010E0E2
:10327000C0E0D0E040E050E0BE01C8010E949115DE
:103280002196C333D105B1F70F5F1F4F09321105E6
:1032900079F700910D0610910E0620910B063091E2
:1032A0000C0642E850E060E170E0809109069091E0
:1032B0000A060E94071481E090E00E946715C6ECA0
:1032C000DFEFC12CD12C02EE1FEF4601E0E28E0EA3
:1032D000911C40E050E0B401E0E2AE2EB12CA01A07
:1032E000B10AC5010E9491157801F0E2EF0EF11CC0
:1032F00040E050E0B401C7010E949115F0E24F2E6A
:10330000512C4C185D0840E050E0B201C7010E940A
:10331000911540E050E0B201C5010E9491152224B0
:103320003324201A310A5101AA0CBB1C2FEFA21A18
:10333000B20A3701AE0CBF1C6A147B0454F440E09F
:1033400050E0B401C3010E9491158FEF681A780A0A
:10335000F3CFEA14FB0454F440E050E0B201C7019B
:103360000E949115EFEFEE1AFE0AF3CFCC16DD06A0
:103370009CF096012F5F3F4FC901880F991F01965E
:103380008C0F9D1F61012216330641F40C171D0797
:103390004CF0C0E0D0E003C0CE0101C069010C17C1
:1033A0001D074CF40F5F1F4FE801CC0FDD1F219666
:1033B000C80FD91F01C0EC01101611060CF085CF03
:1033C00000910D0610910E0620910B0630910C060F
:1033D00042E850E068E770E08091090690910A06A3
:1033E0000E9407140E94F91360ED77E080E090E0FE
:1033F0000E945E120E94B8140E94F9130E94B81431
:103400000E94F91380E10E944E130E94A41360E011
:103410008091FF010E942E120E944011FDCFEAE52B
:10342000F1E01382128288EE93E0A0E0B0E08483A2
:103430009583A683B78388E291E09183808385ECAE
:1034400090E09587848784EC90E09787868780EC6E
:1034500090E0918B808B81EC90E0938B828B82EC5F
:1034600090E0958B848B86EC90E0978B868B118E09
:10347000128E138E148EE9E0F6E01782168289E030
:1034800092E0918380831382128215821482E7EF87
:10349000F1E088E090E09187808789E090E0938771
:1034A00082878AE090E09587848787E090E097871D
:1034B000868788EC90E0A0E0B0E080839183A283CF
:1034C000B38384839583A683B7830895DB018F93A9
:1034D0009F930E948A1ABF91AF91A29F800D911D68
:1034E000A39F900DB29F900D1124089597FB072E76
:1034F00016F4009407D077FD09D00E94951A07FCB6
:1035000005D03EF4909581959F4F089570956195F3
:103510007F4F08950E94AF1AA59F900DB49F900D04
:10352000A49F800D911D11240895AA1BBB1B51E17E
:1035300007C0AA1FBB1FA617B70710F0A61BB70B23
:10354000881F991F5A95A9F780959095BC01CD01C8
:103550000895EE0FFF1F0590F491E02D0994A29FAE
:10356000B001B39FC001A39F700D811D1124911D57
:10357000B29F700D811D1124911D089581E090E08E
:0A358000F8940C94C31AF894FFCFDE
:10358A007C000B001000020201111212222266694D
:10359A0069595899998800000000F8B413513551B7
:1035AA005119010000000000D71040106F101E11C1
:1035BA00A0107E10921048656C6C6F20776F726C49
:1035CA00642100652D50617065722044656D6F003D
:00000001FF
