:100000000C9462000C948A000C948A000C948A0070
:100010000C948A000C948A000C948A000C948A0038
:100020000C948A000C948A000C948A000C948A0028
:100030000C948A000C948A000C948A000C948A0018
:100040000C947A020C948A000C9448020C942202BC
:100050000C948A000C948A000C948A000C948A00F8
:100060000C948A000C948A00000000080002010031
:100070000003040700000000000000000000000072
:1000800023002600290000000000250028002B0086
:1000900000000000240027002A00040404040404D3
:1000A0000404020202020202030303030303010227
:1000B00004081020408001020408102001020408F6
:1000C0001020090311241FBECFEFD8E0DEBFCDBF43
:1000D00011E0A0E0B1E0E4EEFEE002C005900D9278
:1000E000A232B107D9F721E0A2E2B1E001C01D922E
:1000F000AC3CB207E1F710E0C2E6D0E004C02197C3
:10010000FE010E946507C136D107C9F70E94970317
:100110000C9470070C940000CF92DF92EF92FF9244
:100120000F931F93CF93DF936C017A018B01C0E093
:10013000D0E0CE15DF0581F0D8016D918D01D6019B
:10014000ED91FC910190F081E02DC6010995892B7C
:1001500011F02196EECF7E01C701DF91CF911F9163
:100160000F91FF90EF90DF90CF900895089580E079
:1001700090E00895FC01538D448D252F30E0842FAD
:1001800090E0821B930B541710F0CF9608950197BF
:100190000895FC01918D828D981761F0828DDF01A9
:1001A000A80FB11D5D968C91928D9F5F9F73928F6A
:1001B00090E008958FEF9FEF0895FC01918D828D5F
:1001C000981731F0828DE80FF11D858D90E008952C
:1001D0008FEF9FEF0895FC01918D228D892F90E084
:1001E000805C9F4F821B91098F73992708958BE242
:1001F00091E00E94EB0021E0892B09F420E0822F9E
:100200000895FC01848DDF01A80FB11DA35ABF4FD3
:100210002C91848D90E001968F739927848FA68905
:10022000B7892C93A089B1898C91837080648C9359
:10023000938D848D981306C00288F389E02D808108
:100240008F7D80830895EF92FF920F931F93CF933A
:10025000DF93EC0181E0888F9B8D8C8D981305C016
:10026000E889F989808185FD26C0F62E0B8D10E086
:100270000F5F1F4F0F731127E02E8C8DE8120CC0FB
:100280000FB607FCFACFE889F989808185FFF5CFA1
:10029000CE010E940101F1CF8B8DFE01E80FF11D0F
:1002A000E35AFF4FF0829FB7F8940B8FEA89FB89DE
:1002B000808180620AC09FB7F894EE89FF896083CD
:1002C000E889F98980818370806480839FBF81E0A1
:1002D00090E0DF91CF911F910F91FF90EF900895E3
:1002E000CF93DF93EC01888D8823C9F0EA89FB89DD
:1002F000808185FD05C0A889B9898C9186FD0FC0D4
:100300000FB607FCF5CF808185FFF2CFA889B989A8
:100310008C9185FFEDCFCE010E940101E7CFDF91E7
:10032000CF91089580E090E0892B29F00E94F7009A
:1003300081110C940000089590E0FC01E859FF4FF2
:100340002491FC01E255FF4F3491FC01E656FF4F2A
:10035000E491EE2309F43CC0222339F1233091F0DB
:1003600038F42130A9F0223001F584B58F7D12C018
:10037000273091F02830A1F02430B9F4809180002A
:100380008F7D03C0809180008F77809380000DC0A7
:1003900084B58F7784BD09C08091B0008F7703C08A
:1003A0008091B0008F7D8093B000F0E0EE0FFF1FD2
:1003B000EA57FF4FA591B4919FB7F894611104C01B
:1003C0008C913095382302C0EC913E2B3C939FBF1B
:1003D00008953FB7F8948091270190912801A0914A
:1003E0002901B0912A0126B5A89B05C02F3F19F01D
:1003F0000196A11DB11D3FBFBA2FA92F982F8827A5
:10040000820F911DA11DB11DBC01CD0142E0660FFF
:10041000771F881F991F4A95D1F70895009769F0B3
:10042000FC0101900020E9F73197AF01481B590BFF
:10043000BC018BE291E00C948C0080E090E0089588
:100440000E946B071F920F920FB60F9211242F93E9
:100450003F934F935F936F937F938F939F93AF934C
:10046000BF93EF93FF938BE291E00E940101FF9114
:10047000EF91BF91AF919F918F917F916F915F911C
:100480004F913F912F910F900FBE0F901F90189595
:100490001F920F920FB60F9211242F938F939F9359
:1004A000EF93FF93E0913B01F0913C018081E0915B
:1004B0004101F091420182FD12C09081809144017E
:1004C0008F5F8F7320914501821751F0E0914401B5
:1004D000F0E0E55DFE4F958F8093440101C080817F
:1004E000FF91EF919F918F912F910F900FBE0F90E1
:1004F0001F9018951F920F920FB60F9211242F93F1
:100500003F938F939F93AF93BF93809123019091DB
:100510002401A0912501B09126013091220123E010
:10052000230F2D3720F40196A11DB11D05C026E82B
:10053000230F0296A11DB11D209322018093230158
:1005400090932401A0932501B09326018091270167
:1005500090912801A0912901B0912A010196A11D35
:10056000B11D8093270190932801A0932901B09396
:100570002A01BF91AF919F918F913F912F910F9041
:100580000FBE0F901F901895CF92DF92EF92FF92BF
:100590000F931F93E82FF92F05C00150110921096E
:1005A000310961F1908196239417B9F305C0015088
:1005B00011092109310911F1908196239413F7CF84
:1005C000C12CD12CE12CF12C0AC08FEFC81AD80A0B
:1005D000E80AF80A0C151D052E053F0579F0808103
:1005E0008623841791F36C2D7D2D8E2D9F2D1F91C9
:1005F0000F91FF90EF90DF90CF90089560E070E052
:1006000080E090E01F910F91FF90EF90DF90CF90EE
:100610000895CF93DF9310922E0110922D0188EE52
:1006200093E0A0E0B0E080932F0190933001A0937D
:100630003101B093320184E091E090932C018093DA
:100640002B0185EC90E0909338018093370184EC86
:1006500090E090933A018093390180EC90E0909380
:100660003C0180933B0181EC90E090933E018093AC
:100670003D0182EC90E09093400180933F0186EC35
:1006800090E09093420180934101109244011092B6
:10069000450110924601109247018BE090E0909343
:1006A000C9018093C8018AE090E09093CB018093C8
:1006B000CA01E9EBF0E02491E5EAF0E084918823B7
:1006C00099F090E0880F991FFC01E057FF4FA5912A
:1006D000B491FC01EA57FF4F859194918FB7F8943C
:1006E000EC91E22BEC938FBFE8EBF0E02491E4EA8D
:1006F000F0E084918823C1F090E0880F991FFC01FD
:10070000E057FF4FC591D491FC01EA57FF4FA591E7
:10071000B4919FB7F8948881E22FE0958E23888367
:100720008C91E823EC939FBFDF91CF910895CF93F5
:10073000DF93CDB7DEB7A2970FB6F894DEBF0FBE3A
:10074000CDBF789484B5826084BD84B5816084BD5A
:1007500085B5826085BD85B5816085BD80916E005F
:10076000816080936E001092810080918100826090
:1007700080938100809181008160809381008091CD
:1007800080008160809380008091B10084608093BC
:10079000B1008091B00081608093B00080917A00B8
:1007A000846080937A0080917A00826080937A00DE
:1007B00080917A00816080937A0080917A008068CD
:1007C00080937A001092C100E0913B01F0913C01CE
:1007D00082E08083E0913701F09138011082E0914E
:1007E0003901F0913A018FEC808310924301E0913E
:1007F0003F01F091400186E08083E0913D01F0915E
:100800003E01808180618083E0913D01F0913E0155
:10081000808188608083E0913D01F0913E0180817C
:1008200080688083E0913D01F0913E0180818F7D61
:1008300080834AE0842E912CA12CB12C60E0809121
:10084000C8010E949C0183E090E00197F1F761E00C
:100850008091C8010E949C0183E290E00197F1F72A
:1008600060E08091C8010E949C018091CA01909132
:10087000CB019927FC01E255FF4F6491FC01E6563C
:10088000FF4FE491F0E0EE0FFF1FE458FF4F85911A
:10089000949100E412E42FE030E0462F0E94C4025D
:1008A000611571058105910549F0DC01CB010196C7
:1008B000A11DB11DBC01CD019F7003C060E070E0BF
:1008C000CB010E941A0620E030E040E05FE30E9486
:1008D000D10628E23EE74CE05DE30E94D1066B01C1
:1008E0007C0120E030E0A9010E94E6058823A9F000
:1008F00020E030E048EC53E4C701B6010E94CC068A
:1009000018165CF0A7019601C701B6010E943E07C8
:10091000882349F082E191E020C0C12CD12C20E84D
:10092000E22E2FEBF22E26013701E89477F82FEF15
:100930003FEF4FE75FE7C301B2010E943E0781111D
:100940000FC02FEF3FEF4FE75FE7C301B2010E94F7
:10095000E60518162CF486E191E00E940E029BC079
:100960002FEF3FEF4FE75FE4C701B6010E94CC06CF
:1009700018161CF48AE191E0F0CF2FEF3FEF4FE71C
:100980005FECC701B6010E94E60587FDF3CF20E0CA
:1009900030E0A901C701B6010E94E60587FF09C042
:1009A0006DE28BE291E00E942301F7FAF094F7F8F0
:1009B000F0942AE037ED43EA5BE3C701B6010E94F9
:1009C0007A052B013C010E94EB056B017C010E9422
:1009D0001A069B01AC01C301B2010E9479051B01FB
:1009E0002C0119A28E010F5D1F4F0AA3712EC701A2
:1009F000B601A50194010E94430769017A01605D77
:100A0000F80162938F01232B242B252B81F7CF0133
:100A10000E940E026EE28BE291E00E94230193E0BD
:100A2000F92EFA94FF20B9F120E030E040E251E4E1
:100A3000C201B1010E94D1061B012C010E94EB05ED
:100A40009B0140E050E019A20AA1172D662EC32E8B
:100A5000D42EE52ECA01B901A50194010E944307D5
:100A6000605DF80162938F01211531054105510543
:100A700089F7CF010E940E02662D7C2D8D2D9E2DB3
:100A80000E941A069B01AC01C201B1010E947905C6
:100A90001B012C01C6CF8EE191E00E940E020E9444
:100AA000E9012B013C0184EFC82EDD24D394E12C15
:100AB000F12C0E94E901DC01CB0184199509A609FA
:100AC000B709883E9340A105B10598F3F1E0CF1A2C
:100AD000D108E108F10828EE420E23E0521E611C05
:100AE000711CC114D104E104F10419F70E949201B0
:100AF000A5CE5058BB27AA270E9491050C949206B8
:100B00000E94840638F00E948B0620F039F49F3F43
:100B100019F426F40C9481060EF4E095E7FB0C948E
:100B20007B06E92F0E94A30658F3BA1762077307E2
:100B30008407950720F079F4A6F50C94C5060EF409
:100B4000E0950B2EBA2FA02D0B01B90190010C01DD
:100B5000CA01A0011124FF27591B99F0593F50F4F5
:100B6000503E68F11A16F040A22F232F342F44274D
:100B7000585FF3CF469537952795A795F040539545
:100B8000C9F77EF41F16BA0B620B730B840BBAF015
:100B90009150A1F0FF0FBB1F661F771F881FC2F780
:100BA0000EC0BA0F621F731F841F48F48795779594
:100BB0006795B795F7959E3F08F0B0CF9395880F4E
:100BC00008F09927EE0F9795879508950E9457068C
:100BD00008F481E008950E94AB0688F09F5798F0D2
:100BE000B92F9927B751B0F0E1F0660F771F881F32
:100BF000991F1AF0BA95C9F714C0B13091F00E944C
:100C0000C506B1E008950C94C506672F782F882794
:100C1000B85F39F0B93FCCF3869577956795B39572
:100C2000D9F73EF490958095709561957F4F8F4FE1
:100C30009F4F0895E89409C097FB3EF490958095E6
:100C4000709561957F4F8F4F9F4F9923A9F0F92F92
:100C500096E9BB279395F695879577956795B79510
:100C6000F111F8CFFAF4BB0F11F460FF1BC06F5FF6
:100C70007F4F8F4F9F4F16C0882311F096E911C008
:100C8000772321F09EE8872F762F05C0662371F029
:100C900096E8862F70E060E02AF09A95660F771F3D
:100CA000881FDAF7880F9695879597F90895990F19
:100CB0000008550FAA0BE0E8FEEF16161706E80726
:100CC000F907C0F012161306E407F50798F0621B47
:100CD000730B840B950B39F40A2661F0232B242B1C
:100CE000252B21F408950A2609F4A140A6958FEF3B
:100CF000811D811D089597F99F6780E870E060E08D
:100D000008959FEF80EC089500240A9416161706A4
:100D100018060906089500240A94121613061406EC
:100D200005060895092E0394000C11F4882352F04F
:100D3000BB0F40F4BF2B11F460FF04C06F5F7F4F07
:100D40008F4F9F4F089557FD9058440F551F59F0EE
:100D50005F3F71F04795880F97FB991F61F09F3FA8
:100D600079F087950895121613061406551FF2CFD1
:100D70004695F1DF08C0161617061806991FF1CF21
:100D800086957105610508940895E894BB27662748
:100D90007727CB0197F908950E94570608F48FEF43
:100DA00008950E94E4060C9492060E94840638F08E
:100DB0000E948B0620F0952311F00C947B060C9476
:100DC000810611240C94C6060E94A30670F3959F19
:100DD000C1F3950F50E0551F629FF001729FBB2732
:100DE000F00DB11D639FAA27F00DB11DAA1F649FCE
:100DF0006627B00DA11D661F829F2227B00DA11D81
:100E0000621F739FB00DA11D621F839FA00D611D06
:100E1000221F749F3327A00D611D231F849F600D27
:100E2000211D822F762F6A2F11249F5750409AF050
:100E3000F1F088234AF0EE0FFF1FBB1F661F771FDC
:100E4000881F91505040A9F79E3F510580F00C94A7
:100E50007B060C94C6065F3FE4F3983ED4F3869578
:100E600077956795B795F795E7959F5FC1F7FE2B47
:100E7000880F911D9695879597F908950E945706BA
:100E8000880B990B0895A1E21A2EAA1BBB1BFD012A
:100E90000DC0AA1FBB1FEE1FFF1FA217B307E40759
:100EA000F50720F0A21BB30BE40BF50B661F771FB1
:100EB000881F991F1A9469F7609570958095909591
:100EC0009B01AC01BD01CF010895EE0FFF1F0590FE
:100ED000F491E02D099481E090E0F8940C9470076F
:040EE000F894FFCFB4
:100EE4000000000023018C00BA007001EB00C9006F
:100EF400DD006E616E00696E66006F7666000D0A35
:020F04000000EB
:00000001FF
