:100000000C94600D0C94880D0C94880D0C94880D44
:100010000C94880D0C94880D0C94880D0C94880D0C
:100020000C94880D0C94880D0C94880D0C94880DFC
:100030000C94880D0C94880D0C94880D0C94880DEC
:100040000C94B3120C94880D0C9481120C945B12D6
:100050000C94880D0C94880D0C94880D0C94880DCC
:100060000C94880D0C94880D000000000000000026
:100070000000000000101010101000001000000020
:10008000006C484800000000000000000014142824
:100090007C287C28505000000010384040384870C0
:1000A00010100000002050200C7008140800000000
:1000B00000000018202054483400000000101010E8
:1000C00010000000000000000008081010101010C0
:1000D0001008080000202010101010101020200020
:1000E00000107C1028280000000000000000101004
:1000F00010FE1010100000000000000000000018AA
:100100001030200000000000007C00000000000013
:10011000000000000000003030000000000404086F
:100120000810102020400000003844444444444457
:100130003800000000301010101010107C0000007B
:1001400000384404081020447C00000000384404B7
:100150001804044438000000000C141424447E04E5
:100160000E000000003C2020380404443800000049
:10017000001C20407844444438000000007C4404C3
:100180000808081010000000003844443844444473
:100190003800000000384444443C0408700000006B
:1001A0000000003030000030300000000000001877
:1001B000180000183020000000000C106080601053
:1001C0000C000000000000007C007C00000000002B
:1001D0000000C02018041820C000000000001824EF
:1001E00004081000300000003844444C54544C4083
:1001F000443800000030102828287C44EE0000001D
:1002000000F8444478444444F8000000003C444072
:10021000404040443800000000F048444444444812
:10022000F000000000FC445070504044FC0000000E
:10023000007E22283828202070000000003C444026
:10024000404E44443800000000EE44447C444444A2
:10025000EE000000007C1010101010107C00000058
:10026000003C0808084848483000000000EE4448B8
:1002700050704844E6000000007020202020242414
:100280007C00000000EE6C6C54544444EE0000000E
:1002900000EE64645454544CEC00000000384444B4
:1002A00044444444380000000078242424382020AA
:1002B000700000000038444444444444381C0000AA
:1002C00000F8444444784844E200000000344C40C4
:1002D000380404645800000000FE92101010101042
:1002E0003800000000EE4444444444443800000018
:1002F00000EE4444282828101000000000EE44447A
:10030000545454542800000000C6442810102844B7
:10031000C600000000EE442828101010380000002D
:10032000007C4408101020447C000000003820208D
:1003300020202020202038000040202020101008FD
:1003400008080000003808080808080808083800ED
:100350000010102844000000000000000000000011
:1003600000000000000000FE001008000000000077
:100370000000000000000038443C44443E000000FF
:1003800000C0405864444444F80000000000003CB1
:100390004440404438000000000C04344C444444C1
:1003A0003E00000000000038447C40403C0000005B
:1003B000001C207C202020207C0000000000003653
:1003C0004C4444443C04380000C040586444444415
:1003D000EE00000000100070101010107C000000F3
:1003E00000100078080808080808700000C0405C89
:1003F00048705048DC000000003010101010101041
:100400007C000000000000E854545454FE0000003A
:10041000000000D864444444EE00000000000038AE
:100420004444444438000000000000D8644444447C
:100430007840E000000000364C4444443C040E0088
:100440000000006C302020207C0000000000003CF8
:1004500044380444780000000000207C2020202242
:100460001C000000000000CC4444444C3600000056
:10047000000000EE4444282810000000000000EEB8
:100480004454545428000000000000CC4830304848
:10049000CC000000000000EE442428181010780062
:1004A0000000007C481020447C0000000008101070
:1004B0001010201010100800001010101010101054
:1004C0001010000000201010101008101010200054
:1004D00000000000002458000000000000000000A0
:1004E00023002600290000000000250028002B0022
:1004F00000000008000201000003040700000000E3
:100500000000000000000000240027002A00010273
:100510000408102040800102040810200102040891
:10052000102004040404040404040202020202026F
:10053000030303030303FFFFFFFFFFFFFFFFFFFFB3
:10054000FFFFFFFFFFFFFFFFFFFFFFFFFFFFFFFFBB
:10055000FFFFFFFFFFFFFFFFFFFF1FFFFFFFFFFF8B
:10056000FFFFFFFFFC7FFE3FFFFFFFFFFFFFFFFFDF
:10057000FFF83FFC3FFFFFFFFFFFFFFFFFFFC01F34
:10058000F03FFFFFFFFFFFFFFFFFFF800FC03FFFB8
:10059000FFFFFFFFFFFFFFFF8047807FFFFFFFFFA1
:1005A000FFFFFFFFFF80021FFFFFFFFFFFFFFFFFB7
:1005B000FFFF8386783FFFFFFFFFFFFFFFFFFF8204
:1005C0000CE00FFFFFFFFFFFFFFFFFFF800C80032A
:1005D000FFFFFFFFFFFFFFFFFF80050000FFFFFFA2
:1005E000FFFFFFFFFFFFC6040000FFFFFFFFFFFF4D
:1005F000FFFFFFC0040001FFFFFFFFFFFFFFFFFF42
:10060000E0046001FFFFFFFFFFFFFFFFFFF0066058
:1006100001FFFFFFFFFFFFFFFFFFFC0E0001FFFFD9
:10062000FFFFFFFFFFFFFFFFE22001FFFFFFFFFFD4
:10063000FFFFFFFFF0001003FFFFFFFFFFFFFFFFC3
:10064000FFE0800007FFFFFFFFFFFFFFFFFFF080DD
:100650001807FFFFFFFFFFFFFFFFFFF000801FFFF6
:10066000FFFFFFFFFFFFFFFFF0C0803C7FFFFFFFAA
:10067000FFFFFFFFFFE0C07FF03FFFFFFFFFFFFF37
:10068000FFFFE06040001FFFFFFFFFFFFFFFFFE0F5
:100690003820000FFFFFFFFFFFFFFFFFE01C1800E7
:1006A0001FFFFFFFFFFFFFFFFFFC030C0FFFFFFF1C
:1006B000FFFFFFFFFFFFFF0603FFFFFFFFFFFFFF3F
:1006C000FFFFFFFFFC01FFFFFFFFFFFFFFFFFFFF3B
:1006D000FFF0C9FFFFFFFFFFFFFFFFFFFFFFC0CFDE
:1006E000FFFFFFFFFFFFFFFFFFFFFFC047FFFFFF11
:1006F000FFFFFFFFFFFFFFFFE007FFFFFFFFFFFF21
:10070000FFFFFFFFFFE007FFFFFFFFFFFFFFFFFF10
:10071000FFFFF007FFFFFFFFFFFFFFFFFFFFFFF0FF
:100720003FFFFFFFFFFFFFFFFFFFFFFFF9CFFFFFCF
:10073000FFFFFFFFFFFFFFFFFFFFEFFFFFFFFFFFD9
:10074000FFFFFFFFFFFFFFFFFFFFFFFFFFFFFFFFB9
:10075000FFFFFFFFFFFFFFFFFFFFFFFFFFFFFFFFA9
:10076000FFFFFFFFFFFFFFFFFFFFFFFFFFFFFFFF99
:10077000FFFFFFFFFFFFFFFFFFFFFFFFFFFFFFFF89
:1009C000FFFFFFFFFF3FFFFFFFFFFFFFFFFFFFFFF7
:1009D000FFF03FFFFFFFFFFFFFFFFFFFFFFF801F55
:1009E000FFFFFFFFFFFFFFFFFFFFFF000FFFFFFF06
:1009F000FFFFFFFFFFFFFFFE000FFFFFFFFFFFFFF7
:100A0000FFFFFFFFFE0007FFFFFFFFFFFFFFFFFFEE
:100A1000FFFE0007FFFFFFFFFFFFFFFFFFFFFE4E90
:100A200007FFFFFFFFFFFFFFFFFFFFFE0107FFFFC5
:100A3000FFFFFFFFFFFFFFFFFE0107FFFFFFFFFFBD
:100A4000FFFFFFFFFFFE000FFFFFFFFFFFFFFFFFA6
:100A5000FFFFFE00FFFFFFFFFFFFFFFFFFFFFFFEA7
:100A600003FFFFFFFFFFFFFFFFFFFFFFFE1C01FF74
:100A7000FFFFFFFFFFFFFFFFFFFE6800FFFFFFFF1D
:100A8000FFFFFFFFFFFFF0C4007FFFFFFFFFFFFF3F
:100A9000FFFFFFF106003FFFFFFFFFFFFFFFFFFF2C
:100AA000E103003FFFFFFFFFFFFFFFFFFFE20180C9
:100AB0001FFFFFFFFFFFFFFFFFFFC1C08007FFFF1A
:100AC000FFFFFFFFFFFFFFC070C00FFFFFFFFFFF33
:100AD000FFFFFFFFE038001FFFFFFFFFFFFFFFFFEB
:100AE000FFE00C01FFFFFFFFFFFFFFFFFFFFC01F45
:100AF000FF8FFFFFFFFFFFFFFFFFFF8070000FFF73
:100B0000FFFFFFFFFFFFFFFF8100001FFFFFFFFF51
:100B1000FFFFFFFFFFC100003FFFFFFFFFFFFFFFE1
:100B2000FFFFC00FC07FFFFFFFFFFFFFFFFFFFE0E2
:100B30000FC0FFFFFFFFFFFFFFFFFFFFF0003FFFC2
:100B4000FFFFFFFFFFFFFFFFFFFA070FFFFFFFFFA2
:100B5000FFFFFFFFFFFFFE0707FFFFFFFFFFFFFF96
:100B6000FFFFFFFF0803FFFFFFFFFFFFFFFFFFFF88
:100B7000FF0003FFFFFFFFFFFFFFFFFFFFFFC001BD
:100B8000FFFFFFFFFFFFFFFFFFFFFFE000FFFFFF93
:100B9000FFFFFFFFFFFFFFFFF801FFFFFFFFFFFF6A
:100BA000FFFFFFFFFFFC07FFFFFFFFFFFFFFFFFF50
:100BB000FFFFFFFFFFFFFFFFFFFFFFFFFFFFFFFF45
:100BC000FFFFFFFFFFFFFFFFFFFFFFFFFFFFFFFF35
:100BD000FFFFFFFFFFFFFFFFFFFFFFFFFFFFFFFF25
:100BE000FFFFFFFFFFFFFFFFFFFFFFFFFFFFFFFF15
:10104000FFFFFFFFFFFFFFFFFFFFFFBFFFFFFFFFF0
:10105000FFFFFFFFFFFFFFFFCFFFFFFFFFFFFFFFD0
:10106000FFFFFFFFFFE0FFFFFFFFFFFFFFFFFFFFAF
:10107000FFFFF83FFFFFFFFFFFFFFFFFFFFFFFFE48
:101080000FFFFFFFFFFFFFFFFFFFFFFFFF07FFFF58
:10109000FFFFFFFFFFFFFFE7FFFFC3FFFFFFFFFFB4
:1010A000FFFFFFFFC7FFFFC03FFFFFFFFFFFFFFF87
:1010B000FFE7FFFFE00FFFFFFFFFFFFFFFFFE7FF7F
:1010C000FFF007FFFFFFFFFFFFFFFFE7FFFFF8074E
:1010D000FFFFFFFFFFFFFFFFE7FFFFFC03FFFFFF37
:1010E000FFFFFFFFFFE7FFFFFE01FFFFFFFFFFFF27
:1010F000FFFFE7FFFFFF00FFFFFFFFFFFFFFFFE72F
:10110000FFFFFF80FFFFFFFFFFFFFFFFE7FFFFFF86
:10111000C0FFFFFFFFFFFFFFFFE7FFFFFFC0FFFF75
:10112000FFFFFFFFFFFFE7FFFFFFE07FFFFFFFFF86
:10113000FFFFFFE7FFFFFFE07FFFFFFFFFFFFFFF76
:10114000E7FFFFFFE07FFFFFFFFFFFFFFFE7FFFF7E
:10115000FFF07FFFFFFFFFFFFFFFE7FFFFFFF07FD5
:10116000FFFFFFFFFFFFFFE7FFFFFFF07FDFFFFF56
:10117000FFFFFFFFE7FFFFFFF07FBFFFFFFFFFFF66
:10118000FFE7FFFFFFF07E7FFFFFFFFFFFFFE7FFAF
:10119000FFFFF07E7FFFFFFFFFFFFFE7FFFFFFF096
:1011A0007CFFFFFFFFFFFFFFE7FFFFFFF07DFFFF7B
:1011B000FFFFFFFFFFE7FFFC03E0FDFFFFFFFFFF77
:1011C000FFFFE7FFF800E079FFFFFFFFFFFFFFE70A
:1011D000FFF00060FFFFFFFFFFFFFFFFE7FFE00002
:1011E00030F8001FFFFFFFFFFFE7FFC06011800026
:1011F0001FFFFFFFFFFFE7FF00301900001FFFFF89
:10120000FFFFFFE7FE4020080000FFFFFFFFFFFF9A
:10121000E7C1C00008007FFFFFFFFFFFFFE780C0BE
:10122000200800FFFFFFFFFFFFFFE7004C2008073B
:10123000FFFFFFFFFFFFFFE6100420001DFFFFFF81
:10124000FFFFFFFFE6100420407CFFF9FFFFFFFFD8
:10125000FFE410000080FCFFE07FFFFFFFFFE40CD5
:1012600000030FFC7FE43FFFFFFFFFE40E00C01F01
:10127000FC7FC01FFFFFFFFFE40B83E00FFC7FC27A
:101280001FFFFFFFFFE60007F00FFE7FC10FFFFF0C
:10129000FFFFE60007F007FE7FC08FFFFFFFFFE7BD
:1012A0000007F003FE7FE07FFFFFFFFFE78003F30F
:1012B00001FE7FE01FFFFFFFFFE7C003E380FE7F2B
:1012C000F01FFFFFFFFFE7F800C0E0FC7FF087FFA3
:1012D000FFFFFFE7F700003CFC7FF083FFFFFFFF0D
:1012E000E7F9800018FCFFF081FFFFFFFFE79D801A
:1012F0000400FCFFF1C1FFFFFFFFE635010400FD24
:10130000FFF371FFFFFFFFE662020000FDFFE20155
:10131000FFFFFFFFE4C2020000FBFFE201FFFFFF4F
:10132000FFE582020001F3FFE001FFFFFFFFE301A1
:101330000E0003F3FFE401FFFFFFFFE60183007FE0
:10134000E7FFC000FFFFFFFFE4018100FFCFFFE0E8
:10135000003FFFFFFFE0018000FF8FFFE0001FFF65
:10136000FFFFE003C001FF9FFFE0011FFFFFFFE061
:101370000FF801FFDFFFFC161FFFFFFFE01FF0C7A4
:10138000F83FFFF61F1FFFFFFFE03FC06FF01FFF9A
:10139000E2011FFFFFFFE07FC03FC00FFFCC009FB7
:1013A000FFFFFFE0FFC01FC00FFFDE0019FFFFFFC0
:1013B000E0FF800F800FFF9F0000FFFFFFE1FF8035
:1013C000400007FF9FFE00FFFFFFF3FF80C0000704
:1013D000FFBFFF007FFFFFE7FFC0800007FFBFFFE9
:1013E000907FFFFFE7FFC780000FFFBFFFD87FFFA1
:1013F000FFE7FFE0C0003FFF3FFFE07FFFFFE7FFA9
:10140000E0C0001FFF3FFFF0FFFFFFE7FFF020807D
:1014100007FF3FFFFFFFFFFFE7FFE0300003FF7F15
:10142000FFFFFFFFFFE7FFC0304003FF3FFFFFFF6D
:10143000FFFFE7FC40106003FF7FFFFFFFFFFFE7B8
:10144000E0C0183C07FE7FFFFFFFFFFFE787C008F3
:10145000180FFC7FFFFFFFFFFFF70FE008101FFCD6
:10146000FFFFFFFFFFFFF67FFE0C1043F9FFFFFFBA
:10147000FFFFFFF0FFF1041081F3FFFFFFFFFFFF0D
:10148000F1FFE1041181E3FFFFFFFFFFFFF3FFC066
:101490000611804FFFFFFFFFFFFFF3FFC0021000A8
:1014A0007FFFFFFFFFFFFFF7FFC02210087FFFFF56
:1014B000FFFFFFFFF7FFC03A300C7FFFFFFFFFFF8A
:1014C000FFF7FFC218000C7FFFFFFFFFFFFFF7FFD2
:1014D000C310001C7FFFFFFFFFFFFFF7FFC180006D
:1014E000607FFFFFFFFFFFFFF7FF80C000C03FFFEF
:1014F000FFFFFFFFFFF7FF80C001803FFFFFFFFFFF
:10150000FFFFF7F0003000001FFFFFFFFFFFFFF7B6
:1015100003E000E0001FFFFFFFFFFFFFF60FF001F9
:10152000F0023FFFFFFFFFFFFFF0FFF803F83C3F33
:10153000FFFFFFFFFFFFF1E00407F8007FFFFFFF61
:10154000FFFFFFF3800207F800FFFFFFFFFFFFFF31
:10155000F60FFE07F801FFFFFFFFFFFFFFF07FFC24
:1015600003F803BFFFFFFFFFFFFFF1E01021F003CF
:1015700027FFFFFFFFFFFFF307C0C0608191FFFF60
:10158000FFFFFFFFF03FC10000C1D8FFFFFFFFFFDB
:10159000FFF07F870400604C3FFFFFFFFFFFF3FF7A
:1015A000860C00204F3FFFFFFFFFFFF7FF8018086A
:1015B000100FFFFFFFFFFFFFF7FFC01808080FFF26
:1015C000FFFFFFFFFFF7FFC0104C0F1FFFFFFFFFE4
:1015D000FFFFF7004000440C3FFFFFFFFFFFFFF05D
:1015E00000000C460C3FFFFFFFFFFFFFF000301C28
:1015F000C60C3FFFFFFFFFFFFFF1FFF8F8C60C3FEF
:10160000FFFFFFFFFFFFF0001C00C60C3FFFFFFFC6
:10161000FFFFFFF0000C00C3003FFFFFFFFFFFFFD5
:10162000F3801800C3003FFFFFFFFFFFFFF7FF70CD
:1016300000C1003FFFFFFFFFFFFFF7FFE000C38097
:101640007FFFFFFFFFFFFFF3FFC000C70FFFFFFF9C
:10165000FFFFFFFFF1FF8000C6079FFFFFFFFFFFB7
:10166000FFF07FC008C4030FFFFFFFFFFFFFF00F75
:10167000C018C00347FFFFFFFFFFFFF3838020C0B8
:101680000239FFFFFFFFFFFFF0E0C000C0020C7F48
:10169000FFFFFFFFFFF01C404370FC033FFFFFFF15
:1016A000FFFFF00F20C231EC038FFFFFFFFFFFF0C1
:1016B000039FC403FF00C7FFFFFFFFFFF0006FE0C1
:1016C000073F8063FFFFFFFFFFF70031E004FFC02B
:1016D00031FFFFFFFFFFF7E018F001FFF01CFFFFF5
:1016E000FFFFFFF7F80E300BFFF00C7FFFFFFFFF4F
:1016F000F7FC07181FFFFC0F3FFFFFFFFFF3FE077C
:101700001C3FFFFE079FFFFFFFFFF3FF83CFFFFF9D
:10171000FF038FFFFFFFFFF3FFC3E7FFFFFF83E739
:10172000FFFFFFFFF3FFC1F7FFFFFF81E3FFFFFFB5
:10173000FFF3FFE1F3FFFFFFC1F1FFFFFFFFF3FF47
:10174000E0FBFFFFFFE0F9FFFFFFFFF3FFF0F9FF12
:10175000FFFFF0FCFFFFFFFFF3FFF8FDFFFFFFF8C7
:10176000FEFFFFFFFFF3FFF87CFFFFFFFC7F7FFF23
:10177000FFFFF3FFFC7C7FFFFFFE7F3FFFFFFFF3D8
:10178000FFFC3E7FFFFFFF7FBFFFFFFFF3FFFE3E3B
:101790003FFFFFFFFFDFFFFFFFF3FFFE3F3FFFFFC6
:1017A000FFFFCFFFFFFFF3FFFF3F3FF0FFFFFFEF24
:1017B000FFFFFFF3FFFE3FBFF003FFFFC7FFFFFF89
:1017C000F3FFFE3FBFE001FFFFE7FFFFFFF3FFFF77
:1017D0003F9FE000FFFFE7FFFFFFF3FFFF3FDFF06A
:1017E000007FFFF3FFFFFFF3FFFF3FDFFB007FFF03
:1017F000F3FFFFFFF3FFFF3FDFF0007FFFFBFFFF83
:10180000FFF3FFFF7FDFC0103FFFFBFFFFFFF3FF92
:10181000FFFFDFC0103FFFFBFFFFFFF3FFFFFFDF16
:10182000C0101FFFFBFFFFFFF3FFFFFFDFC1F81F2B
:10183000FFFBFFFFFFF3FFFFFFDFC00C0FFFFBFF0E
:10184000FFFFF3FFFFFFDFE00603FFF3FFFFFFF300
:10185000FFFFFFDFE003001FF3FFFFFFF3FFFFFFCA
:10186000DFF801C003E7FFFFFFF3FFFFFFDFFC002E
:101870007F01E7FFFFFFF3FFFFFFDFFC003FC0C773
:10188000FFFFFFF3FFFFFFDFFC000000EFFFFFFFA4
:10189000F3FFFFFFDFFC000000DFFFFFFFF3FFFFB0
:1018A000FFDFFC000000DFFFFFFFF3FFFFFF9FFEF5
:1018B000000000FFFFFFFFF3FFFFFF1FFF8000009E
:1018C000FFFFFFFFF3FFFFFE1FFFE000001FFFFF12
:1018D000FFF3FFFFFC1FFFF000001FFFFFFFF3FF00
:1018E000FFFF9FFFF000181FFFFFFFF3FFFFFFDF69
:1018F000FFF000301FFFFFFFF3FFFFFFDFFFF1836B
:10190000C03FFFFFFFF3FFFFFECFFFE0FF013FFF00
:10191000FFFFF3FFFF84CFFF0070011FFFFFFFF306
:10192000FFFF0667FE0040023FFFFFFFF3FFFE07D9
:10193000E7FE0040063FFFFFFFFBFFFC03E1FE0068
:1019400040067FFFFFFFFBFFFC0460FF00400CFF31
:10195000FFFFFFFBFFFE18307F800018FFFFFFFF37
:10196000FBFFE038363FC00019FFFFFFFFFBFFC061
:1019700020331FF00031FFFFFFFFFBFFC0C8118FB6
:10198000F80063FFFFFFFFFBFF80C0398FFC00639F
:10199000FFFFFFFFFBFFF98048C7FC0043FFFFFF8D
:1019A000FFFBFFBF06C407FC00C3FFFFFFFFFBFEFA
:1019B00003078607FC0C83FFFFFFFFFBFE01078682
:1019C00007FC1E83FFFFFFFFFBFC05079307FC1DC1
:1019D00081FFFFFFFFFBFC080FB103FE23E1FFFFC8
:1019E000FFFFFBFFF8FF9923FFE730FFFFFFFFFB3F
:1019F000FE00FFC091FF80107FFFFFFFFBFC00FF98
:101A0000E098FF00007FFFFFFFFFFC00FFE08C7FFE
:101A100000007FFFFFFFFFFC21FFF8807F00007FB9
:101A2000FFFFFFFFFC71FFFC807F0000FFFFFFFF57
:101A3000FFFFFFFFFE403F8000FFFFFFFFFFFFFFB4
:101A4000FFFFC03F8001FFFFFFFFFFFFFFFFFF80A1
:101A50003FE001FFFFFFFFFFFFFFFFFFC07FFC0133
:101A6000FFFFFFFFFFFFFFFFFFE03FFC01FFFFFF66
:101A7000FFFFFFFFFFFFF83FFC01FFFFFFFFFFFF3E
:101A8000FFFFFFFFFFFC03FFFFFFFFFFFFFFFFFF65
:101A9000FFFFFE07FFFFFFFFFFFFFFFFFFFFFFFF4F
:101AA0009FFFFFFFFFFFFFFFFFFFFFFFFFFFFFFFA6
:101AB000FFFFFFFFFFFFFFFFFFFFFFFFFFFFF51629
:101AC00011241FBECFEFD8E0DEBFCDBF11E0A0E0F4
:101AD000B1E0E4EAFEE202C005900D92A233B10744
:101AE000D9F724E0A2E3B1E001C01D92AA38B20701
:101AF000E1F71DE0C0E6DDE004C02197FE010E9491
:101B00004A17CF35D107C9F70E94FD120C94501720
:101B10000C940000AF92BF92CF92DF92EF92FF92AF
:101B20000F931F93CF93DF936C017B018B01040F05
:101B3000151FEB015E01AE18BF08C017D10759F0A1
:101B40006991D601ED91FC910190F081E02DC601E3
:101B50000995892B79F7C501DF91CF911F910F91DD
:101B6000FF90EF90DF90CF90BF90AF900895FC0171
:101B7000538D448D252F30E0842F90E0821B930BF2
:101B8000541710F0CF96089501970895FC01918D98
:101B9000828D981761F0A28DAE0FBF2FB11D5D969B
:101BA0008C91928D9F5F9F73928F90E008958FEF3D
:101BB0009FEF0895FC01918D828D981731F0828DF1
:101BC000E80FF11D858D90E008958FEF9FEF089548
:101BD000FC01918D228D892F90E0805C9F4F821BAC
:101BE00091098F73992708958CE391E00E94E80D85
:101BF00021E0892B09F420E0822F089580E090E015
:101C0000892B29F00E94F40D81110C940000089595
:101C1000FC01A48DA80FB92FB11DA35ABF4F2C9161
:101C2000848D90E001968F739927848FA689B78958
:101C30002C93A089B1898C91837080648C93938D4F
:101C4000848D981306C00288F389E02D80818F7DF2
:101C500080830895EF92FF920F931F93CF93DF93AA
:101C6000EC0181E0888F9B8D8C8D98131AC0E889D8
:101C7000F989808185FF15C09FB7F894EE89FF89A7
:101C80006083E889F98980818370806480839FBF45
:101C900081E090E0DF91CF911F910F91FF90EF9045
:101CA0000895F62E0B8D10E00F5F1F4F0F73112755
:101CB000E02E8C8D8E110CC00FB607FCFACFE88990
:101CC000F989808185FFF5CFCE010E94080EF1CF02
:101CD000EB8DEC0FFD2FF11DE35AFF4FF0829FB704
:101CE000F8940B8FEA89FB8980818062CFCFCF93F4
:101CF000DF93EC01888D8823B9F0AA89BB89E88934
:101D0000F9898C9185FD03C0808186FD0DC00FB6D9
:101D100007FCF7CF8C9185FFF2CF808185FFEDCF57
:101D2000CE010E94080EE9CFDF91CF910895833054
:101D300081F028F4813099F08230A9F0089587303D
:101D4000A9F08830C9F08430B1F4809180008F7D93
:101D500003C0809180008F7780938000089584B5C0
:101D60008F7784BD089584B58F7DFBCF8091B000BF
:101D70008F778093B00008958091B0008F7DF9CF68
:101D80001F93CF93DF93282F30E0F901E051FB4FF1
:101D90008491F901E25FFA4FD491F901EE5DFA4FB7
:101DA000C491CC23A9F0162F81110E94970EEC2F1D
:101DB000F0E0EE0FFF1FEA51FB4FA591B4918FB7F2
:101DC000F894EC91111108C0D095DE23DC938FBFFD
:101DD000DF91CF911F910895DE2BF8CFCF93DF9342
:101DE00090E0FC01E25FFA4F24918E5D9A4FFC0176
:101DF00084918823D1F090E0880F991FFC01EC5F5B
:101E0000FA4FA591B491FC01EA51FB4FC591D491D1
:101E100061110EC09FB7F8948C91E22FE0958E234C
:101E20008C932881E223E8839FBFDF91CF910895AF
:101E30008FB7F894EC91E22BEC938FBFF6CF3FB7BE
:101E4000F8948091370190913801A0913901B091B7
:101E50003A0126B5A89B05C02F3F19F00196A11D98
:101E6000B11D3FBFBA2FA92F982F8827BC01CD01E4
:101E7000620F711D811D911D42E0660F771F881F43
:101E8000991F4A95D1F708958F929F92AF92BF9272
:101E9000CF92DF92EF92FF926B017C010E941F0FA5
:101EA0004B015C01C114D104E104F104B9F00E94BA
:101EB0001F0F681979098A099B09683E73408105DB
:101EC000910580F321E0C21AD108E108F10888EEFB
:101ED000880E83E0981EA11CB11CE4CFFF90EF9008
:101EE000DF90CF90BF90AF909F908F900895CF9349
:101EF000DF93DC01E90112968D919C91139768178D
:101F000079079CF557FD31C014962D913C9115979A
:101F10004217530754F5849FF001859FF00D949F5D
:101F2000F00D1124AF01460F571F57FF02C0495F44
:101F30005F4F83E0559547958A95E1F7ED91FC91C8
:101F4000E40FF51F3081CB0168E070E00E9422179A
:101F500040E850E0BA0102C0759567958A95E2F7AE
:101F6000CB01CD2B29F0832B8083DF91CF91089576
:101F700080958323F9CFEF92FF920F931F93CF9316
:101F8000DF937C01D0E0C0E0F70182819381C81724
:101F9000D907A4F410E000E0F701848195810817C7
:101FA000190754F421E030E0A801BE01C7010E94E6
:101FB000770F0F5F1F4FF0CF2196E6CFDF91CF91C4
:101FC0001F910F91FF90EF900895CF93DF93FA0147
:101FD000DC0116964D915C91179741155105B1F4AE
:101FE00077FD2DC012964D915C911397641775077C
:101FF00034F5F7FD24C014964D915C91E417F50774
:10200000F4F4AF01DF91CF910C94770F413051057B
:10201000C9F477FD14C0EC014C815D81641775072C
:1020200074F4F7FD0CC04A815B81E417F5073CF4BA
:10203000DA01AE1BBF0BFD01AB01B7FF35C0DF916D
:10204000CF91089542305105C1F477FDF8CFEC01EE
:10205000AA81BB816A177B0794F7F7FDF0CF4C810B
:102060005D81E417F5075CF7ED01C61BD70BBE01D8
:102070004E1B5F0BD7FFC6CFE2CF43305105F9F6B9
:1020800077FDDDCF14964D915C9115976417750718
:10209000B4F6F7FDD4CF12960D90BC91A02DEA179F
:1020A000FB076CF6461B570BBF01ACCF2F923F923C
:1020B0004F925F926F927F928F929F92AF92BF9258
:1020C000CF92DF92EF92FF920F931F93CF93DF9304
:1020D0004C015B013A0128E0C22ED12C30E8232EBE
:1020E000312CF30181913F01882309F477C040919D
:1020F000020150910301BA016770772721E030E0B7
:10210000672B11F430E020E093E0569547959A95BF
:10211000E1F7240F351F6091040170910501269F9E
:10212000A001279F500D369F500D1124082E000C42
:10213000990B8097489F9001499F300D589F300D13
:102140001124C0910001D0910101C20FD31F75016C
:102150002091040130910501C7018A199B0982175A
:102160009307A8F510E000E080910201909103012F
:102170000817190718F5FE0124912801F7E04F22EE
:102180005524C101042C02C0959587950A94E2F765
:1021900030E082239323892B49F030E020E0A7012F
:1021A000B601600F711FC4010E94E50F87E0481659
:1021B000510409F421960F5F1F4FD6CF87709927DE
:1021C000892B09F02196EFEFEE1AFE0AC1CF80911C
:1021D000020190910301C80ED91E83CFDF91CF91E8
:1021E0001F910F91FF90EF90DF90CF90BF90AF9035
:1021F0009F908F907F906F905F904F903F902F9027
:1022000008952F923F924F925F926F927F928F929A
:102210009F92AF92BF92CF92DF92EF92FF920F9375
:102220001F93CF93DF93CDB7DEB728970FB6F894FF
:10223000DEBF0FBECDBF2C015B0158874F83390134
:1022400017016901C61AD70AD7FE03C0D194C194F9
:10225000D108A614B7040CF44DC02FEF3FEF3A831A
:10226000298348012F813885821A930A97FE03C07B
:1022700091948194910888279927881999099E83B8
:102280008D832F81388520173107CCF18FEF9FEF99
:102290009C838B837601E818F908A614B704A1F192
:1022A0008F8198858017910779F19101AC01B50173
:1022B000C2010E94E50FC701880F991F2D813E8141
:1022C0008217930734F0E818F90889819A81A80EDB
:1022D000B91EC701880F991FC816D906F4F2EC0C75
:1022E000FD1C2F8138858B819C81280F391F3887F1
:1022F0002F83D3CF81E090E09A838983B2CF21E00E
:1023000030E03C832B83C6CF28960FB6F894DEBF0F
:102310000FBECDBFDF91CF911F910F91FF90EF9036
:10232000DF90CF90BF90AF909F908F907F906F90F5
:102330005F904F903F902F900895CF93C82F60E00B
:102340008AE00E94C00ECEBD00000DB407FEFDCF96
:102350008EB561E08AE0CF910C94C00EBC0190E094
:1023600080E00C94440FCF93C62F61E0FC01808580
:102370000E94C00E8C2FCF910C949D11CF93C62F2D
:1023800060E0FC0180850E94C00E8C2FCF910C94E0
:102390009D110F931F93CF93DF93EC0161E70E9490
:1023A000BE112C853D853327F901E051FB4F849107
:1023B000F901E25FFA4F0491F901EE5DFA4F1491D1
:1023C0001123B1F081110E94970EE12FF0E0EE0F82
:1023D000FF1FE452FB4FA591B491EC910E2341F005
:1023E00088EC90E0DF91CF911F910F910C94AE118A
:1023F00061E7CE010E94BE1182E390E00E94AE111F
:10240000D0CF0F931F93CF93DF93EC018C819D81ED
:10241000009751F560E1CE010E94BE118C819D8133
:1024200001969D838C8309ED11E0488159812A81B1
:102430003B81429FC001439F900D529F900D1124FC
:1024400097FD4F9625E0959587952A95E1F7980198
:10245000295D314028173907C4F4F80161918F01D3
:10246000CE010E94B311E1CF9C01215031092330EC
:102470003105B0F263E18430910569F29C01255089
:1024800031092330310578F6CBCF8C819D810897B7
:1024900069F462E1CE010E94BE1184E690E00E94E0
:1024A000AE11CE010E94C9111D821C82DF91CF9115
:1024B0001F910F9108951F920F920FB60F92112442
:1024C0002F933F934F935F936F937F938F939F933C
:1024D000AF93BF93EF93FF938CE391E00E94080EBC
:1024E000FF91EF91BF91AF919F918F917F916F91EC
:1024F0005F914F913F912F910F900FBE0F901F90C2
:1025000018951F920F920FB60F9211242F938F934D
:102510009F93EF93FF93E0914C01F0914D018081E7
:10252000E0915201F091530182FD1BC09081809196
:1025300055018F5F8F7320915601821741F0E09112
:102540005501F0E0E45CFE4F958F80935501FF91BB
:10255000EF919F918F912F910F900FBE0F901F9031
:1025600018958081F4CF1F920F920FB60F9211240D
:102570002F933F938F939F93AF93BF93809133019A
:1025800090913401A0913501B09136013091320122
:1025900023E0230F2D3758F50196A11DB11D20937F
:1025A00032018093330190933401A0933501B093AD
:1025B00036018091370190913801A0913901B09195
:1025C0003A010196A11DB11D809337019093380106
:1025D000A0933901B0933A01BF91AF919F918F9130
:1025E0003F912F910F900FBE0F901F90189526E8E6
:1025F000230F0296A11DB11DD2CFCF93DF93CDB78C
:10260000DEB768970FB6F894DEBF0FBECDBF7894E3
:1026100084B5826084BD84B5816084BD85B58260E7
:1026200085BD85B5816085BD80916E008160809398
:102630006E00109281008091810082608093810001
:102640008091810081608093810080918000816011
:10265000809380008091B10084608093B10080916C
:10266000B00081608093B00080917A008460809394
:102670007A0080917A00826080937A0080917A005B
:10268000816080937A0080917A00806880937A00DC
:102690001092C100E0914C01F0914D0182E08083E5
:1026A000E0914801F09149011082E0914A01F091D6
:1026B0004B018FEC808310925401E0915001F09116
:1026C000510186E08083E0914E01F0914F018081BD
:1026D00080618083E0914E01F0914F01808188609C
:1026E0008083E0914E01F0914F018081806880836A
:1026F000E0914E01F0914F0180818F7D808388E0D1
:1027000090E098878F8389E090E09A8789878AE0B4
:1027100090E09C878B8787E090E09E878D8788E696
:1027200090E09A83898384ED90E09C838B8361E0C1
:102730008AE00E94EE0E61E088E00E94EE0E61E009
:1027400089E00E94EE0E60E087E00E94EE0E1FB767
:10275000F89480913B01811127C0ECE2F5E084916F
:10276000E8E1F5E09491E82FF0E0EE0FFF1FEC5F59
:10277000FA4FA591B491EC91E92321F461E08AE04C
:102780000E94C00E61E08AE00E94EE0E8CB580616E
:102790008CBD8CB580648CBD61E08DE00E94EE0E36
:1027A00061E08BE00E94EE0E80913B018F5F809391
:1027B0003B011FBF81E58CBD81E08DBD61E08F8154
:1027C0000E94C00E88EC90E00E94AE1160E08F8104
:1027D0000E94C00E8AE090E00E94AE1161E08F81FD
:1027E0000E94C00E88EC90E00E94AE111E821D82F5
:1027F00064E0CE0101960E94BE11CE0101960E94B6
:10280000C91160E0CE0101960E94BE116FE0CE01B9
:1028100001960E94B31169E8CE0101960E94B3119E
:1028200061E6CE0101960E94BE1168E6CE010196D6
:102830000E94B31160E0CE0101960E94B31164EDD5
:10284000CE0101960E94B31160E5CE0101960E946F
:10285000BE1167E7CE0101960E94B31160E1CE017F
:1028600001960E94BE1110E000E049815A812B813F
:102870003C81429FC001439F900D529F900D1124B7
:1028800097FD0796F3E095958795FA95E1F7081778
:10289000190744F46FEFCE0101960E94B3110F5F48
:1028A0001F4FE3CF82E090E00E94AE1163E1CE01C2
:1028B00001960E94BE1110E000E049815A812B81EF
:1028C0003C81429FC001439F900D529F900D112467
:1028D00097FD0796E3E095958795EA95E1F7081748
:1028E000190744F46FEFCE0101960E94B3110F5FF8
:1028F0001F4FE3CF62E1CE0101960E94BE1184E634
:1029000090E00E94AE11CE0101960E94C9111E8274
:102910001D821E8A1D8A89ED91E0988B8F8788E63B
:1029200090E09A8B898B8AE690E09C8B8B8BCE0112
:102930000F960E94BB0F48E151E062E070E0CE01CB
:102940000F960E945610CE0101960E940112CE01F0
:102950000F960E94BB0F02E010E030E020E042E062
:1029600050E0B801CE010F960E94E50F0F5F1F4F98
:102970000333110591F702E010E030E020E042E37C
:1029800050E0B801CE010F960E94E50F0F5F1F4F78
:102990000333110591F702E010E030E020E0A801D8
:1029A00062E070E0CE010F960E94E50F0F5F1F4FAF
:1029B0000333110591F702E010E030E020E0A801B8
:1029C00062E370E0CE010F960E94E50F0F5F1F4F8C
:1029D0000333110591F7F12CE12C02E310E022E31F
:1029E00030E042E050E062E070E0CE010F960E94DD
:1029F000011102E010E022E330E042E350E062E047
:102A000070E0CE010F960E940111CE0101960E9446
:102A10000112CE010F960E94BB0F6AEDC62EDD2477
:102A2000DA940CEE1FEF79E1472E512C30E020E0D4
:102A3000570189E1A80EB11CA5013201601A710A83
:102A4000B301CE010F960E94E50F30E020E0A50112
:102A5000480199E1890E911CB401CE010F960E94A4
:102A6000E50F30E020E05201AE18BF08A501B40127
:102A7000CE010F960E94E50F30E020E0A501B301E2
:102A8000CE010F960E94E50FEC14FD0434F12FEFF8
:102A9000E21AF20AC701880F991F01968C0D9D1D3D
:102AA00022273327201B310BE216F30629F40C15DD
:102AB0001D052CF0D12CC12C0C151D0564F40F5FE5
:102AC0001F4F0130110559F09801220F331F2F5F5E
:102AD0003F4F820F931F6C01A9CFC601EDCFCE01EE
:102AE00001960E940112CE010F960E94BB0FCE01EB
:102AF00001960E940112CE010F960E94BB0F45E283
:102B000051E064E170E0CE010F960E945610CE01B4
:102B100001960E940112CE010F960E94BB0F04E3A2
:102B200010E0B2E0EB2EF12C30E020E0A701B8017C
:102B3000CE010F960E94E50F3FEFE31AF30A83E3FD
:102B4000E816F10489F70F5F1F4F0536110549F7A5
:102B5000EE24E394F12C02E310E024E630E042E0BE
:102B600050E064E370E0CE010F960E94011124E36F
:102B700030E042E050E064E670E0CE010F960E9443
:102B80000111CE0101960E940112CE010F960E9402
:102B9000BB0FAAEDAA2EBB24BA94D12CC12C0CEEEB
:102BA0001FEF260199E1490E511C30E020E0A201FF
:102BB0006BE4862E912C801A910AB401CE010F96F7
:102BC0000E94E50F78012BE4E20EF11C30E020E0DA
:102BD000A201B701CE010F960E94E50F79E1272EE1
:102BE000312C2C183D0830E020E0A101B701CE01C6
:102BF0000F960E94E50F30E020E0A101B401CE0164
:102C00000F960E94E50F88279927801B910B988FBC
:102C10008F8B4C01880C991C9FEF891A990A3701F8
:102C20008E0C9F1C6814790464F430E020E0A2014B
:102C3000B301CE010F960E94E50F2FEF621A720AC0
:102C4000F1CFE814F90464F430E020E0A101B70109
:102C5000CE010F960E94E50F3FEFE31AF30AF1CF82
:102C6000CA14DB0424F18FEFC81AD80AC601880FF2
:102C7000991F01968A0D9B1D2F89388DC216D30688
:102C800029F40A151B052CF0B12CA12C0A151B05E3
:102C900064F40F5F1F4F0130110559F09801220FA6
:102CA000331F2F5F3F4F820F931F5C017ACFC50107
:102CB000EDCFCE0101960E940112CE010F960E9427
:102CC000BB0FCE0101960E94011268EE73E080E016
:102CD00090E00E94440F60E1CE0101960E94BE1177
:102CE00010E000E049815A812B813C81429FC00164
:102CF000439F900D529F900D112497FD079633E04E
:102D0000959587953A95E1F7081719075CF4F8014E
:102D1000E650F04F6491CE0101960E94B3110F5F0F
:102D20001F4FE0CF82E090E00E94AE1163E1CE0140
:102D300001960E94BE1110E000E049815A812B816A
:102D40003C81429FC001439F900D529F900D1124E2
:102D500097FD079623E0959587952A95E1F7081743
:102D600019075CF4F801EA5CFA4F6491CE01019610
:102D70000E94B3110F5F1F4FE0CF62E1CE010196B9
:102D80000E94BE1184E690E00E94AE11CE01019631
:102D90000E94C9111E821D8260E5CE0101960E942B
:102DA000BE1167EFCE0101960E94B31162E0CE0121
:102DB00001960E94BE11CE0101960E94C91167E0E2
:102DC000CE0101960E94BE1165EACE0101960E94D5
:102DD000B31100E010E001151105E9F30E94F40DB4
:102DE0008823C9F30E940000F6CFECE3F1E01382E0
:102DF000128288EE93E0A0E0B0E084839583A683FE
:102E0000B7838AE091E09183808385EC90E0958799
:102E1000848784EC90E09787868780EC90E0918BA4
:102E2000808B81EC90E0938B828B82EC90E0958B91
:102E3000848B86EC90E0978B868B118E128E138E8E
:102E4000148E089597FB072E16F4009407D077FD93
:102E500009D00E94361707FC05D03EF49095819565
:102E60009F4F0895709561957F4F0895AA1BBB1BD6
:102E700051E107C0AA1FBB1FA617B70710F0A61B7A
:102E8000B70B881F991F5A95A9F780959095BC019B
:102E9000CD010895EE0FFF1F0590F491E02D0994E8
:042EA000F894FFCFD4
:102EA400680007000C00000000002A0E8A0DB70D10
:102EB400770EE80DC60DDA0D652D50617065722030
:102EC40044656D6F0048656C6C6F20776F726C643D
:022ED4000000FC
:00000001FF
