:100000000C945D000C9485000C9485000C94850084
:100010000C9485000C9485000C9485000C9485004C
:100020000C9485000C9485000C9485000C9485003C
:100030000C9485000C9485000C9485000C9485002C
:100040000C94DD0D0C9485000C94AB0D0C94850D77
:100050000C9485000C9485000C9485000C9485000C
:100060000C9485000C94850000000008000201003B
:100070000003040700000000000000000000000072
:10008000250028002B0000000000240027002A0083
:10009000040404040404040402020202020203032E
:1000A0000303030301020408102040800102040836
:1000B0001020010204081020270E11241FBECFEFCC
:1000C000D8E0DEBFCDBF13E0A0E0B1E0E2E7F2E2AE
:1000D00002C005900D92A230B107D9F726E0A2E048
:1000E000B3E001C01D92A434B207E1F710E0CDE502
:1000F000D0E004C02197FE010E942211CC35D10727
:10010000C9F70E94830E0C9437110C94000090E004
:10011000FC01EC55FF4F249180579F4FFC018491C7
:10012000882399F090E0880F991FFC01EA57FF4F50
:10013000A591B491FC01E458FF4F859194918FB73C
:10014000F894EC91E22BEC938FBF0895AF92BF929D
:10015000CF92DF92EF92FF920F931F93CF93DF9393
:100160006C017B018B01040F151FEB015E01AE18C2
:10017000BF08C017D10759F06991D601ED91FC91E4
:100180000190F081E02DC6010995892B79F7C50111
:10019000DF91CF911F910F91FF90EF90DF90CF9063
:1001A000BF90AF900895FC01538D448D252F30E012
:1001B000842F90E0821B930B541710F0CF96089574
:1001C00001970895FC01918D828D981761F0A28DA1
:1001D000AE0FBF2FB11D5D968C91928D9F5F9F7367
:1001E000928F90E008958FEF9FEF0895FC01918D1D
:1001F000828D981731F0828DE80FF11D858D90E08A
:1002000008958FEF9FEF0895FC01918D228D892F26
:1002100090E0805C9F4F821B91098F73992708950E
:1002200085E195E00E94040121E0892B09F420E09A
:10023000822F089580E090E0892B29F00E94100120
:1002400081110C9400000895FC01A48DA80FB92F12
:10025000B11DA35ABF4F2C91848D90E001968F73EE
:100260009927848FA689B7892C93A089B1898C910D
:10027000837080648C93938D848D981306C002885C
:10028000F389E02D80818F7D80830895EF92FF9226
:100290000F931F93CF93DF93EC0181E0888F9B8DA9
:1002A0008C8D98131AC0E889F989808185FF15C063
:1002B0009FB7F894EE89FF896083E889F989808186
:1002C0008370806480839FBF81E090E0DF91CF9155
:1002D0001F910F91FF90EF900895F62E0B8D10E077
:1002E0000F5F1F4F0F731127E02E8C8D8E110CC0E6
:1002F0000FB607FCFACFE889F989808185FFF5CF31
:10030000CE010E942401F1CFEB8DEC0FFD2FF11DEA
:10031000E35AFF4FF0829FB7F8940B8FEA89FB896D
:1003200080818062CFCF682F85E195E00C944601F3
:10033000CF93DF93EC01888D8823B9F0AA89BB891C
:10034000E889F9898C9185FD03C0808186FD0DC007
:100350000FB607FCF7CF8C9185FFF2CF808185FF28
:10036000EDCFCE010E942401E9CFDF91CF91089516
:1003700090E0FC01E859FF4F2491FC01EC55FF4F40
:100380003491FC01E057FF4FE491EE23C9F02223A2
:1003900039F0233001F1A8F4213019F1223029F18C
:1003A000F0E0EE0FFF1FE458FF4FA591B4918FB717
:1003B000F894EC91611126C030953E233C938FBF99
:1003C00008952730A9F02830C9F0243049F78091EA
:1003D00080008F7D03C0809180008F7780938000A4
:1003E000DFCF84B58F7784BDDBCF84B58F7DFBCF26
:1003F0008091B0008F778093B000D2CF8091B00011
:100400008F7DF9CF3E2BDACF2FB7F89460910E0392
:1004100070910F0380911003909111032FBF0895E5
:100420008FB7F894809103038FBF089561E0FC01BA
:1004300084810E94B801809102038111109202030D
:1004400008958EBD00000DB407FEFDCF8EB5089552
:100450008FEF0C9421020F931F93CF93DF93EC0146
:100460000E9404028B010E9428028F3F69F00E94C3
:100470000402601B710B6C177D07A8F380E0DF910D
:10048000CF911F910F91089581E0F9CF8CBD9DBD53
:100490000895CF93DF93EC0180910203811109C08D
:1004A00081E0809302038091B2059091B3050E9490
:1004B000460260E08C81DF91CF910C94B8018F925D
:1004C0009F92AF92BF92FF920F931F93CF93DF93B0
:1004D000EC01F62E49015A018E81882389F08F8123
:1004E00098859C012F5F3F4F38872F838230924041
:1004F00018F40E942802F3CFCE010E9416021E8239
:10050000CE010E9449028CE291E00E942B028F2DC5
:1005100080640E94210208E110E0D501C401002E90
:1005200004C0B695A795979587950A94D2F70E942F
:10053000210208501109083F8FEF180771F785E96C
:10054000FF2021F028E087E8F2128FEF0E942102BD
:1005500010E00E9428028A8787FF04C01F3F11F025
:100560001F5FF7CFDF91CF911F910F91FF90BF9049
:10057000AF909F908F900895AF92BF92CF92DF92ED
:10058000EF92FF920F931F93CF93DF93EC016901DA
:10059000C801820F931F8130924050F58E818823CD
:1005A00079F088819981AA81BB8184179507A60774
:1005B000B70731F48F819885C816D90608F042C074
:1005C000488359836A837B838B85833039F089E044
:1005D000440F551F661F771F8A95D1F79A01AB010B
:1005E00061E1CE010E945F02882389F083E08D8360
:1005F000CE010E94160280E0DF91CF911F910F91F2
:10060000FF90EF90DF90CF90BF90AF9008950E9441
:1006100004025B010E9428028A878F3F69F40E94CE
:1006200004026A197B096D327140A0F38FE08D835B
:10063000CE010E941602DCCF8E3F89F418861F82FD
:1006400081E08E838F8198858C159D0550F40E94E2
:1006500028028F819885019698878F83F3CF8DE04C
:10066000E6CF6701E00EF11E0E942802F601819399
:100670006F01EE15FF05C1F78F819885080F191FCF
:1006800018870F838985882319F001151240A0F07F
:100690008E81882389F08F8198859C012F5F3F4F41
:1006A00038872F838230924018F40E942802F3CFBB
:1006B000CE010E9416021E8281E09ECFEF92FF9231
:1006C0000F931F93CF93DF93EC01790182E14115E2
:1006D00051056105710599F08B85833039F089E00A
:1006E000440F551F661F771F8A95D1F79A01AB01FA
:1006F00068E1CE010E945F02882319F084E08D83B7
:1007000030C08EEF0E94210287018EEFF81AF801A7
:1007100081918F010E9421020E151F05C1F78FEFF5
:100720000E9421028FEF0E9421020E9428028A87E4
:100730008F71853089F488E592E00E942B0288232E
:10074000A9F020E030E0A9016DE0CE010E945F0237
:10075000882371F084E1D3CF81E18D83CE010E94A3
:100760001602CE010E94160280E00AC085E1C7CFC2
:100770000E9428028111EECFCE010E94160281E074
:10078000DF91CF911F910F91FF90EF900895CF933C
:10079000DF93809104038823A9F1C0911305D091C0
:1007A0001405409100015091010160910201709186
:1007B000030123E133E0CE010E945E03811104C0F6
:1007C00080E0DF91CF910895409105035091060399
:1007D000609107037091080341155105610571058A
:1007E00079F023E133E0CE010E945E03882341F3D8
:1007F000109205031092060310920703109208034B
:100800001092040381E0DDCF8F929F92AF92BF924E
:10081000EF92FF920F931F93CF934B015C01C42F74
:100820008091000190910101A0910201B09103011A
:1008300088159905AA05BB0549F10E94C7038111D6
:100840000BC080E0CF911F910F91FF90EF90BF9070
:10085000AF909F908F90089583E1E82E83E0F82E6B
:1008600000E012E030E020E0B501A4018091130522
:10087000909114050E94BC02882319F38092000114
:1008800090920101A0920201B092030140910403F1
:100890004C2B4093040381E0D5CF8F929F92AF926F
:1008A000BF92CF92DF92EF92FF92CF9328E336E090
:1008B0003093140520931305882309F46DC040E09C
:1008C00060E070E0CB010E94040481110BC080E065
:1008D000CF91FF90EF90DF90CF90BF90AF909F901F
:1008E0008F9008958091D1048F7789F78091DD04EE
:1008F0009091DE04A091DF04B091E004843691056C
:10090000A105B10520F3C090D904D090DA04E0909D
:10091000DB04F090DC04C114D104E104F104B9F269
:1009200040E0C701B6010E940404882381F280914F
:100930001E0390911F038115924049F6A091230355
:10094000AA2329F260912103709122036115710598
:1009500009F4BDCF20912003222309F4B8CFA0933E
:100960002C0620931E0690E080E030E0E1E0F0E00D
:10097000C82FAF01082E02C0440F551F0A94E2F79A
:100980002417350769F041E0480F01968930910539
:1009900079F7409327069BCFC12CD12C7601C0CF8D
:1009A000809327062091290330912A0350E040E0EC
:1009B0002115310541F420913703309138034091DE
:1009C000390350913A0320931F0630932006409339
:1009D00021065093220646015701860E971EA11C40
:1009E000B11C80922D0690922E06A0922F06B092F6
:1009F0003006E0912403F0912503F0933306E09351
:100A00003206B0E00E941711DC01CB01880D991D60
:100A1000AA1DBB1D8093340690933506A09336061D
:100A2000B093370625E0EE0FFF1F2A95E1F7E1505E
:100A3000FE4FEF2FFF27E6958E0F9F1FA11DB11DC3
:100A40008093280690932906A0932A06B0932B063C
:100A50008090260390902703B12CA12C811491043F
:100A600041F48090330390903403A0903503B0900C
:100A70003603C81AD90AEA0AFB0AC80CD91CEA1CB0
:100A8000FB1C04C0F694E794D794C794CA95D2F798
:100A9000C0922306D0922406E0922506F092260604
:100AA00085EFC8168FE0D806E104F10428F48CE045
:100AB0008093310681E00CCF80E125EFC2162FEF45
:100AC000D206E104F104A0F380913F03909140032A
:100AD000A0914103B0914203809334069093350670
:100AE000A0933606B093370680E2E2CF4F925F9232
:100AF0006F927F928F929F92AF92BF92CF92DF922E
:100B0000EF92FF920F931F93CF93DF93EC0142304C
:100B100051056105710590F480E0DF91CF911F913F
:100B20000F91FF90EF90DF90CF90BF90AF909F908C
:100B30008F907F906F905F904F90089589859A85F0
:100B4000AB85BC850196A11DB11D84179507A6072D
:100B5000B70710F3CB88DC88ED88FE888F89803159
:100B600009F042C0BB27A72F962F852F48015901B6
:100B70002A013B01C80ED91EEA1EFB1E809100010E
:100B800090910101A0910201B0910301C816D9060C
:100B9000EA06FB0699F58F898031C1F5B301A20100
:100BA000552766277727440F551F4D5E5C4FFA0186
:100BB00091828082809104038160809304038A89FA
:100BC000823080F08D819E81AF81B8858C0D9D1D16
:100BD000AE1DBF1D8093050390930603A0930703EA
:100BE000B093080381E099CFDB01CA01E7E0B69535
:100BF000A79597958795EA95D1F7B8CF40E0C701BB
:100C0000B6010E9404048111C6CF86CFB301A201B0
:100C10004F77552766277727440F551F440F551FD9
:100C20004D5E5C4FFA0180829182A282B382C2CF74
:100C30008F929F92AF92BF92CF92DF92EF92FF92EC
:100C40000F931F93CF93DF93FC0181859285A3853A
:100C5000B4850196A11DB11D84179507A607B70796
:100C600070F480E0DF91CF911F910F91FF90EF9092
:100C7000DF90CF90BF90AF909F908F900895838822
:100C80009488A588B6888789803189F5BB27A72FE6
:100C9000962F852FE9016A017B018F01BC01CD01EF
:100CA000680D791D8A1D9B1D8090000190900101A7
:100CB000A0900201B090030186169706A806B90617
:100CC00001F5F8018789803111F5DD24EE24FF2438
:100CD000F601EE0FFF1FED5EFC4F80819181B0E0C9
:100CE000A0E088839983AA83BB8381E0BBCFDB012B
:100CF000CA01C7E0B695A79597958795CA95D1F78C
:100D0000C9CF40E00E9404048111DBCFAACFE89450
:100D1000C7F8DD24EE24FF24F601EE0FFF1FEE0FCF
:100D2000FF1FED5EFC4F80819181A281B381BF7076
:100D3000D8CF4F925F926F927F92AF92BF92CF9235
:100D4000DF92EF92FF920F931F93CF93DF9300D028
:100D500000D0CDB7DEB78C0149835A836B837C8387
:100D60005901C12CD12C7601412C82E0582E612CE6
:100D7000712C49815A816B817C819E012F5F3F4F8D
:100D8000C8010E941806882339F1F8018585A3015E
:100D9000920104C0220F331F441F551F8A95D2F7BA
:100DA000DA01C901C80ED91EEA1EFB1E49815A810B
:100DB0006B817C818789803111F188EF9FEFAFEFE4
:100DC000BFE0481759076A077B0798F2F501C08210
:100DD000D182E282F38281E00F900F900F900F900A
:100DE000DF91CF911F910F91FF90EF90DF90CF9007
:100DF000BF90AF907F906F905F904F90089588EF75
:100E00009FEFA0E0B0E0DDCF8F929F92AF92BF92B4
:100E1000CF92DF92EF92FF920F931F93CF93DF93C6
:100E2000EC018D8181110EC080E0DF91CF911F9187
:100E30000F91FF90EF90DF90CF90BF90AF909F9079
:100E40008F9008950B891C892D893E8904171507F9
:100E50002607370748F34A015B01823031F48A865E
:100E60009B86AC86BD8681E0E0CF81149104A1040D
:100E7000B10449F41E821F82188619861A861B86C1
:100E80001C861D86F0CF0A851B852C853D85EB8D44
:100E9000FC8D858590E00996B901A8014150510962
:100EA00061097109082E04C0769567955795479595
:100EB0000A94D2F775016401E1E0CE1AD108E10885
:100EC000F10804C0F694E794D794C7948A95D2F7B2
:100ED000C416D506E606F70620F0012B022B032BDD
:100EE00011F58F89988DA98DBA8D8E839F83A887E0
:100EF000B9878E010A5F1F4FC114D104E104F104C8
:100F000009F4ADCF4E815F816885798598018B8D1D
:100F10009C8D0E94180691E0C91AD108E108F108D9
:100F20008111EACF81CFC41AD50AE60AF70AE1CFC8
:100F30003F924F925F926F927F928F929F92AF9269
:100F4000BF92CF92DF92EF92FF920F931F93CF93B6
:100F5000DF93CDB7DEB72C970FB6F894DEBF0FBE88
:100F6000CDBF5C01DC015B968D909C905C971696E2
:100F70004D905D906D907C901997411451046104DF
:100F8000710409F468C0BFEF4B1A5B0A6B0A7B0A55
:100F9000312CF40181859285A385B4859C01AD0136
:100FA0002F5F3F4F4F4F5F4F29873A874B875C87B3
:100FB000730162011D821E821F821886F4018185E1
:100FC0009285A385B4852D813E814F815885281750
:100FD00039074A075B0708F056C089859A85AB85B3
:100FE000BC858C159D05AE05BF0550F482E0C82E6A
:100FF000D12CE12CF12C92E0492E512C612C712C3A
:101000009E012F5F3F4FB701A601C4010E94180641
:101010008823C9F189819A81AB81BC81892B8A2B74
:101020008B2B09F1260137019FEF491A590A690AEA
:10103000790A2D813E814F8158852F5F3F4F4F4F59
:101040005F4F2D833E834F8358873FEFC31AD30AE8
:10105000E30AF30AB3CFF4014080518062807380C9
:101060003324339496CFC414D504E604F70409F767
:101070000FEF1FEF2FEF3FE0B701A601C4010E9461
:101080007605811119C080E02C960FB6F894DEBF6A
:101090000FBECDBFDF91CF911F910F91FF90EF90C9
:1010A000DF90CF90BF90AF909F908F907F906F9088
:1010B0005F904F903F900895F5014681578160857C
:1010C0007185411551056105710539F0970186015A
:1010D000C4010E9476058823B1F2D5011696CD92FF
:1010E000DD92ED92FC921997332051F0D701C601A1
:1010F0000196A11DB11DF40180839183A283B38366
:10110000F5018789908DA18DB28D892B8A2B8B2B30
:1011100039F4C78AD08EE18EF28E84818068848310
:1011200081E0B2CF2F923F924F925F926F927F9267
:101130008F929F92AF92BF92CF92DF92EF92FF92E7
:101140000F931F93CF93DF9300D000D0CDB7DEB7BE
:10115000FC018581823098F04285538564857585D0
:10116000DB01CA0115E0B695A795979587951A9565
:10117000D1F7282F2F702A83848180FD03C090E04F
:1011800080E0F7C083899489A589B689312C212C08
:10119000481759076A077B0719F022242394312C3A
:1011A0006F012101CE0101963C01DF011696BC833F
:1011B000AB834114510409F4C5C0F601428553853F
:1011C000648575854A01F1E09F22D6015B968D9179
:1011D0009C915C978A019B01E9E0369527951795CC
:1011E0000795EA95D1F71596EC91E230E9F5FC0107
:1011F000628D738D848D958D600F711F821F931F7B
:10120000A12C22E0B22EA818B9084A145B0408F4F5
:101210005201F601248126FD04C0A114F2E0BF06AC
:1012200071F40091000110910101209102013091AF
:101230000301061717072807390709F05EC040E0C9
:101240000E940404882309F49ACFC4018D5E9C4F48
:10125000D301AC014A0D5B1DFC01E417F50709F44D
:101260006CC021912D93F9CFDC011496BC90BA94F7
:10127000B0228114910479F4B1100DC0452B462B96
:10128000472B69F5F6018789908DA18DB28D8683F4
:101290009783A087B187D6015B96ED91FC915C970F
:1012A00016966D917D918D919C911997625071095F
:1012B00081099109258504C0660F771F881F991F32
:1012C0002A95D2F70685178520893189600F711F0D
:1012D000821F931F6B0D711D811D911D91CFD60132
:1012E00016964D915D916D917C9119972B813C8162
:1012F0000E9418068111CFCF42CF7301850194015E
:10130000AB01BC0180911305909114050E94BC02B1
:10131000882309F434CF6A0C7B1CF60182859385FF
:10132000A485B5858A0D9B1DA11DB11D828793875C
:10133000A487B5874A185B083CCFE81BF90B6E0EF3
:101340007F1EEBCF2A94232809F019CFF60182855E
:101350009385A485B5854F96A11DB11D828793877E
:10136000A487B5872A81F0E22F9FC00111248D5EEA
:101370009C4F0F900F900F900F90DF91CF911F9186
:101380000F91FF90EF90DF90CF90BF90AF909F9024
:101390008F907F906F905F904F903F902F90089527
:1013A000CF93DF93FC01248127FF2BC0EC016685DE
:1013B00077858089918941E00E940404882329F17E
:1013C000EA8980E2E89FF0011124ED5EFC4F30973E
:1013D000E1F08D81823040F48B899C89AD89BE8992
:1013E000848F958FA68FB78F8F89988D938F828FDB
:1013F0008F89988DA98DBA8DB58BA48B8C818F77B1
:101400008C83DF91CF910C94C70380E0DF91CF9163
:1014100008959F92AF92BF92CF92DF92EF92FF9288
:101420000F931F93CF93DF9300D000D01F92CDB7BF
:10143000DEB78C016D83DC0115968C911597813098
:1014400009F0B8C014968C9181FFB4C082FD9EC093
:10145000D8015B96ED91FC915C971A96AD90BD908A
:10146000CD90DC901D9794809A94B601A50189E0F7
:1014700076956795579547958A95D1F79422B1E06F
:10148000BB22992009F49EC0D8015B96ED91FC9196
:101490005C971696CD90DD90ED90FC901997B2E098
:1014A000CB1AD108E108F108858504C0CC0CDD1CFD
:1014B000EE1CFF1C8A95D2F7468557856089718995
:1014C000C40ED51EE61EF71EC90CD11CE11CF11C72
:1014D000A114B10409F008C1F8014285538564855F
:1014E000758583899489A589B689481759076A073C
:1014F0007B0708F4F9C00E94C703882309F45AC087
:10150000C0920001D0920101E0920201F092030129
:1015100080910403816080930403F501ED5EFC4F2C
:101520008D818083F80182859385A485B585019698
:10153000A11DB11D82879387A487B58743895489EC
:1015400065897689481759076A077B0738F424812B
:10155000838B948BA58BB68B20682483D80114963B
:101560008C9183FD9FC081E090E00F900F900F90D1
:101570000F900F90DF91CF911F910F91FF90EF90FF
:10158000DF90CF90BF90AF909F900895F80143896E
:1015900054896589768982859385A485B5854817A0
:1015A00059076A077B0709F453CFC8010E94040753
:1015B00081114ECF81E090E0D80113969C938E93D9
:1015C000129749C0D80116964D915D916D917C910D
:1015D0001997A114B10409F070C0411551056105B6
:1015E000710589F557968D919D910D90BC91A02D17
:1015F0000097A105B10509F04FC0C8010E949807E6
:101600008823C1F2D8015B96ED91FC915C97169608
:10161000CD90DD90ED90FC901997B2E0CB1AD108F7
:10162000E108F108858504C0CC0CDD1CEE1CFF1C14
:101630008A95D2F74685578560897189C40ED51E73
:10164000E61EF71E49CF9E012F5F3F4FCF010E943C
:101650001806811103C090E080E087CF89819A81CC
:10166000AB81BC81F801238D348DF901278948EFC6
:101670005FEF60E070E0203121F048EF5FEF6FEF47
:101680007FE084179507A607B70730F0C8010E94CE
:1016900098078111F9CE8ECFF80186839783A087B2
:1016A000B187F2CEF8018581882309F483CFC80180
:1016B0000E94D009811157CF7DCF6A017B01B2E032
:1016C000CB1AD108E108F108858504C0CC0CDD1CDB
:1016D000EE1CFF1C8A95D2F7468557856089718973
:1016E000C40ED51EE61EF71E41E0C701B6010E94DA
:1016F0000404811112CF5ECF089590E080E0089538
:10170000FC0101900020E9F73197AF01481B590B0C
:10171000BC0185E195E00C94A6008F929F92AF9258
:10172000BF920F931F93CF93DF93CDB7DEB7A197EF
:101730000FB6F894DEBF0FBECDBF19A2423008F439
:101740004AE08E010F5D1F4F842E912CB12CA12CED
:10175000A50194010E94F510E62FB901CA01EA30F3
:10176000F4F4E05DD801EE938D01232B242B252B7F
:1017700079F790E080E0109719F0CD010E94800B7E
:10178000A1960FB6F894DEBF0FBECDBFDF91CF910B
:101790001F910F91BF90AF909F908F900895E95C3B
:1017A000E1CFCF93DF930E94800BEC0182E291E0C6
:1017B0000E94800B8C0F9D1FDF91CF910895CF93D6
:1017C000DF9300D01F92CDB7DEB76AE00E94E91028
:1017D000805D8983905D9A831B82CE0101960E9471
:1017E000800B0F900F900F90DF91CF910895CF93C2
:1017F000DF934AE00E948D0BEC0182E291E00E94AF
:10180000800B8C0F9D1FDF91CF9108952F923F92F7
:101810004F925F926F927F928F929F92AF92BF9200
:10182000CF92DF92EF92FF920F931F93CF93DF93AC
:10183000CDB7DEB76D970FB6F894DEBF0FBECDBF44
:101840007C01FC011682178210861186128613868F
:1018500014861586A62EB12C7AE1872E71E0972E7C
:1018600077247394E2E06E2E660EC7010E94920800
:101870008C01009709F430C1FC018081882309F4B0
:101880002BC1853E91F38E3281F3838583FDEDCFAD
:10189000D12C8D2D0D2C000C990B8A159B052CF449
:1018A00080E20E949301D394F4CF6801412C312C43
:1018B000F60181916F01803279F0F8E03F1204C0A7
:1018C00043948EE20E949301F6013197608185E195
:1018D00095E00E944601439433948BE03812E8CFA0
:1018E000F80183858871803121F48FE20E94930191
:1018F0004394FDE080E2F415C8F7F801C08CD18C68
:10190000B601672F772766956454784F90E080E0A2
:101910004AE00E948D0B8DE20E949301C60155E0C2
:10192000969587955A95E1F78F700E94DF0B8DE2AF
:101930000E9493018C2D8F710E94DF0B80E20E9428
:101940009301F801C688D7888D2D86958695869552
:101950000E94DF0B8AE30E949301C60165E0969521
:1019600087956A95E1F78F730E94DF0B8AE30E94E7
:1019700093018C2D8F71880F0E94DF0BF8018385F6
:101980008871803159F080E20E949301F801648DE2
:10199000758D868D978D4AE00E948D0B82E291E0D5
:1019A0000E94800BF80183858871803109F05DCF3A
:1019B000F70142855385648575851A012B0125E061
:1019C00056944794379427942A95D1F78101015072
:1019D00011091C821B829A8289821E82838D948DBA
:1019E0009D8F8C8FA80135E0440F551F3A95E1F784
:1019F00070E060E0C7010E940407882309F452C028
:101A0000C7010E949208009709F44CC0FC01808134
:101A1000882309F447C0853E09F444C08E3209F496
:101A200041C00F7080E2089FF0011124ED5EFC4F71
:101A300023850B8B8091000190910101A0910201FF
:101A4000B09103018F87988BA98BBA8B44895589F4
:101A500070E060E0BA0155274427828D938DB0E095
:101A6000A0E0482B592B6A2B7B2B488F598F6A8F0C
:101A70007B8F287119F5848D958DA68DB78D8C8BF4
:101A80009D8BAE8BBF8B7E827D821F8218861986CE
:101A90001A861B861C861D861E86662DCE01019623
:101AA0000E94060CA10185E0440F551F8A95E1F7BD
:101AB00070E060E0C7010E940407D7CE203191F7A3
:101AC0009E012C5E3F4F8C8D9D8D0E949906882330
:101AD00049F3E4E0EE83D8CF6D960FB6F894DEBFFD
:101AE0000FBECDBFDF91CF911F910F91FF90EF906F
:101AF000DF90CF90BF90AF909F908F907F906F902E
:101B00005F904F903F902F9008951F920F920FB6C5
:101B10000F9211242F933F934F935F936F937F9373
:101B20008F939F93AF93BF93EF93FF9385E195E0DE
:101B30000E942401FF91EF91BF91AF919F918F91EE
:101B40007F916F915F914F913F912F910F900FBEB9
:101B50000F901F9018951F920F920FB60F9211249D
:101B60002F938F939F93EF93FF93E0912505F0912F
:101B700026058081E0912B05F0912C0582FD1BC08C
:101B8000908180912E058F5F8F7320912F05821792
:101B900041F0E0912E05F0E0EB5EFA4F958F8093D7
:101BA0002E05FF91EF919F918F912F910F900FBE76
:101BB0000F901F9018958081F4CF1F920F920FB64F
:101BC0000F9211242F933F938F939F93AF93BF93C3
:101BD00080910E0390910F03A0911003B091110317
:101BE00030910D0323E0230F2D3758F50196A11DE9
:101BF000B11D20930D0380930E0390930F03A093C8
:101C00001003B09311038091090390910A03A091EE
:101C10000B03B0910C030196A11DB11D8093090324
:101C200090930A03A0930B03B0930C03BF91AF9161
:101C30009F918F913F912F910F900FBE0F901F900A
:101C4000189526E8230F0296A11DB11DD2CFE5E11C
:101C5000F5E01382128288EE93E0A0E0B0E0848386
:101C60009583A683B78388E091E09183808385EC98
:101C700090E09587848784EC90E09787868780EC56
:101C800090E0918B808B81EC90E0938B828B82EC47
:101C900090E0958B848B86EC90E0978B868B118EF1
:101CA000128E138E148EE2EBF5E080E580831182B4
:101CB000E4EBF5E0158216821186138642E050E0CF
:101CC00060E070E0448755876687778713A215A682
:101CD00014A68AE191E093A782A717A6E8E3F6E0AD
:101CE0001582168211861386EAE1F6E0408351835D
:101CF00062837383178AEDEFF5E01382128291837A
:101D0000808315820895789484B5826084BD84B5FB
:101D1000816084BD85B5826085BD85B5816085BDE6
:101D200080916E00816080936E001092810080919E
:101D30008100826080938100809181008160809326
:101D40008100809180008160809380008091B1004B
:101D500084608093B1008091B00081608093B00076
:101D600080917A00846080937A0080917A0082600A
:101D700080937A0080917A00816080937A008091CC
:101D80007A00806880937A001092C100E091250566
:101D9000F091260582E08083E0912105F0912205F3
:101DA0001082E0912305F09124058FEC808310923E
:101DB0002D05E0912905F0912A0586E08083E091C8
:101DC0002705F0912805808180618083E0912705B7
:101DD000F0912805808188608083E0912705F0914B
:101DE0002805808180688083E0912705F09128058F
:101DF00080818F7D808385E291E00E94800B10922C
:101E000043061092410610923E0610923D068AE06B
:101E100080933C060E940402EB0180913C060E94E4
:101E2000870061E080913C060E94B8011FB7F894DA
:101E300080911203811124C0EAE9F0E08491EEEA76
:101E4000F0E09491E82FF0E0EE0FFF1FEA57FF4F0C
:101E5000A591B491EC91E92321F461E08AE00E941C
:101E6000B8018AE00E9487008CB580618CBD8CB57A
:101E700080648CBD8DE00E9487008BE00E9487000B
:101E8000809112038F5F809312031FBF82E58093BE
:101E9000B2051092B3058091B2059091B3050E94EE
:101EA00046021AE08FEF0E9421021150D9F788E311
:101EB00096E00E94490220E030E0A90160E088E35A
:101EC00096E00E945F02182F80934206813049F10C
:101ED0000E9404026C1B7D0B613D774060F381E042
:101EE00080933D0688E396E00E94160284E791E025
:101EF0000E94D10B8CE991E00E94D10B82EB91E022
:101F00000E94D10B8CEC91E00E94D10BC0E0D0E09C
:101F10002097F1F30E9410018823D1F30E94000062
:101F2000F7CF2AEA31E040E050E068E088E396E04D
:101F30000E945F0282FF2AC01093430680914306ED
:101F4000C12CD12C7601823029F4C12CD12CE12C6A
:101F5000A0E4FA2E20E030E0A90167E388E396E0F0
:101F60000E945F02A701960169E288E396E00E9461
:101F70005F02809342068823C1F00E9404026C1B1A
:101F80007D0B613D774030F388E0AACF14E00E94DA
:101F90002802809342061150D1F78A3A11F082E06C
:101FA0009FCF82E080934306C9CF80914306823061
:101FB000D1F420E030E0A9016AE388E396E00E94D2
:101FC0005F02882311F086E08BCF0E942802807C7C
:101FD000803C19F483E0809343060E9428020E940B
:101FE00028020E94280288E396E00E94160280E5FB
:101FF0008093B2051092B3058EE391E00E94D10B5D
:1020000087E691E00E94800B809143068230A1F028
:102010008330A9F08130B1F480E192E00E94D10BCD
:1020200081E00E944D04811110C00E944D04811175
:102030000CC085E292E068CF84E192E0EFCF88E1C6
:1020400092E0ECCF8DE192E0E9CF8FE692E00E9442
:10205000800B6091310670E090E080E04AE00E94E1
:102060008D0B82E291E00E94800B82E291E00E945F
:10207000800BA0911E0620912306309124064091EA
:1020800025065091260669E0220F331F441F551F75
:102090006A95D1F7B0E00E9417116B017C0183E8CB
:1020A00092E00E94800BC701B6010E94F70B89E9FC
:1020B00092E00E94800BC701B601EAE096958795F1
:1020C00077956795EA95D1F70E94F70B80EB92E040
:1020D0000E94800BC701B601F4E19695879577952C
:1020E0006795FA95D1F70E94F70B87EC92E00E9472
:1020F000D10B80910206811166C08091310680313A
:1021000009F044C082E080930206109214061092F7
:1021100015061092160610921706809132069091BD
:102120003306B0E0A0E025E0880F991FAA1FBB1F6F
:102130002A95D1F78093100690931106A09312066A
:10214000B09313068AE196E09093190680931806DF
:1021500081E080930106109203061092040610920B
:1021600005061092060610920706109208061092B5
:10217000090610920A0610920B0610920C06109295
:102180000D0610920E0610920F061DC08032D9F473
:1021900083E08093020640913406509135066091A9
:1021A00036067091370640931406509315066093D7
:1021B00016067093170620E136E08AE196E00E9449
:1021C00099068111BFCF60E08DEF95E00E94060C6B
:1021D0009DCE991B79E004C0991F961708F0961BB5
:1021E000881F7A95C9F780950895A1E21A2EAA1B37
:1021F000BB1BFD010DC0AA1FBB1FEE1FFF1FA217B7
:10220000B307E407F50720F0A21BB30BE40BF50BB3
:10221000661F771F881F991F1A9469F7609570953C
:10222000809590959B01AC01BD01CF0108950E945E
:102230002811A59F900DB49F900DA49F800D911D16
:1022400011240895EE0FFF1F0590F491E02D0994DD
:10225000A29FB001B39FC001A39F700D811D1124E7
:10226000911DB29F700D811D1124911D0895F89448
:02227000FFCF9E
:10227200FFFFFFFF000000004601A600D300980107
:102282000401E200F60000000000090AA6007D0B2E
:102292007C0B0D0A000A496E697469616C697A697E
:1022A2006E6720534420636172642E2E2E0057699C
:1022B20072696E6720697320636F7272656374203E
:1022C200616E6420612063617264206973207072A0
:1022D2006573656E742E000A4361726420747970AE
:1022E200653A2000696E697469616C697A61746922
:1022F2006F6E206661696C65642E205468696E6732
:102302007320746F20636865636B3A002A206973D7
:102312002061206361726420696E73657274656402
:102322003F002A20697320796F757220776972697C
:102332006E6720636F72726563743F002A2064695E
:102342006420796F75206368616E676520746865C3
:10235200206368697053656C6563742070696E20D0
:10236200746F206D6174636820796F757220736871
:1023720069656C64206F72206D6F64756C653F00D7
:1023820053443100534432005344484300556E6B6A
:102392006E6F776E00436F756C64206E6F7420668B
:1023A200696E642046415431362F464154333220FF
:1023B200706172746974696F6E2E0A4D616B65206B
:1023C2007375726520796F7527766520666F726DF9
:1023D2006174746564207468652063617264000AC4
:1023E200566F6C756D65207479706520697320462F
:1023F200415400566F6C756D652073697A652028AB
:102402006279746573293A2000566F6C756D652088
:1024120073697A6520284B6279746573293A2000C2
:10242200566F6C756D652073697A6520284D6279E7
:10243200746573293A20000A46696C657320666FD9
:10244200756E64206F6E207468652063617264200B
:10245200286E616D652C206461746520616E642054
:1024620073697A6520696E206279746573293A20EE
:02247200000068
:00000001FF
