:100000000C9445010C9457010C9457010C94570122
:100010000C9457010C9457010C9457010C94570100
:100020000C9457010C9457010C9457010C945701F0
:100030000C9457010C9457010C9457010C945701E0
:100040000C94AB010C9457010C9457010C9457017C
:100050000C9457010C9457010C9457010C945701C0
:100060000C9457010C9457011280003A04001200BE
:100070000017130018010032B6001902001A7A00A6
:10008000030A000C00003E0000703A007135007257
:10009000110073F000A201001500007A20007B100F
:1000A000007C1E007D35007E5A007F69008076004E
:1000B000818000828800838F0084960085A300865B
:1000C000AF0087C40088D70089E80013C000000093
:1000D000001000000D4000141800A50500AB07003B
:1000E00024950025330026E3009F7800A06800A136
:1000F0000300A6D800A7D800A8F000A99000AA94F1
:100100000013C5003000003100000E61000F4B00ED
:100110001602001E07002102002291002907003369
:100120000B00350B00371D00387100392A003C7870
:10013000004D40004E20006900007410008D4F00FB
:100140008E00008F00009000009100009600009A41
:100150000000B08400B10C00B20E00B38200B80AF7
:1001600000430A0044F00045340046580047280088
:10017000483A005988005A88005B44005C67005D7B
:1001800049005E0E006C0A006D55006E11006F9EF6
:10019000006A400001400002600013C7004F800069
:1001A000508000510000522200535E0054800058DD
:1001B0009E004108003F000075050076E1004C00FC
:1001C000007701003D48004B0900C960005640001F
:1001D0003411003B1200A482009600009730009872
:1001E00020009930009A84009B29009C03009D4CBC
:1001F000009E3F00780400790100C8F000790F00EC
:10020000C80000791000C87E00790A00C880007913
:100210000B00C80100790C00C80F00790D00C82040
:1002200000790900C88000790200C8C00079030085
:10023000C84000790500C83000792600FFFF003E65
:10024000190072110073F10017160018040032A48F
:10025000001902001A7A00030A00FFFF00120000D2
:100260008C000004000040C000146A004F80005061
:100270008000510000522200535E005480003D4037
:1002800000FFFF002A5244592A0011241FBECFEF5D
:10029000D8E0DEBFCDBF21E0A0E0B1E001C01D92FB
:1002A000A930B207E1F70E9404020C94E6020C9414
:1002B00000008093BB0084E88093BC008091BC0068
:1002C00087FFFCCF8091B900887F86130E94F501DB
:1002D0000895CF93DF93D82FC62F84EA8093BC0074
:1002E0008091BC0087FFFCCF8091B900887F883067
:1002F00011F00E94F50168E182E40E94590168E270
:100300008D2F0E94590168E28C2F0E94590184E9C7
:100310008093BC008FE99FE00197F1F700C00000D7
:10032000DF91CF9108950F931F93CF93DF93EC014B
:100330000F3F11F41F3F51F0FE01049131961491CB
:10034000612F802F0E9469012396F2CFDF91CF9118
:100350001F910F9108951F920F920FB60F921124C3
:100360002F933F938F939F93AF93BF9380910501FA
:1003700090910601A0910701B0910801309104010C
:1003800023E0230F2D3758F50196A11DB11D2093B1
:1003900004018093050190930601A0930701B09397
:1003A00008018091000190910101A0910201B0919A
:1003B00003010196A11DB11D8093000190930101DD
:1003C000A0930201B0930301BF91AF919F918F91D0
:1003D0003F912F910F900FBE0F901F90189526E818
:1003E000230F0296A11DB11DD2CF259A90E285B1AF
:1003F000892785B92FEF31EE84E0215030408040CD
:10040000E1F700C00000F3CF789484B5826084BD2A
:1004100084B5816084BD85B5826085BD85B5816008
:1004200085BD80916E00816080936E001092810086
:100430008091810082608093810080918100816041
:100440008093810080918000816080938000809102
:10045000B10084608093B1008091B000816080938E
:10046000B00080917A00846080937A0080917A0055
:10047000826080937A0080917A00816080937A0014
:1004800080917A00806880937A001092C100F8947D
:10049000239A8091B6008F798093B60083E480938D
:1004A000B00089E08093B1001092B30087B1807FE3
:1004B00087B98AB183708AB92FEF8BE792E921500F
:1004C00080409040E1F700C000008091B9008C7F2F
:1004D0008093B90088E48093B8001092C50081E051
:1004E0008093C4008091C00082608093C00088E146
:1004F0008093C10086E08093C20060E882E10E94A0
:1005000069012FEF81EE94E0215080409040E1F7A7
:1005100000C0000088E690E00E94930160E285E15F
:100520000E94690164E08CE00E9469018FE392E01F
:100530000E9493018DE592E00E9493016AE081E1BF
:100540000E946901C0E0D0E0E4E8F2E08091C000E0
:1005500085FFFCCF84918093C6008091C00085FF09
:10056000FCCF319684918111F1CF4B9BFECF4B99FB
:10057000FECF21EF30E021503109C9F041E451E0D4
:1005800041505109C1F34A99FECF86B199B18F709C
:10059000907F892B8093C6008091C00085FFFCCF9F
:1005A0004A9BFECF4A99FECF4A9BFECFE9CF2FEF61
:1005B00081EE94E0215080409040E1F700C00000BF
:1005C000209709F4C1CF0E940000BECFF894FFCF5E
:107E0000112484B714BE81FFF0D085E080938100F7
:107E100082E08093C00088E18093C10086E0809377
:107E2000C20080E18093C4008EE0C9D0259A86E02C
:107E300020E33CEF91E0309385002093840096BBD3
:107E4000B09BFECF1D9AA8958150A9F7CC24DD24C4
:107E500088248394B5E0AB2EA1E19A2EF3E0BF2EE7
:107E6000A2D0813461F49FD0082FAFD0023811F036
:107E7000013811F484E001C083E08DD089C08234E0
:107E800011F484E103C0853419F485E0A6D080C0E4
:107E9000853579F488D0E82EFF2485D0082F10E0AE
:107EA000102F00270E291F29000F111F8ED06801E7
:107EB0006FC0863521F484E090D080E0DECF843638
:107EC00009F040C070D06FD0082F6DD080E0C81688
:107ED00080E7D80618F4F601B7BEE895C0E0D1E017
:107EE00062D089930C17E1F7F0E0CF16F0E7DF06D8
:107EF00018F0F601B7BEE89568D007B600FCFDCFD4
:107F0000A601A0E0B1E02C9130E011968C91119780
:107F100090E0982F8827822B932B1296FA010C0160
:107F200087BEE89511244E5F5F4FF1E0A038BF0790
:107F300051F7F601A7BEE89507B600FCFDCF97BE46
:107F4000E89526C08437B1F42ED02DD0F82E2BD052
:107F50003CD0F601EF2C8F010F5F1F4F84911BD097
:107F6000EA94F801C1F70894C11CD11CFA94CF0C13
:107F7000D11C0EC0853739F428D08EE10CD085E9AC
:107F80000AD08FE07ACF813511F488E018D01DD067
:107F900080E101D065CF982F8091C00085FFFCCF94
:107FA0009093C60008958091C00087FFFCCF809118
:107FB000C00084FD01C0A8958091C6000895E0E648
:107FC000F0E098E1908380830895EDDF803219F02E
:107FD00088E0F5DFFFCF84E1DECF1F93182FE3DFCA
:107FE0001150E9F7F2DF1F91089580E0E8DFEE27F6
:047FF000FF270994CA
:027FFE00040479
:0400000300007E007B
:00000001FF
