:020000040000FA
:100000000C9482000C94AA000C94AA000C94AA00F0
:100010000C94AA000C94AA000C94AA000C94AA00B8
:100020000C94AA000C94AA000C94AA000C94AA00A8
:100030000C94AA000C94AA000C94AA000C94AA0098
:100040000C94A7050C94AA000C9488080C94BA0888
:100050000C94AA000C94AA000C94AA000C94AA0078
:100060000C94AA000C94AA004F035303E802EB027D
:10007000EE02F102F502F802FB02FE0201030403A4
:1000800007030A030D031103140317032503570382
:1000900028034D032B034D032F03320336034D0377
:1000A0004D0339033D034003430346034D03490316
:1000B0000000000800020100000304070000000027
:1000C0000000000001020408102040800102040822
:1000D0001020010204081020040404040404040491
:1000E00002020202020203030303030300000000F2
:1000F000250028002B0000000000240027002A0013
:100100005D01EA0811241FBECFEFD8E0DEBFCDBFEE
:1001100013E0A0E0B1E0EAE6F4E102C005900D9240
:10012000AC38B107D9F724E0ACE8B3E001C01D92C8
:10013000A234B207E1F711E0C4E0D1E004C0229795
:10014000FE010E942F0AC030D107C9F70E94FB09A7
:100150000C94330A0C94000026E040E052EC61E07D
:1001600070E085EA93E00E94260861E082E00E9448
:10017000BE0641E060E18CE893E00E94CB04882356
:1001800069F061E071E085EA93E00E94790964E634
:1001900070E080E090E00E942006EBCF65E171E026
:1001A00085EA93E00C947909CF92DF92EF92FF9267
:1001B0001F93CF93DF93CDB7DEB729970FB6F8948F
:1001C000DEBF0FBECDBF19868CE893E00E946305A9
:1001D000833009F064C0AE014F5F5F4FBE01675FBF
:1001E0007F4F8CE893E00E9442058CE893E00E94E8
:1001F0006B056B017C0167E271E085EA93E00E9488
:10020000790965E471E085EA93E00E94730920E1D1
:1002100030E0B701A60185EA93E00E94E809CE012B
:1002200001966C01E12CF12C11E0898590E0E81633
:10023000F9068CF5F60161916F014AE050E085EA1C
:1002400093E00E94E10966E571E085EA93E00E948F
:10025000730980910001882381F0E114F104B9F45D
:10026000698182E00E94F7061092000164EF71E05C
:1002700080E090E00E9420060AC0F4E0EF16F1044E
:1002800031F46D8182E00E94F706109300018FEF38
:10029000E81AF80ACACF85EA93E00E947509299600
:1002A0000FB6F894DEBF0FBECDBFDF91CF911F9187
:1002B000FF90EF90DF90CF9008956AE08CE893E094
:1002C0000C94C30420919903222399F03FB7F8942A
:1002D00020919903213059F42DB3209397034DB306
:1002E00020919803209524232DBB3FBF02C030935B
:1002F00097038CBD9DBD08958EBD00000DB407FE13
:10030000FDCF8EB5089580919903882361F09FB742
:10031000F8942091990380919703213019F48DBBB3
:100320009FBF08958FBF0895CF93DF93EC0180E5C1
:1003300091E00E94620160E08E810E94F70680ECED
:100340000E947C0161E08E810E94F7060E94830179
:100350006AE070E080E090E0DF91CF910C9420069D
:100360001F93CF93DF93EC01162F80E591E00E945D
:10037000620160E08E810E94F70683E00E947C01AA
:10038000812F0E947C0180E00E947C01182F61E097
:100390008E810E94F7060E948301812FDF91CF9109
:1003A0001F910895EF92FF921F93CF93DF931F92B7
:1003B000CDB7DEB77C01162F80E591E049830E941E
:1003C000620160E0F70186810E94F70682E00E94E8
:1003D0007C01812F0E947C014981842F0E947C0135
:1003E00061E0F70186810E94F7060F90DF91CF91BF
:1003F0001F91FF90EF900C948301EF92FF921F9357
:10040000CF93DF9300D0CDB7DEB77C01162F80E508
:1004100091E02A8349830E94620160E0F7018681AE
:100420000E94F70685E00E947C01812F0E947C01DA
:100430004981842F0E947C012A81822F0E947C01A5
:1004400061E0F70186810E94F7060F900F90DF911F
:10045000CF911F91FF90EF900C9483011F93CF9346
:10046000DF93EC0180E591E00E94620160E08E8103
:100470000E94F70680EA0E947C0180E00E947C01D5
:10048000182F61E08E810E94F7060E948301812F60
:10049000DF91CF911F9108956EE00E94B001807EA0
:1004A0000895BF92CF92DF92EF92FF920F931F9326
:1004B000CF93DF93EC01B62E0E94F1056B017C0116
:1004C0000B2D10E02B2D40EE6FE0CE010E94FD01C0
:1004D0006EE0CE010E94B001807E90E0801791070F
:1004E00069F00E94F1056C197D098E099F09693C2C
:1004F00071058105910530F381E001C080E0DF9155
:10050000CF911F910F91FF90EF90DF90CF90BF9010
:1005100008950F931F93CF93DF93EC01162F0E9442
:100520004C02803221F5103211F16BE2CE010E94B3
:10053000B001082F007486FD06C020E440E46BE2A1
:10054000CE010E94FD0120E440E46CE2CE010E9455
:10055000FD0160E6CE010E945102811116C0011119
:1005600006C020E040E46BE2CE010E94FD0120E0E5
:1005700040E46CE2CE010E94FD01612FCE01DF91CB
:10058000CF911F910F910C94510281E0DF91CF9197
:100590001F910F910895603211F0FC0162870C9455
:1005A00089020F931F93CF93DF93EC01413021F029
:1005B000423009F43FC071C0462F50E0FA01319734
:1005C000E231F10508F069C0EC5CFF4F0C942D0A94
:1005D00017E80FEF6EC017E00AEB6BC015E801EFEC
:1005E00068C017E00EEB49E065C017E80FEF35C0B3
:1005F00017E80AEF32C017E80FEF36C017E00EEB2E
:1006000033C017E00DEA30C017E80AEF2DC016E836
:1006100000EF2AC017E80AEF2EC015E801EF41E409
:1006200049C016E800EF37C014E000EA34C012E811
:1006300000ED31C0462F50E0FA013197E231F1056B
:1006400060F5EA5BFF4F0C942D0A17E00FEB2DC00D
:1006500017E00FEB02C014E004EA47E02BC017E0FC
:100660000FEB02C016E004EB43E024C017E00FEBF1
:1006700002C016E004EB41E01DC015E001EBFBCF2A
:1006800016E004EB08C015E001EB05C012E000E93C
:1006900002C010E000E840E00DC081E01AC017E899
:1006A0000FEF4FE307C017E80FEF4FE103C017E06C
:1006B0000FEB4FE06AE2CE010E94D201402F69E2C7
:1006C000CE010E94D201412F68E2CE010E94D201E8
:1006D00080E0DF91CF911F910F9108951F93CF93E9
:1006E000DF93EC0110E340E0612FCE010E94D201C4
:1006F00060E1610F40E0CE010E94D20160E2610F33
:1007000040E0CE010E94D2011F5F1E3361F740E03E
:1007100060E6CE010E94D20140E060E7CE01DF91A9
:10072000CF911F910C94D201EF92FF920F931F93E0
:10073000CF93DF931F92CDB7DEB77C01062F49839D
:100740000E94940160E8C7010E948902182F498124
:10075000882319F068E571E037C062E771E085EA47
:1007600093E049830E9473094981602FC7010E9469
:10077000D102882319F060E971E026C062EA71E0D5
:1007800085EA93E00E947309C7010E946E0343E06B
:100790006BE2C7010E94D20124E044E660E6C70193
:1007A0000E94FD0120E040E660E7C7010E94FD01D4
:1007B00060E0C7010E94CB02182F882319F067EB75
:1007C00071E002C062ED71E085EA93E00E94730976
:1007D000812F0F90DF91CF911F910F91FF90EF909C
:1007E00008952F923F924F925F926F927F928F92D5
:1007F0009F92AF92BF92CF92DF92EF92FF920F93B0
:100800001F93CF93DF9300D000D0CDB7DEB74C015C
:10081000562E5A01390160E0FC0186810E94F706DC
:10082000852D0E947C01CE0101961C012E0195E0D0
:10083000490E511C80E00E947C01F10181931F014F
:10084000E415F505B9F72A813981822F90E0E5E0BA
:1008500095958795EA95E1F7F8E03F9F800D911D0A
:100860001124AA2797FDA095BA2FF50180839183C3
:10087000A283B383F301108223FF3AC0F501808184
:100880009181A281B38152E0880F991FAA1FBB1FDB
:100890005A95D1F72370820F911DA11DB11D808340
:1008A0009183A283B38380819181A281B381BA2F86
:1008B000A92F982F88272B81820F911DA11DB11D73
:1008C00080839183A283B38380819181A281B3814C
:1008D000BA2FA92F982F88272C81820F911DA11D37
:1008E000B11D80839183A283B38381E0F301808370
:1008F00080E00E947C01982F9F70F701908386FB17
:10090000882780F9F80180838601D12CF701808146
:10091000D81618F4F8E0DF121BC061E0F4018681FC
:100920000F900F900F900F90DF91CF911F910F912B
:10093000FF90EF90DF90CF90BF90AF909F908F90FF
:100940007F906F905F904F903F902F900C94F706A0
:1009500080E00E947C01F80181938F01D394D6CF6F
:10096000CF93DF93EC01862F662351F06E8361E015
:100970000E94BE0661E08E81DF91CF910C94F70654
:10098000DF91CF910895FC0111862BE933E0308788
:1009900027830C94B004CF93DF9300D000D0CDB761
:1009A000DEB74C836B8389839A830E9471054C81E7
:1009B0006B8189819A810E94940391E0811101C029
:1009C00090E0892F0F900F900F900F90DF91CF91B3
:1009D00008956F927F928F929F92AF92BF92CF9223
:1009E000DF92EF92FF920F931F93CF93DF93EC016F
:1009F0005A014901380160FF02C060E903C061FF8C
:100A000015C064E9CE010E94F103F30180818D835A
:100A1000F40180818883F501408151816281738175
:100A200049835A836B837C8380E003C0F701108283
:100A300084E0DF91CF911F910F91FF90EF90DF90B5
:100A4000CF90BF90AF909F908F907F906F900895C0
:100A50000E942E02482F4B7A83FF02C034E001C06F
:100A600030E085FF02C028E001C020E0942F991FEC
:100A70009927991F9295907F842F8370832B822BC7
:100A8000892B0895CF92DF92EF92FF920F931F93DD
:100A9000CF93DF93EC017B016A010E9428058E0150
:100AA0000B5F1F4FAE014F5F5F4F9E01682FCE015E
:100AB0000E94E904DF91CF911F910F91FF90EF9079
:100AC000DF90CF9008950E942E02837011F083E092
:100AD000089584E00895FC0161817281838194818D
:100AE0000895CF93CFB7F89480919A03811127C0CE
:100AF000E2EEF0E08491EEECF0E09491E82FF0E08B
:100B0000EE0FFF1FEA50FF4FA591B4918C918923FE
:100B100021F461E08AE00E94F70661E08AE00E9429
:100B2000BE068CB580618CBD8CB580648CBD61E0E7
:100B30008DE00E94BE0661E08BE00E94BE068091BF
:100B40009A038F5F80939A03CFBFCF9108951F922E
:100B50000F920FB60F9211242F933F938F939F9371
:100B6000AF93BF9380919D0390919E03A0919F03AB
:100B7000B091A00330919C0323E0230F2D3720F484
:100B80000196A11DB11D05C026E8230F0296A11DE7
:100B9000B11D20939C0380939D0390939E03A0938B
:100BA0009F03B093A0038091A1039091A203A09111
:100BB000A303B091A4030196A11DB11D8093A103CD
:100BC0009093A203A093A303B093A403BF91AF910A
:100BD0009F918F913F912F910F900FBE0F901F907B
:100BE00018952FB7F89460919D0370919E038091A2
:100BF0009F039091A0032FBF08953FB7F894809171
:100C0000A1039091A203A091A303B091A40326B5E0
:100C1000A89B05C02F3F19F00196A11DB11D3FBF34
:100C20006627782F892F9A2F620F711D811D911DC4
:100C300042E0660F771F881F991F4A95D1F70895E4
:100C40008F929F92AF92BF92CF92DF92EF92FF92DC
:100C50006B017C010E94FD054B015C01C114D104B4
:100C6000E104F104F1F00E940A0A0E94FD056819EE
:100C700079098A099B09683E73408105910570F3E3
:100C800021E0C21AD108E108F10888EE880E83E05D
:100C9000981EA11CB11CC114D104E104F10429F770
:100CA000DDCFFF90EF90DF90CF90BF90AF909F90FF
:100CB0008F900895789484B5826084BD84B58160F6
:100CC00084BD85B5826085BD85B5816085BDEEE654
:100CD000F0E0808181608083E1E8F0E01082808133
:100CE00082608083808181608083E0E8F0E08081A1
:100CF00081608083E1EBF0E0808184608083E0EBC1
:100D0000F0E0808181608083EAE7F0E080818460A8
:100D10008083808182608083808181608083808104
:100D2000806880831092C1000895833081F028F498
:100D3000813099F08230A1F008958730A9F0883091
:100D4000B9F08430D1F4809180008F7D03C0809110
:100D500080008F7780938000089584B58F7702C0DC
:100D600084B58F7D84BD08958091B0008F7703C0D6
:100D70008091B0008F7D8093B0000895CF93DF9372
:100D800090E0FC01EC53FF4F2491FC01E852FF4F2F
:100D90008491882349F190E0880F991FFC01EA5063
:100DA000FF4FA591B49184519F4FFC01C591D491FF
:100DB0009FB7611108C0F8948C91209582238C9381
:100DC000888182230AC0623051F4F8948C91322FCA
:100DD000309583238C938881822B888304C0F89478
:100DE0008C91822B8C939FBFDF91CF9108950F93AD
:100DF0001F93CF93DF931F92CDB7DEB7282F30E03C
:100E0000F901E055FF4F8491F901EC53FF4F149124
:100E1000F901E852FF4F04910023C9F0882321F023
:100E200069830E9495066981E02FF0E0EE0FFF1FB5
:100E3000E451FF4FA591B4919FB7F8948C91611143
:100E400003C01095812301C0812B8C939FBF0F900D
:100E5000DF91CF911F910F910895FC01818D228D1B
:100E600090E0805C9F4F821B91098F7399270895B2
:100E7000FC01918D828D981731F0828DE80FF11D64
:100E8000858D90E008958FEF9FEF0895FC01918D7F
:100E9000828D981761F0828DDF01A80FB11D5D96DC
:100EA0008C91928D9F5F9F73928F90E008958FEF4A
:100EB0009FEF0895FC01538D448D252F30E0842F42
:100EC00090E0821B930B541710F0CF960895019772
:100ED000089580EE98E0892B49F080E090E0892B1E
:100EE00029F00E94E00881110C9400000895FC0193
:100EF000848DDF01A80FB11DA35ABF4F2C91848DA3
:100F000090E001968F739927848FA689B7892C93D7
:100F1000A089B1898C91837080648C93938D848D2A
:100F2000981306C00288F389E02D80818F7D80832D
:100F30000895CF93DF93EC01888D8823C9F0EA8967
:100F4000FB89808185FD05C0A889B9898C9186FDC2
:100F50000FC00FB607FCF5CF808185FFF2CFA889BF
:100F6000B9898C9185FFEDCFCE010E947707E7CF3D
:100F7000DF91CF910895CF92DF92FF920F931F934D
:100F8000CF93DF931F92CDB7DEB76C0181E0D6011E
:100F900058968C9358975B969C915B975C968C9136
:100FA0005C97981307C05096ED91FC915197808102
:100FB00085FD30C0F601038D10E00F5F1F4F0F73EA
:100FC0001127F02EF601848DF81211C00FB607FC20
:100FD000F9CFD6015096ED91FC915197808185FF14
:100FE000F1CFC60169830E9477076981EBCF838DBA
:100FF000E80FF11DE35AFF4F60839FB7F894D601C5
:101000005B960C935B975296ED91FC915397808180
:1010100080620FC09FB7F894D6015696ED91FC916F
:10102000579760835096ED91FC9151978081837022
:10103000806480839FBF81E090E00F90DF91CF912B
:101040001F910F91FF90DF90CF900895BF92CF92A4
:10105000DF92EF92FF92CF93DF93EC016A017B0165
:10106000B22EE889F98982E08083411581EE580724
:1010700061057105A1F060E079E08DE390E0A701E2
:1010800096010E940B0A21503109410951095695D8
:10109000479537952795211580E1380798F0E8891D
:1010A000F989108260E874E88EE190E0A70196016A
:1010B0000E940B0A21503109410951095695479563
:1010C00037952795EC85FD853083EE85FF85208358
:1010D000188EEC89FD89B082EA89FB898081806164
:1010E0008083EA89FB89808188608083EA89FB8923
:1010F000808180688083EA89FB8980818F7D8083FD
:10110000DF91CF91FF90EF90DF90CF90BF90089547
:101110001F920F920FB60F9211242F938F939F93CC
:10112000EF93FF93E091B503F091B6038081E091D6
:10113000BB03F091BC0382FD12C090818091BE037D
:101140008F5F8F732091BF03821751F0E091BE0330
:10115000F0E0EB55FC4F958F8093BE0301C080817A
:10116000FF91EF919F918F912F910F900FBE0F9054
:101170001F9018951F920F920FB60F9211242F9364
:101180003F934F935F936F937F938F939F93AF930F
:10119000BF93EF93FF9385EA93E00E947707FF9157
:1011A000EF91BF91AF919F918F917F916F915F91DF
:1011B0004F913F912F910F900FBE0F901F90189558
:1011C00085EA93E00E942D0721E0892B09F420E0B5
:1011D000822F08951092A8031092A70388EE93E03F
:1011E000A0E0B0E08093A9039093AA03A093AB037F
:1011F000B093AC0381E793E09093A6038093A5039B
:1012000085EC90E09093B2038093B10384EC90E07E
:101210009093B4038093B30380EC90E09093B60373
:101220008093B50381EC90E09093B8038093B7036B
:1012300082EC90E09093BA038093B90386EC90E03F
:101240009093BC038093BB031092BE031092BF0324
:101250001092C0031092C1030895CF92DF92EF92D3
:10126000FF920F931F93CF93DF937C016A01EB01F1
:1012700000E010E00C151D0571F06991D701ED91AA
:10128000FC910190F081E02DC7010995892B19F09F
:101290000F5F1F4FEFCFC801DF91CF911F910F91CB
:1012A000FF90EF90DF90CF900895DC01ED91FC91DD
:1012B0000190F081E02D642F09946115710581F092
:1012C000DB010D900020E9F7AD0141505109461BAB
:1012D000570BDC01ED91FC910280F381E02D099424
:1012E00080E090E008950C945D096DE871E00C9445
:1012F0005D090F931F93CF93DF93EC010E945D096B
:101300008C01CE010E947509800F911FDF91CF9152
:101310001F910F9108958F929F92AF92BF92DF928B
:10132000EF92FF920F931F93CF93DF93CDB7DEB76A
:10133000A1970FB6F894DEBF0FBECDBF7C01F42F8E
:10134000D52ECB0119A2223008F42AE08E010F5DC0
:101350001F4F822E912CA12CB12C6F2F7D2DA5011A
:1013600094010E940B0AF22FD32ECA0101501109D9
:101370006A3014F4E0E301C0E7E3E60FD801EC9330
:10138000232B242B252B49F7B801C7010E945D09A7
:10139000A1960FB6F894DEBF0FBECDBFDF91CF91FF
:1013A0001F910F91FF90EF90DF90BF90AF909F90B3
:1013B0008F9008952115310511F40C9455090C9462
:1013C0008B099A01462F50E060E070E00C94DA0936
:1013D0000F931F93CF93DF93EC010E94DA098C01E6
:1013E000CE010E947509800F911FDF91CF911F914F
:1013F0000F91089508950E945A060E94FA090E94CA
:10140000AC00C9E6D7E00E94D4002097E1F30E9427
:101410006907F9CF0895A1E21A2EAA1BBB1BFD0193
:101420000DC0AA1FBB1FEE1FFF1FA217B307E407C3
:10143000F50720F0A21BB30BE40BF50B661F771F1B
:10144000881F991F1A9469F76095709580959095FB
:101450009B01AC01BD01CF010895EE0FFF1F059068
:10146000F491E02D0994F894FFCF0143414E2042BE
:10147000555320496E6974204661696C6564004368
:10148000414E204255532020496E6974204F4B2114
:10149000002D2D2D2D2D2D2D2D2D2D2D2D2D2D2DA9
:1014A0002D2D2D2D2D2D2D2D2D2D2D2D2D2D004482
:1014B0006174612066726F6D2049443A2030780073
:1014C0000900456E7465722073657474696E6720D7
:1014D0006D6F6465206661696C0D0A00456E746508
:1014E000722073657474696E67206D6F6465207314
:1014F000756363657373200D0A00736574207261F0
:1015000074652066616C6C21210D0A00736574207E
:1015100072617465207375636365737321210D0AAD
:1015200000456E746572204E6F726D616C204D6F58
:101530006465204661696C21210D0A00456E746561
:1015400072204E6F726D616C204D6F646520537513
:10155000636365737321210D0A00426567696E201C
:10156000746F20736574204D61736B21210D0A0027
:10157000456E7465722073657474696E67206D6F53
:1015800064652066616C6C0D0A00456E746572209E
:101590006E6F726D616C206D6F64652066616C6C3E
:1015A0000D0A00736574204D61736B20737563635E
:1015B00065737321210D0A00426567696E20746F9F
:1015C000207365742046696C74657221210D0A00D0
:1015D000456E746572206E6F726D616C206D6F6404
:1015E000652066616C6C0D0A5365742066696C74C5
:1015F0006572206661696C21210D0A007365742093
:1016000046696C7465722073756363657373212119
:101610000D0A00496E76616C69642070696E206DF8
:101620006F646520726571756573740D0A00456E8F
:10163000746572696E6720436F6E66696775726163
:1016400074696F6E204D6F6465204661696C7572B8
:10165000652E2E2E0D0A006053657474696E672026
:101660004944204D6F6465204661696C7572652E32
:101670002E2E0D0A00496E76616C69642070696EC9
:1016800020666F72206D6F64652072657175657379
:10169000740D0A00496E76616C69642070696E2071
:1016A000666F72206D63704469676974616C57720C
:1016B0006974650D0A00496E76616C696420706911
:1016C0006E20666F72206D63704469676974616C27
:1016D000526561640D0A0000000000BB072D095A25
:1016E0000799072D07460738076E616E00696E6619
:0616F000006F76660000A9
:107E0000112484B714BE81FFF0D085E080938100F7
:107E100082E08093C00088E18093C10086E0809377
:107E2000C20080E18093C4008EE0C9D0259A86E02C
:107E300020E33CEF91E0309385002093840096BBD3
:107E4000B09BFECF1D9AA8958150A9F7CC24DD24C4
:107E500088248394B5E0AB2EA1E19A2EF3E0BF2EE7
:107E6000A2D0813461F49FD0082FAFD0023811F036
:107E7000013811F484E001C083E08DD089C08234E0
:107E800011F484E103C0853419F485E0A6D080C0E4
:107E9000853579F488D0E82EFF2485D0082F10E0AE
:107EA000102F00270E291F29000F111F8ED06801E7
:107EB0006FC0863521F484E090D080E0DECF843638
:107EC00009F040C070D06FD0082F6DD080E0C81688
:107ED00080E7D80618F4F601B7BEE895C0E0D1E017
:107EE00062D089930C17E1F7F0E0CF16F0E7DF06D8
:107EF00018F0F601B7BEE89568D007B600FCFDCFD4
:107F0000A601A0E0B1E02C9130E011968C91119780
:107F100090E0982F8827822B932B1296FA010C0160
:107F200087BEE89511244E5F5F4FF1E0A038BF0790
:107F300051F7F601A7BEE89507B600FCFDCF97BE46
:107F4000E89526C08437B1F42ED02DD0F82E2BD052
:107F50003CD0F601EF2C8F010F5F1F4F84911BD097
:107F6000EA94F801C1F70894C11CD11CFA94CF0C13
:107F7000D11C0EC0853739F428D08EE10CD085E9AC
:107F80000AD08FE07ACF813511F488E018D01DD067
:107F900080E101D065CF982F8091C00085FFFCCF94
:107FA0009093C60008958091C00087FFFCCF809118
:107FB000C00084FD01C0A8958091C6000895E0E648
:107FC000F0E098E1908380830895EDDF803219F02E
:107FD00088E0F5DFFFCF84E1DECF1F93182FE3DFCA
:107FE0001150E9F7F2DF1F91089580E0E8DFEE27F6
:047FF000FF270994CA
:027FFE00040479
:00000001FF
