:100000000C9426160C944E160C944E160C944E1608
:100010000C944E160C944E160C944E160C944E16D0
:100020000C944E160C944E160C944E160C944E16C0
:100030000C944E160C944E160C944E160C944E16B0
:100040000C94B9190C944E160C944E160C944E1632
:100050000C944E160C944E160C944E160C944E1690
:100060000C94031A0C944E1680289628BE28E62875
:100070009929C029E229392A582A772AAB2AE62A5F
:10008000E82AEC2A00000000240027002A000000D3
:100090000000250028002B000404040404040404C8
:1000A0000202020202020303030303030102040823
:1000B00010204080010204081020010204081020D2
:1000C0000000000800020100000304070000000017
:1000D00000000000FF3F012001200120012001203D
:1000E000C120C12001200120012001200120FF3F6B
:1000F000001800002400002400004200004200001C
:100100004200008100008100C00003383C1C064210
:1001100060014280014280064260383C1CC00003FE
:100120000081000081000042000042000042000007
:100130002400002400001800BF000302030403058C
:1001400004060A00FE07FE07000142028807C420D9
:100150000500620721073943C7A00422079B5247C5
:100160006209230E3D424F294906A53228A52401E4
:10017000240C3D4257B6D4B624D92200250C3D426A
:100180004FA474ABB4480900260D3D424F96444934
:100190005649A4480927061953C7002808BB4257E7
:1001A00052AA152909BB424756AA94002A0A2D468D
:1001B00047965406A52D2B0A2D4657180D521801A7
:1001C0002C079B3E8F52022D060D4EC7202E089BFA
:1001D0003E4FB224002F083D4267AD6308300B3D0F
:1001E000425796D46C492D02310A3D42572625616B
:1001F000D320320C3D42CF92859194858300330CFD
:100200003D42C7206699AA250B00340C3D425F266B
:1002100025A564D0C204350B3D42C73131855AB2A1
:1002200000360C3D4297948589494B1600370B3DAB
:1002300042C720666156CC00380C3D42CF9269C956
:100240009269C902390C3D42CF92498A12669104E3
:100250003A0ABB3E4FB2A4C992003B09BB3E4FB223
:10026000A44A093C08BC425FD4D8003D081D4AC7D7
:10027000A00E023E08BC4247D8D4063F0A3D42CFFA
:100280009235E65004400C3D42CF92494B624917EB
:1002900000410C3D425796D4B461C8B400420D3DB4
:1002A00042C71055A264AA448302430A3D42CF923A
:1002B000896DC902440F3D42C71055A2244AA224A9
:1002C0001A1400450B3D42C7311C92301C04460AEB
:1002D0003D42C7311C92B008470B3D42CF9289A5E1
:1002E0002D5900480A3D4247661B86CC164908BB7B
:1002F00042C71275194A0A3D42D716B64491044BBB
:100300000D3D42472625252D892A59004C083D429E
:1003100047D8E3204D0B3D4247A62D4BA2D9024EB4
:100320000C3D4247A64D4A226D5A004F0A3D42CF2E
:1003300092794B1600500C3D42C79064DAA0844578
:1003400000510A453ECF9279A9AC01520D3D42C7FA
:100350009064DAA0942A5900530B3D42CF92A9AB86
:10036000962C0054093D42C720853D0155093D4268
:1003700047E65BB200560D3D4247664B4A499464DE
:100380001100570A3D4247E69228C92D580B3D42BD
:1003900047A625B54A4D0B590A3D4247A625B5B09B
:1003A000095A0A3D42C720661D07015B08BB42C7C8
:1003B00010751A5C083D424798760C5D08BB42C731
:1003C000D469085E081D525796D4025F060D3EC7D9
:1003D000206006125B4714610A2D42CF9A0C5A32F4
:1003E00004620B3D424758316993A200630A2D42D3
:1003F000CF928959B200640A3D4267C5B4498A1256
:10040000650A2D42CF920D43BA00660B3D429754C8
:10041000C98628AC01670C3D3ACFA069C9106AC9EA
:1004200002680A3D4247583169B6006908BB424F2D
:1004300028B50C6A0BCC3A5FACD5242951006B0B64
:100440003D4247589392A992056C08BB4287D4CB92
:10045000006D0B2D4287D2A2244AA2056E092D42BF
:100460004762D26C016F092D42CF92D99205700C70
:100470003D3A4762D22645094300710A3D3A8F69E9
:100480009314252C72092D424762128B0073092D9B
:1004900042CF921E1400740C3D424F980D51588A61
:1004A000140075092D4247E6A42801760B2D42471A
:1004B000A625A5248B00770A2D42476649942E0075
:1004C000780A2D424796D42AB500790C3D3A476602
:1004D0005294504B16007A092D42C7A0B50D027BED
:1004E0000ABC4297122662140A7C063943C7217D52
:1004F0000BBC428718854A9848007E091D524FA4BC
:10050000245202A005006207A1073943473208A21E
:100510000E3D3E573628511225D9104500A30C3DFB
:10052000429754C9B630521400A40B2D4247964C42
:1005300049B46401A50D453E47A625B56890C21291
:1005400000A6063943C732A70B453ECF124E9DC6C3
:100550006401A8068B5E4712A90D3D42CF9229C9BE
:10056000A4245AB200AA0AB446CF10294A7108AB93
:100570000C2E4257254AA22CCAA200AC07944AC7A7
:100580009005AD068C4EC710AE0C3D42CF920DC902
:100590003469C902AF060D5EC720B0079B524F17E2
:1005A00000B10B354257180D52180D02B209AC4E6E
:1005B0008F12350D01B309AC4EC798884302B406BB
:1005C000125B8F02B50A353E47669B142504B60FB1
:1005D0003D42CF30244392285112255112B70609CB
:1005E0004F4700B806123B8F02B908AB4E4F225559
:1005F00006BA0AB4468F1249893A04BB0D2E424707
:100600009445599444491401BC0D4E3E4FA816A779
:10061000504BA2210DBD0C4E3E4FA816973049C33A
:1006200070BE0E4D3E879AA591944949328401BF10
:100630000A3D42570E8559CB02C00C45424F9A2DB8
:1006400099360C9916C10C45425F6DC9B461C8B4A6
:1006500000C20D45425796444BA60D43A605C30D57
:1006600045424FA4484BA60D43A605C40C45424F36
:100670001D58326D18322DC50D45425796444BA674
:100680000D43A605C60C3E42D790949A86216A1A5D
:10069000C70B4D3ACF92896DC95603C80C45424FDE
:1006A000368CE19084E120C90C45425F328CE190A8
:1006B00084E120CA0C454257348CE19084E120CB80
:1006C0000C45424F6518C32109C341CC0AC34247B8
:1006D000962C51CB00CD0AC34257922C51CB00CE61
:1006E0000AC3424F6548A29601CF0AC34247922DE2
:1006F00051CB00D00E3D42C71055A2212925D1A0D3
:1007000000D10C454257D26D521269D302D20B452B
:10071000424F9A2D995BB200D30A45425F6DC9DC06
:100720009205D40C45425796444BE6962C00D50BC7
:10073000454257D2B4646EC902D60B45424F1D588C
:1007400032B76401D70A2D424796D42AB500D80C97
:100750003D42CF125D92694A1600D90A45424F1AAE
:1007600065DE9205DA0A45425F29F3962C00DB0B21
:1007700045425796C4995BB200DC0A45424F39F3B3
:10078000962C00DD0B45425F29D3925A5802DE0CAD
:100790003D42473824D9A0844500DF0D3D42CF9229
:1007A0004949A992290A00E00C45424F9A236B322D
:1007B00068C910E10C45425F1D5993414B8600E228
:1007C0000D45425796E4C09A0C5A3204E30D454257
:1007D00057D20EACC9A0254300E40C3D424F1D5832
:1007E00093414B8600E50D4542579664D99A0C5AC1
:1007F0003204E60C2E42CF1026C930658300E70B89
:100800003D3ACF928959B2D500E80C45424F9A2320
:100810004B360CE902E90C45425F1D59B26148179D
:1008200000EA0D45425796E4C0920D43BA00EB0C26
:100830003D424F1D58B261481700EC09C3424716AC
:100840004A2D03ED08C3424F556A19EE08C3424FC3
:100850009BD432EF09BB424792492D03F00B3D4236
:10086000872A2D992D5900F10B454257D29C983477
:100870005B00F20C45424F9A234B664B1600F30B7C
:1008800045425F1D59325BB200F40C45425796E475
:10089000C092D99205F50C454257D20E2C992D598C
:1008A00000F60B3D424F1D58325BB200F70A2D4651
:1008B000570E0C3A1001F80B2D42CF202DC93428C9
:1008C00000F90B45424F9A039993A204FA0A454254
:1008D0005F1DC89C1425FB0B45425796C49993A2F3
:1008E00004FC0A3D424F3973529400FD0D4D3A5FAE
:1008F0002933294AA8250B00FE0C453A473824998C
:100900006D50C210FF0D4D3A4F3933294AA8250BBF
:100910000000000004FFFF000013000302050504AF
:100920000506101000FE0AFE0BFF019B03340EA407
:10093000200600A0470121084131447148042208E3
:1009400085284691B905230F462544D5D330245137
:10095000CB30443D012412472544170E4A1449E187
:100960003C4652651033002514472544A3494929C4
:100970008994344E1329899292A600261247254461
:10098000B595B24A282691968849264D01270781B8
:1009900030463104280C83ED43954449D45B9405DB
:1009A000290D83E943914559D44B9444002A0DE71E
:1009B000644457AAB46D49532D032B0CE7644417C4
:1009C000D786218B6B002C0982AC43A1240A002D11
:1009D0000724284531042E07422C4431042F0C46AD
:1009E00025445BAC8669584D013012462544A54527
:1009F00049A84D89126D6212651200310B452944D8
:100A0000954949D8A741320F4625443324A1986619
:100A10005A584D870133104625443324A198467314
:100A20002A8AC990003410462544196A4954C9924B
:100A30002C19C6B402350F4625447148AB839CA6D9
:100A400062322400360F4625443585693A28A16371
:100A5000322400370B462544712DA6C5B409381041
:100A60004625443324A1311992D031191200390E90
:100A70004625443324A13119D4C668023A09E26CF0
:100A80004431C443003B0A22ED4331C44AA2003C36
:100A9000092529449975ED003D09A6A44471270E46
:100AA000033E092525449176EB083F0F4625443344
:100AB00024A19886D51C4C23004012462544356558
:100AC00052A2244BA4444A242DF110410E46254441
:100AD000A5452DA1380CA26300420E4625443128BD
:100AE000A1715842C76101430E4625443324A1B584
:100AF000A3980C0900440E46254431445912FA2D9E
:100B0000192200450D4625447148AB8392B60E0369
:100B1000460C4625447148AB83927605470E462520
:100B2000443324A1B53484366509480B4625441165
:100B30003A0E83E831490B4529443148613F0D02A3
:100B40004A0E4725443588714F5994651B004B1157
:100B5000462544116A4954C94431C9A25A12064C67
:100B60000946254491F6D7614D0D462544118AD397
:100B7000102D1E1D034E10462544116E9B12299107
:100B8000944889760C4F0C4625443324A13F2643D4
:100B900002500D4625443128A17158D2AE0051179C
:100BA00067E5433344611226611226611226899259
:100BB00048D290030252104625443128A17158A210
:100BC0005A9225A118530D4625443324A1D9514CDE
:100BD0008604540A47254471C8E2FE06550B462593
:100BE0004411FAC76448005611472544915A932C82
:100BF000CAA2AC1226699C01570D462544117A7190
:100C00009986681403580F462544118A49D4266AE8
:100C1000514B2806590E47254491AA49166595342B
:100C2000EE065A0B462544712DF69A0E035B0A8395
:100C3000F1433144FDD3005C0C46254491C6D538C0
:100C40008DAB015D0A83E54331F54F43005E0966D4
:100C50006446A54549185F0727E4437108600763A8
:100C6000A8469115610E0625443324619A0CA34DC4
:100C70005902620E66254491B62C9AE8B8290B00F9
:100C8000630D0625443324A1DA31191200640C6681
:100C90002544DBB268A3376509650F062544332474
:100CA000A1380C6A31191200660C6525442785A508
:100CB000410A7B02671366A5439B2C5A922559B4BF
:100CC000A543128AC99000680C66254491B62C9AF7
:100CD000E86300690B65294415E688D8A7416A0CCA
:100CE000A5A5435947C43E4A91046B11662544911A
:100CF000B625512513932CAA2561006C0A65294459
:100D000023F64F83006D12072544B1285124455224
:100D1000244552244552016E0B062544912C9AE835
:100D200063006F0C0625443324A18FC99000700E18
:100D300046A543912C9AE8B8294B9A02710C46A516
:100D400043B368A33765490B720B062544912C9A6F
:100D5000A87605730D0625443324A1EC980C0900F0
:100D6000740B45254415960629EC2A750A06254478
:100D700011FA4D5902760C062544111A93A83751E1
:100D8000027711072544914A9114499114499154CD
:100D9000B100780F062544118A4994895A948462D7
:100DA00000790E46A543117A4C224B5A1912007A4B
:100DB0000A062544710D7B1D067B0EA4A943A5647C
:100DC0006116156B51160A7C07C1B143F1417D0FC5
:100DD000A4A94321665116966A619648007E0A6767
:100DE0002446A34991A6007F2310A28391F43B4996
:100DF000E7A4930E493625611A2543924D49984E32
:100E00004332EC9C744E3A29E907802410A2839166
:100E1000F43B49E7A493366999922889A243120DBD
:100E2000619444C52859744E3A279D94F403812552
:100E300010A28391F43B49E7A4934AD23225511280
:100E400045431225A7244AD22892329D93CE4927A2
:100E500025FD00822210A28391F43B49E7A4934E22
:100E6000D110255112450F439484513485D1CE4978
:100E7000E7A493927E832410A28391F43B49E7A4D4
:100E8000932A533428A524AA28D330444994442DC6
:100E900053B473D239E9A4A41F842510A28391F41A
:100EA0003B49E7A4939628999448298551A24489FF
:100EB0001255A26C899249E7A473D249493F85250E
:100EC00010A28391F43B49E7A4932A43920D493140
:100ED0004D9421C9A6244CA36448869D93CE4927EE
:100EE00025FD00861F10A28391F43B49E7A4D3A6F9
:100EF00049194B9969D8C2248A4ED1CE49E7A493A7
:100F0000927E872410A28391F43B49E7A4938668DC
:100F100052C6523444D230E44012454332453B2756
:100F20009D934E4AFA01882010A28391F43B49E731
:100F3000A4932AD332350F51264DD52C2A4D3A276A
:100F40009D934E4AFA01892110A28391F43B49E70F
:100F5000A4D3A2E4A244C57088C244898AA5929D04
:100F600093CE492725FD008A2110A28391F43B49A5
:100F7000E7A493B26452B6A89A4559A4D4C2348C5B
:100F8000EC9C744E3A29E9078B2210A28391F43B22
:100F900049E7A493A6709992308AA6301AC252717A
:100FA00048169D93CE492725FD008C2210A28391DF
:100FB000F43B49E7A493A6301AA2248CA2298C867C
:100FC000B0541C2245E7A473D249493F8D1F10A29B
:100FD0008391F43B49E7A453B7508BEAD0166A4992
:100FE00096438D3A279D934E4AFA018E1E10A28396
:100FF00091F43B49E7A4D3A6E59803998B1626E91B
:1010000074D839E99C7452D20F8F1D10A28391F4C9
:101010003B49E7A4D3A6E59803998B16965E744ED8
:101020003A279D94F403902210A28391F43B49E760
:10103000A493B6699892308D925499921C88B665A3
:10104000D139E99C7452D20F912110A28391F43BC3
:1010500049E7A493A65A322551A44DB5648CB2AA8F
:1010600036E89C744E3A29E907922110A28391F444
:101070003B49E7A493A6CA2989C2682A296394A494
:10108000A934EC9C744E3A29E907932110A283916C
:10109000F43B49E7A4D3966959A31CD032498BD2BB
:1010A0006C8B269D93CE492725FD00942010A283AA
:1010B00091F43B49E7A4D3A6251AC252311C86B04D
:1010C000944D4BB473D239E9A4A41F952110A28387
:1010D00091F43B49E7A4D32A59A458B234E949C949
:1010E000126B966491CE49E7A493927E962110A24A
:1010F0008391F43B49E7A4D3964D19A324CAA4C312
:101100009684513485D1CE49E7A493927E972410DA
:10111000A28391F43B49E7A493866453C62889A22D
:10112000219986212C454312463B279D934E4AFA2E
:1011300001982110A28391F43B49E7A4D3266D18AE
:10114000A324964A8A964461B4498BCE49E7A49376
:10115000927E992310A28391F43B49E7A4D3A4493A
:1011600019B2302B254A3625519245DAA4EC9C74ED
:101170004E3A29E9079A1F10A28391F43B49E7A44C
:10118000D3A6E598A6521A69491A6ECBA273D23932
:10119000E9A4A41F9B1F10A28391F43B49E7A4D3A9
:1011A000A6E59886A916ED40942ED3A273D239E90C
:1011B000A4A41F9C1F10A28391F43B49E7A453975A
:1011C0004192E21C124335CB9131D439E99C7452DF
:1011D000D20F9D2110A28391F43B49E7A4D3B469B7
:1011E0009892308D22299BC22496B641E7A473D2EF
:1011F00049493F9E2010A28391F43B49E7A413A7DD
:101200002C922AE629294961168759A473D239E913
:10121000A4A41F9F2310A28391F43B49E7A4D3A465
:101220006D989228498764CAA6244CA3241D744E45
:101230003A279D94F403A00600A04701A10941317B
:1012400044A10C4300A2124725441787831245523C
:101250001665516510E30CA30E472544B7C5C5417B
:101260008CAB832206A4100665441126435409C59D
:10127000248A86240CA51247254491265925CD861B
:1012800021CB86218B6B00A60941314431444300B8
:10129000A7124625443324A13C24A1980CB1980CF4
:1012A0000900A808442847114901A91748214435D5
:1012B00064611259A2440995508912494AC26C8846
:1012C00000AA0CE56845B32683960CE920AB0D26F1
:1012D0002544D5256A89B2A82D6AAC0786244471B5
:1012E0006DAD2310A28391F43B49A72D9136845113
:1012F00052948628D292A83835E99C748621D53933
:10130000E9A4A41FAE18482144356461924C4A9464
:101310002851A24C4A49899262364400AF0626E41D
:101320004671B00A84A845A34452A200B10E2765B5
:101330004417D786218BEBD83004B20CE52445B393
:1013400064612465E120B30CE52445B36461B26AAD
:10135000C902B40863AC46959400B51448A1431380
:101360004661144661144661644AA424CE01B6184D
:1013700067E543331C926448922189963009933083
:10138000099330099304B707422C453104B8074349
:10139000A843B500B90BE52445954949D83408BAA6
:1013A0000BE56845B364B6641E04BB0F26254411E3
:1013B000B5456D5112B5444D00BC12462544936DA0
:1013C0004954C99230AA2815690803BD124625441C
:1013D000936D4954C99230C9949A964403BE1246FB
:1013E0002544A1459528939430AA2815690803BF80
:1013F0000F46254495E6601A564331191200C01075
:10140000C6254423EB142D6A09C561101D03C110C4
:10141000C6254427E9342D6A09C561101D03C21190
:10142000C62544A54539458B5A42711844C700C3A7
:1014300010C6254423D9295AD4128AC3203A06C497
:1014400010C6254413B553B4A825148741740CC5A0
:1014500011C62544A545998E69514B280E83E8187D
:10146000C6154725443528B5288BB26190B2288B24
:10147000B2288B8600C70F86A5433324A1B5A39855
:101480000C61A601C810C6254423EBF030A4D54159
:10149000495B8701C910C6254427E9946148AB839D
:1014A00092B60E03CA10C62544A545393C0C697591
:1014B00050D2D661CB10C6254413B5C3C39056078E
:1014C000256D1D06CC0DC52944A3EAD82085FD3421
:1014D00008CD0DC52944A5E8F02085FD3408CE0DC2
:1014E000C5294423D5C1410AFB6910CF0FC5294442
:1014F0001125510E0E52D84F8300D0154721443389
:1015000064A53009072909933009932C1A2200D1C8
:1015100013C6254423D9E170DB944889A4444AB416
:101520006300D20FC6254423EB842109FD31191233
:1015300000D30FC6254427E9A42109FD3119120063
:10154000D40FC62544A545396148427F4C8604D551
:101550000FC6254423D9094312FA63322400D60F5B
:10156000C6254413B5138624F4C7644800D70CA6D7
:10157000A444112651A6454918D81586E5439B2C4D
:101580005A924D89942891126D49A62C2900D90DA3
:10159000C6254423EB70E81F932101DA0DC62544CC
:1015A00027E994D03F264302DB0EC62544A54539E2
:1015B0001CFAC7644800DC0DC6254413B5C3A17FDF
:1015C0004C8604DD10C725446727A66A9245592535
:1015D0008DBB01DE1066254491A6439425A12D19EB
:1015E000A2B40ADF11462544336549964415294BB8
:1015F000424B6401E01086254423EB842109D36427
:10160000186DCA12E11086254427E9A42109D36484
:10161000186DCA12E211862544A545396148C234C5
:1016200019469BB204E31086254423D9094312A628
:10163000C930DA9425E41186254413B51386244C69
:101640009361B4294B00E512A62544A545994E198E
:1016500092304D86D1A62C01E6130725443328513C
:101660002D4A8621CAA22CAA0C0A00E70E46A543E1
:101670003324A1DA3119C24C03E81186254423EB47
:10168000842109C561508BC99000E9118625442742
:10169000E9A42109C561508BC99000EA128625444E
:1016A000A545396148427118D462322400EB118695
:1016B000254413B51386241487412D264302EC0BD1
:1016C000852944A1EAA8D8A741ED0C852944A5E8BD
:1016D00004B14F8300EE0C85294423D551B14F83CB
:1016E00000EF0D8529441125518E8A7D1A04F011D1
:1016F00086254423655A126569328C1E932101F1B7
:101700000D86254423D9E164D1441F03F20E8625BA
:101710004423EB8421097D4C8604F30E862544275F
:10172000E9A421097D4C8604F40F862544A545399A
:101730006148421F932101F50F86254423D90943AF
:1017400012FA980C0900F60F86254413B513862467
:10175000F431191200F70AE66444A513EE0409F8FF
:101760001346E5439B0C49362552A2444AB425430F
:101770009202F90C86254423EB70E8376509FA0CD0
:1017800086254427E994D06FCA12FB0D862544A50F
:1017900045391CFA4D5902FC0C86254413B5C3A1EA
:1017A000DF9425FD10C6A54327E994D0631259D2D2
:1017B000CA9000FE0FA6A54391B62C9AE8B8294B13
:1017C0009A02FF10C6A54313B5C3A1C724B2A495BE
:1017D00021010000000C23F0071025DA05CCFFFFE3
:1017E00020A0124625443324696550B2241CB2342B
:1017F0001D0220A1134625449724C39428BD289197
:10180000124DCA960120A2134625443565A29A249A
:101810008B94644928450B0020A315482144354C7E
:1018200039900339306839900E630EA40020A4115A
:10183000472544B7C5E1B085C316A783220620A576
:10184000154725441D0F89122992224552A4484B61
:10185000B4440120A6174725449345592425C39035
:10186000B40C431249919445590220A716472544C8
:10187000A16489960CCBA4489552244552242D008E
:1018800020A816472544314659944CD21225A52448
:101890004AA2488AA40520A917476544934559944C
:1018A00025C390B40C436252A42CCA120020AA157E
:1018B00007214431445AA254948A52512A4AA60C10
:1018C000090020AB18A7A5431B0E69B4D4943009B6
:1018D000933009934C5A7264580020AC1246254448
:1018E000A745493848E120A57194290020AD144747
:1018F0002144132659544B42711892629495C200A8
:1019000020AE0E47254471C8E2789AA7B90D20AFE2
:101910001687A54331465994455994454BA4488AA6
:10192000B42C710920B01486A543336549966451DF
:10193000124A49454A34B10920B11A882144336812
:1019400061320C4A980C831246839603399003390E
:10195000100320B219C6A543958643525222254B47
:10196000B22459222552126589D20C20B31748217E
:1019700044A74661140D831226C3A08451188551D3
:10198000980020B4174821443564610EE440320CBD
:1019900092380C4A0E84D9100120B519C6A543957A
:1019A0008643525222254BB2244BB22452A264C821
:1019B000D20C20B616472544534CC2241BA6244CF7
:1019C000C2244CC2244A220520B71987A1433544BA
:1019D00061124639A00351122915A5320C49535200
:1019E0000220B80D07214471C8814316770320B93E
:1019F0001AAAAD83F1108AC321D51179887760477F
:101A0000722CC7722CC7120020BA116721441557D7
:101A1000426352B42959549B0020BB13472144937D
:101A200026E1B055C2A465C9E22C9B0020BC0EE59E
:101A3000244415664B454994442920BD124625444B
:101A40003344599225D930858394160120BE1587D9
:101A50002144956483D2A254948ADC0EE440380C6D
:101A60000120BF1CC7A143958449344C61122661F3
:101A7000324861122661120E4396844904210317ED
:101A8000C7214493266192E6C010854998C41D93EE
:101A9000301A1200210912C7214493266192C6C34D
:101AA00012970729EE0A2126104725443328A9D783
:101AB00024AB8449B40C21900DA7244595A6C3906E
:101AC000E4400821910CC5A943952D4D61FF0921E2
:101AD000920DA720459903C930A4250021930DC577
:101AE000294415F69F92CA160121940FA820455546
:101AF0000B936150C22C8A0021950F852944952DA6
:101B00004D614F49658B0021960DC6E44431446216
:101B10009245710121970DC6E44435845A1255C28D
:101B20001421980DC6E4441197B22494860021999B
:101B30000DC6A4441B265125138708219A1227A5F8
:101B4000441987491645C3904461129700219B119F
:101B500027A1441557C2281986A896847108219C8C
:101B600011AE6885B1833A302569166669B80321DC
:101B70009D11AE60850F4E3BA06469A266393602A6
:101B8000219E0FA82045558BB26150A2348A0021B6
:101B90009F0FC5A943952D4DD9D214F6130021A04E
:101BA0000FA82045558D9261D0A22C8A0021A1104A
:101BB000E5E94315F6A7A4B24549658B0021A20CBF
:101BC000A7244595255932681D21A30EA7204591CC
:101BD000B50D4A9664110021A40DA6244555C98669
:101BE00021C9A20221A50D852944952D4D613F0DE6
:101BF0000221A60EA6244511D59261C89228022181
:101C0000A70E8529443148613F25952D0221A81052
:101C1000852944952D4D61A7A4B245830021A90EC5
:101C2000C724459B55C2618872200421AA0DC72490
:101C300045936651180D6B0921AB0FC724459B25B1
:101C40004DC93044C5240221AC10C724459326A5B4
:101C5000248A86A996440021AD0FA82045554B94AF
:101C6000645AC22C8A0021AE1628A144990369A2A5
:101C70004549320C4A9464899C03190021AF1186AE
:101C800025449136552425AAD692D2180121B00DAB
:101C900065A543956543D412F60121B10E65A943AC
:101CA0009546839494C21E0121B20D452545D95312
:101CB000521AA4340221B30D45294511F612958616
:101CC000AC0421B40DA8A0447107D2A43847002168
:101CD000B50D452545D953521A96340221B60EA8A2
:101CE000A0443764A1524AB6280521B70EA8A044E3
:101CF0003364615449B4390221B80E06E544711EBB
:101D00002231C9A2B80021B9136625449164E2309A
:101D100088498E26E130885A1221BA10C66444934D
:101D20000C911225A2980C090021BB0EC66444B187
:101D30004496481493210121D00CA62445150EF396
:101D400020650021D117852944952589A59444490A
:101D50009444499444499444490221D20CA6244510
:101D6000170DF230460021D317852944534AA22487
:101D70004AA2244AA2244AA224B1D4220021D40E89
:101D8000A82045551B963819B6280221D515852956
:101D900044952589A59444499444499424965A0429
:101DA00021D610C6E444314449A644493109130000
:101DB00021D70FC6E444356449942815250C012128
:101DC000D80FC6E444132661524AB4241A0221D91A
:101DD0000EC6E44459512A4A9464430421E610E8AB
:101DE000E04417ABC93027C920E9400821E717872D
:101DF0002544972659E594844998844998844998BC
:101E000084130021E810E8E0449903D2A0948725C8
:101E100095330021E9178725443526611226611282
:101E200026611226D1B26495340323E9172B298445
:101E30009186B6D3100DC9A00CA721D926514B43CA
:101E40000023EA172B29849966A2B42D43345C063B
:101E500065888668DB44310D23EB17692D8499036F
:101E6000EBA00D4332DCE11C58076D1892E1002312
:101E7000EC1769ED83F1320CD9A0EE400E0F97619B
:101E8000C8067507420023ED182D258491A6A338B6
:101E90006407698886655006698886EC682D23EE9C
:101EA000192D258491A6A2B81DA2211A944119A624
:101EB000211AB44328AE0523EF192A2D84914663D5
:101EC0003464D12045C3120D523464D118A9510095
:101ED00023F020CBE9831B4B91A20CCA9226B54A72
:101EE000188AA1186AA914273990A5E1306417004F
:101EF00023F11DAB2984A9433A322852BA649530A4
:101F0000144331D4211D4A72204BD3410323F219CB
:101F10006B298437A8B51C48A2584BC55087742834
:101F2000C9812C4D070D23F323AD2584F121CA81EE
:101F30003007C228895225D1014587921C5274204E
:101F4000AD15958A98741A1E0223F4126631841B0B
:101F50006AD3900C076590866C540323F5136631A1
:101F600084918ADB100DCA7050866813530023F6E3
:101F700011CBA8849B433B30A8C3900D97E120234D
:101F8000F711CBA884F1A00CB76148071DD8A114A4
:101F900023F817663584210DD1100DD1100DD11005
:101FA0000DD1100DD1100923F90C4A2D84F1FFFF3A
:101FB000FF3F0423FA134A2D84356CC3A00CFFFFA6
:101FC0002FC3A00D130025800B08A145F1FFFF438F
:101FD0000025810948A043F1430025820988A043D8
:101FE000F17F10258309C8A043F1FF1F25840B084A
:101FF000A143F1FFFF430025850B48A143F1FFFFFB
:102000007F1025860B88A143F1FFFFFF1F25870D59
:10201000C8A143F1FFFFFFFF430025880D08A2433D
:10202000F1FFFFFFFF7F1025890D07A243F1FFFF9E
:10203000FFFF4300258A0B06A243F1FFFFFF1F2588
:102040008B0B05A243F1FFFF7F10258C0B04A243ED
:10205000F1FFFF4300258D0903A243F1FF1F258EE9
:102060000902A243F17F10258F0901A243F1430029
:1020700025900B04B243F1FFFF430025911907A2FD
:102080004391859916665A986961A6859916665A8C
:102090009869611625922208A24391342515A52935
:1020A000A9284D4945694A2A4A5352519A928AD2DF
:1020B000945494A6A40125932008A243B12CC941AD
:1020C000599283B2240765490ECA921C9425392877
:1020D0004B7250966411259409482047F14300251E
:1020E000950901BE43F1430025960904A143F17F00
:1020F0001025970904B143F17F1025980904A145E3
:10210000F17F1025991708A243318443388443385E
:10211000844338844338FCFF7F08259A1F08A24374
:102120003184433884433884433884438E0CE1102F
:102130000EE1100EE1100EE110259B1608A243F1EE
:10214000FFFF0771088770088770088770080125EE
:102150009C1708A243F1FFFF433884433884433877
:10216000844338844300259D0904B145F17F10253F
:102170009E1F08A2433984433884433884433884FB
:10218000C3200EE1100EE1100EE1100E2100259F7C
:102190001608A2433984433884433884433884C3BF
:1021A000FFFF0F0225A00AE72444F1FF1F0225A12B
:1021B0000CE764447150BD0E830025A20DE7644412
:1021C0003328A9D764500025A310E76444715095C3
:1021D000455994451D060125A40EE76444715087B6
:1021E000EB701D060125A512E7644471502A4A458B
:1021F000A92815A5320C0225A610E7644471502ABF
:10220000C3A5325C2AC32025A711E764447150A2FC
:10221000299A12259AA2611025A811E76444F19425
:102220004891120D512245C32025A912E76444713B
:10223000502A4BB2549664A90C830025AA0984A89D
:1022400044F1430025AB0A8428453148D22025AC0F
:1022500009872445F13F0425AD0B8724457150D5EE
:10226000611025AE09E4A844F13F0425AF0BE4A8B2
:102270004431489E060125B00C682045352CC332F8
:102280004C0025B10C682045352C61324C0025B23C
:102290000DC6E444256A433424C30325B30DC6E4C4
:1022A00044256A514B380C0125B40A66E444A50D57
:1022B000C93025B50A66E444A545C93025B60DC622
:1022C000E444210ED1F021120125B70DC6E44421CA
:1022D00026527691440025B80A842845210D8708A6
:1022E00025B90A8428452125870825BA0DA6E44486
:1022F000210ED17088440025BB0DA6E4442126524E
:10230000B648220025BC0DC6E444F16588864C948D
:102310000025BD0DC6E444710893A84D940025BE68
:102320000A66E4447119320925BF0A66E4447189DA
:10233000320925C00CC6E444290D1FA2211425C171
:102340000DC6E4442929DB1629A10025C20A8428E8
:1023500045351C220125C30A84284535244B2425F4
:10236000C40CA6E444290D8768080525C50CA6E41D
:102370004429295BA4840225C610E7A444976E83F0
:10238000320CC9A0AD190025C70FE7A44497265900
:10239000254DB24A9A0125C80FE7A444972659D281
:1023A000B2744BD20C25C910E7A444B55512495953
:1023B00024A5964D0025CA10466544256A514B2830
:1023C00026519B280125CB0EE7A444B555526B92AC
:1023D00065130025CC10E7A44495E4509A03690ED8
:1023E00025110025CD10E7A444B5294A8B52515A36
:1023F0006C130025CE10E7A444B555A248A9489512
:102400002C9B0025CF0EE7A444B50DCAF097419B45
:102410000025D010E7A444B549C93664439648D98D
:102420000425D110E7A444B5454A366443B644DADE
:102430000425D20FE7A444B55552751894419B006A
:1024400025D310E7A444B50DCA30A86A92651300DD
:1024500025D410E7A444B5254B3448839A64D904A5
:1024600025D510E7A444B5454A3664C32119B409FB
:1024700025D60BE4A444A50C5F260125D70BE4B0B8
:1024800044212DC3170925D81108A243F1FF3F0DA0
:10249000E2100ED2F0FF1F25D91708A243F1FF87E3
:1024A00068509443A20CC9A20CD2F0FF430025DA75
:1024B0000E08A145F1FF87685094431225DB1008F0
:1024C000A143910CC9A20CD2F0FF430025DC0A8481
:1024D0006445A544590625DD0984704521D60225A9
:1024E000DE0A84B044574A240025DF0A84A44491BC
:1024F00085A10025E00A876445B555523525E10CD4
:1025000087A44491AA49964D0025E20DC6E4431BD9
:102510006AD3900C070125E30DC6E443918ADB10D2
:102520000DCA3025E40DC6A445F1A00CD126A600A5
:1025300025E50DC6A4457119A4211BD50025E60B80
:10254000A5A444B364B6640125E70EC6E444F1349F
:1025500044433444C31025E80EC6E44471888668B9
:102560008886683825E90EC6E444F1900CD1260E21
:10257000430025EA0EC6E4447108B5694886430065
:1025800025EB10C7E444719022299222291A0601F2
:1025900025EC0FE7A444972661929592D661102509
:1025A000ED0EC6A444256A4AA424D3300425EE0FB8
:1025B000E6A444256A899428D1100D0725EF1FADA4
:1025C000E983BB239A9A03590ED5A12407755007B6
:1025D000931CAA43590EA49A8EAC0025F00EC62473
:1025E000447148A22112C5610825F10EC624447128
:1025F00008C52152A2610825F20EC6244471084D77
:1026000043940C430025F30EC624447188126908D4
:10261000C5610825F4130821443564499444D9A0C0
:10262000C9721266430425F513082144356461120A
:10263000CB83266549291B220025F6130821443542
:10264000646112DB062D4AA2241B220025F7130821
:102650002144356451528BB4419693301B2200259E
:10266000F80EC6A44571C892A89289290025F90DD3
:10267000C6A44571C9A25A12AA0125FA0DC6E4439F
:10268000918A4916D5926125FB0BC6E44371081D5A
:10269000872125FC09C62444F1FF0125FD0A842871
:1026A000443148D22025FE09A56444F11F0225FFCC
:1026B0000DC6E4431B6A4954C986212600138725A9
:1026C0004457AA64397690066DC72A512D03260116
:1026D0000D88A045152FCA3028C30226020E07A573
:1026E00044B50DCA3064716B0826033410A283917F
:1026F00025439443438E24C3A0A561544BA2244E8A
:10270000E2284DA2248D2229C981B0920D3B14E705
:10271000409885433C84B51C88736858012604168C
:10272000672544934559548BB2244CA23412A32CF0
:102730000A450026050FC7E4441767C3106D8A9445
:102740002500260610E7E4441767CB9245494991D6
:10275000B20426070C2529449975AD64D2002608D9
:10276000100625447108B524AA6451A24D03260918
:1027700011082144356461124B9E93301B220026C0
:102780000A10C8A044A7466194494A292926002670
:102790000B10C8A0441326A52491B4288C520D26F2
:1027A0000C0DC5A444994552258A2400260D1127F5
:1027B0002544294659148AA11865512802260E0E6F
:1027C000C7644433289A8EB468C301260F11E764A6
:1027D000443328A9B224831245EA30082610188B06
:1027E0002984F11DD2211DD2211DD2211DD2211DEE
:1027F000D2A1E10126111B8B2984F11DD2211D18C4
:102800009250513249893425119555917568782631
:10281000121B8C2984F121C7744C1115C96DC84451
:10282000DB90492EA2A263C343002613114529441D
:1028300091694929C9C22C89929A1626141487A530
:102840004499283912A5D13628C390C5AD21002658
:102850001520AC2984D51855A372548D8A519D3604
:102860000C51321C126558121D4974601A861026CC
:10287000161BAB29849B43490E64692D07921CD219
:10288000211DD2211DD2211D1A1E261715AB298408
:102890009B433B30A8C3900D97E1FFFFFF43002609
:1028A0001823ADE5839BE4D0A023832A4DCA1045AD
:1028B00043321C94218A8644CBE41CCDD11CCCC16C
:1028C0001C022619228D25848FC6536D506AC3526F
:1028D0001A8624192ED23028DB3044E130A5831427
:1028E0006F399800261A0C87A444711BA4415B0021
:1028F000261B0C87A444331CA441DB00261C0B8739
:10290000A444712B49D902261D0DE4A8445719147B
:10291000494A1400261E0D87A444330C5914691B20
:1029200000261F0CE42844A344D2926C05265414BC
:1029300067254497AED932248B1449959661508708
:1029400041265514472544176751A52969593A0D61
:1029500052160D0A00265612272544915486AB9A2A
:10296000645196A4EA3008265714472544972659FF
:10297000298BB228AB44CB900E83002658136625D2
:10298000441B0D49268AC9125532511C860026590E
:102990000F062544A5456D5AD4120E4300265A123F
:1029A00067254497AED932248B14499596E10F26BA
:1029B0005B14472544176751A52969593A0DD22060
:1029C0000D0A00265C102725449154863F24833449
:1029D00028C31F265D11472544976E8A94458A3483
:1029E00068D3F007265E126625441B0D89323C2809
:1029F000833424C31F04265F10062544A50DD190FF
:102A000069433424C30326601047254417A7DBA07D
:102A10000C7F19C47402266110272544638922D5CE
:102A20009A649534CE00266211452944156649946E
:102A3000D4B4A494646104266310472544355EB37E
:102A4000E1439268713A0126641147254417A7496A
:102A50005649ADC920A6130026650F2725446319E2
:102A6000FE4332686B9C012666104529441566D3E7
:102A7000321C92690B23002667124725443526E154
:102A80009A2D437249B4389D00268014296D84F133
:102A900090033AA0035AA6033AA0030F012681141B
:102AA000296D84F190033AA0A43AA0263AA0030F1E
:102AB00001268214296D84F190034AAA035AA603C1
:102AC0006AA2030F01268315296D84F190034A96AB
:102AD000E8800EE88092253AF010268415296D844E
:102AE000F190034A96E88096E98092253AF0102604
:102AF0008516296D84F190034A96E88092253AA0C4
:102B000064890E3C042713194DE5838FE6600E4659
:102B10003992E5405A0E7324CAA12407730827147A
:102B20001C6FE1830FE7F09243CB0E4CF378DD7618
:102B300060D99161C7861CD521002715196B69845E
:102B40009303C9BA6C9775D0811D18D465BBAC4B83
:102B50000E240027162DEFE1839703E96DD006655B
:102B60001892614886876C38A8C31D38E4C0EB70A2
:102B7000D086876418926148066DD0D6350732003A
:102B800027171DAC2584A123564D5B151DD9A11D0A
:102B9000B103922A5A251D507444C93100271821C7
:102BA000CCE583A123833A6943B6CC838EECC8A0DD
:102BB00003CA3A8DE2B42E3A30E848946300274FB6
:102BC000208C6D84F110E5489423438E0C3932E457
:102BD000C89023438E0C39327C1A0ED170082750CE
:102BE000208C6D84351CA2E10F3A32E4C890234357
:102BF0008E0C3932E4C89023438E44C321022751FE
:102C0000208C6D84F110E5889223438E0C3932E4D8
:102C1000C89023438E0C39327C190ED2700827528B
:102C2000208C6D84351C92E1DF912147861C19723E
:102C300064C8912147861C197244190E11000000C6
:102C4000000000002300260029004D2B11241FBE88
:102C5000CFEFD8E0DEBFCDBF12E0A0E0B1E0ECE7FF
:102C6000F8E502C005900D92AC39B107D9F724E020
:102C7000ACE9B2E001C01D92A336B207E1F716E15C
:102C8000C6E2D6E104C02197FE010E94162CC5328F
:102C9000D107C9F70E94A9270C943C2C0C94000082
:102CA000CF92DF92EF92FF920F931F93CF93DF9318
:102CB0006C017A018B01C0E0D0E0CE15DF0581F018
:102CC000D8016D918D01D601ED91FC910190F081BB
:102CD000E02DC6010995892B11F02196EECF7E01DA
:102CE000C701DF91CF911F910F91FF90EF90DF907F
:102CF000CF9008950E94302C833081F028F48130E9
:102D000099F08230A1F008958730A9F08830B9F0A9
:102D10008430D1F4809180008F7D03C08091800049
:102D20008F7780938000089584B58F7702C084B533
:102D30008F7D84BD08958091B0008F7703C080910E
:102D4000B0008F7D8093B00008951F93CF93DF93E1
:102D5000282F30E0F901E054FF4F8491F901E45548
:102D6000FF4FD491F901E856FF4FC491CC23C1F035
:102D7000162F81110E947C16EC2FF0E0EE0FFF1F42
:102D8000E257FF4FA591B4919FB7F894111104C079
:102D90008C91D095D82302C0EC91DE2BDC939FBFA1
:102DA000DF91CF911F910895CF93DF9390E0FC01C5
:102DB000E455FF4F2491FC01E856FF4F849188238E
:102DC00061F190E0880F991FFC01EC57FF4FC5910E
:102DD000D491FC01E257FF4FA591B491611109C054
:102DE0009FB7F8948881209582238883EC912E23C5
:102DF0000BC0623061F49FB7F8948881322F309510
:102E000083238883EC912E2B2C939FBF06C08FB712
:102E1000F894E8812E2B28838FBFDF91CF910895FE
:102E20008F929F92AF92BF92CF92DF92EF92FF92DA
:102E30006B017C010E9494194B015C01C114D10407
:102E4000E104F104F1F00E949419DC01CB0188192E
:102E50009909AA09BB09883E9340A105B10570F301
:102E600021E0C21AD108E108F10888EE880E83E05B
:102E7000981EA11CB11CC114D104E104F10419F77E
:102E8000DDCFFF90EF90DF90CF90BF90AF909F90FD
:102E90008F90089585ED8093BC008091BC0084FDE7
:102EA000FCCF1092E30208954091BF02262F30E03C
:102EB000240F311D21323105DCF42091E30224304E
:102EC000C9F4FC0180E090E0861758F43091BF020D
:102ED0002191DC01A156BD4FA30FB11D2C9301968A
:102EE000F3CF8091BF02680F6093BF0280E0089526
:102EF00081E0089582E0089508958FEF9FEF08958F
:102F00008FEF9FEF089580919E0290E091958195BB
:102F100091090895CF93DF93CB01EA01642F0E94BA
:102F20005417CE01DF91CF910895CF93DF931F9275
:102F3000CDB7DEB7698361E0CE0101960E945417D8
:102F400081E090E00F90DF91CF91089580E00895A7
:102F5000DC011696ED91FC91179720E030E040E0FF
:102F600069E10994DC011696ED91FC91179720E038
:102F700030E040E068E109949A01DC011696ED9199
:102F8000FC911797462F67E10994462FDC011696AE
:102F9000ED91FC91179720E030E066E10994462F0F
:102FA000DC011696ED91FC91179720E030E065E189
:102FB0000994DC011896ED91FC91199720E030E01E
:102FC00040E069E10994DC011896ED91FC911997B4
:102FD00020E030E040E068E10994FC016623D9F18B
:102FE0006A30C9F1808D811124C06C3F20F085E0EA
:102FF000808F61701AC0683F20F084E0808F63701A
:1030000014C0603F20F083E0808F67700EC0603E88
:1030100020F082E0808F6F7008C0603C20F081E07B
:10302000808F6F7102C070E01BC070E0738B628B89
:1030300015C08150808F2289338996E0220F331F7B
:103040009A95E1F76F73A901462BBA01738B628BD6
:10305000811104C005C06FEF7FEF02C06EEF7FEFFC
:10306000CB010895662329F06A3019F0862F90E08D
:1030700008958FEF9FEF08950F93DC01DE963C914A
:10308000DE97431BD496ED91FC91D59709950F914E
:103090000895CF93DF93FC01A081B18192AD892F78
:1030A000880F880F880F85AF50968C91509780328B
:1030B00008F08FE1880F880F880F84AF23AD822F2F
:1030C000880F880F880F86AF51963C915197422FF9
:1030D00050E0490F511D632F70E06417750714F419
:1030E000932F921B87AFEF01C05CDF4F28E0929FC8
:1030F000800D11248883219680EF888354968D91CA
:103100009C915597813F910508F48883EE5BFF4FB2
:1031100056968C918083DF91CF9108956150FC0188
:10312000808D681710F06FEF680F862F08956F5F1E
:10313000FC01808D681708F060E0862F0895EF92FB
:10314000FF920F931F93CF93DF93EC01742F77704F
:10315000E1E0F0E0072E01C0EE0F0A94EAF73E2FFF
:103160007C0189E7E80EF11CD7018C91823028F4AC
:103170001E2F813019F430E001C010E050E0487F8C
:1031800088AD99ADA881B9815096FC91F49FD0018A
:10319000F59FB00D1124A60FB11DA80FB91F011185
:1031A0000BC08C91812B83278D932150D1F71CC0AC
:1031B000110F330F2223C1F09C91912B93279C93E5
:1031C0007F5F777021507111F3CF8CADA80FB11DC7
:1031D000F7018081823020F4813021F031E002C09B
:1031E00031E0E8CF11E0E6CFDF91CF911F910F9151
:1031F000FF90EF900895CF93DF931F92CDB7DEB786
:103200006983BE016F5F7F4F0E94A0270F90DF91FF
:10321000CF910895EF92FF921F93CF93DF93EC012C
:10322000162F7A010E94E31760E4CE010E94FB187A
:10323000E885F9859701412F67E1CE010995CE0117
:10324000DF91CF911F91FF90EF900C94D917EF92DF
:10325000FF921F93CF93DF93EC01142F7901663116
:1032600021F128F46431E9F1653149F056C0683143
:1032700009F44FC0F0F0693109F444C04EC08091A8
:103280009D02882319F0CE010E94D917CE010E9419
:10329000E31760E0CE010E94FB18612FCE010E946F
:1032A000FB1881E080939D0239C0642F0E94FB18B7
:1032B00032C080919D02882319F0CE010E94D91757
:1032C000A701193148F068E1CE010E940A1918518E
:1032D00088E1E80EF11CF4CF612FCE010E940A199B
:1032E00018C08E898F3F11F488E78E8BE885F985A9
:1032F0009701412F64E1CE01DF91CF911F91FF90A3
:10330000EF90099480919D02882319F0CE010E94CC
:10331000D91710929D0281E001C080E0DF91CF912A
:103320001F91FF90EF9008953FB7F89480910E039E
:1033300090910F03A0911003B091110326B5A89BA3
:1033400005C02F3F19F00196A11DB11D3FBFBA2F37
:10335000A92F982F8827820F911DA11DB11DBC0197
:10336000CD0142E0660F771F881F991F4A95D1F75C
:1033700008951F920F920FB60F9211242F933F932F
:103380008F939F93AF93BF9380910A0390910B0308
:10339000A0910C03B0910D033091090323E0230F9A
:1033A0002D3720F40196A11DB11D05C026E8230F7D
:1033B0000296A11DB11D2093090380930A039093E7
:1033C0000B03A0930C03B0930D0380910E03909117
:1033D0000F03A0911003B09111030196A11DB11D1F
:1033E00080930E0390930F03A0931003B0931103E7
:1033F000BF91AF919F918F913F912F910F900FBEF1
:103400000F901F9018951F920F920FB60F921124D4
:103410002F933F934F935F936F937F938F939F93DC
:10342000AF93BF93EF93FF938091B900887F80366D
:1034300009F49CC068F5883209F45BC090F48031CF
:1034400009F454C038F4882309F4F2C0883009F430
:103450004DC0F2C0883109F44CC0803209F45DC01F
:10346000EBC0803409F468C048F4803309F455C0D7
:10347000883309F0E1C08093E202D4C0803509F4BA
:103480004FC0883509F45DC0883409F0D5C0D2C07A
:10349000883909F4C3C0A8F4883709F467C038F440
:1034A000883609F463C0803709F460C0C5C0883825
:1034B00009F4B4C0803909F45FC0803809F0BCC099
:1034C0005BC0803B09F484C038F4803A09F466C0DC
:1034D000883A09F47DC0B0C0803C09F4A3C0883CA0
:1034E00009F4A0C0883B09F486C0A6C080910803F7
:1034F00010C09091070380910603981770F5E09132
:10350000070381E08E0F80930703F0E0EA51FD4F3F
:1035100080818093BB0085EC82C08093E2028AC0E8
:10352000E091070381E08E0F809307038091BB0039
:10353000F0E0EA51FD4F80839091070380910603EC
:103540006AC0E091070381E08E0F809307038091AA
:10355000BB00F0E0EA51FD4F80838091E5028111CC
:1035600069C081E08093E40284EA5DC083E08093D7
:10357000E3021092E102CFCF8091E102803208F0A5
:103580004DC0E091E10281E08E0F8093E1028091D5
:10359000BB00F0E0EF53FD4F8083BDCF85EC8093FF
:1035A000BC001092E3028091E102803230F4E0919D
:1035B000E102F0E0EF53FD4F10826091E10270E014
:1035C00081EC92E0E0E0F0E009951092E10234C075
:1035D00084E08093E3021092C0021092BF02E0E008
:1035E000F0E009958091BF02811105C081E08093D0
:1035F000BF0210929F02E091C00281E08E0F809383
:10360000C002F0E0E156FD4F80818093BB009091B5
:10361000C0028091BF02981708F47DCF85E880939F
:10362000BC000AC085EC8093BC001092E30204C089
:103630001092E2020E944A17FF91EF91BF91AF9161
:103640009F918F917F916F915F914F913F912F91BA
:103650000F900FBE0F901F901895DC011A96ED91F8
:10366000FC911B9720E030E00994EF92FF920F93BA
:103670001F93CF93DF931F92CDB7DEB77C018B01F1
:10368000D8016C916731E1F078F46531A0F1F8016F
:1036900041814983D7011696ED91FC91179720E05F
:1036A00030E0C701099524C06A31A8F06E3F19F5D2
:1036B000F8014181498369E2C7010E942D1B18C0AE
:1036C000F80181818983AE014F5F5F4F61E0C701DF
:1036D0000E94BC170DC00F5F1F4FD7011696ED91CA
:1036E000FC91179720E030E040E0C7010995C8CF72
:1036F0000E5F1F4FC5CF0F90DF91CF911F910F919C
:10370000FF90EF900895EF92FF920F931F93CF9346
:10371000DF93EC01142F79016D30A9F118F46B30AF
:1037200039F15FC06E3009F441C06F3009F059C003
:103730000E94B217F70183810C89F8E08F9F000D7A
:10374000112460E4CE010E94CF17602F62956F7044
:103750006061CE010E94CF17602F6F70CE010E9472
:10376000C517F7016481606BCE010E94C51729C09F
:10377000411103C063E171E002C06EE071E0CE016F
:103780000E94351B71C0411108C067E071E00E94C2
:10379000351BE881F981828907C060E071E00E94F1
:1037A000351BE881F98183898C8B5EC00E94B2173A
:1037B00061E8CE010E94CF17612FCE010E94C5178C
:1037C0000CC0F701408151816281660F660F660F60
:1037D000CE010E94BC171150A1F7CE010E94A8177C
:1037E00043C0693031F48DE491E0998388831C8A69
:1037F0003BC06A30B9F5EA85FB8520E030E040E067
:1038000068E2CE010995EE81FF8120E030E040E0E2
:1038100064E1CE01099541E06BE4CE010E942D1BCD
:10382000E881F981448169E2CE010E942D1B40E0CC
:103830006BE4CE010E942D1BE881F981448169E28D
:10384000CE010E942D1B41E06BE4CE010E942D1B96
:10385000E881F981458169E2CE010E942D1B68E172
:1038600071E08DCF80E001C081E0DF91CF911F91A9
:103870000F91FF90EF90089541E06DE40C942D1BA3
:10388000DC01ED91FC9145856DE20C942D1BCF93ED
:10389000DF93EC0141E06CE40E942D1BCE01DF912F
:1038A000CF910C94401CCF93DF93EC01662319F069
:1038B0000E943C1C04C040E06DE40E942D1BCE0120
:1038C0000E94401CCE010E94471C40E06CE4CE01E7
:1038D000DF91CF910C942D1B1F93CF93DF93EC01BD
:1038E000162F60780E94531C612F6074CE010E94D5
:1038F000531C612F6072CE010E94531C612F6071B6
:10390000CE010E94531C612F6870CE010E94531C8F
:10391000612F6470CE010E94531C612F6270CE0132
:103920000E94531C612F6170CE010E94531CCE0176
:103930000E943C1CCE010E94401CCE010E94471CEC
:10394000CE010E943C1CCE010E94401C40E06CE471
:10395000CE01DF91CF911F910C942D1BFC0140856E
:10396000518582859385481759072CF5248535851F
:1039700084819581280F391F35872487668577854F
:1039800086819781860F971F978786871816190655
:1039900064F460817181260F371F35872487228167
:1039A0003381821B930B978786874F5F5F4F5187C9
:1039B000408781E0089580E008950F93FC01EB5B60
:1039C000FF4F308131965081451728F4301730F081
:1039D000041720F010C03017D8F30DC0FC01ED5BC8
:1039E000FF4F308131968081681738F4321740F0EC
:1039F00081E0261730F080E004C03217C8F3FBCF17
:103A000081E00F9108952F923F924F925F926F92B3
:103A10007F928F929F92AF92BF92CF92DF92EF925E
:103A2000FF920F931F93CF93DF93EC014C0183E43C
:103A3000880E911CF4011082329720805E01F4E41C
:103A4000AF0EB11CF50120823FAC6E01F5E4CF0E44
:103A5000D11CF6013082359740807E01F6E4EF0EEE
:103A6000F11CF701408234961081329760803196C4
:103A7000708032975080012F262D472D652DCE0165
:103A80000E94DD1CCD58DF4F811102C0188212C088
:103A900081E08883552011F0F4015082621410F403
:103AA000F5016082371410F4F6017082141510F4D9
:103AB000F7011083DF91CF911F910F91FF90EF904D
:103AC000DF90CF90BF90AF909F908F907F906F903E
:103AD0005F904F903F902F9008958B589F4FFC011F
:103AE00080818F5F089580E00895213039F020F0C3
:103AF000223031F4861B0895860F0895841B0895A3
:103B0000840F0895213039F020F0223031F4841BE5
:103B10000895840F0895860F0895861B0895DC018B
:103B200018964C911897ED91FC911197249130E0E3
:103B3000042E02C0359527950A94E2F7842F860F4C
:103B4000883010F4E22F0DC031961196FC93EE935D
:103B5000E49198E0941B01C0EE0F9A95EAF7E22BEE
:103B6000885018968C9381E090E001C0880F6A9588
:103B7000EAF781508E230895CF92DF92EF92FF9261
:103B80000F931F93CF93DF936C01EB017B01E40E46
:103B9000F51E00E010E0CE15DF0561F06991D60159
:103BA000ED91FC910190F081E02DC6010995080F7F
:103BB000191FF1CFC801DF91CF911F910F91FF9095
:103BC000EF90DF90CF900895089580E090E0089501
:103BD000EF92FF921F93CF93DF93EC01142F7901A3
:103BE000683129F128F46431A9F0673141F055C0FA
:103BF000693109F43FC0603209F44DC04EC0112351
:103C000009F449C0F70161917F01CE010E946C1C4B
:103C10001150F5CF41E06CE40E942D1B41E06DE4B2
:103C2000CE010E942D1BCE010E94401C34C08F8902
:103C3000882349F0CE010E943C1CCE010E94401C0A
:103C4000CE010E94471CCE010E943C1C40E06DE466
:103C5000CE010E942D1BCE010E94401C40E06CE46E
:103C6000CE010E942D1B81E08F8B6E89CE010E94B8
:103C70006C1C11C040E06DE40E942D1BCE010E941F
:103C8000401CCE010E94471CCE010E943C1CCE016C
:103C90000E94401C1F8A81E001C080E0DF91CF912B
:103CA0001F91FF90EF9008950F931F93CF93DF9391
:103CB000EC01862F642F8C3270F48A3208F078C0C1
:103CC000883289F0893209F042C070E080E090E0EB
:103CD0000E9410176DC08D32D1F0C8F194EB980F8F
:103CE000923020F134C08E01025E1F4FD0E0F80107
:103CF00081918F018F3F39F0D03110F461E001C024
:103D000062E00E94D416DF5FD63189F751C043309C
:103D100018F082E090E002C085E090E0880F991FE3
:103D2000880F991F05970197F1F742C08F73C80F4D
:103D3000D11D411107C061E08E8D0E94D41660E054
:103D40008E8D12C062E08E8D0E94D41631C08034F8
:103D500008F430C0982F9F73FE01E90FF11D868D86
:103D60008F3F31F1903118F40E94A51621C0282F01
:103D700030E0F901E054FF4F8491F901E455FF4F21
:103D80000491F901E856FF4F1491112379F0811144
:103D90000E947C16E12FF0E0EE0FFF1FE05CF34D78
:103DA000A591B491EC91E02381E009F480E0898F42
:103DB00081E001C080E0DF91CF911F910F910895C4
:103DC0000F93DC01802FFD01ED58FF4F9081992367
:103DD00009F463C0222309F460C0223048F00230A5
:103DE00019F46F5F621B04C0033011F44F5F421B74
:103DF000082F0170FD0180FD25C0EB5BFF4F808126
:103E0000481708F44AC031968081481708F045C029
:103E10003297908131978081260F261730F46917E9
:103E200018F42FEF290F03C0682F6917B0F5821718
:103E3000A0F5681708F4682F291708F4922F292F86
:103E4000261B22C0ED5BFF4F8081681730F1319651
:103E50008081681710F53296908131978081240F08
:103E6000241730F4491718F42FEF290F03C0482FF7
:103E7000491798F4821788F4481708F4482F29172F
:103E800008F4922F292F241BD696ED91FC91D797F9
:103E90000480F581E02DCD0109950F9108955F9281
:103EA0006F927F928F929F92AF92BF92CF92DF924A
:103EB000EF92FF920F931F93CF93DF935C01F62E47
:103EC000642EEC01C15BDF4F1C81DD804C0189E772
:103ED000880E911CEE80E11ACF2CEF1408F4CE2C42
:103EE0005B800C85202F4D2D612F8A810E94751DCE
:103EF000782E202F4D2D612F852D0E94821D482F59
:103F0000662011F08A8504C08985811108C08B85DF
:103F1000F40180832C2D672DC5010E94E01EFE1444
:103F200020F0FE18D39410E0D5CF1F0D1C83DD8246
:103F3000DF91CF911F910F91FF90EF90DF90CF9085
:103F4000BF90AF909F908F907F906F905F900895FB
:103F5000FC01E60FF11D849190E0982F882731969F
:103F6000E4918E0F911D08956F927F928F929F9290
:103F7000AF92BF92CF92DF92EF92FF920F931F9377
:103F8000CF93DF93EC01062F142F7901FC01E55A42
:103F9000FF4F80818130C9F070F0823001F18330B1
:103FA00039F5FE01E35BFF4F0190F081E02DCE017A
:103FB0000995080F1DC0FE01E35BFF4F0190F081E2
:103FC000E02DCE010995180F13C0FE01E35BFF4FF2
:103FD0000190F081E02DCE010995081B09C0FE017A
:103FE000E35BFF4F0190F081E02DCE010995181B96
:103FF000FE01EF5AFF4F008331961083379780817F
:10400000918147962FEFE216F10409F040F5E1E6C1
:10401000EE16F10420F0FE01E159FF4F07C0F1E474
:10402000EF16F10438F0FE01E359FF4F2081318192
:10403000820F931F9C012F5F3F4FF901449144234E
:1040400009F40EC1FC01449150E0E416F50611F4A8
:10405000029634C0F9012491820F911DEBCFFE012D
:10406000EF58FF4FC080D180C80ED91E860160E096
:10407000C6010E94A81F080F191F62E0C6010E9416
:10408000A81FF4E0CF0ED11C8E159F0580F3F80118
:10409000849190E0982F88273196E4918E2B009799
:1040A00009F4DEC0E816F90619F4C801039606C043
:1040B000F8013296E4910E0F111DE9CF009709F433
:1040C000CFC07E01FFE4EF0EF11CF70191838083E6
:1040D000108671966081C7010E948F1DF70186834B
:1040E00072966081C7010E948F1DD82EF7018783C9
:1040F0005E01F9E7AF0EB11CF5019081F7019287DF
:1041000081E0911180E0F7018387FE01EE59FF4FB6
:104110001081612FC7010E948F1D9FEF910F01E059
:1041200010E0980101C0220F9A95EAF7782E721AD2
:10413000FE01ED59FF4FC0806C2DC7010E948F1DFD
:10414000CA94480101C0880CCA94EAF7682E6D0C25
:10415000FE01EC59FF4FC0806C2DC7010E948F1DDE
:10416000CA9401C0000FCA94EAF7C82EC01AF7011A
:10417000068110160CF075C094848618292D482DE0
:10418000672D82810E94751D182FF7018283292DCA
:10419000482D672D83810E94821DF7018383F1E002
:1041A0009F16B1F09F1678F022E09216B9F093E0D6
:1041B00099121FC0212F2D0D982F901B01E0080F81
:1041C00081E0890F18C0202F210F082F0D0D13C07B
:1041D0009D1821E0210F080F190D0DC091E0392F16
:1041E000301B21E0210F9D1901E0080F890F130FEB
:1041F00002C0082F212F482F612FCE010E94DD1C05
:10420000882379F1F701148215828E01025A1F4F1B
:104210004E01FFE58F0E911CF8016081C7010E94DD
:104220008F1D682EF4016081C7010E948F1D782EBA
:1042300040E0662DCE010E944F1F41E0672DCE0168
:104240000E944F1F61E0C7010E948F1D8111F0CFB6
:10425000F70185818D1504F38285F501808301C006
:10426000C12C8C2DDF91CF911F910F91FF90EF907A
:10427000DF90CF90BF90AF909F908F907F906F9086
:104280000895CF92DF92EF92FF920F931F93CF93F7
:10429000DF93EC016C0124E0C20ED11CFC01E1585B
:1042A000FF4F0190F081E02DC60109958E3FEFEFA1
:1042B0009E0730F58E010E571F4F7E01F1E8EF0E7D
:1042C000F11C9C01F8014081F7016081C6010E9448
:1042D000B41FC15ADF4F9881913049F030F09230CD
:1042E00051F0933069F4F80107C0F70101C0F801FB
:1042F0009081890F04C0F7019081981B892F8083DA
:1043000081E090E0DF91CF911F910F91FF90EF90AE
:10431000DF90CF9008950F931F93CF93C82F28E17C
:1043200048E76CE080E00E94D32340E752E062E37C
:104330008CE00E94D72246E752E062E380E30E94CD
:10434000D72249E252E062E384E50E94D722C111FC
:1043500005C010928E034CE752E005C081E08093C7
:104360008E0349E852E060E080E00E94D72280E0BE
:104370000E94DF2200EF10E028E148E168E18CE0D4
:104380000E942C2781E00E94DF2228E148E168E1B9
:1043900080E30E942C2782E00E94DF2228E148E18E
:1043A00068E184E50E942C27CF911F910F91089519
:1043B000AF92BF92CF92DF92EF92FF920F931F9333
:1043C000CF93DF9300D000D01F92CDB7DEB78C0122
:1043D000DC01DA96AC90DA97DB96EC90DB97ED9106
:1043E000FC91B188FE2CC12CD12CD801ED91FC910F
:1043F00011978089D8964D915C91D9971C82FD8246
:104400008B83B8E08B9FC00111248C9D90018D9D02
:10441000300D9C9D300D1124CA01820F931F9A8389
:104420008983D8011496ED91FC9115979E012F5F19
:104430003F4F41E06FE0C8010995F3948F2D8E192D
:104440008A1528F4BFEFCB1ADB0AFB1470F20F9029
:104450000F900F900F900F90DF91CF911F910F91C0
:10446000FF90EF90DF90CF90BF90AF900895FC0148
:10447000A081B18150969C9142AD949FA0011124DE
:1044800083E0440F551F8A95E1F760E070E080AD4E
:1044900091AD0C94352CCF93DF93EC016BAFEEA96B
:1044A000FFA90190F081E02D0995EEA9FFA90280F6
:1044B000F381E02DCE01DF91CF9109941F93CF932B
:1044C000DF93EC010E94D8211BAD8AAD180FE88163
:1044D000F9818189181750F0EC81FD8120E030E0EE
:1044E00040E060E1CE01099580E00EC0FE01E65893
:1044F000FF4F8081882319F0CE010E943722612F5F
:10450000CE010E944B2281E0DF91CF911F9108954F
:10451000CF93DF93EC01FC01E658FF4F80818823A5
:1045200019F0CE010E94372260E0CE01DF91CF91D9
:104530000C944B22FF920F931F93CF93DF93C82FBE
:10454000D62F10922E038A01F12CF80161918F0170
:10455000E0911803F091190386E193E009958F3FEC
:10456000FFEF9F07E9F08E3F2FEF920771F39C0159
:104570004D2F6C2F86E193E00E94B41F9091710340
:10458000913049F030F0923041F0933039F4D81B3B
:1045900005C0C80F03C0D80F01C0C81BF80ED5CF87
:1045A0008F2DDF91CF911F910F91FF90089522E3FE
:1045B00038E130931903209318030C949A22833026
:1045C00008F081E080938F030895809161039091BA
:1045D0006203892BA1F180917F0380938B0340912B
:1045E000800340938C0390918A03992341F1913089
:1045F00069F490918103891714F490938B0380914F
:1046000082038417E4F480938C03089530917C0333
:1046100020917E03082E000C990B622F022E000CB5
:10462000770B630F711D37FD7A95861797071CF47A
:10463000320F30938B03241714F420938C030895C6
:10464000CF93DF93EC01FC01849180937203319648
:10465000E491E0937303FE013296E491E0937403D6
:10466000FE013396E491E0937503FE013496E491E4
:10467000E0937603FE013596E491E0937703FE0123
:104680003696E491E0937803FE013796E491E09347
:104690007903FE013896E491E0937A03FE0139969E
:1046A000E491E0937B03FE013A96E491E0937C036E
:1046B000FE013B96E491E0937D03FE013C96E4917C
:1046C000E0937E03FE013D96E491E0937F03FE01BB
:1046D0003E96E491E0938003FE013F96E491E093DF
:1046E0008103FE017096E491E093820361E1CE01C3
:1046F0000E94A81F909384038093830363E1CE01FB
:104700000E94A81F909386038093850365E1CE01E4
:104710000E94A81F9093880380938703DF91CF9115
:104720000895DF92EF92FF920F931F93CF93DF9341
:10473000C82FD62FE42ED22E162F120FF82EF40EDD
:10474000012F2F2D462F682F86E193E00E94DD1C5C
:10475000882309F100E02E2D4D2F6C2F86E193E088
:104760000E94E01E01E02D2D4D2F6C2F86E193E07D
:104770000E94E01E6FEF6F0D2D2D4D2F86E193E00F
:104780000E94E01E4FEF410F00E02E2D6C2F86E1BE
:1047900093E00E94E01EDF91CF911F910F91FF9057
:1047A000EF90DF900895FF920F931F93CF93DF93C5
:1047B000182FC62FF42ED62FD20F282F240F0D2FEF
:1047C000462F682F86E193E00E94DD1C882361F06C
:1047D000DC1751F000E02F2D4C2F612F86E193E084
:1047E0000E94E01ECF5FF4CFDF91CF911F910F9118
:1047F000FF9008950F9390915B036917A0F090913B
:104800005C03691780F490915903891760F09091C7
:104810005A03891740F4462F682F00E021E086E113
:1048200093E00E94E01E0F910895FF920F931F9353
:10483000CF93DF93C82FD62F142FF22E00FF0CC07A
:10484000622F6D1B842F8C0F0E94FA236F2D6C1B1F
:104850008D2F810F0E94FA2301FF0CC06F2D6D1B5D
:10486000812F8C1B0E94FA236F2D6C1B812F8D1BB7
:104870000E94FA2303FF0CC06F2D6D0F812F8C0F48
:104880000E94FA236F2D6C0F8D2F810F0E94FA2347
:1048900002FF11C06F2D6D0F812F8C1B0E94FA2318
:1048A0006F2D6C0F812F8D1BDF91CF911F910F9179
:1048B000FF900C94FA23DF91CF911F910F91FF90FD
:1048C0000895CF92DF92EF92FF920F931F93CF93B1
:1048D000DF93E82ED62EC42FC22E01E0040F060F60
:1048E00021E0280F240F462F4C1B682F6C1B86E1FC
:1048F00093E00E94DD1C882311F1D1E0DC1BFC2E2B
:10490000F194FF0C0C2D2D2D4E2D6C2F80E00E946C
:10491000152410E01C1798F4D7FD04C0C150F3947F
:10492000F394DF0D1F5F812F880F8F5FD80F0C2D41
:104930002D2D4E2D6C2F812F0E941524EBCFDF9152
:10494000CF911F910F91FF90EF90DF90CF9008953E
:104950000F93242F01E0462F682F86E193E00E94F9
:10496000E01E0F910895EF92FF920F931F93CF9344
:10497000DF9323E1829FC0011124EC01C35CDB4F74
:104980006A8984E0689FF0011124EF5DFB4FE280AB
:10499000F38000811181E889F98981E294E0099529
:1049A00094E0899FF0011124EF5DFB4F4281538118
:1049B000208131818A8BC901801B910B9A012E19AC
:1049C0003F093B832A835B874A87F986E8861D87F0
:1049D0000C8797FD08C041E050E0598348831F864B
:1049E0001E86FC010EC04FEF5FEF59834883EE2710
:1049F000FF27E81BF90B41E050E0421B530B5F8798
:104A00004E87B9010E94022C7D836C83CF01B901CE
:104A10000E94022C9F838E83DF91CF911F910F9173
:104A2000FF90EF900895EF92FF920F931F93CF9313
:104A3000DF938C0183E1689FF0011124EF5DFB4F50
:104A400086A57F019CE2E90EF11CEF01AE96D7012D
:104A5000ED91FC91682F81E294E00995B4E08B9F81
:104A6000F0011124EF5DFB4F2281338120173107C4
:104A700011F48883ECCFDF91CF911F910F91FF90BC
:104A8000EF900895FF920F931F93CF93DF93C82F5A
:104A9000D62F142FF22E00FF10C041E0460F622FD8
:104AA0006D1B812F8C0F0E94A82441E04C0F6F2DAD
:104AB0006C1B8D2F810F0E94A82401FF10C041E0C4
:104AC0004D0F6F2D6D1B812F8C1B0E94A82441E080
:104AD0004C0F6F2D6C1B812F8D1B0E94A82403FF90
:104AE0000EC041E04D0F6F2D812F8C0F0E94A82426
:104AF00041E04C0F6F2D8D2F810F0E94A82402FFE3
:104B000013C041E04D0F6F2D812F8C1B0E94A824F4
:104B100041E04C0F6F2D812F8D1BDF91CF911F91A5
:104B20000F91FF900C94A824DF91CF911F910F91CA
:104B3000FF900895CF92DF92EF92FF920F931F9311
:104B4000CF93DF93E82ED62EC42FC22E01E0040FA0
:104B5000060F21E0280F240F462F4C1B682F6C1BDB
:104B600086E193E00E94DD1C882311F1D1E0DC1B7B
:104B7000FC2EF194FF0C0C2D2D2D4E2D6C2F80E072
:104B80000E94422510E01C1798F4D7FD04C0C150C4
:104B9000F394F394DF0D1F5F812F880F8F5FD80F81
:104BA0000C2D2D2D4E2D6C2F812F0E944225EBCFE9
:104BB000DF91CF911F910F91FF90EF90DF90CF90F9
:104BC0000895CF92DF92EF92FF920F931F93CF93AE
:104BD000DF93C82F681718F4D82FD61B02C0D62F22
:104BE000D81BDD3250F06C1780F08D2F062F1C2F54
:104BF00067E3CAE0DDE2E12C05C0EE24E3948DE238
:104C000007E31AE0CD2ED82F07C00C2F162F8DE208
:104C1000C82EE12C6AE0C7E3FD2EF694C61718F003
:104C2000DD24DA9402C0DD24D3940F3F71F40EEF3B
:104C30000CC0E1100DC06C2F812F0E94FA23FC18CC
:104C4000F7FE02C0CD0DFD0E1F5F011790F703C0E8
:104C5000612F8C2FF2CFDF91CF911F910F91FF9099
:104C6000EF90DF90CF900895EF92FF920F931F93F4
:104C7000CF93DF93909322048093210470932404B4
:104C80006093230450932604409325043093280412
:104C90002093270410932A0400932904F0922C04F3
:104CA000E0922B0483E08093390487E998E19093A4
:104CB0006104809360048EE898E190934E048093A1
:104CC0004D04261737071CF0EB0180E002C0E90114
:104CD00081E02E153F050CF49701261737070CF4D9
:104CE0009B01EC16FD0614F4E70182E080934F046B
:104CF0002C1B3D0B30933C0420933B04232B09F4E5
:104D0000A4C08093620461E0CE010E94132560E09C
:104D1000CE010E94132581E080933A04A0914F04B4
:104D200084E0A89FD0011124AF5DBB4FE0916204E5
:104D300084E0E89FF0011124EF5DFB4F2D913C9141
:104D4000808191812817390719F010923A040CC01C
:104D500080913B0490913C04019790933C04809394
:104D60003B04892B09F471C0C0913B04D0913C04F1
:104D700080E00E94B32481E00E94B32480913A0431
:104D8000882341F08DE394E00E94AE1C80E594E01E
:104D90000E94AE1C409158045091590457FD3CC0EC
:104DA0008091580390E048175907B4F58091490461
:104DB00090914A0460915C0470915D048617970796
:104DC000ACF477FD29C02091570330E08217930798
:104DD0001CF597FF02C080E090E0261737070CF41F
:104DE000B901262F281B00E0682F12C097FD14C0C0
:104DF0002091570330E06217730774F477FF02C005
:104E000080E090E0821793070CF49C01261B00E0E1
:104E100086E193E00E94E01E8DE394E00E94AE1CC8
:104E2000811104C080E00E94B324F6CF80E594E0B5
:104E30000E94AE1C811104C081E00E94B324F6CF11
:104E400021971C161D060CF4A5CFDF91CF911F9161
:104E50000F91FF90EF9008955F926F927F928F92E3
:104E60009F92AF92BF92CF92DF92EF92FF920F93F9
:104E70001F93CF93DF93A82EC62FD42F6801B62E91
:104E8000B20E742E780E0B2D272D462F682F86E13B
:104E900093E00E94DD1C882309F442C0D95FD695B7
:104EA000D695D695ED2EF12CBC1609F439C05524B3
:104EB00053945C0E052D272D4C2F6A2D86E193E02F
:104EC0000E94DD1C882341F160908F034601DA2D9A
:104ED00011E07D16F9F0F4018491812319F06092BC
:104EE0008F0309C080918E0381110DC081E0611094
:104EF00080E080938F0300E021E04C2F6D2F86E14E
:104F000093E00E94E01EDF5F110F19F7FFEF8F1A89
:104F10009F0ADECF60928F03CE0CDF1CC52DC4CF5D
:104F2000DF91CF911F910F91FF90EF90DF90CF9085
:104F3000BF90AF909F908F907F906F905F900895FB
:104F40009B01DC011896ED91FC91199741E067E116
:104F50000994CF93DF9300D0CDB7DEB7789484B5B2
:104F6000826084BD84B5816084BD85B5826085BD65
:104F700085B5816085BD80916E00816080936E00F3
:104F800010928100809181008260809381008091E5
:104F90008100816080938100809180008160809396
:104FA00080008091B10084608093B1008091B00056
:104FB00081608093B00080917A00846080937A0051
:104FC00080917A00826080937A0080917A0081607B
:104FD00080937A0080917A00806880937A001092A2
:104FE000C10061E08AE00E94D41661E089E00E947D
:104FF000D41660E08AE00E94A51660E089E00E9475
:10500000A516E0911A03F0911B0320E030E040E088
:105010006AE086E193E0099586E193E00E948822A8
:1050200086E193E00E945E228111FACF60E086E182
:1050300093E00E944B22E0911A03F0911B0320E0C1
:1050400030E040E06BE086E193E009955DEEA52E4F
:1050500057E1B52E6DE6462E6DE1562E332433947E
:1050600086E193E00E94882230E2832E912C49E170
:10507000242E80916103909162038853914051F0F6
:1050800088E391E090936203809361030E94202360
:105090000E94E52230928A0380916103909162031D
:1050A000892BA1F020917F0320938B0390918003A3
:1050B00090938C0380918103281714F480938B03C1
:1050C00080918203891714F480938C0381E00E94FD
:1050D000DF22509264034092630310927103C090E8
:1050E0009C02EC2DF0E023E0F595E7952A95E1F799
:1050F000EE30F10508F0B3C2EC5CFF4F0C94162CB7
:105100008C2D8770880F49E851E065E0865F0E942A
:10511000D7224EE851E064E18AE00E94D722209134
:1051200058034091570360E080E025C04BE951E00F
:1051300060E080E00E94D7222AE044E16AE085E056
:105140000E94D3231C2D1770165F27E04EE16FE0FD
:10515000812F0E94D32343EA51E06EE180E00E9458
:10516000D7222AE044E168E285E00E94912327E00B
:105170004EE16DE2812F0E94912371C24DEA51E010
:1051800060E080E00E94D7222FE049E062E18AE0FF
:105190000E949A251C2D1770185E2FE047E060E1F1
:1051A000812F0E949A2546EB51E06EE180E00E943B
:1051B000D7222FE049E060E38AE00E9461242FE0DB
:1051C00047E06EE2812F0E94612449C21C2D1770B6
:1051D00041EC51E060E080E00E94D722DD24D394CE
:1051E000D10E08E22DE24AE065E086E193E00E94FC
:1051F000DD1C882309F44DC08CE2C82ECD1887E24F
:10520000782E7D1822E04D2D0BE0010F602F86E0F7
:10521000682E610E862D0E94612421E04D2D602FA5
:105220008C2D0E94612424E04D2D672D862D0E9437
:10523000612428E04D2D672D8C2D0E94612488E289
:10524000782E7D187D188EE1C82ECD18CD187A9451
:105250007A9400E0272D4AE097E0692E610E662DD2
:1052600086E193E00E94E01E272D47E2662D86E14D
:1052700093E00E94E01ECA94CA944C2D0CE0010FEA
:10528000602F85E00E94A8244C2D602F8CE20E94A4
:10529000A82402E32BE44AE062E386E193E00E9463
:1052A000DD1C882309F4DBC173E3772E710EEBE07C
:1052B0006E2E610EFAE4CF2ECD1801E30D1922E017
:1052C0004D2D662D872D0E949A2521E04D2D662DAE
:1052D0008C2D0E949A2524E04D2D602F872D0E9451
:1052E0009A2528E04D2D602F8C2D0E949A25C22CE6
:1052F000CD18CD18A4E37A2E710ECA94CA94B2E0E8
:105300006B2E610E262D4C2D6AE0872D0E94D32333
:10531000262D4C2D602F872D0E94D32328E22D1996
:105320002D1922506CE0610F49E182E30E94D323E2
:1053300096C11C2D177040ED51E06FE18EE1810F99
:105340000E94D722309271036FE1610F43ED51E06B
:105350008EE10E94D72282E08093710347ED51E0F5
:105360006FE18EE1811B0E94D72293E0909371033D
:105370006FE1611B4CED51E08EE10E94D7226FC1BD
:105380001C2D177041EE51E060E080E00E94D722B2
:1053900068E287E0810F0E94E125012F000F6CE396
:1053A00087E0800F0E94E125802F810F60E5895FF3
:1053B0000E94E125812F880F880F64E6895F0E9493
:1053C000E1254DC11C2D1770C12ED12C4AEE51E0A4
:1053D00060E080E00E94D72228E2E22EF12C0AE071
:1053E00010E02EE130E04DE250E067E070E08EE04A
:1053F00090E00E94342636012DE2620E711C8AE094
:1054000090E07C01EC18FD088601075C1F4F2EE13F
:1054100030E02C193D0967E070E06C197D09A301AB
:10542000C6010E960E943426C6018B96880F991FDE
:10543000AC014952510965E3E62EF12C8C012EE1B5
:1054400030E06AE070E04D970E943426760185E3F3
:10545000E80EF11C86010A5A1F4F9601225E3F4F4B
:10546000B601685D7F4FA301C6010A960E943426EB
:10547000F6C09A82898247EF51E060E080E00E94A6
:10548000D7229AE0D92E10E200E0C12EC982AE01E7
:105490004F5F5F4F6D2D802F0E94D722C394095F0D
:1054A0000037A1F7105F9AE0D90E103869F7D7C01E
:1054B0009A82898244E052E060E080E00E94D72234
:1054C0001AE080EAD82E00E0CD2CC982AE014F5FF1
:1054D0005F4F612F802F0E94D722C394095F00374E
:1054E000A1F720E1D20E165F163469F7B8C01C2D63
:1054F000177041E152E060E080E00E94D722809185
:105500006103909162038951994051F089E199E0DA
:1055100090936203809361030E9420230E94E522FE
:105520005092640340926303B0921903A09218034F
:1055300049E152E068E180E00E949A22812F880FC1
:10554000B0921903A09218034BE152E064E2810F7C
:105550000E949A2284C09C2D9770F92E49E252E055
:1055600060E080E00E94D72230926E0382E00E94C9
:10557000DF221AE000E0602F6170660F660F6E5E3A
:105580002FE145E1812F0E94D3230F5F105F05308B
:1055900091F715E01F0D4DE152E063E1812F0E946C
:1055A000D72280E00E94DF224DE252E06DE1812FA0
:1055B0000E94D72281E00E94DF224DE352E067E2A1
:1055C000812F0E94D72210926E0349C080E001C053
:1055D00081E00E948B2143C04DE452E060E080E016
:1055E0000E94D7224CE552E068E280E00E94D72278
:1055F00010928E032CE14CE16AE080E00E9491233E
:1056000000EF10E028E148E16CE082E00E942C27E6
:105610002C2D2470F22EC2FE08C004ED10E02EE006
:105620004EE061E187E00E942C2730928E032CE14E
:105630004CE16AE081E20E94912300EF10E028E152
:1056400048E16CE083E20E942C27FF2041F004ED4A
:1056500010E02EE04EE061E188E20E942C2786E116
:1056600093E00E945E22811104CD80919C028F5FA5
:10567000803718F480939C0202C010929C0266E965
:1056800070E080E090E00E94101780E090E0892BAD
:1056900009F4E6CC0E940000E1CCCF93109298036D
:1056A0001092970388EE93E0A0E0B0E08093990316
:1056B00090939A03A0939B03B0939C0389E691E097
:1056C0009093960380939503109215031092140300
:1056D00082E398E190939203809391031092930355
:1056E0001092940310922E038BE791E09093130392
:1056F00080931203109217031092160310922B033B
:105700001092220310922303109224031092250377
:105710008FEF80932C0380933003E4E3F3E08AE47B
:1057200093E02FEFCFEF21938E179F07D9F783E8F0
:105730009BE190931B0380931A0387E299E1909376
:105740001D0380931C0388EE9DE190931F038093BB
:105750001E0384E59EE1909321038093200320E0C3
:1057600030E040E069E086E193E00E94831B109204
:105770006203109261038FE998E190934B03809349
:105780004A0381EA93E090934F0380934E0381E0B4
:10579000809350031092510310926E0310928E0367
:1057A00080938F038093900383E891E090934D035F
:1057B00080934C0386E193E00E94491810925D03A8
:1057C00010925F03C0935E03C0936003E0914C03AB
:1057D000F0914D030280F381E02D86E193E009957D
:1057E00083E79DE1909364038093630310927103B8
:1057F00083E18093400382E180934103C0933F03A0
:10580000CF91089597FB072E16F4009407D077FDEB
:1058100009D00E941C2C07FC05D03EF49095819580
:105820009F4F0895709561957F4F0895EE0FFF1F6C
:105830000590F491E02D0994AA1BBB1B51E107C010
:10584000AA1FBB1FA617B70710F0A61BB70B881F10
:10585000991F5A95A9F780959095BC01CD0108959F
:1058600081E090E0F8940C943C2CDC0101C06D9335
:0C58700041505040E0F70895F894FFCF3D
:10587C001815A015C019FF1815A115C819FF181572
:10588C00AE19FF1815AF19FF1815AE15D5168015E2
:10589C00A8163F15D316001540158D161415201695
:1058AC000015A115C815DA1612158116CF15D916C3
:1058BC00F115DB1640152E15A415A619FF000114C1
:1058CC000A6464323200127A000004289610080030
:1058DC0000800040000000000095178A17E51D7C31
:1058EC0017831780177D17000000004121BC1DE5B0
:1058FC001DE41D4918031D3C1855386732004772CA
:10590C006170686963735465737400647261774283
:10591C006F7800647261774672616D6500647261C4
:10592C0077446973630064726177436972636C6571
:10593C000064726177524672616D652F426F780018
:10594C002030002039300020313830002032373000
:10595C0000647261774C696E650064726177547291
:10596C0069616E676C6500415343494920706167FA
:10597C0065203100415343494920706167652032ED
:10598C0000556E69636F6465003F203F00584F52AD
:10599C0020584F5220584F5220584F5200434C52CF
:1059AC0020434C5220434C5220434C5200534554FC
:1059BC002053455420534554205345540042697498
:1059CC006D6170206F7665726C617900536F6C69D4
:1059DC0064202F207472616E73706172656E740036
:1059EC00426C61636B00576869746500536F6C6936
:1059FC0064206269746D6170005472616E737061C1
:0C5A0C0072656E74206269746D61700038
:00000001FF
