:100000000C946B0D0C94930D0C94930D0C94930D18
:100010000C94930D0C94930D0C94930D0C94930DE0
:100020000C94930D0C94930D0C94930D0C94930DD0
:100030000C94930D0C94930D0C94930D0C94930DC0
:100040000C941D1B0C94930D0C94930D0C94930D18
:100050000C94930D0C94930D0C94930D0C94930DA0
:100060000C94671B0C94930D00407A10F35A00A077
:10007000724E18090010A5D4E80000E87648170071
:1000800000E40B54020000CA9A3B000000E1F505B1
:10009000000080969800000040420F000000A086FB
:1000A00001000000102700000000E803000000002D
:1000B0006400000000000A000000000001000000D1
:1000C00000002C76D888DC674F0823DFC1DFAE59EB
:1000D000E1B1B796E5E3E453C63AE651997696E87E
:1000E000E6C28426EB898C9B62ED407C6FFCEFBC02
:1000F0009C9F40F2BAA56FA5F490055A2AF75C932D
:100100006B6CF9676DC11BFCE0E40D47FEF520E662
:10011000B500D0ED902E0300943577050080841E45
:10012000080000204E0A000000C80C333333330FA0
:10013000986E12831141EF8D2114893BE65516CF3D
:10014000FEE6DB18D1844B381BF77C1D901DA4BB49
:10015000E424203284725E228100C9F124ECA1E5FE
:100160003D27000000000E00010000040F0E05F204
:10017000080008070E03F30F000B120E02F128000F
:100180000A140E02F041000A0F0E02F254000A0D8A
:100190000E02F4650003070E05F3680005130E0652
:1001A000F2740005130E03F280000A0A0E02F28DAB
:1001B000000C0D0E01F4A10005070E04FEA6000CB4
:1001C000020E01F9A90003030E05FEAB000A140E8E
:1001D00002F0C4000A0F0E02F2D7000A0F0E02F25C
:1001E000EA000A0F0E02F2FD000B0F0E01F21201DF
:1001F000090E0E02F322010A0F0E02F235010A0F58
:100200000E02F248010A0F0E02F25B010A0F0E0203
:10021000F26E010A0F0E03F28101030B0E05F68642
:1002200001040F0E04F68E010C0B0E01F59F010C5C
:10023000070E01F7AA010C0B0E01F5BB01090E0E0A
:1002400003F3CB010B130E02F2E6010F0E0EFFF3C8
:1002500001020D0E0E00F318020C0E0E01F32D021A
:100260000C0E0E01F342020D0E0E00F359020D0E9C
:100270000E00F370020D0E0E01F387020E0E0E003B
:10028000F3A0020A0E0E02F3B2020D0E0E01F3C924
:10029000020E0E0E00F3E2020C0E0E01F3F7020E38
:1002A0000E0E00F310030D0E0E00F327030C0E0EBE
:1002B00001F33C030C0E0E00F351030C110E01F37D
:1002C0006B030E0E0E00F384030A0E0E02F3960368
:1002D0000C0E0E01F3AB030C0E0E01F3C003100E57
:1002E0000EFFF3DC030E0E0E00F3F5030E0E0E00F0
:1002F000F30E040C0E0E01F323040A0E0E02F33566
:100300000405130E06F241040A140E02F05A040505
:10031000130E03F266040A080E02F170040E020EB8
:100320000004740404040E04F176040C0B0E01F6B0
:1003300087040D0F0E00F2A0040C0B0E01F6B104A1
:100340000D0F0E01F2CA040C0B0E01F6DB040B0FAD
:100350000E02F2F0040D100E01F60A050E0F0E004B
:10036000F225050B0E0E01F3390508130F03F34CAC
:10037000050D0F0E01F265050B0F0E01F27A050F48
:100380000B0E00F68F050E0B0E00F6A3050C0B0EE0
:1003900001F6B4050E100E00F6D0050E100E00F694
:1003A000EC050C0B0E01F6FD050A0B0E02F60B0612
:1003B0000B0E0E01F31F060D0B0E00F631060E0B91
:1003C0000E00F645060E0B0E00F659060E0B0E003B
:1003D000F66D060C100E01F685060B0B0E01F69558
:1003E0000607130E03F2A60602130E06F2AB06076B
:1003F000130E04F2BC060C040E01F9FFFFFFF666B3
:10040000606F60E7E76242424242118730C618C31C
:1004100031FFFFF998330660CC7FEFFC660CC39880
:100420006304400C0300C0FE7F9C660980780FE0E7
:100430007F03E0F87FFBFC0C0300C030381F0C4248
:1004400010C41F039C3C7F33E08C2108C3E0703E46
:100450001FC66180700C0783EEDFB3CC73FE7F8014
:10046000FD249039DCE67318C6318C318E31C4E737
:100470001CE31C6318C63198CE67100C0300C3B789
:10048000FFDFE1E0FC330CC0060060060060060FF1
:10049000FFFFF06006006006006006003B9CCE6235
:1004A00000FFFFFFFF800040301C070380E0301C8E
:1004B000060380C070180E0301C060380E01001ED4
:1004C0000FC61B87C0F03C0F03C0F03C0F87618F45
:1004D000C1E01C0F0FC3B00C0300C0300C0300C000
:1004E000300C3FFFFC1F1FEE1F83C0C070381E0F73
:1004F0000783C1E3F0FFFFFC3F0FF18700600C03AF
:1005000083E07C01C00C01803C0FFF9FC007078384
:10051000C3E1B1D8CCC6E37FFFE061F8FC7F9FE682
:100520000180601F87F98600C0300C03C1BFE7E07F
:1005300007C7F3C1C060380EF3FEF1F83E0F8371B8
:10054000CFE1F0FFFFFC1F07018060380C0301C002
:1005500060180E0300C01E1FEE1F03C0F03619FE08
:100560007FB87C0F03E1DFE3F03E1FCE3B07C1F015
:100570007E3DFF3DC070180E0F3F8F80FF8000FF53
:100580008077700000766CC88000300F03E0F83E82
:100590000F803E00F803E00F0020FFFFFF00000087
:1005A000000FFFFFF0600F803E00F803E01F07C15F
:1005B000F07C0F0040007C7FB0F830181C3C3C18E9
:1005C0000800070381C01E07F1C7306C0D87B3F622
:1005D000E6D8DB1B7367FC7F8030030071C7F87CB3
:1005E000003F807F801F007600EE018C07180E38D8
:1005F0001FF07FF0C06180CFC7FF8FC0FFC7FF0C27
:100600001C6063031838FF87FE303980CC06607F9A
:10061000FF7FF00FF3FF707603C03C00C00C00C0FA
:100620000C006037073FF0FCFF0FFC60E606603609
:100630000360360360360360760EFFCFF8FFF7FFE6
:100640008C0C60631B18C0FE07F031818CCC0660F7
:100650003FFFFFFCFFFFFFCC0660331998C0FE0789
:10066000F031818C0C00600FF07F800FF1FF9C1C3B
:10067000C06C03600300187FC3FE01B80CE0E3FF09
:1006800007E07CF9F3E3030C0C3030C0C3FF0FFC30
:100690003030C0C3030C0CFCFFF3F0FFFFF0C030A0
:1006A0000C0300C0300C0300C030FFFFF00FF87FD8
:1006B000C03001800C0060031818C0C6063031C37A
:1006C0000FF81F00FCFBF3E30E0C703380FC03F00B
:1006D0000FE039C0C3030E0C18FC7FF0F0FF0FF0E1
:1006E000180180180180180180183183183183FFA8
:1006F000FFFFF03FC0F7879E1E7CF9B3E6FD99F639
:1007000067998E66319806FCFFF3F0F1FFCFCF0CAE
:100710007863E31B18DCC67631B18F8C3C61E7E768
:100720003F180F03FC70E606E07C03C03C03C03EAC
:100730000760670E3FC0F0FF8FFE30730330330356
:100740003073FE3F8300300300FF0FF00F03FC7097
:10075000E606E07C03C03C03C03E0760670E3FC175
:10076000F01833FF3FE0FF83FF83070C0C3030C1EC
:10077000C3FE0FF031E0C383070C0CFE3FF8703F5F
:10078000DFFE1F03C0F807E07E01F03C0F87FFBFCC
:10079000C0FFFFFFC63C63C63C6306006006006006
:1007A0000600603FC3FCFFFFFF60660660660660F0
:1007B000660660660660639C1FC0F0FC3FFC3F302D
:1007C0000C381C18181C381C380E700E700F60077F
:1007D000E007E003C003C0FCFFF3F601DCC6779935
:1007E000DE67798DFE3FF8F3E3CF8F3C3870E1C0D0
:1007F000F8FBE3E3860F381FC03E007003E00F8074
:1008000077038E1E1CFCFFF3F0F9FF9F30C39C1989
:1008100081F80F00600600600600603FC3FCFFBF68
:10082000EC3B0CC63380C06038CC360F03FFFFF0C2
:10083000FFF18C6318C6318C6318C7FE40300E017F
:1008400080700C0380601C0300E0180700C0380EA5
:1008500001C0700C01FFC6318C6318C6318C631F58
:10086000FE040301E0FC7B9C7E1F03FFFFFFF0CE34
:10087000733F07F800C00C1FC7FC60CC0CC1CFFF52
:100880003FF0F007800C0060037C1FF8F1C70730D1
:100890001980CC066073C77FFBDF001FB3FF70FEBB
:1008A00007C03C00C00C007077FF1FC001E00F00C4
:1008B0001800C1F63FF1C79C1CC06603301981C700
:1008C0001E3FFC7DE01F83FC70EE07FFFFFFE00E84
:1008D000007073FF1FC007C3FC600C0FFDFF860094
:1008E000C0180300600C0181FFBFF01F79FFDC79A5
:1008F00081CC066033019C1C71E1FF07D800C00663
:1009000000707F03F0F003C003000C0037C0FF83CA
:10091000C70C0C3030C0C3030C0C3033F3FFCFC016
:100920000600C0003F07E00C0180300600C018033D
:100930000FFFFFC0060600FFFF03030303030303CB
:100940000303030307FEFCF007800C0060033F195C
:10095000F8DE07E03E01F00FC06F031C78FFC7E030
:100960007E0FC0180300600C0180300600C0180321
:100970000061FFFFF8FEF1FFF1CE6318C6318C6312
:1009800018C6318C6319F7BFEF7877C1FF83C70CA6
:100990000C3030C0C3030C0C3033F1FFC7C01F83D1
:1009A000FC70EE07C03C03C03E0770E3FC1F80F7FD
:1009B000E3FFC3C38E07300CC03300CE073C38FFC3
:1009C000C37E0C003000C00FE03F801FBCFFF70F5C
:1009D000381CC03300CC03381C70F0FFC1FB000C86
:1009E000003000C01FC07F79E7FF1F31C0180180B1
:1009F000180180180FFCFFC03F9FFE1F82FE1FE002
:100A0000FF03E0FFFFF0300600C07FEFFC600C0149
:100A100080300600C01871FE1F00F1F78F8C0C604B
:100A200063031818C0C60638F0FFC3EEFCFFF3F3EB
:100A3000870E1C1C607380EC03F007801E0078009A
:100A4000F87FE1F7398CE637B0FFC3FF07BC1CF035
:100A5000738186007CF9F3E3CF07F80FC01E00FC1A
:100A600007383873F3FFCFC0F9FF9F70E30C39C12B
:100A7000981981F80F00F00600600E00C0FF0FF01B
:100A80007FCFF98E3380701C0701C670FFFFFF8097
:100A90000E3C60C183060C39E3C0C183060C183CD0
:100AA00038FFFFFFFFF0E1C0C183060C18303C792E
:100AB00083060C1831E3803C37E767E61C00000032
:100AC000000B00010000020B0B04F6030006050BEF
:100AD00002F60700070C0B02F61200080C0B01F6D9
:100AE0001E00070B0B02F62800070A0B02F7310065
:100AF00003050B04F63300020D0B05F63700020D5B
:100B00000B04F63B0007070B02F6420007070B0237
:100B1000F8490003050B02FF4B0009010B01FB4DD7
:100B20000002020B04FF4E00070D0B02F55A0007EE
:100B30000B0B02F66400050B0B03F66B00070B0BA7
:100B400002F67500080B0B01F68000060B0B03F68E
:100B50008900070B0B02F69300070B0B02F69D00B2
:100B6000070B0B02F6A700070B0B02F6B100070BF1
:100B70000B02F6BB0002080B04F9BD00030B0B03CC
:100B8000F9C20008080B01F8CA0009040B01FACFEA
:100B90000009080B01F8D800070A0B02F7E100086A
:100BA0000C0B02F6ED000B0A0B00F7FB00090A0B19
:100BB00001F70701090A0B01F71301090A0B01F7F5
:100BC0001F01090A0B01F72B01090A0B01F7370175
:100BD0000A0A0B01F74401090A0B01F75001050A43
:100BE0000B03F75701080A0B02F76101090A0B0111
:100BF000F76D01080A0B02F777010B0A0B00F78566
:100C000001090A0B01F79101090A0B01F79D01087F
:100C10000A0B01F7A701090D0B01F7B601090A0B31
:100C200001F7C201070A0B02F7CB01090A0B01F712
:100C3000D701090A0B01F7E3010B0A0B00F7F101D9
:100C40000B0A0B00F7FF01090A0B01F70B02090A57
:100C50000B01F71702070A0B02F72002020D0B0522
:100C6000F62402070D0B02F53002020D0B04F634D8
:100C70000207050B02F639020B010B00023B0203CF
:100C8000030B03F53D0209080B01F94602090B0BA2
:100C900001F6530207080B02F95A02090B0B01F681
:100CA000670208080B01F96F02060B0B03F67802C6
:100CB000090B0B01F98502090B0B01F69202070AD9
:100CC0000B02F79B02050D0B03F7A402080B0B02A6
:100CD000F6AF02070B0B02F6B90209080B01F9C2C5
:100CE0000209080B01F9CB0209080B01F9D402092A
:100CF0000B0B01F9E102090B0B01F9EE0207080BDE
:100D000003F9F50207080B02F9FC02080A0B02F7C7
:100D1000060308080B01F90E0309080B01F9170374
:100D200009080B01F9200309080B01F92903090B34
:100D30000B01F9360307080B02F93D03030D0B0401
:100D4000F64203010D0B05F64403030D0B04F649AF
:100D50000307030B02FAAAA80CED24924824489139
:100D60002FE4897F28512240083E6240300E0181E5
:100D7000C3BE08087112238023B80E224470388144
:100D800002061A6546C8ECE9245AAAA940A9555A90
:100D90008010224BE3051100102047F10204006B84
:100DA00048FF00F00208106081040820410208009A
:100DB000388A0C183060C18288E0272842108421CC
:100DC0003E388A08102082086103F87C0602021C63
:100DD00006010101423C18A2928A28BF0821C07C6A
:100DE0008103E44040810388E01E41040B98B0C1B8
:100DF000C288E0FE040820408204082040388A0CA3
:100E000014471141838CE0388A1C1868CE81041382
:100E1000C0F00F6C00D2D200030418606018040305
:100E2000FF80001FF040180300602060C0803D84F8
:100E30000830C2000000303C46828EB2A2A29F80E1
:100E400080403C3C014028090110420FC104409EF3
:100E50003CFE21904867E209028141FF803EB0F0EC
:100E6000300804020080608F80FE219068140A051B
:100E70000283437F00FF20900887C221008140FF4A
:100E8000C0FFA0500887C22100804078001E986CE7
:100E90000A008020F80B026087C0E3A0904827F288
:100EA0000904824171C0F90842108427C01F020260
:100EB0000202028282C678E3A11109058321088417
:100EC0004170C0E04040404040414141FFE0EC19EA
:100ED0004528A4A494911202405C1CC3B0944A24F7
:100EE0009249148A4370801E319050180C06028279
:100EF000630F00FE434141427C404040F01C319072
:100F000050180C060282631F04079230FE2190489D
:100F10002423E110844170C03ACD0A030180C1C787
:100F200078FFC462210080402010081F00E3A090D9
:100F3000482412090482220E00F1E81082104210A7
:100F4000220480500C0080F1E809112544A8550CBA
:100F5000A18C318430E3A088828080C090444171AC
:100F6000C0E3A088828140402010081F00FD0A20B5
:100F70008104102183FCEAAAAAC080810302040430
:100F8000080810102020D55555C01051222820FFE8
:100F9000E088807E008047EC140A0CFBC020100B18
:100FA000C61205028140B0B7803A8E0C0810109E20
:100FB00003008047A4340A050281218F603C4381ED
:100FC000FF8080613E3D043E410410410F803DA101
:100FD000A0502814090C7A01018780C020100BC68C
:100FE000320904824120B8E01001C08102040811D6
:100FF000FC103E10842108423F00C040404F44583E
:1010000070484442C7702040810204081023F8B79A
:10101000646231188C4623915E3190482412090590
:10102000C73E31A030180C058C7CDE309028140AA5
:101030000584BC402038003DA1A0502814090C7A3A
:10104000010080E0CEA1820408107C3A8D0B80F074
:1010500070DE4040FC4040404040413EC341414181
:101060004141433DE3A090844220A05010E3C09250
:101070004B2592A99844E331050101411105C7E3CD
:10108000A090844240A0601010083E00FD0820821D
:101090000810BF2924A24926FFF889248A492C6117
:1010A000243000000000003E5B4F5B3E3E6B4F6B08
:1010B0003E1C3E7C3E1C183C7E3C181C577D571C39
:1010C0001C5E7F5E1C00183C1800FFE7C3E7FF00B2
:1010D00018241800FFE7DBE7FF30483A060E262900
:1010E000792926407F050507407F05253F5A3CE7C3
:1010F0003C5A7F3E1C1C08081C1C3E7F14227F2289
:10110000145F5F005F5F06097F017F006689956A53
:10111000606060606094A2FFA29408047E040810DE
:10112000207E201008082A1C08081C2A08081E1007
:101130001010100C1E0C1E0C30383E3830060E3EBF
:101140000E06000000000000005F0000000700071E
:1011500000147F147F14242A7F2A12231308646248
:1011600036495620500008070300001C22410000A9
:1011700041221C002A1C7F1C2A08083E0808008007
:10118000703000080808080800006060002010089F
:1011900004023E5149453E00427F400072494949A0
:1011A000462141494D331814127F102745454539D2
:1011B0003C4A4949314121110907364949493646D6
:1011C0004949291E000014000000403400000008B6
:1011D0001422411414141414004122140802015959
:1011E00009063E415D594E7C1211127C7F494949E6
:1011F000363E414141227F4141413E7F494949417B
:101200007F090909013E414151737F0808087F00A9
:10121000417F41002040413F017F081422417F402F
:101220004040407F021C027F7F0408107F3E414106
:10123000413E7F090909063E4151215E7F09192976
:1012400046264949493203017F01033F4040403F60
:101250001F2040201F3F4038403F631408146303A1
:10126000047804036159494D43007F414141020420
:10127000081020004141417F040201020440404027
:101280004040000307080020545478407F2844441D
:10129000383844444428384444287F385454541837
:1012A00000087E090218A4A49C787F080404780032
:1012B000447D40002040403D007F10284400004114
:1012C0007F40007C047804787C0804047838444427
:1012D0004438FC1824241818242418FC7C0804041E
:1012E00008485454542404043F44243C4040207C87
:1012F0001C2040201C3C4030403C44281028444CDA
:101300009090907C4464544C4400083641000000A6
:10131000770000004136080002010204023C262347
:10132000263C1EA1A161123A4040207A38545455FF
:1013300059215555794122545478422155547840C9
:1013400020545579400C1E52721239555555593951
:101350005454545939555454580000457C410002A6
:10136000457D420001457C407D1211127DF028250B
:1013700028F07C545545002054547C547C0A097F45
:101380004932494949323A4444443A324A48483059
:101390003A4141217A3A42402078009DA0A07D3D0B
:1013A0004242423D3D4040403D3C24FF2424487E93
:1013B0004943662B2FFC2F2BFF0929F620C0887E7E
:1013C000090320545479410000447D413048484A83
:1013D00032384040227A007A0A0A727D0D19317D36
:1013E0002629292F28262929292630484D4020380A
:1013F0000808080808080808382F10C8ACBA2F10C9
:101400002834FA00007B000008142A142222142A2F
:1014100014085500550055AA55AA55AAFF55FF5561
:10142000FF000000FF00101010FF00141414FF0054
:101430001010FF00FF1010F010F0141414FC001432
:1014400014F700FF0000FF00FF1414F404FC141450
:1014500017101F10101F101F1414141F001010104D
:10146000F0000000001F101010101F10101010F0DE
:1014700010000000FF101010101010101010FF10BE
:10148000000000FF140000FF00FF00001F10170005
:1014900000FC04F414141710171414F404F40000DE
:1014A000FF00F714141414141414F700F714141490
:1014B000171410101F101F141414F4141010F0102F
:1014C000F000001F101F0000001F14000000FC149B
:1014D0000000F010F01010FF10FF141414FF14108F
:1014E00010101F00000000F010FFFFFFFFFFF0F0E2
:1014F000F0F0F0FFFFFF0000000000FFFF0F0F0FF4
:101500000F0F3844443844FC4A4A4A347E020206EB
:1015100006027E027E0263554941633844443C041E
:10152000407E201E2006027E020299A5E7A5991C96
:101530002A492A1C4C7201724C304A4D4D303048B9
:10154000784830BC625A463D3E494949007E010117
:10155000017E2A2A2A2A2A44445F444440514A44AC
:101560004040444A51400000FF0103E080FF00007A
:1015700008086B6B083612362436060F090F060072
:101580000018180000001010003040FF0101001F7B
:1015900001011E00191D1712003C3C3C3C000000DC
:1015A0000000000103070F1F3F7F0080C0E0F0F83C
:1015B000FCFE000000080002010000030407000018
:1015C000000000000000DB40A4A62EAFDA0281DAA2
:1015D0001281DA02818F2000A1C8D300408DAED5E0
:1015E00080A8000060000000000000000000000073
:1015F000000000E00000000000000000000000000B
:101600000001E000000000000000000000000000F9
:1016100001F00000000000000000000000000003D6
:10162000F00000000000000000000000000007F0D3
:101630000000000000000000000000000007F800AB
:101640000000000000000000000000000FF8000093
:101650000003C0007E000001E0007F0FF8000000E2
:1016600003C000FE000001E000FFEFF800000003EF
:10167000C000FE000001E000FFFFF800000003C012
:1016800000F00000000F007FFE7FC0000003C000DC
:10169000F00000000F003FFE7FF83FF1FBCFFCFEA3
:1016A000F3BC3DEFE01FFE7FFF7FFBFFDFFEFEFF91
:1016B000BC3DEFE01FC6FFFF7FFBFFDFFEFEFFBC70
:1016C0003DEFE00FE3C7FE787BC3DE1EF0FFBC3DBD
:1016D000EF0007FF87FC787BC3DE1EF0F83C3DEF90
:1016E0000001FFFFF0007BC3C01EF0F03C3DEF00A7
:1016F00001F37FE03FFBC3CFFEF0F03C3DEF000382
:10170000E33F807FFBC3DFFEF0F03C3DEF0007E7E7
:101710003C00787BC3DE1EF0F03C3DEF0007FFBECF
:1017200000787BC3DE1EF0F03C3DEF0007FFFE00BB
:10173000787BC3DE1EF0F03C3DEF000FFFFE007F24
:10174000FBFFDFFEF0F03FFDEFE00FFFFF007FFB50
:10175000FFDFFEF0F03FFDEFE00FF9FF003E79F90B
:10176000CF9EF0F01F3DE7E01FF1FF0000000000FA
:10177000000000000000001F80FF007FFFFFFFFF50
:10178000FFFFFFFFFFE01C007F007FFFFFFFFEB4B5
:101790006D888D18E000001F007FFFFFFFFE95ADF4
:1017A0007DB577E000000F007FFFFFFFFEA5AD9D38
:1017B0008D19E0000006007FFFFFFFFEB5ADEDB51F
:1017C0007EE000000000000180000000000000003A
:1017D0000000038000000000000000000007C000BF
:1017E000000000000000000007C000000000000032
:1017F0000000000FC00000000000000000001FE01B
:101800000000000000000000001FE00000000000D9
:10181000000000003FE00000000000000000003F6A
:10182000F00000000000000000007FF00000000059
:101830000000001FF87FF0000000000000003FFEE5
:101840007FF0000000000000003FFF7FF00000007C
:10185000000000001FFFFBE0000000000000000F80
:10186000FFF9FFC00000000000000FFFF9FFF800C3
:10187000000000000007FFF1FFFF00000000000073
:1018800003FC73FFFF80000000000001FE3FFFFF2C
:1018900080000000000000FF1E0FFF00000000009D
:1018A00000007FFE1FFC000000000000003FFFFF63
:1018B000F8000000000000000FDFFFE00000000063
:1018C0000000001F19FFC0000000000000003F3CA6
:1018D000FF00000000000000007E7CF80000000017
:1018E000000000007FFE7C0000000000000000FF00
:1018F000FFFC0000000000000000FFFFFE000000F1
:101900000000000000FFFFFE0000000000000001DA
:10191000FFEFFE0000000000000001FFCFFE00000E
:10192000000000000003FF07FE00000000000000B0
:1019300003FC07FE0000000000000003F003FE00AF
:10194000000000000000018000FE00000000000018
:10195000000000007E000000000000000000003ECB
:10196000000000000000000000000C00000000006B
:1019700000078000FC000003C0000000078001FC9D
:10198000000003C0000000078001FC000003C0004D
:101990000000078001E00000001E00000007800139
:1019A000E00000001E007FE3F79FF9FDE7787BDF92
:1019B000C0FFF7FFBFFDFDFF787BDFC0FFF7FFBF74
:1019C000FDFDFF787BDFC0F0F787BC3DE1FF787B52
:1019D000DE00F0F787BC3DE1F0787BDE0000F787A2
:1019E000803DE1E0787BDE007FF7879FFDE1E078D6
:1019F0007BDE00FFF787BFFDE1E0787BDE00F0F7DC
:101A000087BC3DE1E0787BDE00F0F787BC3DE1E09C
:101A1000787BDE00F0F787BC3DE1E0787BDE00FFFD
:101A2000F7FFBFFDE1E07FFBDFC0FFF7FFBFFDE198
:101A3000E07FFBDFC07CF3F39F3DE1E03E7BCFC066
:101A40000000000000000000000000FFFFFFFFFF9B
:101A5000FFFFFFFFFFC0FFFFFFFFFD68DB111A3133
:101A6000C0FFFFFFFFFD2B5AFB6AEFC0FFFFFFFF28
:101A7000FD4B5B3B1A33C0FFFFFFFFFD6B5BDB6A77
:101A8000FDC02200FF2100FB036201207E18560DDD
:101A9000BD0A207E1200000000250028002B000057
:101AA000000000240027002A0004040404040404A5
:101AB00004020202020202030303030303010204FD
:101AC00008102040800102040810200102040810C0
:101AD0002000861C2E2311241FBECFEFD8E0DEBFCE
:101AE000CDBF11E0A0E0B1E0E6E1FFE402C0059067
:101AF0000D92AE34B107D9F722E0AEE4B1E001C0F7
:101B00001D92AD35B207E1F71DE0CAE6DDE004C085
:101B10002197FE010E944726C936D107C9F70E94C6
:101B2000D11C0C947E270C94000090E0FC01E3543F
:101B3000F54E24918755954EFC018491882399F0A8
:101B400090E0880F991FFC01E156F54EA591B491E4
:101B5000FC01EB56F54E859194918FB7F894EC917A
:101B6000E22BEC938FBF0895089508950895AF92E6
:101B7000BF92CF92DF92EF92FF920F931F93CF937A
:101B8000DF936C017B018B01040F151FEB015E01DC
:101B9000AE18BF08C017D10759F06991D601ED9171
:101BA000FC910190F081E02DC6010995892B79F710
:101BB000C501DF91CF911F910F91FF90EF90DF90C2
:101BC000CF90BF90AF90089590E0FC01EE54FA4E94
:101BD0002491FC01E354F54E3491FC01E755F54E98
:101BE000E491EE23C9F0222339F0233001F1A8F467
:101BF000213019F1223029F1F0E0EE0FFF1FEB56F2
:101C0000F54EA591B4918FB7F894EC91611126C06F
:101C100030953E233C938FBF08952730A9F028309C
:101C2000C9F0243049F7809180008F7D03C08091F6
:101C300080008F7780938000DFCF84B58F7784BD5D
:101C4000DBCF84B58F7DFBCF8091B0008F77809301
:101C5000B000D2CF8091B0008F7DF9CF3E2BDACF8C
:101C60003FB7F8948091FA019091FB01A091FC019B
:101C7000B091FD0126B5A89B05C02F3F19F0019634
:101C8000A11DB11D3FBFBA2FA92F982F8827BC01D6
:101C9000CD01620F711D811D911D42E0660F771FFE
:101CA000881F991F4A95D1F708958F929F92AF92FE
:101CB000BF92CF92DF92EF92FF924B015C010E94A4
:101CC000300E6B017C010E94300E6C197D098E096B
:101CD0009F09683E734081059105A8F321E0821AAF
:101CE0009108A108B10888EEC80E83E0D81EE11C57
:101CF000F11C81149104A104B10429F7FF90EF9025
:101D0000DF90CF90BF90AF909F908F90089585ED1A
:101D10008093BC008091BC0084FDFCCF1092050232
:101D200008952091AE01260F3327331F213231054C
:101D3000ECF420910502FC0190E080E0243069F091
:101D400082E00895A091AE012191AC0142575E4F0F
:101D5000A40FB52FB11D2C930196861798F380918F
:101D6000AE01680F6093AE0180E0089581E00895B0
:101D70009B01AC0160E074E284EF90E00E940626D3
:101D800020513109410951095695479537952795B5
:101D90002093B8000895E091070280910602E817A9
:101DA00030F4F0E0E259FE4F808190E008958FEF2B
:101DB0009FEF089590910702809106022FEF3FEF69
:101DC000981748F4E92FF0E0E259FE4F208130E007
:101DD0009F5F90930702C901089580910602909138
:101DE0000702891B990B0895CF92DF92EF92FF9221
:101DF0000F931F93CF93DF937C01CB018A01209136
:101E00000D02222389F0EB016B01C40ED51ECC1507
:101E1000DD0569F06991D701ED91FC910190F081A8
:101E2000E02DC7010995F3CF642F0E94910EC801E0
:101E3000DF91CF911F910F91FF90EF90DF90CF90A6
:101E40000895CF93DF931F92CDB7DEB769832091BA
:101E50000D022223F9F020910A02203258F021E0ED
:101E600030E0FC013383228390E080E00F90DF912B
:101E7000CF91089580910B02E82FF0E0E25BFE4FD6
:101E8000998190838F5F80930B0280930A0281E097
:101E900090E0ECCF61E0CE0101960E94910EF7CF69
:101EA00020910A0281E0213208F044C080910502AD
:101EB0008111FCCF80910C0292E09093050291E099
:101EC000909304029FEF9093D1011092F30120931D
:101ED000F201AEE4B1E0E2EDF1E090E0291331C0AF
:101EE0001092F4019091F401880F892B8093F401F2
:101EF00080910302813049F5109203028091F40130
:101F00008093BB008091BC0083FDF8CF85EC80936B
:101F1000BC00809105028230E1F38091D1018F3FB6
:101F2000B1F08091D1018032A1F08091D101803354
:101F300091F084E010920B0210920A0210920D02AE
:101F400008953D9131939F5FC9CF85EEE0CF80E04A
:101F5000F1CF82E0EFCF83E0EDCFEF92FF920F93CE
:101F60001F93CF93DF93EC01EC80FD806E157F050E
:101F70000CF070C057FF04C0240F351F50E040E044
:101F80008E819F81FA01E20FF31F8E179F071CF4C9
:101F90009C01241B350B121613060CF05BC0922F0C
:101FA000842F8695869586958E9DD0018F9DB00D48
:101FB00011246A0F7B1FAF8DB8A1A60FB71F477002
:101FC00049F188E0841B482F682F70E0FB01E6553B
:101FD000FA4EE491281708F063C0621B71092FEFD5
:101FE00030E002C0359527956A95E2F7E22301308B
:101FF000110539F0B0F10230110561F58C91E82737
:1020000002C08C91E82BEC93941720F12C813D8138
:10201000A20FB31FE92FE41BE83078F0023011055E
:1020200021F58E2F9C9190959C932C813D81A20F40
:10203000B31F88508830B0F7E770EE2359F0F0E016
:10204000EE55FA4EE49101301105F9F010F102302D
:10205000110519F1DF91CF911F910F91FF90EF9032
:102060000895E0958C91E823CECF81E0011511050C
:1020700009F480E081959E2F8C932C813D81A20FE5
:10208000B31F98509830C0F7D7CF8C91E82BEC93C2
:10209000E1CFE0958C91E823FACF8C91E827F7CF38
:1020A0000130110509F4ADCFE0F20230110509F459
:1020B000A5CFAE0DBF1DAECF0F931F93CF93DF9370
:1020C00077FF04C0260F371F70E060E0DC01149634
:1020D000CD91DC91FB01E20FF31FCE17DF071CF45B
:1020E0009E01261B370B121613064CF5FA0157FDFD
:1020F0003796A3E0F595E795AA95E1F7EC9FD00117
:10210000ED9FB00DFC9FB00D11246A0F7B1FDC0109
:102110005F96ED91FC91E60FF71F4770552781E020
:1021200090E001C0880F4A95EAF7482F0130110569
:1021300059F0A8F02E0F3F1F02301105E1F0DF919A
:10214000CF911F910F9108952E0F3F1FE217F307B4
:10215000B1F38191DF011197842B8C93F7CF809598
:102160002E0F3F1FE217F30751F39191DF011197F3
:1021700098239C93F7CFE217F30709F38191DF01CE
:10218000119784278C93F7CF0F931F93FA01DC01EB
:1021900056964C9156974230E9F04330A1F14130C8
:1021A00061F514964D915C91DA01AE1BBF0BFD01F8
:1021B000E21BF30B77FD0BC0DC0116964D915C9191
:1021C0006417750724F4AB01BF010E945C101F91D6
:1021D0000F91089514964D915C91DA01A61BB70BEF
:1021E000BD0161507109DC0116964D915C91DA01D7
:1021F000AE1BBF0BFD01E21BF30B77FDE8CFAF0178
:102200000E94AD0FE4CF16964D915C91DA01A61BAA
:10221000B70BBD0161507109CDCF0F931F93FA0128
:10222000DC0156964C9156974230A9F0433091F11B
:10223000413019F514964D915C91DA01AE1BBF0B3C
:10224000FD013197F7FD04C0AB01BF010E94AD0F46
:102250001F910F91089514964D915C91DA01A61B80
:10226000B70BBD01DC0116964D915C91DA01AE1BF6
:10227000BF0BFD013197621B730BF7FDE9CFDC014A
:1022800016964D915C91E417F50714F7AF010E9483
:102290005C10DECF16964D915C91DA01A61BB70B50
:1022A000BD01621B730BCECFFC0177FD64C080853E
:1022B0009185681779070CF05EC057FD5CC0828578
:1022C0009385481759070CF056C086898230B1F0C3
:1022D000833029F1813041F484819581841B950BF1
:1022E000AB01BC01615071092130310509F108F4DD
:1022F00043C02230310509F463C00895848195817B
:10230000DC01A61BB70BBD01615071098681978165
:10231000DC01A41BB50BAD0141505109E5CF86810D
:102320009781861B970BBA01AC0141505109DCCF54
:10233000CA0157FD0796A3E095958795AA95E1F701
:10234000A481B5818A9F90018B9F300D9A9F300D9B
:102350001124620F731F078CF0A1E02DE60FF71F09
:102360004770552721E030E001C0220F4A95EAF777
:102370008081822B80830895CA0157FD079633E040
:10238000959587953A95E1F7A481B5818A9F90014B
:102390008B9F300D9A9F300D1124620F731F078C95
:1023A000F0A1E02DE60FF71F4770552781E090E080
:1023B00001C0880F4A95EAF7809590818923DACF8A
:1023C000CA0157FD079623E0959587952A95E1F771
:1023D000A481B5818A9F90018B9F300D9A9F300D0B
:1023E0001124620F731F078CF0A1E02DE60FF71F79
:1023F0004770552721E030E001C0220F4A95EAF7E7
:1024000080818227B7CF08958EBD00000DB407FEEE
:10241000FDCF8EB50895FF920F931F93CF93DF9357
:10242000F82ED92FC62F809137029091380200974D
:1024300009F452C020913B0231E030930D02209309
:102440000C0210920B0210920A02DC01ED91FC9139
:102450000190F081E02D60E009950F2D1D2FD1E056
:10246000FF24F394C1508091370290913802CF3FFE
:1024700061F1D032C8F00E94500F809137029091E4
:10248000380220913B02F0920D0220930C02109230
:102490000B0210920A02DC01ED91FC910190F08197
:1024A000E02D60E00995D1E08091370290913802EB
:1024B000F8016491DC01ED91FC910190F081E02D37
:1024C0000995DF5F0F5F1F4FCDCFDF91CF911F9138
:1024D0000F91FF900C94500FE0914702F091480249
:1024E000908180914D028095892380830F2D1D2F2F
:1024F000C15008F438C0F801849120913502309120
:102500003602232B29F00E9404120F5F1F4FF0CFD9
:1025100028E030E040E8E0914302F09144029091DD
:102520004B02582F5423D9F05081952B9083E09182
:102530004502F0914602908150914C02952B908378
:10254000E0914502F0914602508190914C029095A5
:1025500095239083469521503109E9F6D6CF5081D5
:1025600090959523E3CFDF91CF911F910F91FF902D
:1025700008951F93CF93DF93EC018D8D9E8D00976F
:1025800021F1162F29A131E030930D0220930C0286
:1025900010920B0210920A02DC01ED91FC91019065
:1025A000F081E02D60E009958D8D9E8DDC01ED912F
:1025B000FC910190F081E02D612F09958D8D9E8D0C
:1025C000DF91CF911F910C94500FADA5BEA59C91AA
:1025D0008BA9809589238C938B8D9C8D892B31F0D1
:1025E000862FDF91CF911F910C94041228E030E0E8
:1025F00080E8A9A5BAA599A9462F4823C1F04C9116
:10260000942B9C93ABA5BCA59C914AA9942B9C931D
:10261000ABA5BCA54C919AA9909594239C938695C3
:102620002150310931F7DF91CF911F9108954C91DD
:1026300090959423E6CF8CBD9DBD08951F93CF93B5
:10264000DF93EC01162F8D8D9E8D892BC9F06FA91C
:1026500078AD89AD9AAD0E94B80E66EA111167EAAD
:10266000CE010E94B9128D8D9E8D892BC9F06BAD64
:102670007CAD8DAD9EADDF91CF911F910C94B80EC6
:102680008B8D9C8D892B21F08DA99EA90E941B13F7
:10269000EFA5F8A990818CA9809589238083DDCF4F
:1026A000EFA5F8A980819CA9892B8083DF91CF9128
:1026B0001F9108950895FC016370668B8481958154
:1026C00026813781613039F0633029F09187808726
:1026D00033872287089531872087938782870895DB
:1026E0002F923F924F925F926F927F928F929F9222
:1026F000AF92BF92CF92DF92EF92FF920F931F9310
:10270000CF93DF93CDB7DEB76A970FB6F894DEBFED
:102710000FBECDBF9A8F898F7A8369834A01D22EEB
:1027200018870F833701BC2CDC0159962D913C9101
:102730005A972115310509F015C118968D919C9174
:102740001997681779070CF0D7C11A968D919C914B
:10275000481759070CF0D0C14C2C512CB6E0CB9E39
:10276000600D711D11247C876B87161617060CF0FF
:10277000C3C1EA2DF0E0FA87E98793E0EE0FFF1F6F
:102780009A95E1F7F88BEF87CF01840F951F181604
:1027900019060CF0B1C1A98DBA8D58968C91811192
:1027A00004C0BFEABD1508F4D394A98DBA8DED918C
:1027B000FC9111970284F385E02DCD010995B5E0D8
:1027C000DB9EC0011124E981FA81FC83EB83312C6B
:1027D000212C9C012E553F4E388F2F8B4A2D50E0D7
:1027E0005E8B4D8BEF89F88DE20DF31D44919E8237
:1027F0008D82D12CC12C69817A81620D731D7A8BF7
:10280000698B842F90E09C8B8B8BE98DFA8DA08156
:10281000B18140FF82C0F1E0BF126FC0AF126DC046
:102820001C96ED91FC912F813885A4014C0D5D1D06
:1028300069897A89898D9A8D0995EB89FC89F59545
:10284000E7954E2F5FEFC51AD50A6D817E818D8980
:102850009E89680F791F7E836D8398E0C916D10425
:1028600081F6AFEF2A1A3A0AEB81FC81E40DF51DDF
:10287000FC83EB83F5E02F16310409F0B3CF2F81F1
:10288000388526153705B9F0A98DBA8DED91FC91E3
:10289000B1E0BB1257C0AB1255C069817A816B5F42
:1028A0007F4F0088F189E02D830128E030E0A4010A
:1028B000898D9A8D0995A98DBA8DED91FC9111970D
:1028C0000688F789E02DCD016A960FB6F894DEBF31
:1028D0000FBECDBFDF91CF911F910F91FF90EF9071
:1028E000DF90CF90BF90AF909F908F907F906F9030
:1028F0005F904F903F902F9009941E96ED91FC9120
:10290000EF80F88409851A8592014D815E816B8183
:102910007C81898D9A8D099590CF2F8138852615D8
:10292000370509F48ACF31E0B31207C0A31205C0FE
:102930001C96ED91FC91930178CF1E96ED91FC9140
:102940007301E0CF6B857C85641975090684F78572
:10295000E02D73010F8518899201A401898D9A8D4C
:102960000995A9CFF90134969491329745915491E4
:10297000D91AB7E0DB9E400D511D1124F9012591B4
:1029800034913C8B2B8BFA0125903490FA013296CE
:10299000749031963491398B32966490319644908C
:1029A00041E04C1518F04A1508F07FC0662D062C42
:1029B000000C770B7C836B83842D042C000C990B0B
:1029C0009E838D83A98DBA8DED91FC911197028420
:1029D000F385E02DCD010995512CD12CC12CEA2D88
:1029E000F0E0FA87E9872B2D30E03C872B87A401A4
:1029F000440D511D47FC5A95588F4F8B69817A8140
:102A0000660D711D67FC7A957E876D877989C7167B
:102A100008F051CF2C2D30E04D815E81420F531FC5
:102A2000A985BA854A9FC0014B9F900D5A9F900D72
:102A30001124FC01E80DF91DF88BEF87852D612C21
:102A40004F89588D420F531F5E8B4D8B671408F0D2
:102A500050C044244394480E877041F4C10101964C
:102A6000EB89FC89E20DF31DD4901C01D7FE19C03F
:102A7000A98DBA8DED91FC91662D70E0B1E0BB128D
:102A800019C0AB1217C02D853E85620F731F0484D9
:102A9000F585E02D2F8138854D895E89898D9A8D48
:102AA0000995DD0C6394842DD1CF1E821D821C827A
:102AB0001B8288CF4B815C81640F751FAB85BC8501
:102AC0006A9FC0016B9F900D7A9F900D11246981C0
:102AD0007A81680F791F0684F785E02DEF80F884EE
:102AE00009851A859D014F855889898D9A8D09958B
:102AF000D8CF570CC3948ACF6A960FB6F894DEBF2E
:102B00000FBECDBFDF91CF911F910F91FF90EF903E
:102B1000DF90CF90BF90AF909F908F907F906F90FD
:102B20005F904F903F902F9008958F929F92AF9219
:102B3000CF92EF92FF920F931F93CF93DF93EC010D
:102B4000262F898D9A8D009709F051C06A30D1F4F3
:102B50001D861C868D8948E0849F900111248E85F6
:102B60009F85820F931F9F878E8781E090E0DF9182
:102B7000CF911F910F91FF90EF90CF90AF909F90CA
:102B80008F9008956D3089F3CC88AD888F89882324
:102B9000C1F08C859D8536E0C39E800D911D11246A
:102BA000488559854817590764F44E855F851D8609
:102BB0001C8638E0A39EC0011124840F951F9F87B7
:102BC0008E87EA88FB88088919894E855F856C8520
:102BD0007D85CE010E9470132C898C859D8546E0F1
:102BE000249F800D911D11249D878C87BECF6A3054
:102BF00069F41D861C86FC013696E4912D898E852C
:102C00009F85E29F800D911D1124ADCF6D3009F499
:102C1000ACCFFC0134963491631708F4A6CF3196FB
:102C2000E491E61708F4A1CFFC01329685909490C8
:102C3000462F431B342F47E0349F800C911C1124F6
:102C4000F401329634913196E4913323A9F1EE23C5
:102C500099F1CC88F4013596E491AD884F894423ED
:102C600001F10E2E000CFF0BE30FF11DCE9EA00113
:102C7000CF9E500D11246C857D85460F571F6885AA
:102C80007985641775076CF44E855F851D861C86F3
:102C9000FC013696E491AE9E400D511D11245F87D4
:102CA0004E87EA88FB88088919894E855F856C857F
:102CB0007D85CE010E947013F4013496E4912C8935
:102CC0008C859D85E29F800D911D11248DCF6F9283
:102CD0007F928F929F92AF92BF92CF92DF92EF92AC
:102CE000FF920F931F93CF93DF93EC016B015A0177
:102CF00039014801E881F9810284F385E02D0995C5
:102D0000E881F9810288F389E02D87019301A5010B
:102D1000B601CE010995A501480D591D4150510933
:102D2000E881F9810288F389E02D9301B601CE0193
:102D30000995E881F9810088F189E02D9401A501C8
:102D4000B601CE010995C60CD71CB60161507109B8
:102D5000E881F9810088F189E02D9401A501CE0177
:102D60000995E881F9810688F789E02DCE01DF9188
:102D7000CF911F910F91FF90EF90DF90CF90BF9078
:102D8000AF909F908F907F906F9009946F927F92F9
:102D90008F929F92AF92BF92CF92DF92EF92FF926B
:102DA0000F931F93CF93DF935C01EB016A014901FD
:102DB00038018701DC01ED91FC916217730719F569
:102DC000641675062CF0962D872D3A01C92ED82E43
:102DD0009601261937092F5F3F4F048CF58DE02DA2
:102DE000A301BE01C5010995DF91CF911F910F91FC
:102DF000FF90EF90DF90CF90BF90AF909F908F901B
:102E00007F906F9008954615570591F42617370760
:102E100024F0892D4B01C22FD82F9E012819390982
:102E20002F5F3F4F068CF78DE02DA601B401DACF5E
:102E30000284F385E02D0995D501ED91FC9104887C
:102E4000F589E02D83019401A601BE01C501099514
:102E5000D501ED91FC910688F789E02DC501DF9140
:102E6000CF911F910F91FF90EF90DF90CF90BF9087
:102E7000AF909F908F907F906F900994EF92FF9208
:102E80000F931F93DC011A960D911C911B971896B6
:102E90002D913C911997ED91FC9100A0F1A1E02DAD
:102EA0007B0150E040E070E060E009951F910F91D8
:102EB000FF90EF9008954F925F926F927F928F9262
:102EC0009F92AF92BF92CF92DF92EF92FF920F93B9
:102ED0001F93CF93DF936C012B015A0139014801F5
:102EE000DC01ED91FC910284F385E02D0995E2016E
:102EF000640C751CD601ED91FC91C615D7055CF4E8
:102F00000088F189E02D87019401A501BE01C60169
:102F100009952196EFCF0688F789E02DC601DF914C
:102F2000CF911F910F91FF90EF90DF90CF90BF90C6
:102F3000AF909F908F907F906F905F904F9009948B
:102F40008F929F92AF92BF92CF92DF92EF92FF92B9
:102F50000F931F93CF93DF93EC015B014A0169014B
:102F6000E881F9810284F385E02D099595012C0D06
:102F70003D1D21503109E881F9810488F589E02D52
:102F800078018401A401B501CE010995E881F98198
:102F90000688F789E02DCE01DF91CF911F910F9127
:102FA000FF90EF90DF90CF90BF90AF909F908F9069
:102FB00009948F929F92AF92BF92CF92DF92EF923D
:102FC000FF920F931F93CF93DF93EC015B014A01B4
:102FD00069017801E881F9810284F385E02D099582
:102FE000C80CD91C860101501109E881F9810488B7
:102FF000F589E02D9501A401B501CE010995E8817F
:10300000F9810688F789E02DCE01DF91CF911F91DC
:103010000F91FF90EF90DF90CF90BF90AF909F9077
:103020008F900994EF92FF920F931F93DC01ED9123
:10303000FC9100A0F1A1E02D09951F910F91FF9047
:10304000EF9008950F931F93DC01ED91FC91068C96
:10305000F78DE02D09951F910F9108950F931F9300
:10306000DC01ED91FC91048CF58DE02D09951F910B
:103070000F9108952F923F924F925F926F927F929D
:103080008F929F92AF92BF92CF92DF92EF92FF9278
:103090000F931F93CF93DF93CDB7DEB72A970FB669
:1030A000F894DEBF0FBECDBF3C012B015A87498784
:1030B000180181E090E05C01A41AB50ACA0191955B
:1030C00081959109AC01440F551F5A834983C8016A
:1030D00001969C838B83F12CE12C88248394912C82
:1030E000922F91709D8322702E83AB014F5F5F4FB3
:1030F00058874F8389859A85E816F9060CF07CC0BD
:10310000C984DA84B7FC0CC06C0191E0C91AD108FB
:1031100049815A814E5F5F4F5A834983A40EB51E81
:103120005FEFE51AF50A82E0880E911CA80CB91C25
:10313000CE14DF0464F19D81992399F09601220F4A
:10314000331F4B815C81240F351F01E010E0A20189
:103150004C195D09B701660D771D8AE192E00E9466
:103160002E185E81552399F09601220F331F8B8113
:103170009C81280F391F01E010E0A2014C195D0964
:10318000B3016E197F098AE192E00E942E184985E9
:103190005A854C155D0569F15D81552399F09401BF
:1031A00022503109220D331D01E010E04F81588576
:1031B0004E195F0969857A85660D771D8AE192E06F
:1031C0000E942E188E818823A1F09401225031098B
:1031D000220D331DB30149855A85641B750B01E02F
:1031E00010E04F8158854E195F098AE192E00E94F4
:1031F0002E18DA86C9867ECF2A960FB6F894DEBFDF
:103200000FBECDBFDF91CF911F910F91FF90EF9037
:10321000DF90CF90BF90AF909F908F907F906F90F6
:103220005F904F903F902F900895DC01ED91FC91BD
:103230000084F185E02D09943F924F925F926F9246
:103240007F928F929F92AF92BF92CF92DF92EF9236
:10325000FF920F931F93CF93DF935C017B014A0191
:103260006901390187E0680E711C93E075946794D9
:103270009A95E1F72B01400E511E10E000E0312C31
:10328000D0E0C0E0CE0187709927330C892B59F428
:10329000FE0183E0F595E7958A95E1F7E00FF11FD0
:1032A000E80DF91D349037FE0AC021E030E0A70197
:1032B000B5016C0F7D1F8AE192E00E9415192196DD
:1032C000CC16DD06F9F68FEFE81AF80A060D171D81
:1032D000E414F504A9F6DF91CF911F910F91FF90AF
:1032E000EF90DF90CF90BF90AF909F908F907F90A6
:1032F0006F905F904F903F9008952F923F924F9222
:103300005F926F927F928F929F92AF92BF92CF9275
:10331000DF92EF92FF920F931F93CF93DF937C0185
:103320006B01EA0181E090E05C01A41AB50A662411
:103330007724641A750A660C771C10E000E0882474
:103340008394912C822F8470582E822F8270482E65
:10335000822F8870382E2170222E0C171D070CF03A
:1033600079C0B7FC06C0219782E0680E711CA60CDC
:10337000B71C0F5F1F4F82E0880E911CA80CB91C70
:103380005520C1F021E030E0AE014C0D5D1DB701CC
:10339000600F711F8AE192E00E94151921E030E070
:1033A000A601400F511FBE016E0D7F1D8AE192E004
:1033B0000E9415194420C1F021E030E0A6014C1B09
:1033C0005D0BB701600F711F8AE192E00E94151931
:1033D00021E030E0A601401B510BBE016E0D7F1DA8
:1033E0008AE192E00E9415193320C1F021E030E01B
:1033F000A601400F511FB7016C1B7D0B8AE192E0C3
:103400000E94151921E030E0AE014C0D5D1DB701A1
:10341000601B710B8AE192E00E941519222009F4C9
:103420009CCF21E030E0A601401B510BB7016C1B83
:103430007D0B8AE192E00E94151921E030E0A6019F
:103440004C1B5D0BB701601B710B8AE192E00E947F
:10345000151983CFDF91CF911F910F91FF90EF90BE
:10346000DF90CF90BF90AF909F908F907F906F90A4
:103470005F904F903F902F9008952F923F924F92E0
:103480005F926F927F928F929F92AF92BF92CF92F4
:10349000DF92EF92FF920F931F93CF93DF9300D0B1
:1034A00000D000D0CDB7DEB73C016A013E832D834A
:1034B000FC82EB825801A41AB50AB7FE03C0B1948E
:1034C000A194B1088D809E80861A970A97FE03C04A
:1034D0009194819491088A149B045CF0902F812F21
:1034E0000D811E819D838E839C2D8D2D6B01692FF7
:1034F000782F0C151D055CF09D818E817E836D8378
:10350000692F782F902F812F8601C92ED82E160172
:10351000201A310A2B012D813E81421A530A57FE8F
:1035200003C0519441945108710137FE03C03FEF2D
:10353000E31AF30AF594E7948D819E818617970725
:103540005CF5A1E0B0E0BA83A983C016D1064CF1C6
:10355000D301ED91FC910484F585E02D2B813C8114
:10356000A8016D817E818A149B041CF04D815E81CF
:10357000B801C3010995E418F508F7FE0AC02D81CA
:103580003E8189819A81280F391F3E832D83E20C69
:10359000F31C0F5F1F4FD9CF2FEF3FEF3A832983E3
:1035A000D4CF26960FB6F894DEBF0FBECDBFDF9105
:1035B000CF911F910F91FF90EF90DF90CF90BF9030
:1035C000AF909F908F907F906F905F904F903F90C3
:1035D0002F900895089590E080E0089520912002B2
:1035E00030912102C901079697FD079623E0959532
:1035F00087952A95E1F720911E0230911F02829F44
:10360000A001839F500D929F500D112470E060E047
:103610008091390290913A020C947727FC01019035
:103620000020E9F73197AF01481B590BBC018AE133
:1036300092E00C94B70D0E9472271F920F920FB662
:103640000F9211242F933F938F939F93AF93BF9328
:103650008091F6019091F701A091F801B091F901E4
:103660003091F50123E0230F2D3758F50196A11D68
:10367000B11D2093F5018093F6019093F701A0937B
:10368000F801B093F9018091FA019091FB01A091AA
:10369000FC01B091FD010196A11DB11D8093FA01BD
:1036A0009093FB01A093FC01B093FD01BF91AF91FA
:1036B0009F918F913F912F910F900FBE0F901F9070
:1036C000189526E8230F0296A11DB11DD2CF1F9297
:1036D0000F920FB60F9211242F933F934F935F9346
:1036E0006F937F938F939F93AF93BF93EF93FF93CA
:1036F0008091B900887F803609F44AC0F0F588329D
:1037000009F4A7C018F5803109F49BC0B8F48823E8
:1037100009F4F9C0883009F494C0FF91EF91BF918A
:10372000AF919F918F917F916F915F914F913F9159
:103730002F910F900FBE0F901F901895883109F4AC
:1037400088C0803251F78093D10114C0803409F4CD
:103750009DC040F48033B9F38833F9F68093D101EA
:1037600085ECB0C0803509F485C0883509F496C071
:10377000883499F60E94870ED0CF883909F48CC01E
:1037800038F5883729F050F4883611F0803729F65B
:1037900083E0809305021092D00157C0883809F465
:1037A0007BC0803919F0803809F0B7CF8091D00103
:1037B000803208F071C0E091D00181E08E0F8093DB
:1037C000D0018091BB00F0E0E055FE4F80833DC00A
:1037D000803B39F0E0F4803A09F479C0883A09F086
:1037E0009CCF84E0809305021092AF011092AE014D
:1037F000E0910102F091020209958091AE018111E0
:103800000FC081E08093AE0110928E0109C0803C10
:1038100009F4A6CF883C09F4A3CF883B09F07DCFFB
:10382000E091AF0181E08E0F8093AF01F0E0E257AD
:10383000FE4F80818093BB009091AF018091AE01DB
:1038400029C08091F4018093BB0085EC8093BC007B
:1038500064CF9091F3018091F201981758F5E091AF
:10386000F30181E08E0F8093F301F0E0EE52FE4F02
:103870008081E9CFE091F30181E08E0F8093F30125
:103880008091BB00F0E0EE52FE4F80839091F301F7
:103890008091F2019817C8F285E8D8CFE091F30142
:1038A00081E08E0F8093F3018091BB00F0E0EE5237
:1038B000FE4F80838091040281115CCF81E0809370
:1038C000030284EA8093BC001092050226CF85ECA7
:1038D0008093BC00109205028091D001803230F4B8
:1038E000E091D001F0E0E055FE4F10826091D001F0
:1038F00070E0E091FF01F091000280EB91E009950A
:103900001092D0010ACF1092D10134CFAEE0B2E0D4
:1039100013961C921E92129748EE53E060E070E0FE
:1039200014964D935D936D937C9317978AE091E085
:1039300011969C938E93EAE1F2E01382128220E8C2
:1039400030E03583248380E290E09783868331875B
:10395000208793878287168A15861486178616868F
:1039600081E0858B848B2FEF3FEF338B228B318B64
:10397000208B878B108E128E118E8CE191E09183BB
:103980008083148E138EB68FA58F10A2178E8FEFA3
:1039900084A385A386A387A380A780E585AB16AA09
:1039A0000895CF93DF93CDB7DEB7AB970FB6F894FA
:1039B000DEBF0FBECDBF789484B5826084BD84B570
:1039C000816084BD85B5826085BD85B5816085BD1A
:1039D00080916E00816080936E00109281008091D2
:1039E000810082608093810080918100816080935A
:1039F0008100809180008160809380008091B1007F
:103A000084608093B1008091B00081608093B000A9
:103A100080917A00846080937A0080917A0082603D
:103A200080937A0080917A00816080937A008091FF
:103A30007A00806880937A001092C10064E670E09A
:103A400080E090E00E94550E8091390290913A02F8
:103A5000892B11F10E94EE1A20912002309121024F
:103A600080911E0290911F02213231050CF05DC140
:103A7000B9016052710977FF02C06F5F7F4F759582
:103A800067958357910997FD019600E210E023E7BF
:103A900030E042EE55E15CC12091200230912102DC
:103AA000C901079697FD0796B3E095958795BA9556
:103AB000E1F720911E0230911F02AC01429FC0012C
:103AC000439F900D529F900D11240E944D2690937C
:103AD0003A0280933902892B09F0BCCF0E94EE1A7A
:103AE00081E090E090932D0280932C0290932B0222
:103AF00080932A0260E08AE192E00E945B131092B8
:103B0000310280913C021FE9813009F01FEC809165
:103B1000370290913802892B09F4EEC2609151026C
:103B20007091520280915302909154020E94B80EFB
:103B300061E88AE192E00E94B912612F8AE192E085
:103B40000E94B9128091370290913802892B09F4B2
:103B5000EAC260915502709156028091570290918D
:103B600058020E94B80E80910802909109020196B5
:103B7000873991050CF0E1C2909309028093080205
:103B80006091080270910902072E000C880B990BB6
:103B90000E94CB258E010E5D1F4F20E043E00E9466
:103BA0003D230E94EE1A8EE89AE1909334028093AE
:103BB000330291E090932E0290932F0210922702ED
:103BC00010922602AAE0B0E0B0932902A093280246
:103BD00084E491E00E940E1B8AE491E00E940E1B97
:103BE000EE24E394F12C04E110E022E330E048E21B
:103BF00050E068E270E08AE192E00E94C61608E2B6
:103C000010E02CE330E044E150E062E370E08AE150
:103C100092E00E94C61628E230E048E250E06CE3F1
:103C200070E08AE192E00E94C616412C512C3201CC
:103C3000BDE2EB2EF12CC301B20122E130E040E005
:103C400050E00E9428265901BFE0AB0EB11C662748
:103C50007727CB01641975098609970922E130E0BD
:103C600040E050E00E942826215F3F4FEFE04E1ACF
:103C70005108610871082A193B092F5F3F4F01E085
:103C800010E0A701B5018AE192E00E942218FFEF3F
:103C9000EF1AFF0A20E4E216F10469F6EE24E39439
:103CA000F12C0FE310E026E430E04FE350E068E24F
:103CB00070E08AE192E00E94C61621E030E048E31D
:103CC00050E06FE270E08AE192E00E94151921E075
:103CD00030E040E150E06FE270E08AE192E00E9463
:103CE000151921E030E044E250E063E470E08AE13D
:103CF00092E00E94151921E030E044E250E06BE1CF
:103D000070E08AE192E00E941519CC24C394D12C72
:103D1000F12CE12C04E110E028ED422E55245A94B8
:103D20003DEE232E33243A9416C2B9016054710932
:103D300077FF02C06F5F7F4F759567958255910938
:103D400097FD019600E410E022E530E042EC57E1F7
:103D5000959587950E941C1982E080933C02809182
:103D6000370290913802892B09F4C3C08CE3809309
:103D70003B02109207021092060210920B02109260
:103D80000A021092050281E080930402109203025D
:103D900061E082E10E94E40D61E083E10E94E40DB4
:103DA0008091B9008E7F8093B9008091B9008D7F9A
:103DB0008093B90088E48093B80085E48093BC00C8
:103DC00085EB9DE0909302028093010286EB9DE0DB
:103DD000909300028093FF018091420287FD1DC0F5
:103DE0000E94950D61E0809142020E94E40D61E025
:103DF00070E080E090E00E94550E60E08091420209
:103E00000E94E40D6AE070E080E090E00E94550EB0
:103E100061E0809142020E94E40D8091370290910E
:103E20003802892B09F41CC1609151027091520231
:103E300080915302909154020E94B80E64E08EED7E
:103E400095E10E940B126091200261508AE192E09C
:103E50000E94B91264E08AED95E10E940B128091F4
:103E60003C0260E1813009F064E18AE192E00E9465
:103E7000B91264E086ED95E10E940B1280911E025A
:103E800090911F028038910509F015C180912002A0
:103E9000909121028032910509F0F9C064E082ED31
:103EA00095E10E940B1269ED8AE192E00E94B9123D
:103EB00080913C0262E2813009F061EF8AE192E098
:103EC0000E94B91266E086EC95E10E940B12809187
:103ED000370290913802892B09F404C16091550290
:103EE0007091560280915702909158020E94B80E2C
:103EF000F5CD809140020E94950D809141020E9473
:103F0000950D80914002082E000C990BFC01E7559D
:103F1000F54EE491F0E0EE0FFF1FEB56F54E2591C4
:103F200034913093480220934702FC01E354F54E4C
:103F3000E491E0934D0280914102082E000C990B10
:103F4000FC01E755F54EE491F0E0EE0FFF1FEB5654
:103F5000F54EA591B491B0934A02A0934902FC0199
:103F6000E354F54EE491E0934E028C91E82BEC93F0
:103F70008091350290913602892B89F11FB7F89410
:103F80008091FE01811124C0E3EBFAE18491E7EC1A
:103F9000FAE19491E82FF0E0EE0FFF1FE156F54EA5
:103FA000A591B491EC91E92321F461E08AE00E94AB
:103FB000E40D8AE00E94950D8CB580618CBD8CB5B6
:103FC00080648CBD8DE00E94950D8BE00E94950D64
:103FD0008091FE018F5F8093FE011FBFFDCE809117
:103FE0003E020E94950D80913F020E94950D8091A6
:103FF0003E02082E000C990BFC01E755F54EE491AA
:10400000F0E0EE0FFF1FEB56F54E25913491309303
:10401000440220934302FC01E354F54EE491E09303
:104020004B0280913F02082E000C990BFC01E755D2
:10403000F54EE491F0E0EE0FFF1FEB56F54EA59123
:10404000B491B0934602A0934502FC01E354F54EAF
:10405000E491E0934C028C91E095E823EC93BCCE84
:104060008091350290913602892B31F080914F0278
:10407000909150020E941B13E0914902F0914A0274
:10408000908180914E02809589238083D7CE8034A1
:10409000910509F008CF63E08FEC95E10E940B12C7
:1040A00080913C026FE9813009F06FEC8AE192E087
:1040B0000E94B912F8CE8036910509F0F4CE8091B5
:1040C000200290912102409709F0EDCE63E08CEC44
:1040D00095E10E940B1280913C0260E1813031F346
:1040E0006FEAE4CFE0914902F0914A028081909119
:1040F0004E02892B8083F2CC80913502909136025A
:10410000892B31F080914F02909150020E941B1335
:10411000E0914902F0914A02908180914E0280958F
:104120008923808305CDE0914902F0914A02808184
:1041300090914E02892B808316CD10920902109225
:1041400008021ECD37FC07C00150110932E0430EB2
:10415000511C240C351C4FEFE41AF40A52E0C50E32
:10416000D11C2C0C3D1C37018FE2680E711C21E024
:1041700030E0580194E2A90EB11CA501B3018AE117
:1041800092E00E9415196FE2862E912C8E189F08DE
:1041900021E030E0A501B4018AE192E00E94151906
:1041A00021E030E074E2A72EB12CA01AB10AA501DB
:1041B000B3018AE192E00E94151921E030E0A501E7
:1041C000B4018AE192E00E9415195701A4E2AA0EF7
:1041D000B11C21E030E0A5014801BFE28B0E911C2B
:1041E000B4018AE192E00E94151921E030E0A501B6
:1041F000EFE2AE2EB12CA01AB10AB5018AE192E02D
:104200000E941519F4E26F2E712C6E187F0821E0C0
:1042100030E0A301B4018AE192E00E94151921E087
:1042200030E0A301B5018AE192E00E941519E01681
:10423000F1060CF487CF01E010E025E130E041E128
:1042400050E06CE070E08AE192E00E942E1810E0ED
:1042500000E023E04AE050E06BE170E08CE090E0A9
:104260000E943A18EE24E394F12C02E110E028E0D9
:1042700030E050E040E06FE370E08AE192E00E94BD
:10428000121807E010E021E045E050E065E070E042
:1042900086E490E00E943A1822E045E050E065E0B4
:1042A00070E08FE390E00E943A180BE110E021E308
:1042B00030E050E040E06FE470E08AE192E00E947C
:1042C0006716E7E8FAE1F0933402E093330223E55E
:1042D00030E0309327022093260284E190E090930F
:1042E0002902809328028090080290900902092CEC
:1042F000000CAA08BB08B7FE1AC16DE28AE192E081
:104300000E94951522273327A901281939094A093E
:104310005B0919A28E010F5D1F4FCA01B9012AE086
:1043200030E040E050E00E940626605DD8016E93C8
:104330008D01211531054105510579F7011511054B
:1043400019F0C8010E940E1B8AE491E00E940E1B26
:1043500001E010E021E230E045E250E067E570E086
:104360008AE192E00E94221821E230E04FE350E01F
:1043700067E570E08AE192E00E9422182BE030E0CD
:104380004DE250E06FE470E08AE192E00E942E1866
:104390002BE030E04DE250E06FE770E08AE192E020
:1043A0000E942E1821E048E050E06DE270E087E5C1
:1043B00090E00E947D1922E048E050E06DE270E05C
:1043C00087E790E00E947D1924E048E050E067E331
:1043D00070E087E790E00E947D1928E048E050E017
:1043E00067E370E087E590E00E947D1923E530E007
:1043F000309327022093260249E350E0509329028C
:1044000040932802CE0182960E940E1B8AE491E01E
:104410000E940E1B8091370290913802892B09F47B
:104420009EC060915102709152028091530290910E
:1044300054020E94B80E65E082E89AE10E940B12D5
:1044400060911E0261508AE192E00E94B9122091AF
:10445000200230912102C901079697FD079643E09B
:10446000959587954A95E1F720911E0230911F029C
:10447000829F7001839FF00C929FF00C1124009199
:10448000390210913A028091370290913802E00E81
:10449000F11E009709F495C020913B0251E0509322
:1044A0000D0220930C0210920B0210920A02DC0102
:1044B000ED91FC910190F081E02D60E40995BB2421
:1044C000B3948091370290913802E016F10609F416
:1044D0005DC0BFE1BB15D8F40E94500F8091370238
:1044E0009091380220913B02E1E0E0930D0220938D
:1044F0000C0210920B0210920A02DC01ED91FC9169
:104500000190F081E02D60E40995BB24B394809183
:10451000370290913802F80161918F01DC01ED9131
:10452000FC910190F081E02D0995B394CACFA501CB
:10453000940119A28E010F5D1F4FCA01B9012AE033
:1045400030E040E050E00E940626605DF801629392
:104550008F01211531054105510579F7EFCE809185
:10456000350290913602892B31F080914F02909163
:1045700050020E941B13E0914902F0914A0290817F
:1045800080914E0280958923808355CF0E94500FE1
:104590008091370290913802892B09F455C06091BF
:1045A00055027091560280915702909158020E94D4
:1045B000B80E20E030E0232B09F4D5CA0E94000099
:1045C000D2CAE0914702F0914802808190914D0259
:1045D000892B8083E016F106D9F2F80181918F01D1
:1045E0002091350230913602232B19F00E940412DB
:1045F000F1CF28E030E040E8E0914302F09144023E
:1046000090914B02582F5423D9F05081952B9083D1
:10461000E0914502F0914602908150914C02952B19
:104620009083E0914502F0914602508190914C02B6
:10463000909595239083469521503109E9F6CACF8C
:10464000508190959523E3CFE0914902F0914A0281
:10465000808190914E02892B8083ABCF8CE191E0D9
:1046600090931B0280931A028091390290913A0232
:10467000009711F00C94E9260895EF920F931F9381
:10468000CF93DF93E80134E047FD34E1042E000CC2
:10469000550B57FF03C0519541955109E32E022F49
:1046A000242FAE010E945B23CE01DF91CF911F9199
:1046B0000F91EF900895A9E0B0E0E1E6F3E20C94E9
:1046C00098256A01F22EB02E102FFBE3AF2EA01614
:1046D00008F41BE31F5F012F27E0AE014F5F5F4F20
:1046E0000E94BA24BC018981982F9970913009F4F5
:1046F0003FC09BE2E1FC04C09E2D9170E0FC3AC0FB
:104700005E2D5071E82FE87083FF46C084E0911160
:1047100001C083E0EF2DE81B8F1508F0E0E0D60123
:104720008E2F20E2552351F1992329F0D6019C9335
:10473000C60101966C0196012D5F3F4FE2FE24C039
:104740008EE4D6018C9391E411969C931197129666
:104750008C93D9018E2F90E281111BC0E20FF32FB1
:10476000F11D10828EEF9FEF2996ECE00C94B4259A
:104770009DE2C6CF90E2C4CF2D9381508111FCCF32
:10478000CE0ED11CE0E0D0CF8EE6D6018C9391E620
:10479000DBCF9D938150E0CF482F447082FF3DC016
:1047A00084E0911101C083E08F1510F4EF2DE81B18
:1047B000D6018E2F20E2552309F1992329F0D60145
:1047C0009C93C60101966C0196012D5F3F4FE2FE5E
:1047D0001BC089E4D6018C938EE411968C931197BB
:1047E00086E412968C93D9018E2F90E2882309F4E7
:1047F000B5CF9D938150FACF2D9381508111FCCF7D
:10480000CE0ED11CE0E0D9CF89E6D6018C938EE69E
:1048100011968C93119786E6E4CF9B0177FF02C037
:1048200030E020E0A1E0B0E0911102C0B0E0A0E0F3
:10483000F9013196AE0FBF1F8B2C912CBB2009F4D0
:1048400061C05401EFEFAE1ABE0AAA0DBB1DFA16E5
:104850001B0619F014F04F2D4A1B511188C0E3FCC0
:1048600059C07601A42FB0E2A1114FC0C40ED11CD3
:10487000992309F45BC040E0D6011196F6019083BC
:104880006D01552309F448C0012F060F9A81582F56
:10489000507184FF03C0913309F4015010160CF0DD
:1048A00047C0093008F008E0EEE2FE2E5B01A01AD6
:1048B000B10885019194819491082F3F320729F422
:1048C000D601FC92F60131966F016217730794F1DD
:1048D000021713077CF5DB01A21BB30BAA24A394D8
:1048E000B12CAC0EBD1EAA0DBB1D11968C91215092
:1048F0003109D601119628153905F4F0F6018083A7
:104900006D01DBCFB12CA12CA0CFF701B1937F01BA
:10491000A150AACF9111B0CFD601942F50E302C07D
:104920005D9391509111FCCFC40ED11C40E0ACCFEF
:1049300001E0BACF80E3DBCF6217730731F496331F
:1049400088F4953311F4552369F0F6018083FD0155
:10495000842F90E2811108C0A40FB11D1C9290E039
:1049600080E002CF81E3F1CF91938150F3CF911199
:1049700083CF8ACF283008F027E03327DA01990F58
:10498000311D87FD916000966105710539F4326033
:104990002E5F3D9330E32A95E1F708959F3F30F075
:1049A00080387105610509F03C5F3C5F3D939130B3
:1049B00008F08068911DDF93CF931F930F93FF92B0
:1049C000EF92192F987F9695E92F96959695E90F76
:1049D000FF27EE53FF4F99273327EE24FF24A7012B
:1049E000E70105900894079428F4360FE71EF81E97
:1049F000491F511D660F771F881F991F0694A1F745
:104A00000590079428F4E70EF81E491F561FC11D94
:104A1000770F881F991F661F0694A1F705900794CA
:104A200028F4F80E491F561FC71FD11D880F991F64
:104A3000661F771F0694A1F70590079420F4490F8D
:104A4000561FC71FD81F990F661F771F881F069410
:104A5000A9F784911095177041F0D695C795579591
:104A60004795F794E7941A95C1F7E8E6F0E0689463
:104A70001590159135916591959105907FE273950B
:104A8000E118F10A430B560BC90BD009C0F7E10C32
:104A9000F11E431F561FC91FD01D7EF4703311F441
:104AA0008A95E6CFE894015030F0080F0AF4002709
:104AB000021708F4202F2395022F7A3328F079E388
:104AC0007D932A95E9F710C07D932A9589F606947F
:104AD00097956795379517951794E118F10A430B49
:104AE000560BC90BD00998F023957E9173957A33B4
:104AF00008F070E37C932013B8F77E9170617D938A
:104B000030F0839571E37D9370E32A95E1F71124EA
:104B1000EF90FF900F911F91CF91DF91992787FD23
:104B2000909508952F923F924F925F926F927F924D
:104B30008F929F92AF92BF92CF92DF92EF92FF92AD
:104B40000F931F93CF93DF93CDB7DEB7CA1BDB0B59
:104B50000FB6F894DEBF0FBECDBF09942A883988FE
:104B600048885F846E847D848C849B84AA84B98405
:104B7000C884DF80EE80FD800C811B81AA81B98111
:104B8000CE0FD11D0FB6F894DEBF0FBECDBFED0125
:104B90000895E89409C097FB3EF490958095709530
:104BA00061957F4F8F4F9F4F9923A9F0F92F96E979
:104BB000BB279395F695879577956795B795F111EE
:104BC000F8CFFAF4BB0F11F460FF1BC06F5F7F4F8B
:104BD0008F4F9F4F16C0882311F096E911C077239D
:104BE00021F09EE8872F762F05C0662371F096E8A6
:104BF000862F70E060E02AF09A95660F771F881F75
:104C0000DAF7880F9695879597F90895A1E21A2EFD
:104C1000AA1BBB1BFD010DC0AA1FBB1FEE1FFF1F60
:104C2000A217B307E407F50720F0A21BB30BE40BB0
:104C3000F50B661F771F881F991F1A9469F76095F7
:104C40007095809590959B01AC01BD01CF010895B1
:104C5000052E97FB1EF400940E943F2657FD07D0B7
:104C60000E94062607FC03D04EF40C943F26509574
:104C70004095309521953F4F4F4F5F4F0895909548
:104C80008095709561957F4F8F4F9F4F0895EE0FE0
:104C9000FF1F0590F491E02D09940F931F93CF937C
:104CA000DF938230910510F482E090E0E0915B02A6
:104CB000F0915C0230E020E0B0E0A0E0309799F4A1
:104CC0002115310509F44AC0281B390B2430310560
:104CD000D8F58A819B816115710589F1FB01938368
:104CE0008283FE0111C040815181028113814817E6
:104CF0005907E0F04817590799F4109761F0129698
:104D00000C93129713961C933296CF01DF91CF919B
:104D10001F910F91089500935B0210935C02F4CFF2
:104D20002115310551F04217530738F0A901DB0175
:104D30009A01BD01DF01F801C1CFEF01F9CF9093D6
:104D40005C0280935B02CDCFFE01E20FF31F8193E3
:104D500091932250310939832883D7CF209159026A
:104D600030915A02232B41F420910201309103012A
:104D700030935A0220935902209100013091010191
:104D80002115310541F42DB73EB7409104015091F2
:104D90000501241B350BE0915902F0915A02E217EC
:104DA000F307A0F42E1B3F0B2817390778F0AC014E
:104DB0004E5F5F4F2417350748F04E0F5F1F50932B
:104DC0005A0240935902819391939FCFF0E0E0E023
:104DD0009CCFCF93DF930097E9F0FC0132971382C9
:104DE0001282A0915B02B0915C02ED0130E020E004
:104DF0001097A1F420813181820F931F20915902D5
:104E000030915A022817390709F061C0F0935A020D
:104E1000E0935902DF91CF910895EA01CE17DF07A1
:104E2000E8F54A815B819E0141155105B1F7E90121
:104E3000FB83EA8349915991C40FD51FEC17FD07F5
:104E400061F4808191810296840F951FE901998315
:104E50008883828193819B838A83F0E0E0E01296CD
:104E60008D919C9113970097B9F52D913C911197D5
:104E7000CD010296820F931F2091590230915A0260
:104E80002817390739F6309751F510925C021092C5
:104E90005B02B0935A02A0935902BCCFD383C28362
:104EA00040815181840F951FC817D90761F44E5F67
:104EB0005F4F88819981480F591F518340838A81B0
:104EC0009B81938382832115310509F0B0CFF09344
:104ED0005C02E0935B029ECFFD01DC01C0CF138238
:104EE0001282D7CF81E090E0F8940C947E27DC0109
:104EF00001C06D9341505040E0F708951DE0CAE6AF
:104F0000DDE004C0FE010E9447262196CB36D10782
:064F1000C9F7F894FFCF81
:104F160000005D02800000000000210FF40EEB1A75
:104F2600B40DED0EDA0ECB0E000000009515B70D90
:104F3600EB1AEA1A5411B40D151912182E18221864
:104F46003D1AB40D5B131E13C4100D115B173E17EB
:0E4F5600C616671648656C6C6F000D0A0000E9
:00000001FF
