:100000000C9494000C94BC000C94BC000C94BC00A8
:100010000C94BC000C94BC000C94BC000C94BC0070
:100020000C94BC000C94BC000C94BC000C94BC0060
:100030000C94BC000C94BC000C94BC000C94BC0050
:100040000C9498020C94BC000C9466020C94400230
:100050000C94BC000C94BC000C94BC000C94BC0030
:100060000C94BC000C94BC0007634236B79BD8A725
:100070001A39685618AEBAAB558C1D3CB7CC5763CD
:10008000BD6DEDFD753EF6177231BF000000803F7B
:1000900008000000BE922449123EABAAAA2ABECD97
:1000A000CCCC4C3E00000080BEABAAAAAA3E000009
:1000B0000000BF000000803F000000000008417801
:1000C000D3BB4387D1133D190E3CC3BD4282AD2B38
:1000D0003E68EC8276BED98FE1A93E4C80EFFFBE30
:1000E00001C4FF7F3F000000000000000000250069
:1000F00028002B0000000000240027002A00040430
:1001000004040404040402020202020203030303BF
:10011000030301020408102040800102040810209B
:10012000010204081020E20211241FBECFEFD8E024
:10013000DEBFCDBF11E0A0E0B1E0E6E7F0E102C034
:1001400005900D92AE32B107D9F721E0AEE2B1E0F1
:1001500001C01D92A83DB207E1F710E0C4E9D0E06C
:1001600004C02197FE010E942E08C339D107C9F7A8
:100170000E940F030C9439080C940000CF92DF9278
:10018000EF92FF920F931F93CF93DF936C017A014D
:100190008B01C0E0D0E0CE15DF0589F0D8016D916C
:1001A0008D01D601ED91FC910190F081E02DC60109
:1001B0000995892B11F47E0102C02196ECCFC7016D
:1001C000DF91CF911F910F91FF90EF90DF90CF9033
:1001D0000895089580E090E00895FC01538D448DCA
:1001E000252F30E0842F90E0821B930B541710F0E2
:1001F000CF96089501970895FC01918D828D9817EF
:1002000061F0828DDF01A80FB11D5D968C91928DFA
:100210009F5F9F73928F90E008958FEF9FEF0895F7
:10022000FC01918D828D981731F0828DE80FF11DC0
:10023000858D90E008958FEF9FEF0895FC01918DDB
:10024000228D892F90E0805C9F4F821B91098F73D4
:100250009927089589E391E00E941E0121E0892BEE
:1002600009F420E0822F0895FC01848DDF01A80F9E
:10027000B11DA35ABF4F2C91848D90E001968F73CE
:100280009927848FA689B7892C93A089B1898C91ED
:1002900080648C93938D848D981306C00288F389B3
:1002A000E02D80818F7D80830895EF92FF920F93E0
:1002B0001F93CF93DF93EC0181E0888F9B8D8C8D12
:1002C000981305C0E889F989808185FD24C0F62E40
:1002D0000B8D10E00F5F1F4F0F731127E02E8C8DD9
:1002E000E8120CC00FB607FCFACFE889F9898081C3
:1002F00085FFF5CFCE010E943401F1CF8B8DFE0139
:10030000E80FF11DE35AFF4FF0820B8FEA89FB895A
:100310008081806207C0EE89FF896083E889F9895E
:1003200080818064808381E090E0DF91CF911F9194
:100330000F91FF90EF900895CF93DF93EC01888D9C
:100340008823C9F0EA89FB89808185FD05C0A889D9
:10035000B9898C9186FD0FC00FB607FCF5CF80815F
:1003600085FFF2CFA889B9898C9185FFEDCFCE01A9
:100370000E943401E7CFDF91CF91089580E090E0B3
:10038000892B29F00E942A0181110C940000089504
:100390003FB7F8948091330190913401A0913501D9
:1003A000B091360126B5A89B05C02F3F19F00196E4
:1003B000A11DB11D3FBFBA2FA92F982F8827820FEB
:1003C000911DA11DB11DBC01CD0142E0660F771F3B
:1003D000881F991F4A95D1F708958F929F92AF92E7
:1003E000BF920F931F93CF93DF93CDB7DEB7A19743
:1003F0000FB6F894DEBF0FBECDBF19A2423008F48D
:100400004AE08E010F5D1F4F842E912CA12CB12C40
:10041000A50194010E940C08E62FB901CA01015000
:100420001109EA3014F4E05D01C0E95CD801EC93F5
:10043000232B242B252B61F70115110571F0F801F1
:1004400001900020E9F73197AF01401B510BB80133
:1004500089E391E00E94BE0002C080E090E0A19696
:100460000FB6F894DEBF0FBECDBFDF91CF911F91C5
:100470000F91BF90AF909F908F9008950E94340885
:100480001F920F920FB60F9211242F933F934F9309
:100490005F936F937F938F939F93AF93BF93EF93EC
:1004A000FF9389E391E00E943401FF91EF91BF91A6
:1004B000AF919F918F917F916F915F914F913F91FC
:1004C0002F910F900FBE0F901F9018951F920F92B3
:1004D0000FB60F9211242F938F939F93EF93FF9357
:1004E000E0914901F0914A018081E0914F01F09142
:1004F000500182FD12C09081809152018F5F8F73F5
:1005000020915301821751F0E0915201F0E0E75C35
:10051000FE4F958F8093520101C08081FF91EF9132
:100520009F918F912F910F900FBE0F901F90189554
:100530001F920F920FB60F9211242F933F938F9318
:100540009F93AF93BF9380912F0190913001A09121
:100550003101B091320130912E0123E0230F2D376C
:1005600020F40196A11DB11D05C026E8230F0296B7
:10057000A11DB11D20932E0180932F019093300176
:10058000A0933101B09332018091330190913401F5
:10059000A0913501B09136010196A11DB11D809346
:1005A000330190933401A0933501B0933601BF918C
:1005B000AF919F918F913F912F910F900FBE0F9010
:1005C0001F901895E9E3F1E01382128288EE93E020
:1005D000A0E0B0E084839583A683B78384E091E0B4
:1005E0009183808385EC90E09587848784EC90E00C
:1005F0009787868780EC90E0918B808B81EC90E0F0
:10060000938B828B82EC90E0958B848B86EC90E0D0
:10061000978B868B118E128E138E148E089578947C
:1006200084B5826084BD84B5816084BD85B58260F7
:1006300085BD85B5816085BD80916E0081608093A8
:100640006E00109281008091810082608093810011
:100650008091810081608093810080918000816021
:10066000809380008091B10084608093B10080917C
:10067000B00081608093B00080917A0084608093A4
:100680007A0080917A00826080937A0080917A006B
:10069000816080937A0080917A00806880937A00EC
:1006A0001092C100E0914901F0914A0182E08083FB
:1006B000E0914501F09146011082E0914701F091EF
:1006C00048018FEC808310925101E0914D01F0912F
:1006D0004E0186E08083E0914B01F0914C018081D6
:1006E00080618083E0914B01F0914C0180818860B2
:1006F0008083E0914B01F0914C0180818068808380
:10070000E0914B01F0914C0180818F7D8083E0E28C
:10071000F1E02491ECE0F1E084918823C1F090E0D5
:10072000880F991FFC01EC50FF4FC591D491FC013B
:10073000E651FF4FA591B4919FB7F8948881E22FBD
:10074000E0958E2388838C91E823EC939FBF8EE005
:1007500090E09093D7018093D6018091D6018E309E
:1007600008F08E508770806480937C0080917A00BE
:10077000806480937A0080917A0086FDFCCF60913E
:1007800078008091790070E0782B072E000C880BA0
:10079000990B0E94F30429E23CE54FE65FEB0E94CF
:1007A000F10522E538E646E256E40E94840520E0A1
:1007B00030E040E251E40E944E046B017C0120E0F5
:1007C00030E0A9010E947F0520E030E040E05FE3D7
:1007D00087FD05C0C701B6010E944F0404C0C701D0
:1007E000B6010E944E040E94BB04709338016093CE
:1007F00037014AE150E062E171E089E391E00E9453
:10080000BE00C0903701D09038010D2C000CEE08CE
:10081000FF08F7FE14C0E0913901F0913A01019010
:10082000F081E02D6DE289E391E009956627772755
:10083000CB016C197D098E099F094AE003C04AE08B
:10084000C701B6010E94ED010E94C8014B015C0185
:1008500084EFC82EDD24D394E12CF12C0E94C80132
:10086000DC01CB0188199909AA09BB09883E93408C
:10087000A105B10558F021E0C21AD108E108F1083C
:1008800088EE880E83E0981EA11CB11CC114D1040F
:10089000E104F10419F70E94BE015FCF5058BB2755
:1008A000AA270E9466040C9445050E94370538F07B
:1008B0000E943E0520F039F49F3F19F426F40C9471
:1008C00034050EF4E095E7FB0C942E05E92F0E9409
:1008D000560558F3BA17620773078407950720F087
:1008E00079F4A6F50C9478050EF4E0950B2EBA2F4A
:1008F000A02D0B01B90190010C01CA01A001112426
:10090000FF27591B99F0593F50F4503E68F11A16D1
:10091000F040A22F232F342F4427585FF3CF469562
:1009200037952795A795F0405395C9F77EF41F1684
:10093000BA0B620B730B840BBAF09150A1F0FF0F4E
:10094000BB1F661F771F881FC2F70EC0BA0F621F3A
:10095000731F841F48F4879577956795B795F7952A
:100960009E3F08F0B0CF9395880F08F09927EE0FBF
:100970009795879508950E94C2046894B1110C94CC
:10098000790508950E945E0588F09F5798F0B92F69
:100990009927B751B0F0E1F0660F771F881F991FB4
:1009A0001AF0BA95C9F714C0B13091F00E947805D9
:1009B000B1E008950C947805672F782F8827B85FE9
:1009C00039F0B93FCCF3869577956795B395D9F70C
:1009D0003EF490958095709561957F4F8F4F9F4F16
:1009E0000895E89409C097FB3EF490958095709522
:1009F00061957F4F8F4F9F4F9923A9F0F92F96E96B
:100A0000BB279395F695879577956795B795F111DF
:100A1000F8CFFAF4BB0F11F460FF1BC06F5F7F4F7C
:100A20008F4F9F4F16C0882311F096E911C077238E
:100A300021F09EE8872F762F05C0662371F096E897
:100A4000862F70E060E02AF09A95660F771F881F66
:100A5000DAF7880F9695879597F9089597F99F6724
:100A600080E870E060E008959FEF80EC0895002436
:100A70000A941616170618060906089500240A9403
:100A800012161306140605060895092E0394000C89
:100A900011F4882352F0BB0F40F4BF2B11F460FF18
:100AA00004C06F5F7F4F8F4F9F4F089557FD905841
:100AB000440F551F59F05F3F71F04795880F97FB22
:100AC000991F61F09F3F79F08795089512161306DC
:100AD0001406551FF2CF4695F1DF08C0161617060B
:100AE0001806991FF1CF8695710561050894089540
:100AF000E894BB2766277727CB0197F908950E94D2
:100B00007B0608F48FEF08950E9497050C94450525
:100B10000E94370538F00E943E0520F0952311F021
:100B20000C942E050C94340511240C9479050E9424
:100B3000560570F3959FC1F3950F50E0551F629FC6
:100B4000F001729FBB27F00DB11D639FAA27F00D26
:100B5000B11DAA1F649F6627B00DA11D661F829F4D
:100B60002227B00DA11D621F739FB00DA11D621F32
:100B7000839FA00D611D221F749F3327A00D611D4F
:100B8000231F849F600D211D822F762F6A2F112431
:100B90009F5750409AF0F1F088234AF0EE0FFF1F64
:100BA000BB1F661F771F881F91505040A9F79E3FBB
:100BB000510580F00C942E050C9479055F3FE4F309
:100BC000983ED4F3869577956795B795F795E79511
:100BD0009F5FC1F7FE2B880F911D9695879597F91A
:100BE0000895FA01EE0FFF1F309621053105A1F19E
:100BF0006115710561F48038BFE39B0749F1689482
:100C00009038810561F08038BFEF9B0741F0992350
:100C10004AF5FF3FE1053105210519F1E8940894F3
:100C2000E795D901AA2329F4AB2FBE2FF85FD0F3A3
:100C300010C0FF5F70F4A695E0F7F73950F019F097
:100C4000FF3A38F49F779F930DD00F9007FC905890
:100C5000089546F00C94340560E070E080E89FE36E
:100C600008954FE79F775F934F933F932F930E9491
:100C700010072F913F914F915F910E9484050C9432
:100C8000490629F416F00C942E050C9478050C9462
:100C900034050E945E05A8F39638A0F707F80F9276
:100CA000E8942BE33AEA48EB5FE70E949A050F923B
:100CB0000F920F924DB75EB70F920E945807E8E669
:100CC000F0E00E949F064F915F91EF91FF91E595B3
:100CD000EE1FFF1F49F0FE57E0684427EE0F441F48
:100CE000FA95E1F74195550B0E94D2060F9007FE49
:100CF0000C94C6060895990F0008550FAA0BE0E85A
:100D0000FEEF16161706E807F907C0F012161306CD
:100D1000E407F50798F0621B730B840B950B39F40D
:100D20000A2661F0232B242B252B21F408950A2673
:100D300009F4A140A6958FEF811D811D0895DF93D1
:100D4000CF931F930F93FF92EF92DF927B018C0161
:100D5000689406C0DA2EEF010E949705FE01E89420
:100D6000A5912591359145915591A6F3EF010E94EA
:100D70006604FE019701A801DA9469F7DF90EF900D
:100D8000FF900F911F91CF91DF9108959B01AC01CE
:100D900060E070E080E89FE30C948C070C942E05D3
:100DA0000C94FE070E945E05D8F39923C9F3940FB3
:100DB000511DA3F39150504094F059F0882332F024
:100DC000660F771F881F91505040C1F79E3F510515
:100DD0002CF7880F911D9695879597F908955F3F99
:100DE000ACF0983E9CF0BB27869577956795B795B4
:100DF00008F4B1609395C1F7BB0F58F711F460FF89
:100E0000E8CF6F5F7F4F8F4F9F4FE3CF0C947905F3
:100E100016F00C94FE070C94340568940C942E057F
:100E20000E945E05A8F39923C1F3AEF3DF93CF933D
:100E30001F930F93FF92C92FDD2788232AF0219754
:100E4000660F771F881FDAF720E030E040E85FEB9D
:100E50009FE3883920F0803E38F021968F770E94FA
:100E60004F04E0E9F0E004C00E944F04EDEBF0E035
:100E70000E949F068B01BE01EC01FB2E6F5771098A
:100E80007595771F880B990B0E94F30428E132E7D0
:100E900041E35FE30E949705AF2D9801AE01FF90FB
:100EA0000F911F91CF91DF910E9466040C9445052C
:100EB000FA01DC01AA0FBB1F9B01AC01BF5728F44C
:100EC000222733274427507820C0B75190F4AB2F06
:100ED0000024469537952795011CA395D2F3002051
:100EE00071F0220F331F441FB395DAF30ED00C9428
:100EF0004E0461307105A0E88A07B94630F49B01C1
:100F0000AC016627772788279078309621F02083D8
:100F100031834283538308950E94A0070C944505B2
:100F20000E943E0558F00E94370540F029F45F3FCB
:100F300029F00C942E0551110C9479050C9434056C
:100F40000E94560568F39923B1F3552391F3951B3D
:100F5000550BBB27AA2762177307840738F09F5FDA
:100F60005F4F220F331F441FAA1FA9F335D00E2E47
:100F70003AF0E0E832D091505040E695001CCAF7B4
:100F80002BD0FE2F29D0660F771F881FBB1F261777
:100F900037074807AB07B0E809F0BB0B802DBF014E
:100FA000FF2793585F4F3AF09E3F510578F00C941D
:100FB0002E050C9479055F3FE4F3983ED4F38695B3
:100FC00077956795B795F7959F5FC9F7880F911D3E
:100FD0009695879597F90895E1E0660F771F881F2A
:100FE000BB1F621773078407BA0720F0621B730BDD
:100FF000840BBA0BEE1F88F7E09508959F3F31F000
:10100000915020F4879577956795B795880F911D36
:101010009695879597F90895A1E21A2EAA1BBB1BF6
:10102000FD010DC0AA1FBB1FEE1FFF1FA217B307B4
:10103000E407F50720F0A21BB30BE40BF50B661FCA
:10104000771F881F991F1A9469F76095709580958E
:1010500090959B01AC01BD01CF010895EE0FFF1FDC
:101060000590F491E02D099481E090E0F8940C94BF
:061070003908F894FFCFDF
:10107600000000005501BE00ED009C011E01FC00B1
:1010860010010A44697374616E636520696E20639A
:0E109600656E74696D65746572733A200000B2
:107E0000112484B714BE81FFF0D085E080938100F7
:107E100082E08093C00088E18093C10086E0809377
:107E2000C20080E18093C4008EE0C9D0259A86E02C
:107E300020E33CEF91E0309385002093840096BBD3
:107E4000B09BFECF1D9AA8958150A9F7CC24DD24C4
:107E500088248394B5E0AB2EA1E19A2EF3E0BF2EE7
:107E6000A2D0813461F49FD0082FAFD0023811F036
:107E7000013811F484E001C083E08DD089C08234E0
:107E800011F484E103C0853419F485E0A6D080C0E4
:107E9000853579F488D0E82EFF2485D0082F10E0AE
:107EA000102F00270E291F29000F111F8ED06801E7
:107EB0006FC0863521F484E090D080E0DECF843638
:107EC00009F040C070D06FD0082F6DD080E0C81688
:107ED00080E7D80618F4F601B7BEE895C0E0D1E017
:107EE00062D089930C17E1F7F0E0CF16F0E7DF06D8
:107EF00018F0F601B7BEE89568D007B600FCFDCFD4
:107F0000A601A0E0B1E02C9130E011968C91119780
:107F100090E0982F8827822B932B1296FA010C0160
:107F200087BEE89511244E5F5F4FF1E0A038BF0790
:107F300051F7F601A7BEE89507B600FCFDCF97BE46
:107F4000E89526C08437B1F42ED02DD0F82E2BD052
:107F50003CD0F601EF2C8F010F5F1F4F84911BD097
:107F6000EA94F801C1F70894C11CD11CFA94CF0C13
:107F7000D11C0EC0853739F428D08EE10CD085E9AC
:107F80000AD08FE07ACF813511F488E018D01DD067
:107F900080E101D065CF982F8091C00085FFFCCF94
:107FA0009093C60008958091C00087FFFCCF809118
:107FB000C00084FD01C0A8958091C6000895E0E648
:107FC000F0E098E1908380830895EDDF803219F02E
:107FD00088E0F5DFFFCF84E1DECF1F93182FE3DFCA
:107FE0001150E9F7F2DF1F91089580E0E8DFEE27F6
:047FF000FF270994CA
:027FFE00040479
:0400000300007E007B
:00000001FF
