:020000040000FA
:100000000C9458000C9480000C9480000C94800098
:100010000C9480000C9480000C9480000C94800060
:100020000C9480000C9480000C9480000C94800050
:100030000C9480000C9480000C9480000C94800040
:100040000C9462080C9480000C9430080C940A08FC
:100050000C9480000C9480000C9480000C94800020
:100060000C94AC080C9480000000000025002800CF
:100070002B00040404040404040402020202020229
:10008000030303030303010204081020408001025C
:1000900004081020010204081020000000080002DB
:1000A0000100000304070000000000000000CB096D
:1000B00011241FBECFEFD8E0DEBFCDBF13E0A0E01C
:1000C000B1E0E4E7FAE102C005900D92AE36B10767
:1000D000D9F725E0AEE6B3E001C01D92A034B20727
:1000E000E1F710E0C8E5D0E004C02197FE010E94CE
:1000F000250DC735D107C9F70E94160A0C94380D93
:100100000C940000AF92BF92CF92DF92EF92FF92D9
:100110000F931F93CF93DF936C017B018B01040F2F
:10012000151FEB015E01AE18BF08C017D10759F0CB
:100130006991D601ED91FC910190F081E02DC6010D
:100140000995892B79F7C501DF91CF911F910F9107
:10015000FF90EF90DF90CF90BF90AF900895FC019B
:10016000538D448D252F30E0842F90E0821B930B1C
:10017000541710F0CF96089501970895FC01918DC2
:10018000828D981761F0A28DAE0FBF2FB11D5D96C5
:100190008C91928D9F5F9F73928F90E008958FEF67
:1001A0009FEF0895FC01918D828D981731F0828D1B
:1001B000E80FF11D858D90E008958FEF9FEF089572
:1001C000FC01918D228D892F90E0805C9F4F821BD6
:1001D00091098F739927089581E394E00E94E000CC
:1001E00021E0892B09F420E0822F089580E090E03F
:1001F000892B29F00E94EC0081110C9400000895D5
:10020000FC01A48DA80FB92FB11DA35ABF4F2C918B
:10021000848D90E001968F739927848FA689B78982
:100220002C93A089B1898C91837080648C93938D79
:10023000848D981306C00288F389E02D80818F7D1C
:1002400080830895EF92FF920F931F93CF93DF93D4
:10025000EC0181E0888F9B8D8C8D98131AC0E88902
:10026000F989808185FF15C09FB7F894EE89FF89D1
:100270006083E889F98980818370806480839FBF6F
:1002800081E090E0DF91CF911F910F91FF90EF906F
:100290000895F62E0B8D10E00F5F1F4F0F7311277F
:1002A000E02E8C8D8E110CC00FB607FCFACFE889BA
:1002B000F989808185FFF5CFCE010E940001F1CF41
:1002C000EB8DEC0FFD2FF11DE35AFF4FF0829FB72E
:1002D000F8940B8FEA89FB8980818062CFCF682FE9
:1002E00081E394E00C942201CF93DF93EC01888D9D
:1002F0008823B9F0AA89BB89E889F9898C9185FDA1
:1003000003C0808186FD0DC00FB607FCF7CF8C912E
:1003100085FFF2CF808185FFEDCFCE010E940001E5
:10032000E9CFDF91CF91089590E0FC01E656FF4FB1
:100330002491FC01EA57FF4F3491FC01EE58FF4F26
:10034000E491EE23C9F0222339F0233001F1A8F41F
:10035000213019F1223029F1F0E0EE0FFF1FE859AA
:10036000FF4FA591B4918FB7F894EC91611126C01D
:1003700030953E233C938FBF08952730A9F0283055
:10038000C9F0243049F7809180008F7D03C08091AF
:1003900080008F7780938000DFCF84B58F7784BD16
:1003A000DBCF84B58F7DFBCF8091B0008F778093BA
:1003B000B000D2CF8091B0008F7DF9CF3E2BDACF45
:1003C0003FB7F8948091E1039091E203A091E30399
:1003D000B091E40326B5A89B05C02F3F19F0019604
:1003E000A11DB11D3FBFBA2FA92F982F8827BC018F
:1003F000CD01620F711D811D911D42E0660F771FB7
:10040000881F991F4A95D1F708958F929F92AF92B6
:10041000BF92CF92DF92EF92FF924B015C010E945C
:10042000E0016B017C010E94E0016C197D098E09DD
:100430009F09683E734081059105A8F321E0821A67
:100440009108A108B10888EEC80E83E0D81EE11C0F
:10045000F11C81149104A104B10429F7FF90EF90DD
:10046000DF90CF90BF90AF909F908F900895DC0168
:10047000ED91FC910284F385E02D09950895DC014E
:10048000ED91FC910190F081E02D0995089564EFC4
:1004900071E080E090E00C940502089508952091A9
:1004A000AF03260F3327331F21323105ECF420919F
:1004B0002B04FC0190E080E0243069F082E0089594
:1004C000A091AF032191AC0141575C4FA40FB52F10
:1004D000B11D2C930196861798F38091AF03680F96
:1004E0006093AF0380E0089581E0089510922B049B
:1004F00081E080930A041092050461E082E10E9489
:10050000940161E083E10E949401E9EBF0E08081D5
:100510008E7F808380818D7F808388E48093B80084
:1005200085E48093BC0008951092DB031092DA03F7
:100530001092D7031092D6030E9476028DE492E0C7
:100540009093D5038093D4038EE492E09093D303E9
:100550008093D2030895CF93DF9391E090938E031D
:100560008823B9F0C091B800D091BA008091BC0046
:100570008A7B8093BC0060E082E10E94940160E08D
:1005800083E10E9494010E947602D093BA00C09346
:10059000B800DF91CF910895CF92DF92EF92FF9252
:1005A0000F931F93CF93DF93D82FC62F613208F09C
:1005B00098C00E94E0016B017C0180912B048111A5
:1005C0006BC081E080932B0480930A049FEF90938B
:1005D0000904109208049C0F90930704809306046A
:1005E00080910604DD0FD82BD0930604809105047A
:1005F000813009F078C0109205040E94E0016B017F
:100600007C01809106048093BB0080912D04909121
:100610002E04A0912F04B0913004892B8A2B8B2BB0
:10062000A1F00E94E00100912D0410912E04209170
:100630002F04309130046C197D098E099F0906172B
:1006400017072807390708F448C08091BC0083FDCC
:10065000D8CF85EC8093BC000E94E0016B017C0147
:1006600080912B04813009F440C0809108048C17DC
:1006700010F4C0910804E5EEF3E0ABE0B4E080E0F4
:100680008C1355C08C2FDF91CF911F910F91FF904C
:10069000EF90DF90CF90089580912D0490912E04DB
:1006A000A0912F04B0913004892B8A2B8B2B09F455
:1006B00084CF0E94E00100912D0410912E0420911E
:1006C0002F04309130046C197D098E099F0906179B
:1006D00017072807390708F070CF80912C040E9473
:1006E000AB02C0E0CFCF85EEB5CF80912D049091C5
:1006F0002E04A0912F04B0913004892B8A2B8B2BD0
:1007000009F4AECF0E94E00100912D0410912E0457
:1007100020912F04309130046C197D098E099F09B6
:10072000061717072807390708F09ACFD6CF9191F7
:100730009D938F5FA5CF0895E091DB038091DA034D
:10074000E81730F4F0E0E55FFB4F808190E008951A
:100750008FEF9FEF08959091DB038091DA032FEFE5
:100760003FEF981748F4E92FF0E0E55FFB4F208159
:1007700030E09F5F9093DB03C90108958091DA0315
:100780009091DB03891B990B0895CF92DF92EF9232
:10079000FF920F931F93CF93DF937C01CB018A01CC
:1007A0002091D903222389F0EB016B01C40ED51EE1
:1007B000CC15DD0569F06991D701ED91FC910190AF
:1007C000F081E02DC7010995F3CF642F0E944F02FD
:1007D000C801DF91CF911F910F91FF90EF90DF90B3
:1007E000CF900895CF93DF931F92CDB7DEB7698383
:1007F0002091D9032223F9F02091D603203258F01A
:1008000021E030E0FC013383228390E080E00F9010
:10081000DF91CF9108958091D703E82FF0E0E2595E
:10082000FC4F998190838F5F8093D7038093D60389
:1008300081E090E0ECCF61E0CE0101960E944F0292
:10084000F7CFCF92DF92EF92FF920F931F93CF9348
:10085000DF93D091D60381E0D13208F09CC0C091E3
:10086000D8030E94E0016B017C0180912B0481116F
:100870006CC082E080932B0481E080930A048FEFA8
:100880008093090410920804D0930704AEE6B3E005
:10089000E5EEF3E080E0D8138DC01092060480915D
:1008A0000604CC0FC82BC093060480910504813048
:1008B00009F084C0109205040E94E0016B017C01E4
:1008C000809106048093BB0080912D0490912E04AA
:1008D000A0912F04B0913004892B8A2B8B2BA1F08F
:1008E0000E94E00100912D0410912E0420912F040C
:1008F000309130046C197D098E099F09061717077E
:100900002807390708F442C08091BC0083FDD8CF86
:1009100085EC8093BC000E94E0016B017C0180911A
:100920002B04823009F44CC0809109048F3F09F4F4
:1009300069C080910904803209F466C0809109047D
:10094000803309F463C084E026C080912D04909127
:100950002E04A0912F04B0913004892B8A2B8B2B6D
:1009600009F483CF0E94E00100912D0410912E0420
:1009700020912F04309130046C197D098E099F0954
:10098000061717072807390708F06FCF80912C0446
:100990000E94AB0285E01092D7031092D60310920A
:1009A000D903DF91CF911F910F91FF90EF90DF90CE
:1009B000CF9008959D9191938F5F6DCF85EEA9CFD4
:1009C00080912D0490912E04A0912F04B0913004B9
:1009D000892B8A2B8B2B09F4A2CF0E94E001009176
:1009E0002D0410912E0420912F04309130046C19A5
:1009F0007D098E099F09061717072807390708F090
:100A00008ECFC4CF80E0C7CF82E0C5CF83E0C3CF15
:100A100090E080E00895FC0101900020E9F7319713
:100A2000AF01481B590BBC0181E394E00C94820098
:100A30008F929F92AF92BF920F931F93CF93DF93AA
:100A4000CDB7DEB7A1970FB6F894DEBF0FBECDBF0E
:100A500019A2423008F44AE08E010F5D1F4F842E28
:100A6000912CB12CA12CA50194010E94030DE62F1D
:100A7000B901CA01EA30F4F4E05DD801EE938D01CA
:100A8000232B242B252B79F790E080E0109719F089
:100A9000CD010E940B05A1960FB6F894DEBF0FBEE4
:100AA000CDBFDF91CF911F910F91BF90AF909F90DD
:100AB0008F900895E95CE1CFCF93DF930E940B05FF
:100AC000EC0182E491E00E940B058C0F9D1FDF91E9
:100AD000CF910895AF92BF92CF92DF92EF92FF92A3
:100AE0000F931F93CF938C016A017B01C0E08C2F81
:100AF00090E0B0E0A0E08C159D05AE05BF05C8F400
:100B00005801AC0EB11CF5018081803170F485E490
:100B100091E00E940B05F501608170E090E080E0BB
:100B200040E10E941805CF5FE2CF80E20E946F0192
:100B3000F2CF88E491E00E940B05C0E08C2F90E09A
:100B4000B0E0A0E08C159D05AE05BF0558F4F80196
:100B5000EC0FF11D808180320CF48EE20E946F0157
:100B6000CF5FECCF84E491E0CF911F910F91FF9084
:100B7000EF90DF90CF90BF90AF900C945C056F9298
:100B80007F928F929F92AF92BF92CF92DF92EF921D
:100B9000FF920F931F93CF93DF9300D000D000D02C
:100BA000CDB7DEB78C01B62EA72E742E690186E074
:100BB000E0E0F1E0DE01119601900D928A95E1F7F7
:100BC000F12CE12C66E084E20E94CC021092DB035F
:100BD0008093DA03811112C061E070E080E090E060
:100BE0000E9405028FEFE81AF80AC114D10451F3EC
:100BF000CE14DF0438F78FEF9FEF10C0F801828129
:100C000093810E94370280FFE7CFF80182819381B0
:100C10000E943702882339F18DEF9FEFF12CE12CF0
:100C200098E0992E980E692DF0E2F91508F460E22B
:100C300084E20E94CC021092DB038093DA038111DC
:100C400049C061E070E080E090E00E9405028FEF13
:100C5000E81AF80AC114D10431F3CE14DF0418F7EE
:100C60008FEF9FEF47C0F801828193810E94370286
:100C70008111D2CFF801828193810E9437028F3F88
:100C800059F6F801828193810E943702682E81E033
:100C90008093D90384E28093D8031092D7031092F3
:100CA000D603CE0101967C014E0197E0890E911C7E
:100CB000F70161917F01F801828193810E943F02D7
:100CC0008E149F04A9F7F801828193810E94210468
:100CD000862DA4CFF801828193810E94370280FF84
:100CE000B0CFF801828193810E9437028823B9F046
:100CF0008DEF9FEF26960FB6F894DEBF0FBECDBFE7
:100D0000DF91CF911F910F91FF90EF90DF90CF90E7
:100D1000BF90AF909F908F907F906F900895F80153
:100D2000828193810E9437028111E2CFF801828192
:100D300093810E9437028F3FD9F6F8018281938117
:100D40000E943702F82EF801828193810E943702B7
:100D50008F0D71F6F801E480DD24D394DE0C8281DE
:100D600093810E943702853D19F6F80182819381B3
:100D70000E943702D812BCCFFA94FA948CEF9FEFFE
:100D80007F1408F4B7CFF6EDEF0E9B2CCB2CDA2CAA
:100D9000F801828193812C2D29192F1538F40E9496
:100DA0003702F60181936F01E80EF2CF0E943702FD
:100DB0008E0D09F09DCFF801828193810E94370248
:100DC0008F2D90E097CF5F926F927F928F929F923C
:100DD000AF92BF92CF92DF92EF92FF920F931F9349
:100DE000CF93DF93CDB7DEB72C970FB6F894DEBF65
:100DF0000FBECDBF7C016B01842EB22E532EFB01A2
:100E00008081F70184838281938121E02093D9033B
:100E100024E22093D8031092D7031092D60360E007
:100E20000E943F0260E0F701828193810E943F02AD
:100E30006FEFF701828193810E943F02182D100FFE
:100E400061E0610FF701828193810E943F02612F6F
:100E50006095F701828193810E943F0264EDF70162
:100E6000828193810E943F028C0C9D2C911C14ED79
:100E7000F70182819381C814D904C9F4CB2CD52CF5
:100E80005601A00EB11CF70182819381CA14DB04C4
:100E900099F14601F60160810E943F02882371F0BA
:100EA000FFEFCF1ADF0AF4018081180FECCF360173
:100EB000F60160810E943F02811117C08DEF2C96D0
:100EC0000FB6F894DEBF0FBECDBFDF91CF911F915B
:100ED0000F91FF90EF90DF90CF90BF90AF909F90D9
:100EE0008F907F906F905F900895FFEFCF1ADF0A89
:100EF000F3018081180FBCCF612F61950E943F02E2
:100F000060E0F701828193810E943F02F7018281B4
:100F100093810E94210486E0E6E0F1E0DE0117966D
:100F200001900D928A95E1F70BE010E067E084E212
:100F30000E94CC021092DB038093DA0381110BC074
:100F400061E070E080E090E00E940502015011092C
:100F500069F78EEFB4CFF701828193810E94370247
:100F600080FFEECF8E010F5F1F4F6E01F7E0CF0EB7
:100F7000D11C5801F701828193810E943702F80148
:100F800081938F01CE16DF06A9F746E050E0B60147
:100F9000C5010E942B0D21E0892B09F420E0822F4E
:100FA00081958DCF85ED8093BC0080912D0490912B
:100FB0002E04A0912F04B09130040796A11DB11DFD
:100FC00023E0B695A795979587952A95D1F7209117
:100FD000BC0024FD03C010922B04089540912D0401
:100FE00050912E0460912F0470913004452B462BB4
:100FF000472B69F30097A105B10541F025E32A9538
:10100000F1F700000197A109B109E1CF80912C040B
:101010000C94AB021F920F920FB60F9211242F93D4
:101020003F934F935F936F937F938F939F93AF9370
:10103000BF93EF93FF9381E394E00E940001FF913F
:10104000EF91BF91AF919F918F917F916F915F9140
:101050004F913F912F910F900FBE0F901F901895B9
:101060001F920F920FB60F9211242F938F939F937D
:10107000EF93FF93E0914104F09142048081E0916D
:101080004704F091480482FD1BC0908180914A047E
:101090008F5F8F7320914B04821741F0E0914A04D7
:1010A000F0E0EF5CFB4F958F80934A04FF91EF9146
:1010B0009F918F912F910F900FBE0F901F901895B9
:1010C0008081F4CF1F920F920FB60F9211242F93AD
:1010D0003F938F939F93AF93BF938091DD03909144
:1010E000DE03A091DF03B091E0033091DC0323E045
:1010F000230F2D3758F50196A11DB11D2093DC0358
:101100008093DD039093DE03A093DF03B093E003AD
:101110008091E1039091E203A091E303B091E40395
:101120000196A11DB11D8093E1039093E203A0936A
:10113000E303B093E403BF91AF919F918F913F91EF
:101140002F910F900FBE0F901F90189526E8230F38
:101150000296A11DB11DD2CF1F920F920FB60F9212
:1011600011242F933F934F935F936F937F938F93AC
:101170009F93AF93BF93EF93FF938091B900887FC4
:10118000803609F44AC0F0F5883209F4A7C018F592
:10119000803109F49BC0B8F4882309F4F9C0883081
:1011A00009F494C0FF91EF91BF91AF919F918F91FE
:1011B0007F916F915F914F913F912F910F900FBE53
:1011C0000F901F901895883109F488C0803251F72C
:1011D0008093090414C0803409F49DC040F4803326
:1011E000B9F38833F9F68093090485ECB0C08035F3
:1011F00009F485C0883509F496C0883499F60E94B0
:10120000D207D0CF883909F48CC038F5883729F057
:1012100050F4883611F0803729F683E080932B0450
:101220001092D10357C0883809F47BC0803919F077
:10123000803809F0B7CF8091D103803208F071C0B7
:10124000E091D10381E08E0F8093D1038091BB00A8
:10125000F0E0EF54FC4F80833DC0803B39F0E0F478
:10126000803A09F479C0883A09F09CCF84E08093F1
:101270002B041092B0031092AF03E091D403F091CD
:10128000D50309958091AF0381110FC081E0809350
:10129000AF0310928F0309C0803C09F4A6CF883CAD
:1012A00009F4A3CF883B09F07DCFE091B00381E042
:1012B0008E0F8093B003F0E0E157FC4F8081809364
:1012C000BB009091B0038091AF0329C080910604C8
:1012D0008093BB0085EC8093BC0064CF90910804A0
:1012E00080910704981758F5E091080481E08E0F6B
:1012F00080930804F0E0EB51FC4F8081E9CFE0914E
:10130000080481E08E0F809308048091BB00F0E018
:10131000EB51FC4F8083909108048091070498174B
:10132000C8F285E8D8CFE091080481E08E0F809361
:1013300008048091BB00F0E0EB51FC4F808380916A
:101340000A0481115CCF81E08093050484EA8093D4
:10135000BC0010922B0426CF85EC8093BC00109229
:101360002B048091D103803230F4E091D103F0E07E
:10137000EF54FC4F10826091D10370E0E091D203F2
:10138000F091D30381EB93E009951092D1030ACF3A
:101390001092090434CFE1E3F4E01382128248EEA4
:1013A00053E060E070E0448355836683778386E191
:1013B00091E09183808385EC90E09587848784EC2D
:1013C00090E09787868780EC90E0918B808B81EC12
:1013D00090E0938B828B82EC90E0958B848B86ECF3
:1013E00090E0978B868B118E128E138E148EAFE247
:1013F000B5E013961C921E92129714964D935D932E
:101400006D937C93179788E291E011969C938E934D
:10141000EBE3F5E08AE391E091838083B383A283D9
:101420001482F0932E05E0932D050895CF93DF935A
:10143000CDB7DEB7AD970FB6F894DEBF0FBECDBF08
:10144000789484B5826084BD84B5816084BD85B59F
:10145000826085BD85B5816085BD80916E008160AB
:1014600080936E0010928100809181008260809351
:101470008100809181008160809381008091800053
:101480008160809380008091B10084608093B1007E
:101490008091B00081608093B00080917A00846078
:1014A00080937A0080917A00826080937A008091A4
:1014B0007A00816080937A0080917A0080688093BE
:1014C0007A001092C100E0914104F091420412E0D0
:1014D0001083E0913D04F0913E041082E0913F04BE
:1014E000F091400480E1808310924904E09145042A
:1014F000F091460486E08083E0914304F091440437
:10150000808180618083E0914304F0914404808174
:1015100088608083E0914304F09144048081806876
:101520008083E0914304F091440480818F7D808327
:101530008DE491E00E945C0580912D0590912E052F
:10154000DC01ED91FC910190F081E02D09958091F5
:101550002D0590912E05DC01ED91FC910280F38127
:10156000E02D09951093ED0480912D0590912E05A5
:10157000DC01ED91FC910480F581E02D00E030E08C
:1015800020E041E06DEE74E00995882329F084E5C0
:1015900091E00E940B05FFCF80912D0590912E05C3
:1015A000DC01ED91FC910680F781E02D28EE33E01F
:1015B00040E46DEE74E0099597FDE9CFC090ED042D
:1015C000D090EE04DC24CD24DC24F12CE12CFE2C84
:1015D000ED2CDC2CCC248091EF04C82AFE2CED2CC1
:1015E000DC2CCC248091F004C82AC114D104E1047D
:1015F000F10469F28CE691E00E940B056F2D7727CC
:101600008827992740E10E94180582E491E00E9412
:101610000B058BE791E00E940B056E2D70E090E0CA
:1016200080E04AE00E9418058EE20E946F016D2D55
:1016300070E090E080E04AE00E94180582E491E0CA
:101640000E940B0594E19093ED0481E08093EE04F9
:101650009093EF048093F00480912D0590912E05D6
:10166000DC01ED91FC910480F581E02D00E030E09B
:1016700020E044E06DEE74E00995811110C0809186
:101680002D0590912E05DC01ED91FC910680F781EE
:10169000E02D28EE33E040E46DEE74E009958AE831
:1016A00091E00E945C0537E0732E7E01B1E2EB0E03
:1016B000F11C6E2C40E0842E40E0942E50E3C52EA9
:1016C00064E0562E9AE4492EDD24D39420E6322E8F
:1016D000F701872D11928A95E9F74092ED04D09297
:1016E000EE041092EF0480912D0590912E05DC01FF
:1016F000ED91FC910480F581E02D00E030E020E0E8
:1017000043E06DEE74E0099581111EC180912D05B5
:1017100090912E05DC01ED91FC910680F781E02D82
:1017200028EE33E040E46DEE74E0099597FD0CC1BE
:101730008091ED04813009F007C11091F204A3EF0C
:10174000B4E05701F7018E2F8E19811718F48D918F
:101750008193F9CF8CEA91E00E945C0584EC91E0E2
:101760000E940B05612F70E090E080E04AE00E944B
:10177000180583ED91E00E945C058AED91E00E94DE
:101780000B058A2D86198117A8F4F50101915F01D7
:10179000003160F485E491E00E940B05602F70E059
:1017A00090E080E040E10E941805EBCF80E20E94CB
:1017B0006F01F4CF84E491E00E945C0584E491E041
:1017C0000E945C05143009F0D3C088EE91E00E94BD
:1017D0005C0587E192E00E945C0586E0ECE0F1E0C8
:1017E000DE01989601900D928A95E1F786E0FE0160
:1017F000B896A6EDB4E001900D928A95E1F784E0E9
:10180000F701AEECB4E001900D928A95E1F71093E8
:10181000D50480E4B82EB092ED04D092EE0430925C
:10182000EF041093F00486E0E6EDF4E0A1EFB4E0FD
:1018300001900D928A95E1F78091CE048093F70490
:101840008091CF048093F8048091D0048093F904B0
:101850008091D1048093FA0480912D0590912E05FA
:10186000DC01ED91FC910480F581E02D00E030E099
:1018700020E04EE06DEE74E00995811176C0809114
:101880002D0590912E05DC01ED91FC910680F781EC
:10189000E02D28EE33E040E46DEE74E00995809190
:1018A000ED04811162C08EE492E00E945C05B0926A
:1018B000ED04D092EE04C092EF041093F0048091F6
:1018C0002D0590912E05DC01ED91FC910480F581B0
:1018D000E02D30E020E044E06DEE74E009958111E8
:1018E0003FC080912D0590912E05DC01ED91FC917A
:1018F0000680F781E02D28EE33E040E46DEE74E0E1
:1019000009958091ED0481112BC080E1EEEEF4E0A9
:10191000DE01119601900D928A95E1F78CE792E035
:101920000E945C0540E150E060E070E0CE0101966D
:101930000E946A0584E491E00E945C0568EE73E011
:1019400080E090E00E9405028114910409F4C0CE69
:101950000E94EC00882309F4B5CE0E940000B2CEAC
:101960008DE892E00E945C05EFCF8DEC92E0FACF1B
:10197000173051F78FEF92E00E945C0580E393E00F
:101980000E945C0580E48093ED04D092EE04C09246
:10199000EF045092F00480912D0590912E05DC010A
:1019A000ED91FC910480F581E02D00E030E020E035
:1019B00044E06DEE74E00995811122C080912D05FF
:1019C00090912E05DC01ED91FC910680F781E02DD0
:1019D00028EE33E040E46DEE74E009958091ED046B
:1019E00081110EC084E0EEEEF4E0DE01119601906C
:1019F0000D928A95E1F744E050E060E070E096CF08
:101A00008FE393E0AFCFA1E21A2EAA1BBB1BFD010F
:101A10000DC0AA1FBB1FEE1FFF1FA217B307E407CD
:101A2000F50720F0A21BB30BE40BF50B661F771F25
:101A3000881F991F1A9469F7609570958095909505
:101A40009B01AC01BD01CF010895EE0FFF1F059072
:101A5000F491E02D0994FB01DC0104C08D9101900B
:101A6000801921F441505040C8F7881B990B089504
:101A7000F894FFCF0000FFFF00000000FF00FF0010
:101A8000FFFFFFFFFFFF0000000022018200AF0008
:101A90007401E000BE00D20000000000F203C503A4
:101AA00008059B03BE03AB039C03000000009402E7
:101AB0004702E306BF050D0A002030002020202049
:101AC0000048656C6C6F21004469646E2774206661
:101AD000696E6420504E35337820626F6172640005
:101AE000466F756E64206368697020504E350046FD
:101AF00069726D77617265207665722E200057617C
:101B00006974696E6720666F7220616E2049534F59
:101B10003134343433412043617264202E2E2E0040
:101B2000466F756E6420616E2049534F31343434F2
:101B300033412063617264002020554944204C6584
:101B40006E6774683A200020627974657300202003
:101B50005549442056616C75653A20005365656DA2
:101B60007320746F2062652061204D696661726523
:101B700020436C617373696320636172642028344D
:101B80002062797465205549442900547279696E40
:101B90006720746F2061757468656E746963617421
:101BA0006520626C6F636B203420776974682064F1
:101BB000656661756C74204B4559412076616C7582
:101BC0006500536563746F7220312028426C6F6327
:101BD0006B7320342E2E372920686173206265656F
:101BE0006E2061757468656E746963617465640004
:101BF00052656164696E6720426C6F636B20343A92
:101C0000004F6F6F7073202E2E2E20756E61626CE8
:101C10006520746F20726561642074686520726548
:101C20007175657374656420626C6F636B2E202020
:101C300054727920616E6F74686572206B65793FAC
:101C4000004F6F6F7073202E2E2E206175746865A3
:101C50006E7469636174696F6E206661696C656436
:101C60003A2054727920616E6F74686572206B65DA
:101C7000793F005365656D7320746F206265206144
:101C8000204D696661726520556C7472616C69677C
:101C90006874207461672028372062797465205544
:101CA0004944290052656164696E67207061676507
:101CB0002034004F6F6F7073202E2E2E20756E61B2
:101CC000626C6520746F20726561642074686520A1
:101CD0007265717565737465642070616765213F15
:021CE000000002
:107E0000112484B714BE81FFF0D085E080938100F7
:107E100082E08093C00088E18093C10086E0809377
:107E2000C20080E18093C4008EE0C9D0259A86E02C
:107E300020E33CEF91E0309385002093840096BBD3
:107E4000B09BFECF1D9AA8958150A9F7CC24DD24C4
:107E500088248394B5E0AB2EA1E19A2EF3E0BF2EE7
:107E6000A2D0813461F49FD0082FAFD0023811F036
:107E7000013811F484E001C083E08DD089C08234E0
:107E800011F484E103C0853419F485E0A6D080C0E4
:107E9000853579F488D0E82EFF2485D0082F10E0AE
:107EA000102F00270E291F29000F111F8ED06801E7
:107EB0006FC0863521F484E090D080E0DECF843638
:107EC00009F040C070D06FD0082F6DD080E0C81688
:107ED00080E7D80618F4F601B7BEE895C0E0D1E017
:107EE00062D089930C17E1F7F0E0CF16F0E7DF06D8
:107EF00018F0F601B7BEE89568D007B600FCFDCFD4
:107F0000A601A0E0B1E02C9130E011968C91119780
:107F100090E0982F8827822B932B1296FA010C0160
:107F200087BEE89511244E5F5F4FF1E0A038BF0790
:107F300051F7F601A7BEE89507B600FCFDCF97BE46
:107F4000E89526C08437B1F42ED02DD0F82E2BD052
:107F50003CD0F601EF2C8F010F5F1F4F84911BD097
:107F6000EA94F801C1F70894C11CD11CFA94CF0C13
:107F7000D11C0EC0853739F428D08EE10CD085E9AC
:107F80000AD08FE07ACF813511F488E018D01DD067
:107F900080E101D065CF982F8091C00085FFFCCF94
:107FA0009093C60008958091C00087FFFCCF809118
:107FB000C00084FD01C0A8958091C6000895E0E648
:107FC000F0E098E1908380830895EDDF803219F02E
:107FD00088E0F5DFFFCF84E1DECF1F93182FE3DFCA
:107FE0001150E9F7F2DF1F91089580E0E8DFEE27F6
:047FF000FF270994CA
:027FFE00040479
:00000001FF
