:020000040000FA
:100000000C9415020C94060C0C94DB0B0C94B00BA6
:100010000C94850B0C945A0B0C942F0B0C94040B22
:100020000C94D90A0C9446020C9446020C94460295
:100030000C9446020C9446020C9446020C94460220
:100040000C9446020C9446020C9446020C94460210
:100050000C9446020C9446020C9446020C948F0AAF
:100060000C9446020C94590A0C942F0A0C944602E4
:100070000C9446020C9446020C9446020C944602E0
:100080000C9446020C9446020C9446020C944602D0
:100090000C9446020C9446020C9446020C94310CCB
:1000A0000C9446020C9446020C9446020C944602B0
:1000B0000C9446020C9446020C9446020C944602A0
:1000C0000C9446020C9446020C9446020C94460290
:1000D0000C9446020C9446020C9446020C94460280
:1000E0000C9446020C94C5030C941F030C94550DFC
:1000F0000C9429030C9489040C94E5040C94410598
:100100000C947F030C942E030C94CB040C942503C5
:100110000C94BB040C94F2020C9412050C9417037B
:100120000C94DB020C9411030C940D030C94D60276
:100130000C9403030C94EE020C942D030C941B03FB
:100140000C9412040C94BC040C945C030C94FF02F9
:100150000C94DE040C94F6020C9409030C94EA024D
:100160000C948D030C946B030C942F030C944B068E
:100170000C94F902427F4D0963E00C0064FF6600B5
:10018000674813F00D610FC51411227F230324402B
:10019000253026A12B006BAA13FF90059101920335
:1001A000930094B0959D96139716987B99919A1EFB
:1001B0009E817E0C7F16802A814E8261836F847BB4
:1001C0008586868E879788A489AF8AC58BD78CE869
:1001D0008D20FFFF0C003E00703A7135721173F0F4
:1001E000A20115007A207B107C1E7D357E5A7F6926
:1001F000807681808288838F849685A386AF87C42A
:1002000088D789E813C0000010000D401418A50518
:10021000AB072495253326E39F78A068A103A6D8D1
:10022000A7D8A8F0A990AA9413C5300031000E6198
:100230000F4B16021E07210222912907330B350BA3
:10024000371D3871392A3C784D404E2069007410B2
:100250008D4F8E008F009000910096009A00B08420
:10026000B10CB20EB382B80A430A44F04534465882
:100270004728483A59885A885B445C675D495E0E56
:100280006C0A6D556E116F9E6A400140026013C783
:100290004F80508051005222535E5480589E410836
:1002A0003F00750576E14C0077013D484B09C96078
:1002B000564034113B12A482960097309820993012
:1002C0009A849B299C039D4C9E3F78047901C8F039
:1002D000790FC8007910C87E790AC880790BC801E7
:1002E000790CC80F790DC8207909C8807902C8C077
:1002F0007903C8407905C8307926FFFF12003D0315
:100300001101650FA00FA180A280172318A0291446
:1003100019071AF02C2232002A001501FFFF1303DF
:1003200011016BCA400017161804322419021A7AF8
:10033000030A3E1372330C047303FFFF0000220014
:10034000250028002B002E0031003400020100009F
:10035000050108010B010505050507050808080842
:10036000020202020A0A080804040404010101014D
:100370000101010103030303030303030407070748
:100380000C0C0C0C0C0C0C0C0202020206060606ED
:10039000060606060B0B0B0B0B0B0B0B01021020BA
:1003A00020080810204010204080020102010804AB
:1003B000020101020408102040808040201008043F
:1003C0000201800402018040201008040201080498
:1003D00002010102040810204080010204081020DC
:1003E000408000000A0B02090C0D0E0807030401EF
:1003F00000000000000000000000000000000000FD
:1004000000000000000000000000000000001211C9
:1004100010000000000000000000000000000000CC
:100420000000000000000000550D11241FBECFEF9A
:10043000D1E2DEBFCDBF00E00CBF12E0A0E0B2E031
:10044000EEECFEE100E00BBF02C007900D92AE3C67
:10045000B107D9F724E0AEECB2E001C01D92A73F8E
:10046000B207E1F712E0C5E1D2E000E006C0219753
:100470000109802FFE010E94460FC431D10780E0A0
:100480000807A9F70E948E0D0C94650F0C940000CC
:100490000000982F20914D0481E0213208F043C0E4
:1004A000809129048111FCCF80914C0432E030937B
:1004B0002904909328049FEF909327041092260418
:1004C00020932504ACE2B4E0E5E0F4E090E02913E9
:1004D00031C01092040490910404880F892B8093FA
:1004E000040480910304813049F510920304809143
:1004F00004048093BB008091BC0083FDF8CF85ECA1
:100500008093BC00809129048230E1F3809127041C
:100510008F3FB1F0809127048032A1F080912704B1
:10052000803391F084E010922B0410924D041092CD
:100530002A0408953D9131939F5FC9CF85EEE0CFA6
:1005400080E0F1CF82E0EFCF83E0EDCF282F30E0E5
:10055000F901EE51FC4F9491F901E456FC4F44919E
:100560002A5A3C4FF9012491222309F432C09923DD
:1005700011F191509231F8F4E92FF0E08827EC5313
:10058000FD4F8F4F0C94460FF202F602D602EA029C
:10059000EE02DB02F902FF02030309030D0311035C
:1005A00017031B03DB021F0325032903809180002F
:1005B0008F7780938000E22FF0E0EE0FFF1FE45C66
:1005C000FC4FA591B4918FB7F894EC914E2B4C93BE
:1005D0008FBF0895809180008F7DEBCF8091800048
:1005E000877FE7CF84B58F7784BDE5CF84B58F7DD6
:1005F000FBCF8091B0008F778093B000DCCF8091EB
:10060000B0008F7DF9CF809190008F77809390001C
:10061000D2CF809190008F7DF9CF80919000877F1D
:10062000F5CF8091A0008F778093A000C4CF8091F8
:10063000A0008F7DF9CF8091A000877FF5CF8091BA
:1006400020018F7780932001B6CF809120018F7D8C
:10065000F9CF80912001877FF5CF08950895AF925B
:10066000BF92CF92DF92EF92FF920F931F93CF939F
:10067000DF936C017B018B01040F151FEB015E0101
:10068000AE18BF08C017D10759F06991D601ED9196
:10069000FC910190F081E02DC6011995892B79F725
:1006A000C501DF91CF911F910F91FF90EF90DF90E7
:1006B000CF90BF90AF900895FC01538D448D252FAE
:1006C00030E0842F90E0821B930B541710F0CF96EC
:1006D000089501970895FC01918D828D981761F01E
:1006E000A28DAE0FBF2FB11D5D968C91928D9F5F35
:1006F0009F73928F90E008958FEF9FEF0895FC0114
:10070000918D828D981731F0828DE80FF11D858DC6
:1007100090E008958FEF9FEF0895FC01918D228D59
:10072000892F90E0805C9F4F821B91098F739927DE
:1007300008958EE494E00E948D0321E0892B09F452
:1007400020E0822F0895FC01A48DA80FB92FB11DC0
:10075000A35ABF4F2C91848D90E001968F739927F7
:10076000848FA689B7892C93A089B1898C918370D5
:1007700080648C93938D848D981306C00288F389CE
:10078000E02D80818F7D80830895EF92FF920F93FB
:100790001F93CF93DF93EC0181E0888F9B8D8C8D2D
:1007A00098131AC0E889F989808185FF15C09FB721
:1007B000F894EE89FF896083E889F98980818370E4
:1007C000806480839FBF81E090E0DF91CF911F9193
:1007D0000F91FF90EF900895F62E0B8D10E00F5FB4
:1007E0001F4F0F731127E02E8C8D8E110CC00FB68A
:1007F00007FCFACFE889F989808185FFF5CFCE0122
:100800000E94A303F1CFEB8DEC0FFD2FF11DE35AF6
:10081000FF4FF0829FB7F8940B8FEA89FB898081A4
:100820008062CFCFCF93DF93EC01888D8823B9F01E
:10083000AA89BB89E889F9898C9185FD03C08081EB
:1008400086FD0DC00FB607FCF7CF8C9185FFF2CF68
:10085000808185FFEDCFCE010E94A303E9CFDF9118
:10086000CF9108953FB7F8948091F9039091FA03DE
:10087000A091FB03B091FC0326B5A89B05C02F3FB8
:1008800019F00196A11DB11D3FBFBA2FA92F982FB6
:100890008827BC01CD01620F711D811D911D42E0B1
:1008A000660F771F881F991F4A95D1F708958F9279
:1008B0009F92AF92BF92CF92DF92EF92FF924B0145
:1008C0005C010E9432046B017C010E9432046C19AD
:1008D0007D098E099F09683E734081059105A8F343
:1008E00021E0821A9108A108B10888EEC80E83E0C1
:1008F000D81EE11CF11C81149104A104B10429F754
:10090000FF90EF90DF90CF90BF90AF909F908F902F
:100910000895089585ED8093BC008091BC0084FD0E
:10092000FCCF1092290408952091D103260F33277C
:10093000331F21323105ECF420912904FC0190E0B1
:1009400080E0243069F082E00895A091D1032191E4
:10095000AC014F545C4FA40FB52FB11D2C930196E1
:10096000861798F38091D103680F6093D10380E0DC
:10097000089581E008950895E091020480910104B2
:10098000E81730F4F0E0EF56FC4F808190E00895D6
:100990008FEF9FEF089590910204809101042FEF53
:1009A0003FEF981748F4E92FF0E0EF56FC4F208115
:1009B00030E09F5F90930204C90108958091010483
:1009C00090910204891B990B0895CF92DF92EF92C8
:1009D000FF920F931F93CF93DF937C01CB018A018A
:1009E00020912A04222389F0EB016B01C40ED51E4D
:1009F000CC15DD0569F06991D701ED91FC9101906D
:100A0000F081E02DC7011995F3CF642F0E94940463
:100A1000C801DF91CF911F910F91FF90EF90DF9070
:100A2000CF900895CF93DF931F92CDB7DEB7698340
:100A300020912A042223F9F020914D04203258F00D
:100A400021E030E0FC013383228390E080E00F90CE
:100A5000DF91CF91089580912B04E82FF0E0E45DC1
:100A6000FB4F998190838F5F80932B0480934D047B
:100A700081E090E0ECCF61E0CE0101960E94940409
:100A8000F7CF90E080E00895CF93C62F91E0909348
:100A90002A0491E290934C0410922B0410924D047E
:100AA000682F8BEE94E00E9412056C2F8BEE94E081
:100AB0000E94120581E0CF910C9449020F931F937D
:100AC000CF93DF93EC010F3F11F41F3F51F0FE0174
:100AD000049131961491612F802F0E944405229633
:100AE000F2CFDF91CF911F910F910895611571059C
:100AF00081059105B9F02091020120642093020143
:100B0000C895C895C8950000209102012F7B2093BD
:100B10000201C895C895C895000061507109810906
:100B20009109E4CF089591E090932A0491E2909383
:100B30004C0410922B0410924D04682F8BEE94E01D
:100B40000E94120581E00E944902809129048111CE
:100B5000FCCF81E080932904809328049FEF909339
:100B60002704109226041092250480930404809197
:100B7000040482648093040480910304813051F55D
:100B800010920304809104048093BB008091BC0008
:100B900083FDF8CF85EC8093BC00809129048130DF
:100BA000E1F38091260491E0811102C09091260426
:100BB000A5E0B4E0E1E9F3E080E089130DC0109214
:100BC000020480930104882321F08BEE94E00E94BC
:100BD000CB04089585EEDFCF2D9121938F5FEDCF6C
:100BE000FB0101900020E9F73197AF01461B570B3D
:100BF000DC01ED91FC910280F381E02D19948F923C
:100C00009F92AF92BF92EF92FF920F931F93CF9359
:100C1000DF93CDB7DEB7A1970FB6F894DEBF0FBE56
:100C2000CDBF7C01FA01CB0119A2223008F42AE0E1
:100C30008E010F5D1F4F822E912CB12CA12CBF0174
:100C4000A50194010E94240FF901CA016A300CF534
:100C5000605DD8016E938D01232B242B252B79F712
:100C600090E080E0109721F0BD01C7010E94F005DF
:100C7000A1960FB6F894DEBF0FBECDBFDF91CF9126
:100C80001F910F91FF90EF90BF90AF909F908F902A
:100C90000895695CDECFEF92FF920F931F93CF937D
:100CA000DF93809102018F7D8093020180917D030B
:100CB000882309F4C4C280917C03882309F4BFC24D
:100CC000EC9889E894E090930202809301022F98B7
:100CD00080910201806480930201809102018F7BE8
:100CE000809302012F9A80917E0390917F038A3036
:100CF000910509F4EBC108F05CC08230910509F45C
:100D000031C28330910509F43FC2019709F05BC0FD
:100D1000E090000260E872E080E090E00E947605DA
:100D200068E070E080E090E00E947605D0E010E09E
:100D30000FEFFF24FA94C4E084E0909102019064E4
:100D4000909302012FB1909102019F7B9093020139
:100D50002E1550F4181708F415C28F1508F4F82E44
:100D6000DC2F0F3F09F40C2F9091020190649093B7
:100D70000201909102019F7B909302018F5F8B345F
:100D8000E1F662E170E080E090E00E947605CF5FDE
:100D9000C83391F6F11608F0E7C10D1708F0E4C169
:100DA000F092DC020093DD021093DE02D093DF02AA
:100DB000DBC18832910509F4AFC0E8F4CCE3D0E0A0
:100DC000449709F40BC110927D0310927C038BE4CD
:100DD00096E0909302028093010280916A008C7FDA
:100DE000826080936A00EC9ADF91CF911F910F91FE
:100DF000FF90EF9008958035910579F1803A910543
:100E000011F7CCE3D0E0ECEDF2E020917E033091DD
:100E10007F0324523D4F2E173F0769F08091020156
:100E20008064809302018FB18193809102018F7B56
:100E300080930201F0CF40917E0350917F036CEDCF
:100E400072E08EE494E00E942F036AE08EE494E066
:100E50000E94C5032197B9F6B6CFDCE3ED2EF12C45
:100E6000ECEDF2E020917E0330917F0324523D4F60
:100E7000D901E217F307D9F18091020180648093D0
:100E800002018FB1AF0190E074E0959587957A9556
:100E9000E1F781938FB1BD0190E0C4E0959587950E
:100EA000CA95E1F78D93809102018F7B80930201B7
:100EB000809102018064809302019FB18F010150F3
:100EC0001109907FEA018881892BE80188839FB10D
:100ED000AD0141505109907FEB018881892BEA01D6
:100EE0008883809102018F7B80930201C2CF409161
:100EF0007E0350917F036CED72E08EE494E00E94DB
:100F00002F036AE08EE494E00E94C503D1E0ED1A5D
:100F1000F10809F0A5CF57CFCCE3D0E0ECEDF2E03B
:100F200040917E0350917F0344525D4FE417F507D3
:100F300081F1809102018064809302018FB19091D0
:100F400002019F7B90930201909102019064909323
:100F50000201909102019F7B909302019091020106
:100F60009064909302019FB1209102012F7B209306
:100F700002012091020120642093020120910201CC
:100F80002F7B20930201907F82958F70892B819314
:100F9000CDCF40917E0350917F036CED72E08EE4E3
:100FA00094E00E942F036AE08EE494E00E94C5035F
:100FB000219709F0B3CF07CF40917E0350917F0373
:100FC0006CED72E08EE494E00E942F036AE08EE400
:100FD00094E00E94C503219709F4F5CEECEDF2E010
:100FE00040917E0350917F0344525D4F4E175F073F
:100FF00019F3809102018064809302018FB1909176
:1010000002019F7B90930201909102019064909362
:101010000201909102019F7B909302019091020145
:101020009064909302016FB1909102019F7B909325
:10103000020190910201906490930201909102014B
:101040009F7B909302019091020190649093020122
:101050002FB1909102019F7B909302019091020128
:10106000906490930201909102019F7B9093020102
:10107000909102019064909302019FB1309102011E
:101080003F7B3093020130910201306430930201C2
:10109000309102013F7B30930201829586958695BF
:1010A0008370907C892B70E094E0759567959A9594
:1010B000E1F76C707727862B30E0359527953595CD
:1010C000279520733327822B819390CFCCE3D0E0F8
:1010D000A0910002ECEDF2E060917E0370917F033D
:1010E00064527D4F90E080E040E0E617F70739F169
:1010F000209102012064209302015FB1587F21E01A
:1011000030E0A51708F020E0082E01C0220F0A9455
:10111000EAF7422B209102012F7B209302012091BC
:101120000201206420930201209102012F7B209371
:101130000201019688309105C1F64193D3CF4091C9
:101140007E0350917F036CED72E08EE494E00E9488
:101150002F036AE08EE494E00E94C503219709F012
:10116000B7CF31CE8091000244E050E06CED72E0E8
:101170008EE494E00E942F036AE08EE494E00E94E3
:10118000C50321CE182FECCD2FB7F8948091F5032D
:101190009091F603A091F703B091F8032FBF40910F
:1011A000D6025091D7026091D8027091D9027C0189
:1011B0008D01E41AF50A060B170BA8019701283ECA
:1011C00003E030074105510508F18093D602909362
:1011D000D702A093D802B093D902E091D402F09143
:1011E000D50288EE93E0E89FB001E99F700DF89F6B
:1011F000700D112490E080E00E94240F3093DB02F8
:101200002093DA021092D5021092D4026499FECF94
:10121000649BFECF8091D4029091D5020196909369
:10122000D5028093D4024091DA025091DB0270E043
:1012300060E02AE08EE494E00E94FF059DCF2E98A6
:1012400080910201806480930201809102018F7B72
:10125000809302012E9AC895C895C8950000809188
:10126000020180628093020181E080937C03BCCD07
:101270000F931F93CF93DF93EC010E94F0058C0135
:1012800065E372E0CE010E94F005800F911FDF91AF
:10129000CF911F910F910895BF92CF92DF92EF925D
:1012A000FF920F931F93CF93DF9300E813E082E048
:1012B000E82EF12CBB24B394CC24C394D12C8EE41F
:1012C00094E00E948D03892B09F492C08EE494E08F
:1012D0000E946B0390919003E92FF0E0E058FC4FDF
:1012E0008A3029F09F5F909390038083E8CF10822B
:1012F0001092900368E372E080E893E00E944E0F42
:10130000892B39F46EE372E08EE494E00E94F005DC
:10131000D6CFE80109900020E9F7C158D340C63084
:10132000D10568F245E050E061E572E080E893E0C5
:101330000E94570F892B89F485E893E00E94FE0EE6
:1013400090937F0380937E0367E572E08EE494E0E0
:101350000E94F005B0927D03B2CF45E050E06CE50D
:1013600072E080E893E00E94570F892B89F485E8AA
:1013700093E00E94FE0E8093000267E572E08EE427
:1013800094E00E94F005D0927F03C0927E03E2CFEA
:1013900045E050E062E672E080E893E00E94570F7B
:1013A000892B89F485E893E00E94FE0E8093000269
:1013B00067E572E08EE494E00E94F005F0927F030E
:1013C000E0927E03C7CF289708F479CF47E050E03A
:1013D00068E672E080E893E00E94570F892B09F0DD
:1013E0006ECF87E893E00E94FE0E8093000267CFE5
:1013F000DF91CF911F910F91FF90EF90DF90CF90F1
:10140000BF9008950E94990381110E944C0980E0C9
:1014100090E0892B49F080E090E0892B29F00E9430
:10142000000081110E94000080E090E0892B49F0CB
:1014300080E090E0892B29F00E94000081110E9439
:10144000000080E090E0892B49F080E090E0892B5B
:1014500029F00E94000081110C94000008951F9251
:101460000F920FB60F9211240BB60F922F933F934A
:101470004F935F936F937F938F939F93AF93BF939C
:10148000EF93FF938EE494E00E94A303FF91EF910A
:10149000BF91AF919F918F917F916F915F914F918C
:1014A0003F912F910F900BBE0F900FBE0F901F908A
:1014B00018951F920F920FB60F9211240BB60F9230
:1014C0002F938F939F93EF93FF93E0915E04F0919E
:1014D0005F048081E0916404F091650482FD1DC089
:1014E0009081809167048F5F8F73209168048217C9
:1014F00041F0E0916704F0E0E25BFB4F958F809351
:101500006704FF91EF919F918F912F910F900BBEE8
:101510000F900FBE0F901F9018958081F2CF1F92F1
:101520000F920FB60F9211242F933F938F939F9397
:10153000AF93BF938091F5039091F603A091F703C9
:10154000B091F8033091F40323E0230F2D3758F5C1
:101550000196A11DB11D2093F4038093F503909390
:10156000F603A093F703B093F8038091F9039091E9
:10157000FA03A091FB03B091FC030196A11DB11DDC
:101580008093F9039093FA03A093FB03B093FC03B9
:10159000BF91AF919F918F913F912F910F900FBE6F
:1015A0000F901F90189526E8230F0296A11DB11DDC
:1015B000D2CF1F920F920FB60F9211240BB60F923B
:1015C0002F933F934F935F936F937F938F939F934B
:1015D000AF93BF93EF93FF93E0910F02F09110024E
:1015E0001995FF91EF91BF91AF919F918F917F914D
:1015F0006F915F914F913F912F910F900BBE0F9084
:101600000FBE0F901F9018951F920F920FB60F925A
:1016100011240BB60F922F933F934F935F936F93C9
:101620007F938F939F93AF93BF93EF93FF93E0913B
:101630000D02F0910E021995FF91EF91BF91AF91BC
:101640009F918F917F916F915F914F913F912F91DA
:101650000F900BBE0F900FBE0F901F9018951F920A
:101660000F920FB60F9211240BB60F922F933F9348
:101670004F935F936F937F938F939F93AF93BF939A
:10168000EF93FF93E0910302F09104021995FF910B
:10169000EF91BF91AF919F918F917F916F915F91EA
:1016A0004F913F912F910F900BBE0F900FBE0F9057
:1016B0001F9018951F920F920FB60F9211240BB620
:1016C0000F922F933F934F935F936F937F938F93DB
:1016D0009F93AF93BF93EF93FF93E0910102F0913B
:1016E00002021995FF91EF91BF91AF919F918F9158
:1016F0007F916F915F914F913F912F910F900BBE12
:101700000F900FBE0F901F9018951F920F920FB65B
:101710000F9211240BB60F922F933F934F935F9329
:101720006F937F938F939F93AF93BF93EF93FF93A9
:10173000E0910B02F0910C021995FF91EF91BF918E
:10174000AF919F918F917F916F915F914F913F9159
:101750002F910F900BBE0F900FBE0F901F901895FA
:101760001F920F920FB60F9211240BB60F922F9368
:101770003F934F935F936F937F938F939F93AF9319
:10178000BF93EF93FF93E0910902F0910A0219953C
:10179000FF91EF91BF91AF919F918F917F916F9149
:1017A0005F914F913F912F910F900BBE0F900FBE05
:1017B0000F901F9018951F920F920FB60F92112441
:1017C0000BB60F922F933F934F935F936F937F933B
:1017D0008F939F93AF93BF93EF93FF93E091070293
:1017E000F09108021995FF91EF91BF91AF919F91F0
:1017F0008F917F916F915F914F913F912F910F90BA
:101800000BBE0F900FBE0F901F9018951F920F9256
:101810000FB60F9211240BB60F922F933F934F9355
:101820005F936F937F938F939F93AF93BF93EF9348
:10183000FF93E0910502F09106021995FF91EF9157
:10184000BF91AF919F918F917F916F915F914F91D8
:101850003F912F910F900BBE0F900FBE0F901F90D6
:1018600018951F920F920FB60F9211240BB60F927C
:101870002F933F934F935F936F937F938F939F9398
:10188000AF93BF93EF93FF938091B900887F803629
:1018900009F44DC008F040C0883209F4A9C028F509
:1018A000803109F49DC0C8F4882309F4FBC0883056
:1018B00009F496C0FF91EF91BF91AF919F918F91E5
:1018C0007F916F915F914F913F912F910F900BBE40
:1018D0000F900FBE0F901F901895883109F488C0A3
:1018E000803241F78093270414C0803409F49DC0EE
:1018F00040F48033B9F38833E9F68093270485EC0C
:10190000B0C0803509F485C0883509F496C08834A4
:1019100089F60E948A04CECF883909F48CC038F544
:10192000883729F050F4883611F0803719F683E0B3
:10193000809329041092F30357C0883809F47BC0C0
:10194000803919F0803809F0B5CF8091F3038032E7
:1019500008F071C0E091F30381E08E0F8093F303F0
:101960008091BB00F0E0ED52FC4F80833DC0803B96
:1019700039F0E0F4803A09F479C0883A09F09ACF56
:1019800084E0809329041092D2031092D103E09155
:10199000FF03F091000419958091D10381110FC0CC
:1019A00081E08093D1031092B10309C0803C09F417
:1019B000A6CF883C09F4A3CF883B09F07BCFE09108
:1019C000D20381E08E0F8093D203F0E0EF54FC4FFE
:1019D00080818093BB009091D2038091D10329C074
:1019E000809104048093BB0085EC8093BC0062CF9F
:1019F0009091260480912504981758F5E0912604CB
:101A000081E08E0F80932604F0E0EB5FFB4F808136
:101A1000E9CFE091260481E08E0F80932604809127
:101A2000BB00F0E0EB5FFB4F808390912604809138
:101A300025049817C8F285E8D8CFE091260481E004
:101A40008E0F809326048091BB00F0E0EB5FFB4F8C
:101A500080838091280481115CCF81E0809303040E
:101A600084EA8093BC001092290424CF85EC8093F3
:101A7000BC00109229048091F303803230F4E0918D
:101A8000F303F0E0ED52FC4F10826091F30370E03D
:101A9000E091FD03F091FE0383ED93E01995109220
:101AA000F30308CF1092270434CFEEE4F4E013825E
:101AB000128288EE93E0A0E0B0E084839583A68351
:101AC000B78325E132E03183208325EC30E0358790
:101AD000248724EC30E03787268720EC30E0318BF8
:101AE000208B21EC30E0338B228B22EC30E0358BE5
:101AF000248B26EC30E0378B268B118E128E138EC2
:101B0000148EEBEEF4E01382128284839583A68315
:101B1000B78387E292E0918380830895789484B5B7
:101B2000826084BD84B5816084BD85B5826085BDD9
:101B300085B5816085BD80916E00816080936E0067
:101B40001092810080918100826080938100809159
:101B5000810081608093810080918000816080930A
:101B600080008091B10084608093B1008091B000CA
:101B700081608093B0008091910082608093910099
:101B800080919100816080939100809190008160AC
:101B9000809390008091A10082608093A100809149
:101BA000A10081608093A1008091A000816080935A
:101BB000A000809121018260809321018091210108
:101BC00081608093210180912001816080932001B8
:101BD00080917A00846080937A0080917A0082609C
:101BE00080937A0080917A00816080937A0080915E
:101BF0007A00806880937A001092C10010BA8091B8
:101C000001018062809301018091010180648093D1
:101C10000101279A269A6C98749AE0915E04F091DB
:101C20005F0482E08083E0915A04F0915B041082AB
:101C3000E0915C04F0915D0483E08083109266047F
:101C4000E0916204F091630486E08083E091600497
:101C5000F0916104808180618083E0916004F09163
:101C60006104808188608083E0916004F091610468
:101C7000808180688083E0916004F09161048081BC
:101C80008F7D808360E772E08EE494E00E943809E3
:101C9000C6E0D0E0DD24D39428E4C22E35E4B32E90
:101CA0000DE213E04EE2E42E43E0F42E1092020423
:101CB0001092010410922B0410924D0410922904EA
:101CC000D09228041092030484E10E94A60285E1C8
:101CD0000E94A6028091B9008E7F8093B900809106
:101CE000B9008D7F8093B900C092B800B092BC005B
:101CF000109300040093FF03F092FE03E092FD03B3
:101D00008AE00E949305863769F0873709F45CC042
:101D1000219709F066C06FE972E08EE494E00E94BA
:101D20003809FFCF8BE00E949305C82FD0E0D6671B
:101D300094EDE92E91E0F92E0EE113E060E882E1E6
:101D40000E9444056CE271E080E090E00E9457043C
:101D5000C7010E945E056CE271E080E090E00E94A5
:101D60005704C8010E945E056CE271E080E090E0DB
:101D70000E94570467E872E08EE494E00E94F00548
:101D8000AE0170E060E020E18EE494E00E94FF0587
:101D900065E372E08EE494E00E94F0058BE496E047
:101DA000909302028093010280916A008C7F82608E
:101DB00080936A00EC9A64E670E080E090E00E9414
:101DC00057040E94020AFDCF8BE00E949305C82FA2
:101DD000D0E0D76784E7E82E81E0F82E0CEF12E020
:101DE000ADCF61EC72E08EE494E00E9438096CE2C1
:101DF00071E080E090E00E94570458CFFC018827F2
:101E00009927E89421912032E9F3293010F02E30FF
:101E1000C8F32B3241F02D3239F4689404C00E948B
:101E20001C0F820F911D219120532A30C0F31EF404
:101E3000909581959F4F08957AE0979F902D879F69
:101E4000802D910D11240895A1E21A2EAA1BBB1B0F
:101E5000FD010DC0AA1FBB1FEE1FFF1FA217B30776
:101E6000E407F50720F0A21BB30BE40BF50B661F8C
:101E7000771F881F991F1A9469F760957095809550
:101E800090959B01AC01BD01CF010895EE0FFF1F9E
:101E9000881F8BBF0790F691E02D1994FB01DC01A0
:101EA0008D91019080190110D9F3990B0895FB01D0
:101EB000DC014150504030F08D910190801919F4AF
:101EC0000020B9F7881B990B0895F894FFCF8089FB
:101ED0000489048904890489048904890489040023
:101EE000000000C5032F035C0312048D036B037F06
:101EF00003000000001205E5044105BB04DE04CB2D
:101F000004BC040D0A0068656C6C6F0048656C6C5D
:101F10006F20746F20796F7520746F6F210A0073C2
:101F2000656E64200041434B0A006461726B2000BF
:101F30006272696720007468726573682000496E78
:101F4000697469616C697A696E672073656E736F15
:101F5000722E2E2E00696E69746564204F4B2C2002
:101F600073656E736F72205049443A200050414EA1
:101F70004943212073656E736F7220696E69742006
:101F80006B65657073206661696C696E67210072AC
:0C1F900065747279696E672E2E2E0000B9
:10E000000D9489F10D94B2F10D94B2F10D94B2F129
:10E010000D94B2F10D94B2F10D94B2F10D94B2F1F0
:10E020000D94B2F10D94B2F10D94B2F10D94B2F1E0
:10E030000D94B2F10D94B2F10D94B2F10D94B2F1D0
:10E040000D94B2F10D94B2F10D94B2F10D94B2F1C0
:10E050000D94B2F10D94B2F10D94B2F10D94B2F1B0
:10E060000D94B2F10D94B2F10D94B2F10D94B2F1A0
:10E070000D94B2F10D94B2F10D94B2F10D94B2F190
:10E080000D94B2F10D94B2F10D94B2F10D94B2F180
:10E090000D94B2F10D94B2F10D94B2F10D94B2F170
:10E0A0000D94B2F10D94B2F10D94B2F10D94B2F160
:10E0B0000D94B2F10D94B2F10D94B2F10D94B2F150
:10E0C0000D94B2F10D94B2F10D94B2F10D94B2F140
:10E0D0000D94B2F10D94B2F10D94B2F10D94B2F130
:10E0E0000D94B2F141546D656761323536300041AF
:10E0F000726475696E6F206578706C6F72657220DE
:10E1000073746B3530305632206279204D4C530099
:10E11000426F6F746C6F616465723E004875683F52
:10E1200000436F6D70696C6564206F6E203D200048
:10E130004350552054797065202020203D20005FF9
:10E140005F4156525F415243485F5F3D2000415658
:10E1500052204C696243205665723D20004743437C
:10E160002056657273696F6E203D20004350552024
:10E1700049442020202020203D20004C6F7720663D
:10E18000757365202020203D20004869676820665F
:10E190007573652020203D200045787420667573D6
:10E1A00065202020203D20004C6F636B2066757336
:10E1B000652020203D20004D617220203720323024
:10E1C000313300312E362E3800342E332E350056A2
:10E1D00023202020414444522020206F7020636F70
:10E1E00064652020202020696E73747275637469E1
:10E1F0006F6E2061646472202020496E74657272B3
:10E20000757074006E6F20766563746F7200726A49
:10E210006D702020006A6D70200057686174207056
:10E220006F72743A00506F7274206E6F7420737541
:10E2300070706F72746564004D7573742062652030
:10E2400061206C6574746572002000577269747483
:10E25000696E672045450052656164696E672045B7
:10E26000450045452065727220636E743D00504F35
:10E27000525400303D5A65726F2061646472003FF1
:10E280003D43505520737461747300403D454550C3
:10E29000524F4D207465737400423D426C696E6B41
:10E2A000204C454400453D44756D70204545505215
:10E2B0004F4D00463D44756D7020464C415348001B
:10E2C000483D48656C70004C3D4C69737420492F83
:10E2D0004F20506F72747300513D51756974005234
:10E2E0003D44756D702052414D00563D73686F7707
:10E2F00020696E7465727275707420566563746FF0
:10E30000727300593D506F727420626C696E6B00BD
:10E310002A0011241FBECFEFD1E2DEBFCDBF01E046
:10E320000CBF12E0A0E0B2E0EEE1FDEF03E00BBFB6
:10E3300002C007900D92A030B107D9F712E0A0E01B
:10E34000B2E001C01D92AE30B107E1F70F9460F367
:10E350000D948DFE01E20EBF0FEF0DBF11241FBE05
:10E360000D9460F30D9400F020E030E040ED57E0B4
:10E3700005C0FA013197F1F72F5F3F4F2817390792
:10E38000C0F308959C01260F311DC901A0E0B0E043
:10E390002F5F3F4FABBFFC018791882361F08093D3
:10E3A000C6008091C00086FFFCCF8091C0008064D1
:10E3B0008093C000EACF08958DE08093C6008091DD
:10E3C000C00086FFFCCF8091C00080648093C000B5
:10E3D0008AE08093C6008091C00086FFFCCF8091C8
:10E3E000C00080648093C00008950F94C2F10F9420
:10E3F000DCF10895FC019081992359F09093C600B7
:10E400008091C00086FFFCCF8091C0008064809323
:10E41000C0003196992379F70895282F982F929567
:10E420009F70892F805D8A3308F0895F8093C600D2
:10E430008091C00086FFFCCF8091C00080648093F3
:10E44000C000822F8F70982F905D9A3308F0995FEB
:10E450009093C6008091C00086FFFCCF8091C000E1
:10E4600080648093C00008959C01FB01853691056E
:10E470001CF46330710594F0C90164E670E00F94F8
:10E480002EFE605D7F4F6093C6008091C00086FFC6
:10E49000FCCF8091C00080648093C0002B30310598
:10E4A00014F43297B4F0C90164E670E00F942EFEC4
:10E4B0006AE070E00F942EFE605D7F4F6093C600AF
:10E4C0008091C00086FFFCCF8091C0008064809363
:10E4D000C000C9016AE070E00F942EFEC0968093E0
:10E4E000C6008091C00086FFFCCF8091C000806490
:10E4F0008093C00008951F93182F8EE692EE60E07F
:10E500000F94C2F11093C6008091C00086FFFCCF2B
:10E510008091C00080648093C0000F94DCF11F9153
:10E5200008952F923F924F925F926F927F928F92B7
:10E530009F92AF92BF92CF92DF92EF92FF920F9392
:10E540001F93DF93CF93CDB7DEB762970FB6F894E2
:10E55000DEBF0FBECDBF382E622ECA01DB015C01CB
:10E560006D01772420E2222E2E010894411C511CBB
:10E570008BC081E0A81680E0B80681E0C80680E084
:10E58000D80628F0C601AA27BB270F940DF2BB2797
:10E59000AD2D9C2D8B2D0F940DF28A2D0F940DF225
:10E5A0002092C6008091C00086FFFCCF8091C00001
:10E5B00080648093C0009DE29093C6008091C0006B
:10E5C00086FFFCCF8091C00080648093C0002092C1
:10E5D000C6008091C00086FFFCCF8091C00080649F
:10E5E0008093C00019828601750188249924A1E0D6
:10E5F0003A1651F03A1620F0B2E03B1661F409C029
:10E600000BBFF701779007C0C7010F9477FE782EF4
:10E6100002C0F7017080872D0F940DF22092C60082
:10E620008091C00086FFFCCF8091C0008064809301
:10E63000C000872D8052F401EF70F0708F3520F408
:10E64000E40DF51D708204C0E40DF51D8EE280839B
:10E650000894E11CF11C011D111D0894811C911CE2
:10E6600090E18916910409F0C2CF80E190E0A0E02A
:10E67000B0E0A80EB91ECA1EDB1E198AC2010F9493
:10E68000FAF10F94DCF16A94662009F072CF629679
:10E690000FB6F894DEBF0FBECDBFCF91DF911F91B3
:10E6A0000F91FF90EF90DF90CF90BF90AF909F9031
:10E6B0008F907F906F905F904F903F902F90089534
:10E6C0002F923F924F925F926F927F928F929F9282
:10E6D000AF92BF92CF92DF92EF92FF920F931F9370
:10E6E000DF93CF93CDB7DEB7CD53D1400FB6F894BB
:10E6F000DEBF0FBECDBF01E20EBF0FEF0DBF94B75F
:10E70000F894A89514BE80916000886180936000A1
:10E7100010926000789493FF05C0E0910002F091A0
:10E7200001021995279A2F9A8091C00082608093E8
:10E73000C00080E18093C40088E18093C1000000A4
:10E74000EE24FF24870144E0A42EB12CCC24DD2448
:10E7500024C0C5010197F1F70894E11CF11C011DCB
:10E76000111D21E2E2162EE4F20620E0020720E06D
:10E77000120718F031E0C32ED12CC801B70127ECE5
:10E780003BE140E050E00F9441FE611571058105C9
:10E79000910519F485B1805885B98091C00087FD35
:10E7A00003C0C114D104A9F2A6014F5F5F4FC25E3E
:10E7B000DE4F59834883CE51D140C25EDE4F8881FF
:10E7C0009981CE51D140019711F00D9410FEC05D9A
:10E7D000DE4F19821882C053D14060E0C15DDE4F28
:10E7E0001882CF52D14088249924C35DDE4F19820C
:10E7F0001882CD52D140C05EDE4F188219821A8233
:10E800001B82C052D140CE5CDE4F188219821A8220
:10E810001B82C253D140EE24FF2487010BBFF701B6
:10E8200007911691C45CDE4F19830883CC53D14005
:10E830000D940BFEC25EDE4F28813981CE51D1404E
:10E840002130310509F52091C600C25EDE4F1982E4
:10E850001882CE51D14022C02F5F3F4F4F4F5F4FA4
:10E86000213082E138078AE7480780E0580780F0C6
:10E87000C45CDE4FE881F981CC53D140EF5FFF4F9C
:10E8800019F0EE27FF27099420E030E040E050E047
:10E890008091C00087FFE0CF2091C600C35DDE4FAE
:10E8A00048815981CD52D1404F5F5F4FC35DDE4FEC
:10E8B00059834883CD52D140213209F063C64A3092
:10E8C000510508F05FC60894811C911C53E0851621
:10E8D000910409F059C600E010E018C081E280936D
:10E8E000C6008091C00086FFFCCF8091C00080648C
:10E8F0008093C0002F5F3F4F2931310579F70F9486
:10E90000DCF10F5F1F4F0530110519F020E030E0FA
:10E91000E5CF10920A0210920B0210920C02109294
:10E920000D02109206021092070210920802109235
:10E930000902109202021092030210920402109235
:10E9400005028FEE90EE60E00F94F5F180E191EE1C
:10E9500060E00F94C2F18091C00087FFFCCF9091DE
:10E96000C600903608F09F759032B8F09093C600BC
:10E970008091C00086FFFCCF8091C00080648093AE
:10E98000C000A0E2A093C6008091C00086FFFCCF2B
:10E990008091C00080648093C000983409F4D7C18E
:10E9A0009934B8F4923409F459C1933458F490333B
:10E9B00019F1903308F4E3C59F33A1F1903409F0C5
:10E9C000DEC5BDC0953409F470C1963409F0D7C5D1
:10E9D00098C1923509F42BC2933538F49C3409F46C
:10E9E000F5C1913509F0CBC518C2963509F445C279
:10E9F000993509F0C4C567C483E792EE62E00F94CD
:10EA0000F5F110920602109207021092080210927D
:10EA1000090210920A0210920B0210920C0210923C
:10EA20000D0213C18FE792EE62E00F94F5F18FEEC5
:10EA300090EE60E00F94F5F181E291EE60E00F94CA
:10EA4000C2F187EB91EE60E00F94F5F180E391EE77
:10EA500060E00F94C2F184EE90EE60E00F94F5F167
:10EA60008FE391EE60E00F94C2F186E090E061E008
:10EA700070E00F9434F20F94DCF18DE591EE60E0DC
:10EA80000F94C2F189EC91EE60E00F94F5F18EE401
:10EA900091EE60E00F94C2F183EC91EE60E00F9490
:10EAA000F5F18CE691EE60E00F94C2F18EE10F94E7
:10EAB0000DF288E90F940DF281E00F940DF20F949E
:10EAC000DCF18BE791EE60E00F94C2F119E0E0E039
:10EAD000F0E010935700E4918E2F0F940DF20F94F5
:10EAE000DCF18AE891EE60E00F94C2F1E3E0F0E03F
:10EAF00010935700E4918E2F0F940DF20F94DCF1D8
:10EB000089E991EE60E00F94C2F1E2E0F0E0109349
:10EB10005700E4918E2F0F940DF20F94DCF188EAE8
:10EB200091EE60E00F94C2F1E1E0F0E01093570045
:10EB30001491812F0F940DF20F94DCF107CF8BE825
:10EB400092EE62E00F94F5F18BE492EE60E00F94A8
:10EB5000F5F10F94DCF100E010E019C0C8016F2D51
:10EB60000F947FFEFF2031F489E492EE60E00F9471
:10EB7000C2F10BC0F092C6008091C00086FFFCCFAE
:10EB80008091C00080648093C0000F5F1F4FC80158
:10EB900081519F41A0E0B0E0ABBFFC01F790BAE229
:10EBA000FB1621F0E2E000301E07C1F60F94DCF105
:10EBB0000F94DCF187E592EE60E00F94F5F10F948D
:10EBC000DCF1CC24DD2400E010E01EC0C8010F946D
:10EBD00077FEF82E882331F489E492EE60E00F94FA
:10EBE000C2F10BC08093C6008091C00086FFFCCFAD
:10EBF0008091C00080648093C000FE1419F00894D6
:10EC0000C11CD11C0F5F1F4FC80181519F41A0E063
:10EC1000B0E0ABBFFC01E790FAE2EF1621F022E092
:10EC20000030120799F60F94DCF10F94DCF182E6C4
:10EC300092EE60E00F94C2F1C60161E070E00F94C3
:10EC400034F20F94DCF10F94DCF110920202109276
:10EC50000302109204021092050278CE89E992EE26
:10EC600062E00F94F5F1279A2F9A16C02F9880E052
:10EC700090E0E0EDF7E03197F1F7019684369105E9
:10EC8000C1F72F9A80E090E0E0EDF7E03197F1F7DF
:10EC9000019684369105C1F78091C00087FFE6CFC9
:10ECA0008091C00087FFFCCF64C485EA92EE62E0E9
:10ECB0000F94F5F140910202509103026091040219
:10ECC0007091050281E020E10F9491F2809102029F
:10ECD00090910302A0910402B091050280509F4FD1
:10ECE000AF4FBF4F8093020290930302A0930402A0
:10ECF000B093050280509041A040B04008F426CE69
:10ED0000A4CF83EB92EE62E00F94F5F140910602FE
:10ED100050910702609108027091090280E020E1A1
:10ED20000F9491F28091060290910702A09108023F
:10ED3000B091090280509F4FAF4FBF4F80930602A2
:10ED400090930702A0930802B0930902FFCD80ECD4
:10ED500092EE62E00F94F5F183E792EE60E00F949B
:10ED6000F5F18FE792EE60E00F94F5F18BE892EE0B
:10ED700060E00F94F5F189E992EE60E00F94F5F10F
:10ED800085EA92EE60E00F94F5F183EB92EE60E09D
:10ED90000F94F5F180EC92EE60E00F94F5F187ECC2
:10EDA00092EE60E00F94F5F188ED92EE60E00F9442
:10EDB000F5F18FED92EE60E00F94F5F18AEE92EEB0
:10EDC00060E00F94F5F183E093EEBDCD87EC92EE19
:10EDD00062E00F94F5F181E40F947BF282E40F94EA
:10EDE0007BF283E40F947BF284E40F947BF285E45E
:10EDF0000F947BF286E40F947BF287E40F947BF20E
:10EE000088E40F947BF28AE40F947BF28BE40F94F6
:10EE10007BF28CE40F947BF299CD88ED92EE62E068
:10EE20000F94F5F1772473948824992409C48FED05
:10EE300092EE62E00F94F5F140910A0250910B02BC
:10EE400060910C0270910D0282E020E10F9491F22A
:10EE500080910A0290910B02A0910C02B0910D02D8
:10EE600080509F4FAF4FBF4F80930A0290930B0289
:10EE7000A0930C02B0930D0269CD8AEE92EE62E08F
:10EE80000F94F5F184EE90EE60E00F94F5F18FECC5
:10EE900091EE60E00F94F5F1662477244301CC5D98
:10EEA000DE4F19821882C452D140D401C301B695F5
:10EEB000A79597958795CA5DDE4F88839983AA8326
:10EEC000BB83C652D140CC5DDE4FA881B981C4520C
:10EED000D1401196CC5DDE4FB983A883C452D14096
:10EEE000CD0162E070E00F9434F2B0E2B093C6005E
:10EEF0008091C00086FFFCCF8091C0008064809329
:10EF0000C000EDE2E093C6008091C00086FFFCCF18
:10EF10008091C00080648093C000F0E2F093C6004E
:10EF20008091C00086FFFCCF8091C00080648093F8
:10EF3000C000CA5DDE4FE880F9800A811B81C6529D
:10EF4000D140BB27A12F902F8F2D0F940DF2CA5DBA
:10EF5000DE4F8881C652D1400F940DF2B0E2FB2EF5
:10EF6000F092C6008091C00086FFFCCF8091C00067
:10EF700080648093C0000DE30093C6008091C000C0
:10EF800086FFFCCF8091C00080648093C00010E2B7
:10EF90001093C6008091C00086FFFCCF8091C00016
:10EFA00080648093C0008BBEF3012791C65DDE4F65
:10EFB0002883CA52D140A22EBB24CC24DD2408943D
:10EFC000611C711C811C911C8BBEF3018791282E42
:10EFD0003324442455240894611C711C811C911C09
:10EFE0008BBEF3013791C55DDE4F3883CB52D140E4
:10EFF0000894611C711C811C911C8BBEF30147910C
:10F00000C45DDE4F4883CC52D140ADEFEA2EAFEF66
:10F01000FA2EAFEF0A2FAFEF1A2F6E0C7F1C801E57
:10F02000911E142D032DF22CEE24EA0CFB1C0C1D5A
:10F030001D1D0F940DF220E22093C6008091C000A8
:10F0400086FFFCCF8091C00080648093C000C65DC5
:10F05000DE4F8881CA52D1400F940DF230E23093D6
:10F06000C6008091C00086FFFCCF8091C000806404
:10F070008093C000C45DDE4F8881CC52D1400F9494
:10F080000DF240E24093C6008091C00086FFFCCFA5
:10F090008091C00080648093C000C55DDE4F888190
:10F0A000CB52D1400F940DF250E25093C6008091A4
:10F0B000C00086FFFCCF8091C00080648093C000B8
:10F0C0008FEFE8168FEFF80680E0080780E018075A
:10F0D00031F484E092EE60E00F94C2F1DFC0D80119
:10F0E000C7018070907CA070B0708050904CA040A0
:10F0F000B040D1F52FEF3FE340E050E0E222F322B1
:10F1000004231523CA5DDE4FA880B980CA80DB8046
:10F11000C652D140AE0CBF1CC01ED11EAA0CBB1CD7
:10F12000CC1CDD1C8EE092EE60E00F94C2F1BB2798
:10F13000A12F902F8F2D0F940DF28E2D0F940DF285
:10F1400030E23093C6008091C00086FFFCCF8091F2
:10F15000C00080648093C0004EE34093C60080915D
:10F16000C00086FFFCCF87C08EE09EEFA0E0B0E03D
:10F17000E822F9220A231B239CE0E91694E9F90608
:10F1800090E0090790E0190709F088C0C45DDE4FE0
:10F19000A881CC52D140EA2EFF2400E010E0102FCD
:10F1A0000F2DFE2CEE24C55DDE4FB881CB52D14031
:10F1B000EB0EF11C011D111DD601C501817090706F
:10F1C000A070B070DC0199278827E80EF91E0A1F8D
:10F1D0001B1F20EF30E040E050E0A222B322C42207
:10F1E000D52241E1AA0CBB1CCC1CDD1C4A95D1F7F1
:10F1F000EA0CFB1C0C1D1D1D81E090E0A0E0B0E0BE
:10F20000282239224A225B2235E1220C331C441C7D
:10F21000551C3A95D1F7E20CF31C041D151D57013E
:10F220006801AA0CBB1CCC1CDD1C85E192EE60E0E1
:10F230000F94C2F1C801AA27BB270F940DF2BB2778
:10F24000A12F902F8F2D0F940DF28E2D0F940DF274
:10F2500090E29093C6008091C00086FFFCCF809121
:10F26000C00080648093C000AEE3A093C60080918C
:10F27000C00086FFFCCF8091C00080648093C000F6
:10F28000C601AA27BB270F940DF2BB27AD2D9C2DDD
:10F290008B2D0F940DF28A2D0F940DF20F94DCF14B
:10F2A000CC5DDE4FE881F981C452D140F99709F471
:10F2B0004DCBF4E0EF2EF12C012D112D6E0C7F1CA7
:10F2C000801E911EF2CD83E093EE62E00F94F5F183
:10F2D0008AE192EE60E00F94C2F18091C00087FF56
:10F2E000FCCF1091C6001F751093C6008091C0001E
:10F2F00086FFFCCF8091C00080648093C0000F9493
:10F30000DCF1812F81548A3108F036C1163409F4BA
:10F3100095C0173490F4133409F44EC0143430F40B
:10F320001134F1F0123409F01DC130C0143409F465
:10F3300059C0153409F016C16BC01A3409F4C4C0A1
:10F340001B3438F4173409F48FC0183409F00AC19B
:10F35000A1C01B3409F4D2C01C3409F003C1E8C0B9
:10F360008FEF81B90DC082B1809582B980E090E0C5
:10F37000E0EDF7E03197F1F70196883C9105C1F790
:10F380008091C00087FFEFCF12B8EFC08FEF84B934
:10F390000DC085B1809585B980E090E0E0EDF7E0A3
:10F3A0003197F1F70196883C9105C1F78091C00033
:10F3B00087FFEFCF15B8D9C08FEF87B90DC088B1DF
:10F3C000809588B980E090E0E0EDF7E03197F1F7C3
:10F3D0000196883C9105C1F78091C00087FFEFCF6F
:10F3E00018B8C3C08FEF8AB90DC08BB180958BB9A7
:10F3F00080E090E0E0EDF7E03197F1F70196883C8E
:10F400009105C1F78091C00087FFEFCF1BB8ADC059
:10F410008FEF8DB90DC08EB180958EB980E090E0F0
:10F42000E0EDF7E03197F1F70196883C9105C1F7DF
:10F430008091C00087FFEFCF1EB897C08FEF80BBD1
:10F440000DC081B3809581BB80E090E0E0EDF7E0F6
:10F450003197F1F70196883C9105C1F78091C00082
:10F4600087FFEFCF11BA81C08FEF83BB0DC084B38C
:10F47000809584BB80E090E0E0EDF7E03197F1F714
:10F480000196883C9105C1F78091C00087FFEFCFBE
:10F4900014BA6BC08FEF809301010FC080910201FD
:10F4A00080958093020180E090E0E0EDF7E03197F5
:10F4B000F1F70196883C9105C1F78091C00087FF64
:10F4C000EDCF1092020151C08FEF809304010FC065
:10F4D0008091050180958093050180E090E0E0ED4A
:10F4E000F7E03197F1F70196883C9105C1F78091DB
:10F4F000C00087FFEDCF1092050137C08FEF8093DA
:10F5000007010FC08091080180958093080180E079
:10F5100090E0E0EDF7E03197F1F70196883C910536
:10F52000C1F78091C00087FFEDCF109208011DC088
:10F530008FEF80930A010FC080910B01809580931B
:10F540000B0180E090E0E0EDF7E03197F1F70196F4
:10F55000883C9105C1F78091C00087FFEDCF1092E4
:10F560000B0103C085E292EEEEC98091C00087FFD7
:10F57000FCCF8091C600EAC988E392EEE4C98CE131
:10F5800091EEE1C988249924933011F1943028F444
:10F59000913089F09230B8F408C0953061F195301F
:10F5A000F0F0963009F048C043C02B3109F042C951
:10F5B00091E06BE13FC96227C15DDE4F2883CF52E6
:10F5C000D14092E037C9B22FA0E0622793E032C960
:10F5D000822F90E0A82BB92B622794E02BC92E3004
:10F5E00009F039C3622795E0C05DDE4F19821882A9
:10F5F000C053D1401FC9E1E0F0E0EC0FFD1FC05D3A
:10F60000DE4F08811981C053D140E00FF11F2083E4
:10F610000F5F1F4FC05DDE4F19830883C053D14079
:10F6200062270A171B0709F005C9D80196E002C92D
:10F63000261709F010C303C0973009F0FBC87724E0
:10F640009981933109F412C19431C8F4963009F4C8
:10F65000D8C0973050F4923009F406C1933009F4C1
:10F660006DC0913009F059C253C0913109F477C08F
:10F67000923108F0BBC0903109F04FC2F5C098310B
:10F6800009F487C0993150F4953109F4EFC09531F0
:10F6900008F4C6C1963109F040C2C2C19A3109F4DA
:10F6A0006CC09A3108F491C09B3109F45BC09D3164
:10F6B00009F033C29D81903359F48F81882311F46E
:10F6C0009EE11CC0813011F091E018C098E916C08D
:10F6D000892F807591F0903539F4E0E0F0E089E011
:10F6E0008093570094910AC0983539F4E3E0F0E034
:10F6F00089E080935700949101C090E01A821B82A8
:10F700008D818C831D829E831F8227E030E009C299
:10F710001A8288E08B8381E48C8386E58D8382E581
:10F720008E8389E48F8383E5888780E589878FE5E9
:10F730008A8782E38B872BE030E0F3C18A818139AD
:10F7400041F0823941F0803911F48FE005C080E04A
:10F7500003C082E001C08AE01A828B8344C0772410
:10F76000739482C08D81882311F48EE12CC0813086
:10F7700011F081E028C088E926C01A82E1E0F0E0BB
:10F7800089E08093570084918B831C8224E030E0D1
:10F79000C8C18B81803589F48C81883039F4E2E0EE
:10F7A000F0E089E08093570084910DC0E0E0F0E044
:10F7B00089E080935700849106C0E3E0F0E089E09F
:10F7C0008093570084911A82DFCF8D81836C99E0FA
:10F7D000E1E0F0E0082E90935700E89507B600FCB2
:10F7E000FDCF1A821B8223E030E09BC180EC8A832C
:10F7F000CE5CDE4F188219821A821B82C253D1401E
:10F800008EC18A8190E0A0E0B0E0582F44273327D2
:10F8100022278B8190E0A0E0B0E0DC0199278827C7
:10F82000282B392B4A2B5B2B8D8190E0A0E0B0E098
:10F83000282B392B4A2B5B2B8C8190E0A0E0B0E089
:10F84000BA2FA92F982F8827282B392B4A2B5B2BCF
:10F85000220F331F441F551FC05EDE4F288339839C
:10F860004A835B83C052D1401A8259C13A81C95C34
:10F87000DE4F3883C753D140CA5CDE4F1882C6536F
:10F88000D1408B81C82EDD24CA5CDE4F488159816E
:10F89000C653D140C42AD52A933109F082C0CE5C28
:10F8A000DE4F88819981AA81BB81C253D1408050AB
:10F8B000904CA340B04030F583E0CE5CDE4FE88052
:10F8C000F9800A811B81C253D140F70100935B008C
:10F8D00080935700E89507B600FCFDCFCE5CDE4F65
:10F8E000088119812A813B81C253D14000501F4FAA
:10F8F0002F4F3F4FCE5CDE4F088319832A833B8313
:10F90000C253D140C05EDE4F488159816A817B81FC
:10F91000C052D140DE011B9631E08C9111962C91A2
:10F9200011971296C75CDE4F2883C953D140C85C3B
:10F93000DE4F1882C853D14090E0C85CDE4FE881AA
:10F94000F981C853D1408E2B9F2B0C01FA01609393
:10F950005B0030935700E89511244E5F5F4F6F4F67
:10F960007F4F0EEFE02E0FEFF02ECE0CDF1CC114F8
:10F97000D10499F685E0C05EDE4F088119812A81A5
:10F980003B81C052D140F80120935B008093570027
:10F99000E89507B600FCFDCF81E180935700E8951C
:10F9A00035C0C05EDE4F88819981AA81BB81C0527B
:10F9B000D140B695A795979587957C018601ABE0D8
:10F9C000AA2EB12CAC0EBD1E0BC0D5016D915D01F0
:10F9D000C7010F947FFE0894E11CF11C01501040F8
:10F9E0000115110591F7A60160E070E0440F551F65
:10F9F000661F771FC05EDE4FE880F9800A811B8199
:10FA0000C052D1404E0D5F1D601F711F1A82C05E33
:10FA1000DE4F488359836A837B83C052D1407FC0C5
:10FA2000FA80C55CDE4FF882CB53D140C65CDE4F16
:10FA30001882CA53D1408B81C82EDD24C65CDE4FAC
:10FA400008811981CA53D140C02AD12A1A828981DA
:10FA5000BE016D5F7F4F843121F59601C05EDE4FA0
:10FA6000E880F9800A811B81C052D1400BBFF701A9
:10FA700087919691DB018C9311969C936E5F7F4FDB
:10FA8000D801C7010296A11DB11DC05EDE4F88835B
:10FA90009983AA83BB83C052D14022503040F1F6F3
:10FAA00036C0C05EDE4F288139814A815B81C052F9
:10FAB000D1400894C108D108760100E010E0089414
:10FAC000C11CD11C0894E11CF11C011D111DE20E8A
:10FAD000F31E041F151F21BDBB27A52F942F832FB5
:10FAE00082BD2F5F3F4F4F4F5F4FF89A80B5DB01CC
:10FAF0008D93BD012E153F054007510761F7C05E8C
:10FB0000DE4F288339834A835B83C052D1409601FC
:10FB10002D5F3F4FFB01108204C080EC8A8322E0FE
:10FB200030E08BE18093C6008091C00086FFFCCF5F
:10FB30008091C00080648093C000C15DDE4FF88179
:10FB4000CF52D140F093C6008091C00086FFFCCF19
:10FB50008091C00080648093C000432F3093C60022
:10FB60008091C00086FFFCCF8091C00080648093AC
:10FB7000C000922F2093C6008091C00086FFFCCF6A
:10FB80008091C00080648093C0008EE08093C600A6
:10FB90008091C00086FFFCCF8091C000806480937C
:10FBA000C00065E1C15DDE4FE880CF52D1406E25D7
:10FBB00069276427FE01319610C090819093C6009A
:10FBC0008091C00086FFFCCF31968091C000806498
:10FBD0008093C0006927215030402115310569F715
:10FBE0006093C6008091C00086FFFCCF8091C0006A
:10FBF00080648093C00085B1805885B9772081F4F6
:10FC0000C15DDE4F0881CF52D1400F5FC15DDE4F35
:10FC10000883CF52D14090E0A0E0B0E00D941AF4F8
:10FC200027982F9880E090E020ED37E0F901319798
:10FC3000F1F7019684369105C9F700008091C00064
:10FC40008D7F8093C00081E180935700E895EE2777
:10FC5000FF270994FFCF90E00D941AF497FB092E2B
:10FC600007260AD077FD04D02ED006D000201AF443
:10FC7000709561957F4F0895F6F7909581959F4F08
:10FC80000895A1E21A2EAA1BBB1BFD010DC0AA1FDD
:10FC9000BB1FEE1FFF1FA217B307E407F50720F0F5
:10FCA000A21BB30BE40BF50B661F771F881F991F70
:10FCB0001A9469F760957095809590959B01AC01B9
:10FCC000BD01CF010895AA1BBB1B51E107C0AA1FAC
:10FCD000BB1FA617B70710F0A61BB70B881F991FED
:10FCE0005A95A9F780959095BC01CD010895F99991
:10FCF000FECF92BD81BDF89A992780B50895262F31
:10FD0000F999FECF1FBA92BD81BD20BD0FB6F89400
:0EFD1000FA9AF99A0FBE01960895F894FFCF63
:00000001FF
