:100000000C9462000C948A000C948A000C948A0070
:100010000C948A000C948A000C948A000C948A0038
:100020000C948A000C948A000C948A000C948A0028
:100030000C948A000C948A000C948A000C948A0018
:100040000C94B4020C948A000C9482020C945C020E
:100050000C948A000C948A000C948A000C948A00F8
:100060000C948A000C948A00000000080002010031
:100070000003040700000000000000000000000072
:1000800023002600290000000000250028002B0086
:1000900000000000240027002A00040404040404D3
:1000A0000404020202020202030303030303010227
:1000B00004081020408001020408102001020408F6
:1000C0001020430311241FBECFEFD8E0DEBFCDBF09
:1000D00011E0A0E0B1E0EEE0FFE002C005900D927B
:1000E000A232B107D9F721E0A2E2B1E001C01D922E
:1000F000AC3CB207E1F710E0C2E6D0E004C02197C3
:10010000FE010E947A07C136D107C9F70E94D103C8
:100110000C9485070C940000CF92DF92EF92FF922F
:100120000F931F93CF93DF936C017A018B01C0E093
:10013000D0E0CE15DF0589F0D8016D918D01D60193
:10014000ED91FC910190F081E02DC6010995892B7C
:1001500011F47E0102C02196ECCFC701DF91CF914F
:100160001F910F91FF90EF90DF90CF900895089529
:1001700080E090E00895FC01538D448D252F30E000
:10018000842F90E0821B930B541710F0CF960895A4
:1001900001970895FC01918D828D981761F0828DF1
:1001A000DF01A80FB11D5D968C91928D9F5F9F73AB
:1001B000928F90E008958FEF9FEF0895FC01918D4D
:1001C000828D981731F0828DE80FF11D858D90E0BA
:1001D00008958FEF9FEF0895FC01918D228D892F57
:1001E00090E0805C9F4F821B91098F73992708953F
:1001F0008BE291E00E94EC0021E0892B09F420E0E1
:10020000822F0895FC01848DDF01A80FB11DA35A30
:10021000BF4F2C91848D90E001968F739927848F26
:10022000A689B7892C93A089B1898C9180648C931D
:10023000938D848D981306C00288F389E02D808108
:100240008F7D80830895EF92FF920F931F93CF933A
:10025000DF93EC0181E0888F9B8D8C8D981305C016
:10026000E889F989808185FD24C0F62E0B8D10E088
:100270000F5F1F4F0F731127E02E8C8DE8120CC0FB
:100280000FB607FCFACFE889F989808185FFF5CFA1
:10029000CE010E940201F1CF8B8DFE01E80FF11D0E
:1002A000E35AFF4FF0820B8FEA89FB8980818062DD
:1002B00007C0EE89FF896083E889F98980818064BD
:1002C000808381E090E0DF91CF911F910F91FF90AB
:1002D000EF900895CF93DF93EC01888D8823C9F0C8
:1002E000EA89FB89808185FD05C0A889B9898C913F
:1002F00086FD0FC00FB607FCF5CF808185FFF2CFDA
:10030000A889B9898C9185FFEDCFCE010E940201A9
:10031000E7CFDF91CF91089580E090E0892B29F01D
:100320000E94F80081110C940000089590E0FC01F7
:10033000E859FF4F3491FC01E255FF4F2491FC0135
:10034000E656FF4FE491EE2309F43BC0332339F125
:10035000333091F038F43130A9F0323001F584B502
:100360008F7D12C0373091F03830A1F03430B9F4BD
:10037000809180008F7D03C0809180008F77809373
:1003800080000DC084B58F7784BD09C08091B00016
:100390008F7703C08091B0008F7D8093B000F0E034
:1003A000EE0FFF1FEA57FF4FA591B4918FB7F89456
:1003B000EC91611103C020952E2301C02E2B2C93AC
:1003C0008FBF08953FB7F89480912701909128013D
:1003D000A0912901B0912A0126B5A89B05C02F3F05
:1003E00019F00196A11DB11D3FBFBA2FA92F982F5B
:1003F0008827820F911DA11DB11DBC01CD0142E0D6
:10040000660F771F881F991F4A95D1F708950097A7
:1004100069F0FC0101900020E9F73197AF01481B1A
:10042000590BBC018BE291E00C948C0080E090E0D1
:1004300008958F929F92AF92BF920F931F93CF9385
:10044000DF93CDB7DEB7A1970FB6F894DEBF0FBE2E
:10045000CDBF19A2423008F44AE08E010F5D1F4F54
:10046000842E912CA12CB12CA50194010E94580737
:10047000E62FB901CA0101501109EA3014F4E05D18
:1004800001C0E95CD801EC93232B242B252B61F7C9
:10049000C8010E940702A1960FB6F894DEBF0FBEF6
:1004A000CDBFDF91CF911F910F91BF90AF909F90E3
:1004B0008F9008950E9480071F920F920FB60F929F
:1004C00011242F933F934F935F936F937F938F9359
:1004D0009F93AF93BF93EF93FF938BE291E00E94C2
:1004E0000201FF91EF91BF91AF919F918F917F9109
:1004F0006F915F914F913F912F910F900FBE0F9091
:100500001F9018951F920F920FB60F9211242F93E0
:100510008F939F93EF93FF93E0913B01F0913C0108
:100520008081E0914101F091420182FD12C09081F1
:10053000809144018F5F8F7320914501821751F0A4
:10054000E0914401F0E0E55DFE4F958F809344011A
:1005500001C08081FF91EF919F918F912F910F901A
:100560000FBE0F901F9018951F920F920FB60F920B
:1005700011242F933F938F939F93AF93BF938091B9
:10058000230190912401A0912501B0912601309181
:10059000220123E0230F2D3720F40196A11DB11D68
:1005A00005C026E8230F0296A11DB11D209322014C
:1005B0008093230190932401A0932501B0932601F9
:1005C0008091270190912801A0912901B0912A01E1
:1005D0000196A11DB11D8093270190932801A0933E
:1005E0002901B0932A01BF91AF919F918F913F91C3
:1005F0002F910F900FBE0F901F901895CF92DF9202
:10060000EF92FF920F931F93E82FF92F05C001502F
:1006100011092109310961F1908196239417B9F3E9
:1006200005C0015011092109310911F1908196236A
:100630009413F7CFC12CD12CE12CF12C0AC08FEFF1
:10064000C81AD80AE80AF80A0C151D052E053F0538
:1006500079F080818623841791F36C2D7D2D8E2D6A
:100660009F2D1F910F91FF90EF90DF90CF900895F5
:1006700060E070E080E090E01F910F91FF90EF90BC
:10068000DF90CF900895CF93DF9310922E011092B8
:100690002D0188EE93E0A0E0B0E080932F019093CD
:1006A0003001A0933101B093320184E091E0909346
:1006B0002C0180932B0185EC90E09093380180937E
:1006C000370184EC90E090933A018093390180ECFB
:1006D00090E090933C0180933B0181EC90E09093FB
:1006E0003E0180933D0182EC90E090934001809325
:1006F0003F0186EC90E0909342018093410110927B
:10070000440110924501109246011092470187E082
:1007100090E09093C9018093C80188E090E09093A5
:10072000CB018093CA01E5EBF0E02491E1EAF0E02F
:100730008491882399F090E0880F991FFC01E0577D
:10074000FF4FA591B491FC01EA57FF4F8591949119
:100750008FB7F894EC91E22BEC938FBFE6EBF0E0CF
:100760002491E2EAF0E084918823C1F090E0880FC0
:10077000991FFC01E057FF4FC591D491FC01EA5746
:10078000FF4FA591B4919FB7F8948881E22FE0952F
:100790008E2388838C91E823EC939FBFDF91CF91C8
:1007A0000895789484B5826084BD84B5816084BDE9
:1007B00085B5826085BD85B5816085BD80916E00FF
:1007C000816080936E001092810080918100826030
:1007D000809381008091810081608093810080916D
:1007E00080008160809380008091B100846080935C
:1007F000B1008091B00081608093B00080917A0058
:10080000846080937A0080917A00826080937A007D
:1008100080917A00816080937A0080917A0080686C
:1008200080937A001092C100E0913B01F0913C016D
:1008300082E08083E0913701F09138011082E091ED
:100840003901F0913A018FEC808310924301E091DD
:100850003F01F091400186E08083E0913D01F091FD
:100860003E01808180618083E0913D01F0913E01F5
:10087000808188608083E0913D01F0913E0180811C
:1008800080688083E0913D01F0913E0180818F7D01
:100890008083C3E0D0E033E2E32EF12C60E080916E
:1008A000C8010E949601CE010197F1F761E08091A5
:1008B000C8010E949601C7010197F1F760E080919D
:1008C000C8010E9496018091CA019091CB0199279D
:1008D000FC01E255FF4F6491FC01E656FF4FE491A5
:1008E000F0E0EE0FFF1FE458FF4F8591949100E474
:1008F00012E42FE030E0462F0E94FE0261157105E0
:100900008105910549F0DC01CB010196A11DB11DC6
:10091000BC01CD019F7003C060E070E0CB010E947C
:100920002F0620E030E040E05FE30E94E60628E288
:100930003EE74CE05DE30E94E6064B015C0120E0EF
:1009400030E0A9010E94FB058823A9F020E030E0F7
:1009500048EC53E4C501B4010E94E10618165CF0AE
:10096000A5019401C501B4010E945307882349F0F1
:1009700082E191E020C0812C912C90E8A92E9FEB80
:10098000B92E24013501E89477F82FEF3FEF4FE7B8
:100990005FE7C301B2010E94530781110FC02FEF1F
:1009A0003FEF4FE75FE7C301B2010E94FB05181656
:1009B0002CF486E191E00E94070282C02FEF3FEF06
:1009C0004FE75FE4C501B4010E94E10618161CF46C
:1009D0008AE191E0F0CF2FEF3FEF4FE75FECC501E9
:1009E000B4010E94FB0587FDF3CF20E030E0A901B0
:1009F000C501B4010E94FB0587FF0FC0E0912B01E8
:100A0000F0912C010190F081E02D6DE28BE291E0FC
:100A10000995B7FAB094B7F8B0942AE037ED43EAF5
:100A20005BE3C501B4010E948F052B013C010E94CC
:100A300000064B015C010E942F069B01AC01C30123
:100A4000B2010E948E052B013C014AE0C501B401B0
:100A50000E941902E0912B01F0912C010190F0818C
:100A6000E02D6EE28BE291E0099520E030E040E27B
:100A700051E4C301B2010E94E6062B013C010E9431
:100A800000064B01A12CB12C4AE0C501B4010E9423
:100A90001902C501B4010E942F069B01AC01C301DC
:100AA000B2010E948E0520E030E040E251E40E9455
:100AB000E6060E94000680E090E04AE00E941902EB
:100AC0008EE191E00E9407020E94E2012B013C01AD
:100AD00084EF882E99249394A12CB12C0E94E201DA
:100AE000DC01CB0184199509A609B709883E93401A
:100AF000A105B10558F021E0821A9108A108B108BA
:100B000088EE480E83E0581E611C711C811491040C
:100B1000A104B10419F70E948C01C0CE5058BB2724
:100B2000AA270E94A6050C94A7060E94990638F0F1
:100B30000E94A00620F039F49F3F19F426F40C948B
:100B400096060EF4E095E7FB0C949006E92F0E94C0
:100B5000B80658F3BA17620773078407950720F0A1
:100B600079F4A6F50C94DA060EF4E0950B2EBA2F64
:100B7000A02D0B01B90190010C01CA01A0011124A3
:100B8000FF27591B99F0593F50F4503E68F11A164F
:100B9000F040A22F232F342F4427585FF3CF4695E0
:100BA00037952795A795F0405395C9F77EF41F1602
:100BB000BA0B620B730B840BBAF09150A1F0FF0FCC
:100BC000BB1F661F771F881FC2F70EC0BA0F621FB8
:100BD000731F841F48F4879577956795B795F795A8
:100BE0009E3F08F0B0CF9395880F08F09927EE0F3D
:100BF0009795879508950E946C0608F481E0089502
:100C00000E94C00688F09F5798F0B92F9927B751D6
:100C1000B0F0E1F0660F771F881F991F1AF0BA95A0
:100C2000C9F714C0B13091F00E94DA06B1E008951E
:100C30000C94DA06672F782F8827B85F39F0B93F10
:100C4000CCF3869577956795B395D9F73EF4909553
:100C50008095709561957F4F8F4F9F4F0895E894D1
:100C600009C097FB3EF490958095709561957F4FF4
:100C70008F4F9F4F9923A9F0F92F96E9BB279395A2
:100C8000F695879577956795B795F111F8CFFAF4B2
:100C9000BB0F11F460FF1BC06F5F7F4F8F4F9F4FE3
:100CA00016C0882311F096E911C0772321F09EE841
:100CB000872F762F05C0662371F096E8862F70E0A7
:100CC00060E02AF09A95660F771F881FDAF7880F81
:100CD0009695879597F90895990F0008550FAA0BD7
:100CE000E0E8FEEF16161706E807F907C0F012163F
:100CF0001306E407F50798F0621B730B840B950B42
:100D000039F40A2661F0232B242B252B21F4089596
:100D10000A2609F4A140A6958FEF811D811D089533
:100D200097F99F6780E870E060E008959FEF80EC9E
:100D3000089500240A941616170618060906089541
:100D400000240A9412161306140605060895092EA7
:100D50000394000C11F4882352F0BB0F40F4BF2B16
:100D600011F460FF04C06F5F7F4F8F4F9F4F089556
:100D700057FD9058440F551F59F05F3F71F047954C
:100D8000880F97FB991F61F09F3F79F08795089531
:100D9000121613061406551FF2CF4695F1DF08C050
:100DA000161617061806991FF1CF8695710561056D
:100DB00008940895E894BB2766277727CB0197F915
:100DC00008950E946C0608F48FEF08950E94F906BA
:100DD0000C94A7060E94990638F00E94A00620F005
:100DE000952311F00C9490060C94960611240C9403
:100DF000DB060E94B80670F3959FC1F3950F50E093
:100E0000551F629FF001729FBB27F00DB11D639FBC
:100E1000AA27F00DB11DAA1F649F6627B00DA11D62
:100E2000661F829F2227B00DA11D621F739FB00D08
:100E3000A11D621F839FA00D611D221F749F332778
:100E4000A00D611D231F849F600D211D822F762F11
:100E50006A2F11249F5750409AF0F1F088234AF0EE
:100E6000EE0FFF1FBB1F661F771F881F915050405A
:100E7000A9F79E3F510580F00C9490060C94DB0678
:100E80005F3FE4F3983ED4F3869577956795B795E1
:100E9000F795E7959F5FC1F7FE2B880F911D9695FB
:100EA000879597F908950E946C06880B990B089511
:100EB000A1E21A2EAA1BBB1BFD010DC0AA1FBB1F5E
:100EC000EE1FFF1FA217B307E407F50720F0A21BD0
:100ED000B30BE40BF50B661F771F881F991F1A943D
:100EE00069F760957095809590959B01AC01BD0167
:100EF000CF010895EE0FFF1F0590F491E02D0994A6
:0E0F000081E090E0F8940C948507F894FFCF00
:100F0E000000000023018C00BB006A01EC00CA0047
:100F1E00DE006E616E00696E66006F7666000D0A09
:020F2E000000C1
:00000001FF
